:020000040800F2
:1000000000000824351600082D14000833140008D9
:10001000391400083F1400084514000800000000CF
:10002000000000000000000000000000C17900088E
:100030004B14000800000000117C0008996C0008B7
:100040008516000885160008851600088516000824
:100050008516000885160008851600088516000814
:100060008516000885160008851600088516000804
:1000700085160008851600088516000885160008F4
:1000800085160008851600088516000885160008E4
:1000900085160008851600088516000885160008D4
:1000A00085160008851600088516000885160008C4
:1000B00085160008851600088516000885160008B4
:1000C00085160008851600088516000885160008A4
:1000D0008516000885160008851600088516000894
:1000E0008516000885160008000000008516000827
:1000F0008516000885160008851600088516000874
:100100008516000885160008851600088516000863
:100110008516000885160008591400088516000881
:100120008516000885160008851600088516000843
:100130008516000885160008851600088516000833
:100140008516000885160008000000000000000069
:100150008516000885160008851600088516000813
:100160008516000885160008851600088516000803
:100170008516000885160008851600080000000096
:1001800085160008851600088516000885160008E3
:1001900085160008851600088516000885160008D3
:1001A0006D140008851600088114000885160008E3
:1001B00095140008851600088516000885160008A5
:1001C00085160008851600088516000885160008A3
:1001D0008516000885160008851600088516000893
:1001E0008516000885160008851600088516000883
:1001F0008516000885160008851600088516000873
:100200008516000885160008851600088516000862
:100210008516000885160008851600088516000852
:1002200085160008851600088516000800000000E5
:100230008516000885160008851600088516000832
:100240008516000885160008851600088516000822
:100250008516000885160008851600088516000812
:100260008516000885160008851600088516000802
:1002700085160008851600088516000885160008F2
:100280008516000885160008851600080000000085
:08029000851600088516000820
:1002A00010B5054C237833B9044B13B10448AFF3B0
:1002B00000800123237010BD2C01002400000000E9
:1002C0007C60020808B5034B1BB103490348AFF338
:1002D000008008BD00000000300100247C6002089E
:1002E00001F0FF01102A2BDB10F0070F08D010F8E7
:1002F000013B013A8B422DD010F0070F42B3F6D1EB
:10030000F0B441EA012141EA014122F007047FF003
:1003100000070023F0E80256083C85EA010586EA5A
:10032000010685FA47F5A3FA87F586FA47F6A5FA96
:1003300087F68EB9EED1F0BC01F0FF0102F00702A2
:1003400032B110F8013B013A83EA010313B1F8D14D
:100350000020704701387047002D06BF354603382E
:10036000073815F0010F07D1013015F4807F02BF67
:10037000013015F4C03F0130F0BC0138704700BFB8
:1003800080B584B000AF00F07FFB4C4B5B6903F499
:100390000033002B1BD1BFF34F8F00BFBFF36F8F14
:1003A00000BF464B0022C3F85022BFF34F8F00BF5F
:1003B000BFF36F8F00BF414B5B69404A43F400338A
:1003C0005361BFF34F8F00BFBFF36F8F00E000BFDB
:1003D0003A4B5B6903F48033002B38D1374B002252
:1003E000C3F88420BFF34F8F00BF344BD3F8803065
:1003F000FB60FB685B0BC3F30E03BB60FB68DB08B1
:10040000C3F309037B60BB685A0143F6E0731340F2
:100410007A68920729491343C1F860327B685A1EF3
:100420007A60002BEFD1BB685A1EBA60002BE5D171
:10043000BFF34F8F00BF214B5B69204A43F48033E9
:100440005361BFF34F8F00BFBFF36F8F00E000BF5A
:100450000CF02CFC00F042F8194BD3F8E030184AAD
:1004600043F00073C2F8E030154BD3F8E03003F0EE
:1004700000733B603B6800F007FA00F081F900F080
:10048000ADF900F0F9F800F0B7F800F0D7F801F096
:10049000FAF806F01BFC0B4A00210B4806F060FC42
:1004A00003460A4A13600A4A00210A4806F058FC2B
:1004B0000346094A136006F02DFCFEE700ED00E05C
:1004C00000440258B46D0208790A0008FC020024B6
:1004D000D86D0208931600080003002480B59CB074
:1004E00000AF07F124034C220021184624F0A2FD9E
:1004F0003B1D20220021184624F09CFD04200EF014
:100500006DFE00233B60394BDB6A384A23F0010360
:10051000D362364BDB6A03F001033B60344B9B69CB
:10052000334A43F440439361314B9B6903F44043A6
:100530003B603B6800BF2E4B9B6903F40053B3F54F
:10054000005FF8D12B4B9B6A23F00303294A43F049
:100550000203936203237B624FF48033BB62012367
:100560003B6340237B630223BB640223FB640523BC
:100570003B65A0237B650223BB650423FB65022347
:100580003B6608237B660023BB660023FB6607F1FE
:10059000240318460FF05EFD0346002B01D000F047
:1005A000BDFA3F237B600323BB600023FB6008236D
:1005B0003B6140237B614023BB614FF48063FB615F
:1005C00040233B623B1D0221184610F071F903469F
:1005D000002B01D000F0A2FA4FF48022002100206D
:1005E00010F01CFB00BF7037BD4680BD00040058F2
:1005F000004802580044025880B500AF0D4B0E4A27
:100600001A600C4B00221A710A4B00225A71094BD6
:1006100000225A61074B00229A61064B01221A629E
:1006200004480CF039FD0346002B01D000F076FAA7
:1006300000BF80BD48010024004C025880B500AFC7
:100640000B4B0C4A1A600A4B4FF440325A60084B6D
:1006500002229A60064B0022DA6005480CF006FE82
:100660000346002B01D000F059FA00BF80BD00BF47
:100670006C0100240010005280B58EB000AF00F075
:1006800053FA3B1D34220021184624F0D3FC3A4B88
:100690003A4A1A60384B00225A60374B00229A605F
:1006A000354B0022DA60344B00221A61324B28228B
:1006B0005A61314B09229A612F4B3522DA612E4B58
:1006C0000B221A622C4B40F215225A622A4B40F23E
:1006D0001B129A62284B40F23522DA62264B40F216
:1006E0001D121A63244B002283F83420224B00226F
:1006F00083F83520204B002283F836201E480EF068
:1007000071F80346002B01D000F008FA00237B604B
:100710004FF4F073BB600023FB604FF488733B61C0
:1007200002237B61FF23BB610023FB614FF48063E5
:100730003B6205237B624FF05043BB624FF4F07382
:10074000FB624FF488733B63002387F83430002347
:1007500087F83530002387F836303B1D00221946D4
:1007600005480EF0C7F90346002B01D000F0D6F97A
:1007700000BF3837BD4680BDD401002400100050B2
:1007800080B500AF124B134A1A60114B01225A6018
:100790000F4B01229A600E4B1022DA600C4B1A228A
:1007A0001A610B4B4FF400725A61094B00229A6197
:1007B000074B40221A6206480EF06AFD0346002BE2
:1007C00001D000F0ABF9044800F022FA00BF80BD70
:1007D0007C020024005000521D0B000880B588B038
:1007E00000AF3B1D00221A605A609A60DA601A61FD
:1007F0005A619A61214B224A1A60204B01225A60A9
:100800001E4B00229A601D4B0422DA601B4B102203
:100810001A611A4B40225A61184B4FF480729A6148
:10082000164B0022DA61154B4FF400621A62134B2B
:100830004FF480525A62114B00229A6202237B606D
:100840000623BB600423FB6006233B6102237B611C
:100850000223BB610223FB613B1D1946074811F0CF
:1008600009FD0346002B01D000F058F9054800F0BF
:10087000F0F900BF2037BD4680BD00BFC80200248C
:10088000404100521D0B000880B590B000AF07F149
:100890002C0300221A605A609A60DA601A61724B67
:1008A000D3F8E030704A43F48063C2F8E0306E4B16
:1008B000D3F8E03003F48063BB62BB6A6A4BD3F8C1
:1008C000E030694A43F04003C2F8E030664BD3F8A9
:1008D000E03003F040037B627B6A634BD3F8E03087
:1008E000614A43F48073C2F8E0305F4BD3F8E030E4
:1008F00003F480733B623B6A5B4BD3F8E0305A4AA7
:1009000043F01003C2F8E030574BD3F8E03003F067
:100910001003FB61FB69544BD3F8E030524A43F0BB
:100920000203C2F8E030504BD3F8E03003F002038A
:10093000BB61BB694C4BD3F8E0304B4A43F40073C6
:10094000C2F8E030484BD3F8E03003F400737B6129
:100950007B69454BD3F8E030434A43F00803C2F8C3
:10096000E030414BD3F8E03003F008033B613B69D2
:100970003D4BD3F8E0303C4A43F00103C2F8E0308D
:10098000394BD3F8E03003F00103FB60FB68364BD2
:10099000D3F8E030344A43F02003C2F8E030324B61
:1009A000D3F8E03003F02003BB60BB682E4BD3F8D4
:1009B000E0302D4A43F08003C2F8E0302A4BD3F8F0
:1009C000E03003F080037B607B680022C021274871
:1009D0000DF07AF80022082125480DF075F8002264
:1009E000402124480DF070F8C023FB6201233B63D3
:1009F00000237B630323BB6307F12C0319461B48C9
:100A00000CF0A8FD4FF48073FB6202233B630023CC
:100A10007B630023BB630023FB6307F12C031946B0
:100A200014480CF097FD0823FB6201233B6300236D
:100A30007B630323BB6307F12C0319460C480CF0BE
:100A400089FD4023FB6201233B6300237B63032377
:100A5000BB6307F12C03194606480CF07BFD00BF71
:100A60004037BD4680BD00BF004402580004025814
:100A7000001802580000025880B582B000AF7860BC
:100A8000012006F0FFF9FBE780B584B000AF3B46DC
:100A900000221A605A609A60DA600CF081FA012331
:100AA0003B7000237B704FF050437B6013233B72FD
:100AB00000237B720023BB720323FB7201233B7371
:100AC00000237B730123BB730123FB733B46184652
:100AD0000CF09EFA01237B704FF010437B601A23C9
:100AE0003B723B4618460CF093FA04200CF070FA67
:100AF00000BF1037BD4680BD80B582B000AF7860C2
:100B00007B681B68044A934201D10CF00BF900BFCB
:100B10000837BD4680BD00BF0010004080B400AF64
:100B200072B600BFFEE7000080B58CB000AF364B58
:100B3000D3F8E430344A43F00803C2F8E430324BCF
:100B4000D3F8E43003F00803BB61BB692E4BD3F844
:100B5000E0302D4A43F48073C2F8E0302A4BD3F8DA
:100B6000E03003F480737B617B69274BD3F8E0307E
:100B7000254A43F40073C2F8E030234BD3F8E03049
:100B800003F400733B613B691F4BD3F8E0301E4A0E
:100B900043F48063C2F8E0301B4BD3F8E03003F439
:100BA0008063FB60FB68184BD3F8E030164A43F0D3
:100BB0008003C2F8E030144BD3F8E03003F0800338
:100BC000BB60BB68104BD3F8E0300F4A43F008031A
:100BD000C2F8E0300C4BD3F8E03003F008037B6040
:100BE0007B688023FB6101233B6207F11C031946EC
:100BF00006480CF0AFFC0122802104480CF064FF91
:100C000000BF3037BD4680BD00440258000C02587A
:100C100080B584B000AF786003233B7301237B73FE
:100C20004023BB7307F10C03194600200AF0F8FFBC
:100C30000346002B01D07B68984700200BF0CAF8D0
:100C40000346002B01D07B68984700BF1037BD4694
:100C500080BD80B582B000AF786000200BF028FC2A
:100C600000200BF0C9FB0346002B01D07B6898479E
:100C700000BF0837BD4680BD80B582B000AF0C4BC9
:100C8000D3F8F4300A4A43F00203C2F8F430084BB8
:100C9000D3F8F43003F002037B607B6800220F215D
:100CA0006FF001000CF046F900BF0837BD4680BD6B
:100CB0000044025880B485B000AF78607B681B6840
:100CC0000B4A93420ED10B4BD3F8E030094A43F460
:100CD0000023C2F8E030074BD3F8E03003F40023E0
:100CE000FB60FB6800BF1437BD465DF8047B7047AE
:100CF000004C02580044025880B584B000AF7860C0
:100D00007B681B680E4A934216D10E4BD3F8D43041
:100D10000C4A43F01003C2F8D4300A4BD3F8D43055
:100D200003F01003FB60FB68002205215A200CF041
:100D300001F95A200CF018F900BF1037BD4680BDEC
:100D4000001000520044025880B5BCB000AF78607B
:100D500007F1DC0300221A605A609A60DA601A61B7
:100D600007F12003BC220021184624F063F97B68B8
:100D70001B68684A934240F0C8804FF000533B62C2
:100D800005237B64A023BB640223FB6402233B6531
:100D900053237B654FF40063BB650023FB65002391
:100DA0003B6607F12003184610F0BAF90346002B02
:100DB00001D0FFF7B3FE584BD3F8E430564A43F066
:100DC0000803C2F8E430544BD3F8E43003F00803CE
:100DD000FB61FB69504BD3F8E0304F4A43F480632A
:100DE000C2F8E0304C4BD3F8E03003F48063BB61D1
:100DF000BB69494BD3F8E030474A43F48073C2F8EB
:100E0000E030454BD3F8E03003F480737B617B69BD
:100E1000414BD3F8E030404A43F40073C2F8E0306D
:100E20003D4BD3F8E03003F400733B613B693A4B30
:100E3000D3F8E030384A43F08003C2F8E030364B54
:100E4000D3F8E03003F08003FB60FB68FC23C7F8B5
:100E5000DC300223C7F8E0300023C7F8E430022377
:100E6000C7F8E8300E23C7F8EC3007F1DC03194669
:100E70002A480CF06FFB4DF20323C7F8DC30022345
:100E8000C7F8E0300023C7F8E4300223C7F8E830A1
:100E90000E23C7F8EC3007F1DC03194620480CF0AC
:100EA00059FB4FF6FB73C7F8DC300223C7F8E0307C
:100EB0000023C7F8E4300223C7F8E8300E23C7F850
:100EC000EC3007F1DC03194616480CF043FB4FF4F5
:100ED0000073C7F8DC300223C7F8E0300023C7F8FE
:100EE000E4300223C7F8E8300E23C7F8EC3007F1EE
:100EF000DC0319460C480CF02DFB0022052158207C
:100F00000CF018F858200CF02FF800BFF037BD4651
:100F100080BD00BF00100050004402580028025855
:100F20000020025800240258001C025880B5BCB0B2
:100F300000AF786007F1DC0300221A605A609A6003
:100F4000DA601A6107F12003BC220021184624F060
:100F500071F87B681B68764A934240F0E4804FF05A
:100F600000733B620023BB6607F12003184610F0B4
:100F7000D7F80346002B01D0FFF7D0FD6D4BD3F817
:100F8000D4306C4A43F48043C2F8D430694BD3F870
:100F9000D43003F48043FB61FB69664BD3F8E03047
:100FA000644A43F04003C2F8E030624BD3F8E030CB
:100FB00003F04003BB61BB695E4BD3F8E0305D4A90
:100FC00043F02003C2F8E0305A4BD3F8E03003F08E
:100FD00020037B617B69574BD3F8E030554A43F0DF
:100FE0008003C2F8E030534BD3F8E03003F08003C5
:100FF0003B613B694F4BD3F8E0304E4A43F0080366
:10100000C2F8E0304B4BD3F8E03003F00803FB604C
:10101000FB684FF48443C7F8DC300223C7F8E030A4
:101020000023C7F8E4300323C7F8E8300923C7F8E2
:10103000EC3007F1DC0319463F480CF08BFA4023F3
:10104000C7F8DC300223C7F8E0300123C7F8E430EA
:101050000323C7F8E8300A23C7F8EC3007F1DC03B4
:10106000194635480CF076FA4FF49863C7F8DC302F
:101070000223C7F8E0300023C7F8E4300323C7F8A1
:10108000E8300923C7F8EC3007F1DC0319462B4898
:101090000CF060FA4FF40073C7F8DC300223C7F895
:1010A000E0300023C7F8E4300323C7F8E8300A2310
:1010B000C7F8EC3007F1DC03194620480CF04AFA77
:1010C0000C23C7F8DC300223C7F8E0300023C7F850
:1010D000E4300323C7F8E8300923C7F8EC3007F100
:1010E000DC03194616480CF035FA4FF40063C7F8D4
:1010F000DC300223C7F8E0300023C7F8E4300323D4
:10110000C7F8E8300923C7F8EC3007F1DC031946CB
:101110000C480CF01FFA002205215C200BF00AFF9E
:101120005C200BF021FF00BFF037BD4680BD00BF43
:10113000005000520044025800180258001402588F
:10114000001C0258000C025880B5B6B000AF07F181
:10115000C40300221A605A609A60DA601A614F4B29
:101160001B68002B40F096804C4B01221A6007F15F
:101170000803BC220021184623F05CFF4FF0807367
:10118000BB600023FB6407F1080318460FF0C8FF9B
:101190000346002B01D0FFF7C1FC414BD3F8D430FC
:1011A0003F4A43F48053C2F8D4303D4BD3F8D43097
:1011B00003F480537B607B684FF68373C7F8C430B9
:1011C0000223C7F8C8300023C7F8CC300323C7F880
:1011D000D0300C23C7F8D43007F1C4031946314886
:1011E0000CF0B8F948F23313C7F8C4300223C7F83B
:1011F000C8300023C7F8CC300323C7F8D0300C2305
:10120000C7F8D43007F1C403194627480CF0A2F9F7
:101210004CF20373C7F8C4300223C7F8C830002368
:10122000C7F8CC300323C7F8D0300C23C7F8D4302C
:1012300007F1C40319461D480CF08CF94FF63F0323
:10124000C7F8C4300223C7F8C8300023C7F8CC3031
:101250000323C7F8D0300C23C7F8D43007F1C403F8
:10126000194613480CF076F9E023C7F8C43002237E
:10127000C7F8C8300023C7F8CC300323C7F8D030F4
:101280000C23C7F8D43007F1C403194609480CF001
:1012900061F900E000BFD837BD4680BD04030024DB
:1012A000004402580010025800180258000C02585E
:1012B00000140258001C025880B582B000AF78605C
:1012C000FFF742FF00BF0837BD4680BD80B500AFC5
:1012D000144B1B68002B23D1124B01221A60124BB6
:1012E000D3F8D430104A23F48053C2F8D4304FF6E8
:1012F00083710E480CF0DEFA48F233110C480CF002
:10130000D9FA4CF203710B480CF0D4FA4FF63F01B6
:1013100009480CF0CFFAE02108480CF0CBFA00E0C5
:1013200000BF80BD0803002400440258001002588A
:1013300000180258000C025800140258001C0258F1
:1013400080B582B000AF7860FFF7C0FF00BF0837FC
:10135000BD4680BD80B590B000AF78607B680F2B34
:1013600027D80022796836200BF0E4FD36200BF0F8
:10137000FBFD294A7B681360284BD3F8E830274AE5
:1013800043F01003C2F8E830244BD3F8E83003F000
:101390001003FB60FB6807F1100207F1140311460C
:1013A00018460FF07BFEBB6ABB63BB6B002B06D1FC
:1013B00001E001232BE00FF045FEF86304E00FF09D
:1013C00041FE03465B00FB63FB6B154AA2FB032354
:1013D0009B0C013B7B63134B134A1A60114B40F289
:1013E000E732DA600F4A7B6B53600E4B00221A61C2
:1013F0000C4B00229A600B4810F0F1FF0346002BC3
:1014000004D1084811F04CF8034600E001231846C7
:101410004037BD4680BD00BF48000024004402584C
:1014200083DE1B430C0300240010004080B400AF97
:10143000FEE780B400AFFEE780B400AFFEE780B403
:1014400000AFFEE780B400AFFEE780B400AF00BF9E
:10145000BD465DF8047B704780B500AF024811F0CF
:1014600097F800BF80BD00BF0C03002480B500AF1B
:1014700002480DF087FA00BF80BD00BFD4010024F0
:1014800080B500AF02480BF055FF00BF80BD00BF24
:101490006C01002480B500AF02480DF06DFF00BF65
:1014A00080BD00BF7C02002480B400AF0123184639
:1014B000BD465DF8047B704780B582B000AF7860B0
:1014C000396023F05DFD034616221A604FF0FF33AA
:1014D00018460837BD4680BD80B582B000AF786041
:1014E0004FF0FF317868FFF7E7FFFEE780B586B081
:1014F00000AFF860B9607A6000237B610AE0AFF367
:1015000000800146BB685A1CBA60CAB21A707B6977
:1015100001337B617A697B689A42F0DB7B6818460D
:101520001837BD4680BD80B586B000AFF860B960A1
:101530007A6000237B6109E0BB685A1CBA601B78A3
:101540001846AFF300807B6901337B617A697B6861
:101550009A42F1DB7B6818461837BD4680BD80B4DF
:1015600083B000AF78604FF0FF3318460C37BD46AC
:101570005DF8047B704780B483B000AF7860396059
:101580003B684FF400525A60002318460C37BD46A2
:101590005DF8047B704780B483B000AF78600123AE
:1015A00018460C37BD465DF8047B704780B485B0A3
:1015B00000AFF860B9607A60002318461437BD4662
:1015C0005DF8047B7047000080B586B000AF78609E
:1015D000144A154BD31A7B617B693B61134B1B6823
:1015E000002B02D1114B124A1A60104B1A687B680B
:1015F00013443A699A4207D223F0C2FC03460C22F4
:101600001A604FF0FF3309E0084B1B68FB60074B83
:101610001A687B681344054A1360FB68184618373C
:10162000BD4680BD000008240010000058030024BF
:1016300028B30024DFF834D008F006FF0C480D4929
:101640000D4A002302E0D458C4500433C4188C421D
:10165000F9D30A4A0A4C002301E013600432A24283
:10166000FBD323F0A5FCFEF78BFE70470000082497
:10167000000000242C010024C48202082C01002454
:1016800028B30024FEE780B500AF01F029FD00BFBC
:1016900080BD80B582B000AF786001F04BFD00BF27
:1016A0000837BD4680BD000080B483B000AF7860CD
:1016B000044A7B681A607B6818460C37BD465DF8A3
:1016C000047B70471C6E020880B582B000AF786062
:1016D0007868FFF7E9FF0421786823F0F0FB7B6866
:1016E00018460837BD4680BD80B582B000AF78602F
:1016F00000F050FB00BF0837BD4680BD80B584B008
:1017000000AFF860B9607A607968B86800F066FB8D
:10171000034618461037BD4680BD000080B582B034
:1017200000AF7860054A7B681A607B681846FFF74F
:10173000BBFF7B6818460837BD4680BD046E0208B3
:1017400080B582B000AF78607868FFF7E7FF0421CA
:10175000786823F0B4FB7B6818460837BD4680BD27
:1017600080B582B000AF0346FB71FB79032B47D8ED
:1017700001A252F823F000BF89170008A71700083C
:10178000C5170008E3170008FB791F4A52F82330F9
:10179000002B0CBF01230023DBB21A4640211B485B
:1017A0000CF092F92CE0FB79174A52F82330002B09
:1017B0000CBF01230023DBB21A46802113480CF032
:1017C00083F91DE0FB79104A52F82330002B0CBF3F
:1017D00001230023DBB21A4608210D480CF074F9EE
:1017E0000EE0FB79084A52F82330002B0CBF01238E
:1017F0000023DBB21A46402106480CF065F900BF11
:1018000000BF0837BD4680BD5C03002400040258B9
:10181000001802580000025880B582B000AF03469D
:10182000FB71FB79032B47D801A252F823F000BFCC
:10183000411800085F1800087D1800089B18000870
:10184000FB791F4A52F82330002B01D0012300E01E
:1018500000231A4640211B480CF036F92CE0FB7996
:10186000174A52F82330002B01D0012300E0002357
:101870001A46802113480CF027F91DE0FB79104A25
:1018800052F82330002B01D0012300E000231A4638
:1018900008210D480CF018F90EE0FB79084A52F8BF
:1018A0002330002B01D0012300E000231A46402101
:1018B00006480CF009F900BF00BF0837BD4680BDDF
:1018C0005C0300240004025800180258000002586B
:1018D00080B582B000AF0346FB71FB79032B1FD8A4
:1018E00001A252F823F000BFF918000803190008FC
:1018F0000D1900081719000840210B480CF0FDF8DD
:101900000EE0802108480CF0F8F809E008210748AB
:101910000CF0F3F804E0402105480CF0EEF800BFAD
:1019200000BF0837BD4680BD0004025800180258A9
:101930000000025880B483B000AF7860044A7B682E
:101940001A607B6818460C37BD465DF8047B70470B
:10195000BC79020880B582B000AF78607868FFF784
:10196000E9FF7C21786823F0AAFA7B6818460837DB
:10197000BD4680BD80B483B000AF78600B46FB707D
:101980007B68FA7883F874207B68012283F87520DD
:1019900000BF0C37BD465DF8047B704780B582B050
:1019A00000AF78600B467B8013463B800C4B1B8856
:1019B0007A889A4204D30B4B1B883A889A4205D204
:1019C000094B0A4A9E210A4823F0A8FA094A7B8853
:1019D0001380094A3B88138000BF0837BD4680BD8D
:1019E00078B000247AB00024B060020814610208C4
:1019F000586102087EB0002480B0002480B582B017
:101A000000AF78607B6893F87730002B09D07B6853
:101A10005A687B685B681B681B68104698470346DA
:101A200000E0002318460837BD4680BD80B582B06F
:101A300000AF7860786812F037F97B681B68AC33C8
:101A40001B687868984700BF0837BD4680BD80B4E2
:101A500083B000AF78603960002318460C37BD466C
:101A60005DF8047B7047000080B584B000AFF8607B
:101A7000B9607A603B60BB68002B06D10F4B104AFF
:101A800040F2D2210F4823F049FAFB68BA68DA63C2
:101A9000FB687A681A647B68002B14BF012300235B
:101AA000DAB2094B1A70FB681B688C331B68396803
:101AB000F868984700BF1037BD4680BDAC6102088A
:101AC000E46102085861020882B0002480B483B047
:101AD00000AF786039607B683A685A643B68002BD5
:101AE00014BF01230023DAB2034B1A7000BF0C3776
:101AF000BD465DF8047B704783B0002480B483B09A
:101B000000AF7860002318460C37BD465DF8047BB3
:101B1000704780B582B000AF78600B467B807B68F1
:101B20009B6B002B04D07B689B6B7A881046984790
:101B300000BF0837BD4680BD80B483B000AF786079
:101B40004FF6FF7318460C37BD465DF8047B7047AF
:101B500080B582B000AF78607B685A687B685B684C
:101B60001B6818331B681046984703461846083709
:101B7000BD4680BD80B485B000AF78607B6893F8C7
:101B800074207B6893F834309A4211D0144B1B7840
:101B9000002B1ED1134B1B88BB81134B1A88114B92
:101BA0001A80114ABB8913800D4B01221A7010E074
:101BB0000B4B1B78002B0CD00A4B1B88FB810A4B6C
:101BC0001A88084B1A80084AFB891380044B0022AC
:101BD0001A7000BF1437BD465DF8047B704700BF24
:101BE0007CB000247AB0002478B0002480B582B0A4
:101BF00000AF78607B68184611F0BCFA00BF083768
:101C0000BD4680BD80B582B000AF7860054A7B6874
:101C10001A607B681846FFF78DFE7B681846083708
:101C2000BD4680BDA471020880B582B000AF786067
:101C30007868FFF7E7FF7C21786823F040F97B683C
:101C400018460837BD4680BD80B582B000AF7860C9
:101C50007B681846FFF7CAFF00BF0837BD4680BD46
:101C600080B582B000AF78607B68184601F052FD05
:101C700000BF0837BD4680BD80B582B000AF786038
:101C80007B68184601F0E8FD034618460837BD4654
:101C900080BD80B582B000AF786039607B683968FC
:101CA000184601F0E7FD00BF0837BD4680BD80B58E
:101CB00082B000AF786039607B683968184601F0FF
:101CC000EFFD00BF0837BD4680BD80B584B000AFD2
:101CD000F860B9607A603B60F8683B687A68B96818
:101CE00001F036FE034618461037BD4680BD80B56C
:101CF00082B000AF78607B68184601F02FFD00BF0E
:101D00000837BD4680BD80B582B000AF78607B6883
:101D1000184601F033FD00BF0837BD4680BD80B5D1
:101D200082B000AF78607B68184601F035FD00BFD7
:101D30000837BD4680BD80B582B000AF78607B6853
:101D4000184601F037FD00BF0837BD4680BD0000D2
:101D500080B582B000AF7860054A7B681A607B6806
:101D60001846FFF74FFF7B6818460837BD4680BD11
:101D7000346E020880B582B000AF78607868FFF7F3
:101D8000E7FF7C21786823F09AF87B6818460837CB
:101D9000BD4680BD80B584B000AF4FF4F0733B60AA
:101DA0004FF488737B600823BB600023FB603B46D5
:101DB000194600200AF002FD0346002B14BF012340
:101DC0000023DBB2002B03D1034B01221A7000E089
:101DD00000BF1037BD4680BD6C03002480B582B0C3
:101DE00000AF78603960114B1B7883F00103DBB2E0
:101DF000002B01D0002314E00D4900200AF09AFDC9
:101E00000B4B1B68002B01D100230AE0084B5B68D9
:101E10001A467B681A60064B9B681A463B681A6034
:101E2000012318460837BD4680BD00BF6C0300245F
:101E30007003002480B500AF00220121012005F0CD
:101E40003CF803460F4A13600E4B1B68002B05D16C
:101E50000D4B0E4A28210E4823F060F80022042181
:101E6000012005F049F903460A4A1360094B1B6833
:101E7000002B05D1084B054A2C21054823F04EF8CC
:101E800000BF80BD7C030024346202088062020827
:101E9000B0620208800300243063020880B500AFFE
:101EA000044B1B684FF0FF31184605F08FF800BF58
:101EB00080BD00BF7C03002480B500AF034B1B68CE
:101EC000184605F0D5F800BF80BD00BF7C03002494
:101ED00080B500AF034B1B680021184605F076F86B
:101EE00000BF80BD7C03002480B500AF034B1B689E
:101EF000184605F0BDF800BF80BD00BF7C0300247C
:101F000080B500AF044B186800230022034905F098
:101F100067F900BF80BD00BF8003002404000024D7
:101F200080B582B000AF094B1868391D002300222C
:101F300005F0B6F9054B1868391D4FF0FF33002244
:101F400005F0AEF900BF0837BD4680BD8003002410
:101F500080B483B000AF0346FB80B7F90630002B96
:101F60000BDBFB8803F01F020749B7F906305B095A
:101F7000012000FA02F241F8232000BF0C37BD46D1
:101F80005DF8047B704700BF00E100E080B483B0DF
:101F900000AF0346FB80B7F90630002B12DBFB884D
:101FA00003F01F020A49B7F906305B09012000FA65
:101FB00002F2203341F82320BFF34F8F00BFBFF35D
:101FC0006F8F00BF00BF0C37BD465DF8047B7047C4
:101FD00000E100E080B483B000AF78607B6800224D
:101FE0001A607B6818460C37BD465DF8047B704765
:101FF00080B483B000AF78607B681B6818460C37EC
:10200000BD465DF8047B704780B483B000AF786054
:10201000044A7B681A607B6818460C37BD465DF839
:10202000047B70475C6F020880B582B000AF7860B7
:102030007868FFF7E9FF0421786822F040FF7B68A9
:1020400018460837BD4680BD80B582B000AF7860C5
:102050007B681B6844331B687868984700BF083763
:10206000BD4680BD80B483B000AF7860044A7B6811
:102070001A607B6818460C37BD465DF8047B7047D4
:10208000947A020880B582B000AF78607868FFF774
:10209000E9FF0C21786822F012FF7B6818460837A8
:1020A000BD4680BD80B483B000AF78603960094A16
:1020B0007B681A607B683A685A607B6800221A72F3
:1020C0007B6800225A727B6818460C37BD465DF863
:1020D000047B7047947A020880B483B000AF7860C4
:1020E000012318460C37BD465DF8047B704780B568
:1020F00082B000AF78607A687B681B6828331B6801
:102100001046984700BF0837BD4680BD80B400AF79
:10211000034B1B681846BD465DF8047B704700BF43
:1021200084B0002480B582B000AF78607B685A68C4
:102130007B685B681B6814331B681046984700BFB8
:102140000837BD4680BD80B582B000AF7860FFF72C
:10215000DDFF03461846FFF7E5FF00BF0837BD4621
:1021600080BD80B582B000AF78607B680C331846C4
:10217000FFF730FF7B6818460837BD4680BD00007A
:10218000B0B582B000AF78607A687B680C331946CE
:102190001046FFF787FF0E4A7B681A607B6803F1E1
:1021A0000C007B6820336022194611F0B7FE7B6873
:1021B00020335F241D46002C05DB2846FFF7D1FFA6
:1021C0002435013CF7E77B6818460837BD46B0BDAB
:1021D0000C6F020880B582B000AF7860094A7B6856
:1021E0001A605A20FFF7D2FE7B680C33184600F0C5
:1021F000CBFA7B681846FFF735FF7B68184608372F
:10220000BD4680BD0C6F020880B582B000AF78601B
:102210007868FFF7DFFF4FF45A61786822F04FFECD
:102220007B6818460837BD4680BD000080B584B085
:1022300000AF7860124BD3F8D430114A43F010034A
:10224000C2F8D4300E4BD3F8D43003F01003FB6047
:10225000FB680B4BDB6F0A4A43F01003D367084B54
:10226000DB6F074A23F01003D367064B064A1A6256
:102270005A20FFF76DFE00BF1037BD4680BD00BF7E
:10228000004402586C0100244721000880B584B046
:1022900000AF78600B46FB700023FB60FB780B2BD4
:1022A00026D801A252F823F0E5220008DF22000818
:1022B000D9220008F1220008F1220008F1220008CA
:1022C000F1220008EB220008EB220008EB220008B4
:1022D000EB220008EB2200080023FB600EE0012344
:1022E000FB600BE00223FB6008E00523FB6005E0D8
:1022F000054B064A6621064822F010FEFB68184688
:102300001037BD4680BD00BF7463020890630208A9
:10231000DC63020880B584B000AF78600B46FB70C8
:102320000023FB60FB780A2B21D801A252F823F08E
:1023300069230008632300085D2300086F23000859
:102340006F2300086F2300086F2300086323000831
:102350006323000863230008632300080023FB6055
:102360000BE00123FB6008E00223FB6005E0054B66
:10237000054A8721054822F0D1FDFB681846103731
:10238000BD4680BD746302085C640208DC63020819
:1023900080B483B000AF786040F2EF3318460C375A
:1023A000BD465DF8047B704790B589B000AF78609A
:1023B00039603B685B7F19467868FFF767FFB86153
:1023C0003B689B7F19467868FFF760FF78613B6840
:1023D0009B7F19467868FFF79DFF38613B685B8BF0
:1023E0001A463B689B8AD21A924B1A643B685B8BF5
:1023F0001A463B689B8AD21A8E4B9A613B681B8BAC
:102400001A463B689B8AD21A8A4B1A61894A3B69F1
:1024100053633B68DB8A1A463B689B8A1B041A435A
:10242000844B5A643B681A69824BDA633B685A688A
:10243000804BDA603B681B68B3F5007F36D0B3F59C
:10244000007F00F2E280B3F5807F14D0B3F5807F87
:1024500000F2DB80802B59D0802B00F2D680402BFD
:1024600000F0BE80402B00F2D080042B39D0202B0E
:1024700000F0B680C9E03B681B7F1B0619466D4A19
:102480006D4B0B43D3613B680C336A4C1846FFF726
:10249000AFFD03462362674A7B6953623B681A6952
:1024A000644B5A61634B654A1A60DAE03B681B7FF4
:1024B0001B0619465F4A624B0B43D3613B680C33E2
:1024C0005C4C1846FFF794FD03462362594A7B692A
:1024D00053623B681A69574B5A61564B574A1A6008
:1024E000BFE03B681B7F1B061A46BB691343514A7A
:1024F00043F40033D3614F4A7B6953623B681A69E6
:102500004C4B5A614B4B4D4A1A60AAE00123FB77B2
:102510003B689B68FB60FB681A1D464BDA623B68B0
:102520001B7F1B061A46BB691343424A43F4003320
:10253000D361404A7B6953623B681A693D4B5A61DB
:10254000FB681B88DBB2002B02D0012B0DD020E0F2
:10255000384BDA693B4B1340FA685288013A120251
:102560001146344A0B43D3611AE03B681B7FFF2BB3
:1025700001D10023FB772F4BDA69324B1340FA6805
:102580005288013A120213432A4A43F01003D361DE
:1025900006E02D4B2D4A40F211112D4822F0BEFCD1
:1025A000244BDB69234A43F02003D361214BDB69D1
:1025B00003F02003002B14BF01230023DBB2002B08
:1025C00000D0F3E71B4B10229A60FB7F002B03D057
:1025D000184B1A4A1A6044E0164B1E4A1A6040E033
:1025E0003B681B7F1B061A46BB691343114A43F421
:1025F0000033D3610F4A7B6953623B681A690D4B04
:102600005A610C4B0D4A1A602BE03B681B7F1B067E
:102610001A46BB691343074A43F40033D3613B684E
:102620005A7F3B689B7F9A4216D0024B094A1A6038
:1026300016E000BF001000520A0002000102020072
:1026400009000200EF00FFFFA8640208C46402084A
:10265000DC63020801020100044B40F201221A600F
:1026600000BF00BF2437BD4690BD00BF0010005220
:1026700090B585B000AF786039603B689B7F1946A4
:102680007868FFF747FEF8603B4AFB6853633B6896
:10269000DB8A1A463B689B8A1B041A43364B5A64F2
:1026A0003B681A69344BDA633B685B8B1A463B68BC
:1026B0009B8AD21A304B1A643B681B68082B2ED1B8
:1026C0003B685B8B1A463B689B8AD21A2A4B9A61FD
:1026D0003B685B8B1A463B689B8AD21A264B1A6171
:1026E000254AFB6853623B681B7F1B061946224A3A
:1026F000224B0B43D3613B680C331F4C1846FFF74A
:1027000077FC034623623B681A691B4B5A613B689E
:102710001A69194BDA60184B194A1A6027E0164AF1
:10272000FB68D361144B00221A613B680C331846D6
:10273000FFF75EFC03461B0A03F478443B680C3346
:102740001846FFF755FC03465B0903F4FC631C4382
:102750003B680C331846FFF74BFC0346DB0803F0DD
:102760001F03054A23439363034B064A1A6000BFC5
:102770001437BD4690BD00BF001000520900010093
:10278000010202000102030080B582B000AF786050
:10279000054A7B681A607B681846FFF735FC7B6842
:1027A00018460837BD4680BDE47A020880B582B07D
:1027B00000AF78607868FFF7E7FF1421786822F0AF
:1027C0007EFB7B6818460837BD4680BD80B483B069
:1027D00000AF78607B6800221A807B6800225A80F4
:1027E0007B6800229A807B680022DA807B6818462A
:1027F0000C37BD465DF8047B7047000080B483B0A1
:1028000000AF7860044A7B68136000BF0C37BD4698
:102810005DF8047B704700BFE0B0002480B483B053
:1028200000AF7860044A7B681A607B6818460C37F2
:10283000BD465DF8047B70479071020880B582B098
:1028400000AF78607868FFF7E9FF0421786822F02C
:1028500036FB7B6818460837BD4680BD80B485B01E
:1028600000AFF860B9607A603B600B4AFB681A60A1
:10287000FB68BA685A60FB687A689A60FB683A68D5
:10288000DA60FB68BA691A61FB6818461437BD46FE
:102890005DF8047B704700BF8071020880B483B08C
:1028A00000AF7860044A7B681A607B6818460C3772
:1028B000BD465DF8047B70478071020880B582B028
:1028C00000AF78607868FFF7E9FF1421786822F09C
:1028D000F6FA7B6818460837BD4680BD80B483B0E1
:1028E00000AF7860396000BF0C37BD465DF8047BEF
:1028F000704780B483B000AF7860396000BF0C3798
:10290000BD465DF8047B704780B483B000AF78604B
:10291000396000BF0C37BD465DF8047B704780B45A
:1029200083B000AF78600B46FB7000BF0C37BD462C
:102930005DF8047B704780B483B000AF786000BF5F
:102940000C37BD465DF8047B704780B483B000AFA0
:10295000786000BF0C37BD465DF8047B704700000F
:1029600080B483B000AF7860044A7B681A607B68EB
:1029700018460C37BD465DF8047B70475871020855
:1029800080B582B000AF78607868FFF7E9FF042176
:10299000786822F094FA7B6818460837BD4680BDF7
:1029A00080B483B000AF7860044A7B681A607B68AB
:1029B00018460C37BD465DF8047B7047647D0208FD
:1029C00080B582B000AF78607868FFF7E9FF082132
:1029D000786822F074FA7B6818460837BD4680BDD7
:1029E00080B483B000AF786000BF0C37BD465DF89F
:1029F000047B704780B483B000AF78600B46FB70F7
:102A000000BF0C37BD465DF8047B704780B483B0CF
:102A100000AF786039607B683A6803F59673106898
:102A2000516803C300BF0C37BD465DF8047B704797
:102A300080B483B000AF7860044A7B681A607B681A
:102A400018460C37BD465DF8047B7047407102089C
:102A500080B582B000AF78607868FFF7E9FF0421A5
:102A6000786822F02CFA7B6818460837BD4680BD8E
:102A700080B483B000AF78607B6800221A807B68E6
:102A800000225A807B6800229A807B680022DA80CC
:102A90007B6800221A817B6800225A817B680022B1
:102AA0009A817B6800229A737B6818460C37BD4672
:102AB0005DF8047B704780B582B000AF78607B68BA
:102AC0001846FFF7D5FF7B6800221A617B68002259
:102AD0009A827B6818460837BD4680BD80B584B0B1
:102AE00000AFF860B9607A603B60554AFB681A60D5
:102AF000FB68BA685A60FB687A689A60FB683A6853
:102B0000DA60FB6800221A61FB6800225A61FB68E8
:102B100000229A61FB681C331846FFF7CCFFFB6864
:102B2000002283F83420FB6800229A63FB680022AD
:102B3000DA63FB6800221A64FB6800225A64FB68AF
:102B4000002283F84820FB68012283F84920FB68B3
:102B5000002283F84A20FB68002283F84B20FB68A0
:102B60000022DA64FB6850331846FFF72FFEFB683B
:102B700000229A65FB680022DA65FB6800221A666B
:102B8000FB68012283F86420FB68002283F865203B
:102B9000FB68002283F86620FB68012283F8672027
:102BA000FB68002283F86820FB68002283F8692014
:102BB000FB68002283F86A20FB68002283F86B2000
:102BC000FB68002283F86C20FB6800221A67FB6810
:102BD000002283F87420FB68002283F87520FB68CC
:102BE000002283F87620FB68012283F87720FB68B7
:102BF000012283F87820134AFB681360124A3B8B4A
:102C00001380114B1A88114B1A80114ABB8B138009
:102C10000F4B1A880F4B1A800F4B00221A703A8BF9
:102C2000BB8B9A4234BF01230023DBB21A46FB68F8
:102C300083F83420FB6818461037BD4680BD00BFBE
:102C4000BC79020884B0002478B000247EB000244F
:102C50007AB0002480B000247CB0002480B582B01B
:102C600000AF7860054A7B681A607B681846FFF7FA
:102C700077FE7B6818460837BD4680BDBC7D0208DC
:102C800080B582B000AF78607868FFF7E7FF4FF457
:102C90009C71786822F013F97B6818460837BD46A6
:102CA00080BD80B582B000AF7860786800F004F82D
:102CB00000BF0837BD4680BD80B582B000AF7860E8
:102CC0007B68D3F83C31002B0FD07B68D3F83C21D4
:102CD0007B68D3F83C311B680C331B68104698475F
:102CE0000346002B01D0012300E00023002B0ED06F
:102CF0007B68D3F83C217B68D3F83C311B680833F0
:102D00001B68104698477B680022C3F83C2100BF2F
:102D10000837BD4680BD000080B582B000AF786046
:102D2000054A7B681A607B681846FFF797FF7B6847
:102D300018460837BD4680BDF470020880B582B0E1
:102D400000AF78607868FFF7E7FF4FF4A07178680C
:102D500022F0B5F87B6818460837BD4680BD0000F4
:102D600080B582B000AF7860084A7B681A607B68E3
:102D700003F5A073184600F015FB7B681846FFF7B3
:102D8000CBFF7B6818460837BD4680BD90700208AF
:102D900080B582B000AF78607868FFF7E1FF4FF44C
:102DA000AC71786822F08BF87B6818460837BD460E
:102DB00080BD80B582B000AF7860786801F044F9DA
:102DC00000BF0837BD4680BD80B582B000AF7860D7
:102DD000054A7B681A607B681846FFF7C1FF7B686D
:102DE00018460837BD4680BD4470020880B582B0E1
:102DF00000AF78607868FFF7E7FF4FF4AC71786850
:102E000022F05DF87B6818460837BD4680BD80B566
:102E100082B000AF78607B68D3F85431184603F075
:102E20008DFD7B68184613F0B3F900BF0837BD4627
:102E300080BD80B582B000AF786039603B681846CD
:102E400001F002F900BF0837BD4680BD80B586B0ED
:102E500002AFF860B9607A603B60F868BB690093C4
:102E60003B687A68B968FFF7F9FC044AFB681A60A6
:102E7000FB6818461037BD4680BD00BF30700208A1
:102E800080B500AF014800F05FF980BD84030024E5
:102E900080B500AF124B1B78BFF35B8FDBB203F042
:102EA0000103002B0CBF01230023DBB2002B13D046
:102EB0000B4822F006F80346002B14BF0123002321
:102EC000DBB2002B08D0074800F068F8064822F073
:102ED00043F8034822F001F8024B184680BD00BFBA
:102EE000E807002484030024812E000880B582B006
:102EF00000AF7860054A7B681A607B681846FFF768
:102F0000CDFC7B6818460837BD4680BD307002088E
:102F100080B582B000AF78607868FFF7E7FF1421D2
:102F2000786821F0CCFF7B6818460837BD4680BD25
:102F300080B582B000AF78607B6818460FF070FEF5
:102F4000034A7B681A607B6818460837BD4680BD17
:102F5000FC6F020880B582B000AF78607B681846CD
:102F60000FF05EFE034A7B681A607B6818460837DC
:102F7000BD4680BDC86F020880B582B000AF7860E2
:102F80007B6818460FF04CFE034A7B681A607B682A
:102F900018460837BD4680BD946F020890B585B0CD
:102FA00002AF786078687B6803F114017B6803F1F5
:102FB0002C027B6803F53D747B6803F54373009333
:102FC0002346FFF743FF184A7B681A607B68143377
:102FD0001846FFF7ADFF7B682C331846FFF7BAFFA2
:102FE0007B6803F53D731846FFF7C6FF7B6803F562
:102FF0004273184603F094FC7B6803F543707B68CA
:1030000003F542737A68194603F074FC7A687B68AA
:1030100003F5437319461046FFF70BFF7B6818460C
:103020000C37BD4690BD00BF806F020880B586B0EA
:1030300002AFF860B9607A603B60F868BB8B0193BF
:103040003B8B00933B687A68B968FFF747FD044AF9
:10305000FB681A60FB6818461037BD4680BD00BF8C
:10306000A471020880B586B002AFF860B9607A60DA
:103070003B60F868BB8B01933B8B00933B687A689D
:10308000B968FFF7D3FF044AFB681A60FB6818466B
:103090001037BD4680BD00BF346E020880B483B0D7
:1030A00000AF7860044A7B681A607B6818460C376A
:1030B000BD465DF8047B70471C6E020880B582B087
:1030C00000AF78607B681846FFF7E8FF034A7B682B
:1030D0001A607B6818460837BD4680BD046E02083A
:1030E00090B585B002AF00F067FD044600F06EFDBC
:1030F000034619460023009300230022204616F0C1
:10310000F1F80948FFF77AFB002003F047FB074876
:1031100016F050F8FFF7BCFE78600548FEF7A0FDFA
:1031200000BF0C37BD4690BD0816002408000024DF
:103130000C16002480B500AF024810F082F800BFE2
:1031400080BD00BF0C16002480B582B000AF78604F
:10315000104A7B681A607B6803F543731846FFF7D3
:1031600033FE7B6803F53D73184600F027F87B6853
:103170002C33184600F044F87B681433184600F0EE
:1031800063F87B681846FFF7B1FE7B68184608377E
:10319000BD4680BD806F020880B582B000AF786008
:1031A0007868FFF7D1FF40F26441786821F087FE2C
:1031B0007B6818460837BD4680BD000080B582B0E8
:1031C00000AF7860054A7B681A607B6818460FF08C
:1031D00026FD7B6818460837BD4680BD946F0208FF
:1031E00080B582B000AF78607868FFF7E7FF142100
:1031F000786821F064FE7B6818460837BD4680BDBC
:1032000080B582B000AF7860054A7B681A607B6841
:1032100018460FF004FD7B6818460837BD4680BD90
:10322000C86F020880B582B000AF78607868FFF799
:10323000E7FF4FF43271786821F041FE7B68184651
:103240000837BD4680BD000080B582B000AF786011
:10325000054A7B681A607B6818460FF0E0FC7B68C3
:1032600018460837BD4680BDFC6F020880B582B0A5
:1032700000AF78607868FFF7E7FF1821786821F0E1
:103280001EFE7B6818460837BD4680BD80B582B0FB
:1032900000AF7860054A7B681A607B681846FFF7C4
:1032A000BDFA7B6818460837BD4680BD7C720208AF
:1032B00080B582B000AF78607868FFF7E7FF04213F
:1032C000786821F0FCFD7B6818460837BD4680BD54
:1032D00080B582B000AF7860054A7B681A607B6871
:1032E0001846FFF75DFB7B6818460837BD4680BD72
:1032F0006881020880B582B000AF78607868FFF717
:10330000E7FF7821786821F0DAFD7B6818460837F6
:10331000BD4680BD80B584B002AF786039607B68FF
:10332000012B19D13B684FF6FF72934214D1184814
:10333000FFF7C4FE1748FEF723FF174819F0D4F82B
:103340004FF4887301934FF4F0730093104B124ABB
:1033500010491248FFF786FE7B68002B13D13B68AB
:103360004FF6FF7293420ED10C48FEF7F1FC0C4869
:10337000FFF78CFF0848FFF7ABFF0648FEF72AFF70
:103380000348FEF7CBF900BF0837BD4680BD00BF3C
:10339000EC070024F0070024901500240C160024EC
:1033A0000800002480B582B000AF7860054A7B68D1
:1033B0001A607B681846FFF73BFB7B6818460837A6
:1033C000BD4680BDDC70020880B582B000AF786079
:1033D0007868FFF7E7FF1021786821F070FD7B68BF
:1033E00018460837BD4680BD80B483B000AF786012
:1033F000012318460C37BD465DF8047B704780B446
:1034000083B000AF78600C2318460C37BD465DF8DA
:10341000047B704780B483B000AF78600B467B803C
:103420007A8813465B0013449B0008337A68134480
:1034300018460C37BD465DF8047B704780B483B0F6
:1034400000AF78600B467B807A8813465B0013449C
:103450009B0008337A68134418460C37BD465DF864
:10346000047B704780B483B000AF786001231846B6
:103470000C37BD465DF8047B704780B483B000AF65
:1034800078604FF4307318460C37BD465DF8047B06
:10349000704780B483B000AF78600B467B807B8838
:1034A0004FF4307202FB03F308337A681344184672
:1034B0000C37BD465DF8047B704780B483B000AF25
:1034C00078600B467B807B884FF4307202FB03F3FD
:1034D00008337A68134418460C37BD465DF8047B00
:1034E000704780B483B000AF7860012318460C3772
:1034F000BD465DF8047B704780B483B000AF786050
:10350000102318460C37BD465DF8047B704780B425
:1035100083B000AF78600B467B807B881B0108334B
:103520007A68134418460C37BD465DF8047B704733
:1035300080B483B000AF78600B467B807B881B0132
:1035400008337A68134418460C37BD465DF8047B8F
:10355000704780B582B000AF78607B685B687A683E
:10356000D268521099187B68DB6803F00103002BC6
:1035700002D17B689B680AE07B685B687A68D268E6
:10358000521013441B687A68926813441B680846FB
:10359000984700BF0837BD4680BD80B483B000AFF8
:1035A00078607B685B68002B10D07B689B68002B81
:1035B00007D17B68DB6803F00103002B01D10123F5
:1035C00000E00023012B01D0012300E00023184676
:1035D0000C37BD465DF8047B704780B500AF4FF6F1
:1035E000FF710120FFF796FE80BD80B500AF4FF65A
:1035F000FF710020FFF78EFE80BD80B582B000AF66
:1036000078607B681B6820331B687868984700BF28
:103610000837BD4680BD80B483B000AF78607B685A
:1036200093F866300133DAB27B6883F8662000BF16
:103630000C37BD465DF8047B7047000080B483B052
:1036400000AF0346FB80B7F90630002B0BDBFB888D
:1036500003F01F020749B7F906305B09012000FAA1
:1036600002F241F8232000BF0C37BD465DF8047B11
:10367000704700BF00E100E080B483B000AF0346B4
:10368000FB80B7F90630002B12DBFB8803F01F022A
:103690000A49B7F906305B09012000FA02F220332B
:1036A00041F82320BFF34F8F00BFBFF36F8F00BFE0
:1036B00000BF0C37BD465DF8047B704700E100E0B9
:1036C00080B483B000AF03463960FB80B7F90630A1
:1036D000002B0ADB3B68DAB20C49B7F9063012015D
:1036E000D2B20B4483F800230AE03B68DAB20849FF
:1036F000FB8803F00F03043B1201D2B20B441A768D
:1037000000BF0C37BD465DF8047B704700E100E068
:1037100000ED00E0B0B582B000AF78607B6818467D
:103720000FF07DFD7D687B681B6864331C6812F0B8
:1037300077FE034619462846A04778687B681B68D1
:1037400088331C680023044A4FF05041A04700BF53
:103750000837BD46B0BD00BF000020D080B582B0A4
:1037600000AF786009215A20FFF7AAFF09215820ED
:10377000FFF7A6FF00BF0837BD4680BD80B582B009
:1037800000AF78605A20FFF759FF5820FFF756FF27
:1037900000BF0837BD4680BD80B582B000AF7860FD
:1037A0005A20FFF769FF5820FFF766FF00BF083770
:1037B000BD4680BD80B483B000AF7860114BDB683C
:1037C0009BB2C3F30A039BB2013B9AB20E4B1A8021
:1037D0000C4B1B699BB2C3F30A039BB2013B9AB229
:1037E0000A4B1A80084B1A88064B1A64054B5B6B10
:1037F000044A43F00103536300BF0C37BD465DF834
:10380000047B7047001000508A1600248C16002498
:1038100080B582B000AF78607B6818460FF0E6FC98
:10382000034618460837BD4680BD000080B582B00B
:1038300000AF78607B6893F84B30002B02D0054BCB
:1038400001221A707B6818460FF0DCFC00BF0837B5
:10385000BD4680BD8816002480B483B000AF786078
:10386000034B9B6A18460C37BD465DF8047B7047D6
:103870008410005080B483B000AF78603960064A8D
:103880003B689362054B01225A6200BF0C37BD466C
:103890005DF8047B704700BF84100050001000509A
:1038A00080B586B000AF786039607B6839681846AB
:1038B0000FF066FC254B5B6903F48033002B14BFCB
:1038C00001230023DBB2002B3CD0204B0022C3F8A5
:1038D0008420BFF34F8F00BF1C4BD3F880307B6137
:1038E0007B695B0BC3F30E033B617B69DB08C3F3AE
:1038F0000903FB603B695A0143F6E0731340FA6821
:10390000920712491343C1F87432FB685A1EFA60D9
:10391000002B14BF01230023DBB2002B00D0E9E70A
:103920003B695A1E3A61002B14BF01230023DBB20E
:10393000002B00D0D9E7BFF34F8F00BFBFF36F8FCD
:1039400000BF00BF00BF1837BD4680BD00ED00E0DE
:1039500080B584B000AFF860B9607A603B60F86809
:103960003B687A68B9680FF074FD03461846103753
:10397000BD4680BD80B487B000AF7860264B5B69E0
:1039800003F48033002B14BF01230023DBB2002B90
:103990003CD0214B0022C3F88420BFF34F8F00BFDF
:1039A0001D4BD3F880307B617B695B0BC3F30E0347
:1039B0003B617B69DB08C3F30903FB603B695A0188
:1039C00043F6E0731340FA68920713491343C1F8B2
:1039D0007432FB685A1EFA60002B14BF01230023C7
:1039E000DBB2002B00D0E9E73B695A1E3A61002B9D
:1039F00014BF01230023DBB2002B00D0D9E7BFF3B3
:103A00004F8F00BFBFF36F8F00BF00BF00BF1C37D9
:103A1000BD465DF8047B704700ED00E080B487B0E0
:103A200000AF7860264B5B6903F48033002B14BF32
:103A300001230023DBB2002B3CD0214B0022C3F832
:103A40008420BFF34F8F00BF1D4BD3F880307B61C4
:103A50007B695B0BC3F30E033B617B69DB08C3F33C
:103A60000903FB603B695A0143F6E0731340FA68AF
:103A7000920713491343C1F87432FB685A1EFA6067
:103A8000002B14BF01230023DBB2002B00D0E9E799
:103A90003B695A1E3A61002B14BF01230023DBB29D
:103AA000002B00D0D9E7BFF34F8F00BFBFF36F8F5C
:103AB00000BF00BF00BF1C37BD465DF8047B7047E8
:103AC00000ED00E080B582B000AF7860FEF71EFB2D
:103AD0000346002B0CBF01230023DBB2002B32D1A5
:103AE0001B4B1B6C1B4A128893420CBF0123002303
:103AF000DBB2002B17D0184B1B88194678680BF0E7
:103B000037F8FEF703FB03461846FFF784FDFEF780
:103B1000F7F9FEF7FBFA0346184610F0C5F8002047
:103B2000FDF71EFE10E00B4B1B88194678680BF062
:103B30001FF8FEF7EBFA03461846FFF75EFD00207C
:103B4000FDF76AFE00E000BF0837BD4680BD00BF3C
:103B5000001000508A1600248C16002480B582B014
:103B600000AF78600B467B807B88032B1ED801A2B8
:103B700052F823F0853B00088F3B0008993B000872
:103B8000A33B000802F082FE03461B680FE002F030
:103B90007DFE03465B680AE002F078FE03469B6800
:103BA00005E002F073FE03461B6800E000231846A0
:103BB0000837BD4680BD00BF80B400AF024B184639
:103BC000BD465DF8047B70478872020880B400AF80
:103BD00002231846BD465DF8047B704780B483B06D
:103BE00000AF7860044A7B681A607B6818460C371F
:103BF000BD465DF8047B70477077020880B582B0DF
:103C000000AF78607868FFF7E9FF1021786821F04D
:103C100056F97B6818460837BD4680BD90B587B019
:103C200000AF78600B467B807B88002B01D100239E
:103C300010E000233B610023FB737B681B680833A3
:103C40001C6807F10F0307F1100279887868A04714
:103C500078617B6918461C37BD4690BD80B483B03F
:103C600000AF78607B685B8918460C37BD465DF80D
:103C7000047B704780B483B000AF78607B689B8919
:103C800018460C37BD465DF8047B704780B483B09E
:103C900000AF78607B689B8818460C37BD465DF89E
:103CA000047B704780B483B000AF78607B689A88EB
:103CB0007B689B799BB213449BB218460C37BD4678
:103CC0005DF8047B704780B483B000AF78607B6898
:103CD000DB79C3F30603DBB218460C37BD465DF84B
:103CE000047B704780B483B000AF78607B68DB7979
:103CF000C3F3C013DBB218460C37BD465DF8047B36
:103D00007047000080B582B000AF7860054A7B68DC
:103D10001A607B681846FFF761FF7B681846083712
:103D2000BD4680BD707E020880B582B000AF78606D
:103D30007868FFF7E7FF1821786821F0C0F87B6802
:103D400018460837BD4680BD80B582B000AF7860A8
:103D5000054A7B681A607B681846FFF7D3FF7B68CB
:103D600018460837BD4680BD1073020880B582B082
:103D700000AF78607868FFF7E7FF2821786821F0C6
:103D80009EF87B6818460837BD4680BD80B483B076
:103D900000AF7860044A7B681A607B6818460C376D
:103DA000BD465DF8047B7047B872020880B582B0EA
:103DB00000AF78607868FFF7E9FF0821786821F0A4
:103DC0007EF87B6818460837BD4680BD80B483B056
:103DD00000AF786039603B6818460C37BD465DF827
:103DE000047B704780B400AF0B4B1B6893F87630B0
:103DF000002B08D0084B1B68DB6C002B03D0064B54
:103E00001B68DB6C02E0044B1B689B681846BD46D0
:103E10005DF8047B704700BF84B0002480B483B099
:103E200000AF7860074A7B681A607B6800225A609E
:103E30007B6800221A727B6818460C37BD465DF815
:103E4000047B7047EC72020880B483B000AF7860E6
:103E5000044A7B681A607B6818460C37BD465DF8DB
:103E6000047B7047EC72020880B582B000AF7860C6
:103E70007868FFF7E9FF0C21786821F020F87B686B
:103E800018460837BD4680BD80B483B000AF786067
:103E900000BF0C37BD465DF8047B704780B483B02B
:103EA00000AF786000BF0C37BD465DF8047B7047FB
:103EB00080B483B000AF786000BF0C37BD465DF8BA
:103EC000047B704780B582B000AF786012F0A8FA2A
:103ED0000346184612F04AFE00BF0837BD4680BDB3
:103EE00080B483B000AF786039607B683A685A600C
:103EF00000BF0C37BD465DF8047B704780B582B0CB
:103F000000AF78607B68184612F0ACFA094A7B680B
:103F10001A607B680022C3F838217B680022C3F84E
:103F20003C217B68044A13607B6818460837BD460D
:103F300080BD00BFF4700208D0B0002480B483B00C
:103F400000AF786039607B683A681A6000BF0C3750
:103F5000BD465DF8047B704780B483B000AF7860E5
:103F60007B6801221A7200BF0C37BD465DF8047BE6
:103F7000704780B483B000AF786039607B683A687E
:103F80005A6000BF0C37BD465DF8047B70470000E7
:103F900080B584B000AFF860B9607A60FB681846FD
:103FA000FFF7ACFF134AFB681A60FB6803F5A073C8
:103FB000184600F09FF8FB687A68C3F85021FB6848
:103FC000BA68C3F85421FEF7A1F803461A6808320C
:103FD0001268002118469047002002F0DFFBFFF72F
:103FE00001FF034618461AF066F8FB6818461037BA
:103FF000BD4680BD9070020880B483B000AF786089
:1040000039607B6818460C37BD465DF8047B704705
:1040100080B582B000AF786039607B683A6811463D
:104020001846FFF7E9FF3B685A687B685A607B686F
:104030003A680833083292E8030083E803007B689B
:1040400018460837BD4680BD90B589B000AF78608E
:104050007B6803F5A074104BBB610023FB6107F183
:10406000080007F118030CCB796800F05FF807F13E
:10407000080319462046FFF7CBFF07F1080318464F
:10408000FFF790F97B6803F5A0727B68C3F83C21C9
:1040900000BF2437BD4690BD9D40000880B584B068
:1040A00002AF78607B6803F59C717B68D3F8503170
:1040B0001A467B68D3F854310093044B044800F04F
:1040C00067F800BF0837BD4680BD00BFC4B00024FC
:1040D000C0B0002480B483B000AF7860044A7B682D
:1040E0001A607B6818460C37BD465DF8047B704744
:1040F0004071020880B582B000AF78607B681846D6
:10410000FFF7E8FF084A7B681A607B6800225A6064
:104110007B6800229A607B680022DA607B68184620
:104120000837BD4680BD00BFDC70020880B584B092
:1041300000AFF860B960394681E80C00FB681846AA
:10414000FFF7C8FF084AFB681A60FB68BA685A6044
:10415000FB6808333A4692E8030083E80300FB68F3
:1041600018461037BD4680BDDC70020880B582B0AD
:1041700000AF78607B681846FFF750FE034A7B6803
:104180001A607B6818460837BD4680BDC8720208B1
:1041900090B58FB000AFF860B9607A603B607B6823
:1041A0009A687B689B681B6820331B681046984799
:1041B0000346B3F5307F05D27E4B7F4AA3217F486B
:1041C00020F0ACFE00BF7B685A687B685B681B68A8
:1041D00020331B681046984703460F2B05D8784BB1
:1041E000754AA421754820F099FE00BF7B68DA6803
:1041F0007B68DB681B6820331B68104698470346C2
:104200000B2B05D86F4B6C4AA5216C4820F086FE1D
:1042100000BFFB68BB62BB687B623B683B6212F01D
:10422000FFF80346184612F001F93B6A1B68002BA1
:1042300008D03B6A1A683B6A1B681B680C331B6812
:10424000104698473B6A1B68002B07D03B6A1A68E8
:104250003B6A1B681B681B6810469847BB6A1B6853
:10426000002B08D0BB6A1A68BB6A1B681B68143332
:104270001B68104698477B6A1B68002B08D07B6A36
:104280001A687B6A1B681B6804331B6810469847D2
:10429000BB6A1B68002B07D0BB6A1A68BB6A1B6825
:1042A0001B681B68104698477B6A1B68002B08D068
:1042B0007B6A1A687B6A1B681B6808331B68104698
:1042C000984700BF7B68DB680021184600F07CF847
:1042D000034619460C20FFF779FD04462046FFF7F8
:1042E00045FF7C637B689B680021184600F07FF8DF
:1042F000034619464FF43070FFF768FD0446204628
:1043000002F02AFC3C637B685B680021184600F0E1
:1043100081F8034619461020FFF758FD0446396B13
:10432000204602F0C1FBFC623B687A6B1A60BB68F6
:10433000FA6A1A60FB683A6B1A60FB6A002B02D0BB
:10434000FB6A043300E000231946B86CFFF7F6FD62
:10435000FB6A0433B96C1846FFF70BFE3B6BF96A36
:10436000184600F06AF83B6BFB61FB6ABB617B6B34
:104370007B61FB691B680C331B68F8699847BB6954
:104380001B681B68B86998477969F86913F026FCBF
:104390007B691B6810331B68786998477B691B68C9
:1043A00014331B687869984700BFFB6A18463C378E
:1043B000BD4690BD0465020894650208986602082F
:1043C000F06602089467020880B582B000AF78609A
:1043D0000B467B807B681B6824331B687A881146F8
:1043E00078689847034618460837BD4680BD80B5B3
:1043F00082B000AF78600B467B807B681B682433FB
:104400001B687A881146786898470346184608372B
:10441000BD4680BD80B582B000AF78600B467B8022
:104420007B681B6824331B687A8811467868984734
:10443000034618460837BD4680BD80B483B000AF40
:10444000786039607B683A68DA6300BF0C37BD4634
:104450005DF8047B7047000080B582B000AF7860E3
:10446000054A7B681A607B681846FFF7EDFC7B689D
:1044700018460837BD4680BDC872020880B582B0B4
:1044800000AF78607868FFF7E7FF0C21786820F0CC
:1044900016FD7B6818460837BD4680BD80B483B0E2
:1044A00000AF78607B681B6A18460C37BD465DF824
:1044B000047B704780B483B000AF78607B685B6A30
:1044C00018460C37BD465DF8047B704780B58CB04C
:1044D00008AFF860B96011461A460B46FB801346D8
:1044E000BB80F868B988FA883B8F0693BB8E05932A
:1044F00097F82830049397F82430039397F82030E6
:1045000002933B7F01933B7E00930B46B96812F008
:10451000CDFF0A4AFB681A60FB68FA6A9A61FB6879
:104520003A6BDA61FB68FA6B1A62FB683A6C5A62A2
:10453000FB6818461037BD4680BD00BF10730208E7
:1045400080B485B000AF786039607B689B69FB60A0
:104550003B689B88DB0A9BB29B00FA6813441A688D
:104560003B681B68134418461437BD465DF8047B4E
:10457000704780B489B000AFF8600B467A607B81E9
:104580007B68002B03D07B681B7B002B01D10023B1
:1045900030E0FB68DA697B687B617B695B7B1B02CF
:1045A0001BB203F4E06319B27B69DB7A1BB20B43E5
:1045B0001BB29BB29B001344FB617B681B7B7B831C
:1045C0007B8B002B15D0FB691B887A899A4203D11B
:1045D000FB6993F902300DE0FB691B887A899A42E6
:1045E00006D37B8B013B7B83FB690433FB61E7E7ED
:1045F00000BF002318462437BD465DF8047B704792
:1046000080B483B000AF786039607B683A681A6024
:104610007B6818460C37BD465DF8047B704780B454
:1046200085B000AFF860084611461A4603467B8104
:104630000B463B811346FB80FB687A891A80FB6836
:104640003A895A80FB68FA889A80FB683A8BDA804C
:10465000FB6818461437BD465DF8047B704780B48C
:1046600083B000AF78607B681B7918460C37BD4675
:104670005DF8047B704780B483B000AF78600B4670
:104680007B807B687A881A807B6818460C37BD4629
:104690005DF8047B7047000080B582B000AF7860A1
:1046A000144A7B681A607B6804331846FEF78EF85C
:1046B0007B680C331846FEF789F87B6800225A6144
:1046C0007B6800229A617B680022DA617B680022A5
:1046D0001A847B6800225A847B68002283F8242095
:1046E0007B68012283F825207B6818460837BD4681
:1046F00080BD00BF087E020880B483B000AF786040
:10470000044A7B681A607B6818460C37BD465DF822
:10471000047B7047087E020880B582B000AF7860E5
:104720007868FFF7E9FF2821786820F0C8FB7B68EC
:1047300018460837BD4680BD80B582B000AF7860AE
:104740007B6893F82530002B05D07B681B681433F9
:104750001B687868984700BF0837BD4680BD80B4A5
:1047600083B000AF7860002318460C37BD465DF873
:10477000047B704780B584B000AFF86008461146EE
:104780001A4603467B810B463B811346FB80B7F9F3
:104790000820B7F90A301946F86800F044F8B7F96C
:1047A0001820B7F906301946F86800F098F800BFED
:1047B0001037BD4680BD80B483B000AF78607B68A1
:1047C000B3F9083018460C37BD465DF8047B7047D6
:1047D00080B483B000AF78607B68B3F90A301846C4
:1047E0000C37BD465DF8047B704780B483B000AFE2
:1047F00078600B467B807B687A889A8000BF0C3794
:10480000BD465DF8047B704780B483B000AF78602C
:104810000B467B807B687A88DA8000BF0C37BD4608
:104820005DF8047B704780B582B000AF78600B46BE
:104830007B8013463B807B681B6830331B68B7F96D
:1048400002201146786898477B681B6834331B68E0
:10485000B7F9002011467868984700BF0837BD4671
:1048600080BD80B483B000AF78600B467B807B68EE
:104870007A881A8100BF0C37BD465DF8047B70470B
:1048800080B483B000AF78600B467B807B687A8809
:104890005A8100BF0C37BD465DF8047B704780B479
:1048A00083B000AF786000BF0C37BD465DF8047B75
:1048B000704780B483B000AF7860396000BF0C37B8
:1048C000BD465DF8047B704780B483B000AF78606C
:1048D000396000BF0C37BD465DF8047B704780B57A
:1048E00082B000AF78600B467B8013463B807B68CC
:1048F0001B6838331B68B7F902201146786898475F
:104900007B681B683C331B68B7F900201146786848
:10491000984700BF0837BD4680BD90B583B000AF53
:10492000786039603868FFF746FF03461C463868F0
:10493000FFF74EFF03461A4621467868FFF7CFFF80
:1049400000BF0C37BD4690BD80B483B000AF786027
:10495000396000BF0C37BD465DF8047B704780B4FA
:1049600083B000AF786000BF0C37BD465DF8047BB4
:10497000704780B483B000AF78600B46FB707B68F3
:10498000FA7883F8242000BF0C37BD465DF8047B1D
:10499000704780B483B000AF78607B6893F82530AF
:1049A00018460C37BD465DF8047B704780B483B071
:1049B00000AF78607B6893F8243018460C37BD460A
:1049C0005DF8047B704780B582B000AF78600B461D
:1049D0007B8013463B807B681B6854331B68798857
:1049E0007A68B2F9042092B28A1A92B210B2398867
:1049F0007A68B2F9062092B28A1A92B212B20146CD
:104A00007868984700BF0837BD4680BD80B483B042
:104A100000AF78607B684FF6FF729A817B684FF633
:104A2000FF721A847B684FF6FF725A8400BF0C37FE
:104A3000BD465DF8047B704780B584B000AFF86078
:104A4000B9607A60F868FFF7E1FF7B681A68FB6875
:104A5000DA617B68FA681A6000BF1037BD4680BD16
:104A600080B582B000AF78607B681846FFF714FE0F
:104A7000054A7B681A607B6800229A627B68184648
:104A80000837BD4680BD00BF2079020880B483B0DE
:104A900000AF78607B689B6A18460C37BD465DF8AE
:104AA000047B704780B582B000AF7860064A7B68AF
:104AB0001A607B680433184600F016FB7B681846C2
:104AC0000837BD4680BD00BF047F020880B582B0B4
:104AD00000AF78607868FFF7E5FF3C21786820F048
:104AE000EEF97B6818460837BD4680BD80B483B0B8
:104AF00000AF786000BF0C37BD465DF8047B70479F
:104B000080B483B000AF786000BF0C37BD465DF85D
:104B1000047B704780B483B000AF786000BF0C376F
:104B2000BD465DF8047B704780B483B000AF786009
:104B300000BF0C37BD465DF8047B704780B483B07E
:104B400000AF78600B46FB7000BF0C37BD465DF8C8
:104B5000047B704780B582B000AF786039607B68B5
:104B60000433396818460EF06DF800BF0837BD46AB
:104B700080BD80B584B000AFF8607B600B467B8160
:104B800013463B81FB681846FFF703FF0346002BE3
:104B900008D0FB681846FFF709FF0346002B01D039
:104BA000012300E00023002B02D0FA687B681A6022
:104BB00000BF1037BD4680BD80B582B000AF7860C1
:104BC0007B681846FFF768FD034A7B681A607B68BC
:104BD00018460837BD4680BD0877020880B582B008
:104BE00000AF7860054A7B681A607B681846FFF75B
:104BF00083FD7B6818460837BD4680BD08770208EC
:104C000080B582B000AF78607868FFF7E7FF2821B1
:104C1000786820F054F97B6818460837BD4680BD97
:104C200080B582B000AF78607B68184626231A46AC
:104C3000002120F0FFF97B681846FFF7BDFF094A05
:104C40007B681A607B68FF2283F826207B68283304
:104C500000211846FFF7D4FC7B6818460837BD468C
:104C600080BD00BF987B020880B483B000AF78603D
:104C700039607B683A689A6200BF0C37BD465DF8C0
:104C8000047B704780B483B000AF78600B46FB7044
:104C90007B68FA7883F8262000BF0C37BD465DF8A4
:104CA000047B704780B582B000AF786039607B6864
:104CB000184626231A46002120F0BCF97B681846C6
:104CC000FFF77AFF094A7B681A607B683A681288A6
:104CD000DA847B68FF2283F82820396878680FF02F
:104CE00042FE7B6818460837BD4680BDF87C020846
:104CF00080B483B000AF78600B467B80064A7B6847
:104D00001A607B687A889A807B6818460C37BD46A3
:104D10005DF8047B704700BFB872020880B582B0AE
:104D200000AF78607B68184626231A46002120F0E1
:104D300081F97B681846FFF73FFF164A7B681A60C7
:104D40007B6828334FF6FF711846FFF7D1FF7B6869
:104D5000303300211846FFF753FC7B6800229A8607
:104D60007B68FF2283F836207B68002283F8372097
:104D70007B68002283F838207B68002283F8392082
:104D80007B683C33184600F0F2F87B681846083719
:104D9000BD4680BD087B020890B587B000AF786142
:104DA0000B467B827B69B7F9122011461846FFF744
:104DB00058FD7B691B6884331B687C693A467969B6
:104DC0001046984704F13C033A4607CA83E80700B7
:104DD00000BF1C37BD4690BD90B587B000AF78616D
:104DE0000B467B827B69B7F9122011461846FFF704
:104DF00047FD7B691B6884331B687C693A46796987
:104E00001046984704F13C033A4607CA83E8070076
:104E100000BF1C37BD4690BD80B582B000AF786042
:104E200039607868FDF7D2FC78680837BD4680BDE8
:104E300080B483B000AF78600B46FB707B68FA7873
:104E400083F8362000BF0C37BD465DF8047B704701
:104E5000F0B585B000AF78600B467B807E687B68DC
:104E60001B6834331C687D88786800F069F8034655
:104E7000FB601D4B1B68002B05D11C4B1C4A6C2191
:104E80001C4820F04BF8FB68BB60BB689A881A4B43
:104E90001B889A4234BF01230023DBB2002B05D1CB
:104EA000164B134A6D21134820F038F800BF144BFD
:104EB0001A680D4B1968FB689B885B000B441B78D4
:104EC0009B0013441B681A682C32126818469047DE
:104ED0000346EB1A9BB21BB219463046A04700BFEF
:104EE0001437BD46F0BD00BFD4B0002438680208B6
:104EF0007C680208B8680208D8B00024106902086B
:104F0000DCB0002480B582B000AF78600B467B80B7
:104F100013463B807A687B681B6830331B68B7F99F
:104F20000210104698477B681B6864331B68B7F90A
:104F3000002011467868984700BF0837BD4680BDFD
:104F400080B483B000AF78607B68283318460C3794
:104F5000BD465DF8047B704780B483B000AF7860D5
:104F6000002318460C37BD465DF8047B704780B5BA
:104F700084B002AF786078684FF0FF3300934FF051
:104F8000FF3300220021FFF74AFB7B6800229A6072
:104F90007B6818460837BD4680BD000080B582B0EA
:104FA00000AF7860084A7B681A607B68283318462F
:104FB000FEF7ECFE7B681846FFF710FE7B6818468C
:104FC0000837BD4680BD00BF087B020880B582B0AF
:104FD00000AF78607868FFF7E1FF482178681FF03C
:104FE0006EFF7B6818460837BD4680BD80B582B02D
:104FF00000AF78607B681846FFF790FE034A7B6835
:105000001A607B6818460837BD4680BD007C0208E0
:1050100080B582B000AF786039607868FFF7A7FF8D
:1050200078680837BD4680BD80B582B000AF786033
:10503000054A7B681A607B681846FFF7AFFF7B68FC
:1050400018460837BD4680BD007C020880B582B096
:1050500000AF78607868FFF7E7FF482178681FF0B5
:105060002EFF7B6818460837BD4680BD80B582B0EC
:1050700000AF78607B681846FFF7B8FF054A7B6889
:105080001A607B6800229A647B6818460837BD4620
:1050900080BD00BF7876020880B483B000AF78602E
:1050A00039607B683A689A6400BF0C37BD465DF88A
:1050B000047B704780B483B000AF78607B689B6CE2
:1050C00018460C37BD465DF8047B704780B582B04A
:1050D00000AF7860396039687868FFF7DDFF00BF9E
:1050E0000837BD4680BD000080B582B000AF786053
:1050F000054A7B681A607B681846FFF7FDFA7B68F3
:1051000018460837BD4680BD2079020880B582B0B8
:1051100000AF78607868FFF7E7FF2C2178681FF010
:10512000CEFE7B6818460837BD4680BD80B582B08C
:1051300000AF78607B681846FFF792FC0B4A7B68EB
:105140001A607B68002283F82C207B68FF2283F89A
:105150002D207B6800221A637B6801211846FFF727
:1051600008FC7B6818460837BD4680BDDC75020820
:1051700080B582B000AF78600B46FB707B68FA7830
:1051800083F82C207B681B688C331B6878689847F1
:1051900000BF0837BD4680BD80B483B000AF7860E3
:1051A0007B6893F82C3018460C37BD465DF8047BBD
:1051B000704780B483B000AF78607B6893F82D307F
:1051C00018460C37BD465DF8047B704780B483B049
:1051D00000AF786039607B683A681A6300BF0C37AB
:1051E000BD465DF8047B704780B582B000AF786043
:1051F0007B681B6B002B0DD07B681A6B7B681B6B6D
:105200001B680C331B68104698470346002B01D0DF
:10521000012300E00023002B09D07B681A6B7B6818
:105220001B6B1B6808331B6879681046984700BFE2
:105230000837BD4680BD80B483B000AF786000BF42
:105240000C37BD465DF8047B704780B483B000AF77
:10525000786000BF0C37BD465DF8047B70470000E6
:1052600080B582B000AF7860054A7B681A607B68C1
:105270001846FFF7B3FC7B6818460837BD4680BD6B
:10528000F87C020880B582B000AF78607868FFF7DC
:10529000E7FF2C2178681FF012FE7B68184608375C
:1052A000BD4680BD80B582B000AF7860054A7B689E
:1052B0001A607B681846FFF791FC7B681846083730
:1052C000BD4680BD987B020880B582B000AF786093
:1052D0007868FFF7E7FF2C2178681FF0F0FD7B6806
:1052E00018460837BD4680BD80B582B000AF7860F3
:1052F0007B681846FFF794FC084A7B681A607B6855
:105300002C3300211846FFF77BF97B6800221A86B0
:105310007B6818460837BD4680BD00BF907C0208F8
:1053200080B483B000AF786039607B683A68DA6235
:1053300000BF0C37BD465DF8047B704780B483B076
:1053400000AF78600B467B807B687A881A8600BF46
:105350000C37BD465DF8047B7047000080B582B015
:1053600000AF7860054A7B681A607B681846FFF7D3
:10537000BBFE7B6818460837BD4680BDDC75020859
:1053800080B582B000AF78607868FFF7E7FF34211E
:1053900078681FF094FD7B6818460837BD4680BDCD
:1053A00080B584B000AF786039607B681846FFF73D
:1053B000F3FE0346FB733868FFF751F90346002BF1
:1053C0000CBF01230023BB73BB7B002B05D0FB7BF1
:1053D00083F00103DBB2002B08D1BB7B83F0010318
:1053E000DBB2002B0FD0FB7B002B0CD07B68BA7B91
:1053F00011461846FFF7BCFE7A687B681B681433B9
:105400001B6810469847BB7B002B06D07A687B68E8
:105410001B6888331B681046984700BF1037BD468D
:1054200080BD000080B582B000AF7860054A7B681F
:105430001A607B681846FFF735FB7B68184608370B
:10544000BD4680BDF474020880B582B000AF7860BC
:105450007868FFF7E7FF402178681FF030FD7B6830
:1054600018460837BD4680BD80B582B000AF786071
:10547000184A7B681A607B6803F52B73184600F0A6
:105480006DFE7B6803F5EC73184600F089FE7B68BF
:1054900003F58873184600F083FE7B68C433184612
:1054A00000F0A6FE7B6898331846FFF7D9FE7B68AC
:1054B0006C331846FFF7D4FE7B6840331846FFF77D
:1054C000F1FE7B681846FFF7ADFF7B68184608378A
:1054D000BD4680BD6873020880B582B000AF7860B9
:1054E0007868FFF7C1FF4FF42F7178681FF0E7FC71
:1054F0007B6818460837BD4680BD80B483B000AFD6
:10550000786000BF0C37BD465DF8047B704780B4FF
:1055100083B000AF786000BF0C37BD465DF8047BF8
:10552000704700002DE9F041B4B002AF78617B69AB
:10553000184600F0D5FB8F4A7B691A607B694033BF
:105540001846FFF76DFB7B6903F16C0407F11C0340
:105550004FF6FF711846FFF78EF807F11C03194646
:105560002046FFF79FFB7B6903F1980407F12003B6
:105570004FF6FF711846FFF77EF807F12003194632
:105580002046FFF78FFB7B69C4331846FFF76EFD9B
:105590007B6903F58873184600F024FC7B6903F5EA
:1055A000EC73184600F01EFC7B6903F52B70724B00
:1055B0007B620023BB6207F124030CCB796900F006
:1055C00049FC7B6903F140004FF4887300934FF46A
:1055D000F07300220021FFF7CDF87B6903F140044E
:1055E000002387F89030002387F88F30002387F856
:1055F0008E3097F890301B041A4697F88F301B02B4
:105600001A4397F88E30134343F07F4207F1880323
:1056100011461846FEF7F4FFD7F8883019462046A1
:10562000FFF722FB7B696C33002200211846FFF74D
:10563000FAF87B6903F16C0407F12C03002118468A
:10564000FFF719F807F12C03194620460FF08BF9E4
:105650007B6998336A223C211846FFF7E4F87B699E
:1056600003F1980407F1300301211846FFF703F80E
:1056700007F13003194620460FF075F97B6903F1F5
:10568000C4001E23009384237922AE21FFF772F811
:105690007B6903F1C404FF2387F89330FF2387F865
:1056A0009230FF2387F8913097F893301B041A4605
:1056B00097F892301B021A4397F89130134343F046
:1056C0007F4207F1840311461846FEF799FFD7F889
:1056D0008430C7F89440BB61D7F89430BA691A6334
:1056E00000BF7B69C433C7F89C300023A7F89A3009
:1056F000D7F89C30B7F89A209A86D7F89C301B6868
:1057000084331B68D7F89C403A46D7F89C10104663
:10571000984704F13C033A4607CA83E8070000BFF4
:105720007B6903F5287407F1340300211846FFF75D
:10573000DFFA124B1B68002B05D1114B114A602177
:1057400011481FF0EBFB07F13403C7F8A030D7F87E
:10575000A0309A880D4B1B889A4234BF0123002346
:10576000DBB2002B16D10A4B064A612106481FF016
:10577000D5FB00BF687302089D5C0008D4B000240C
:105780003868020850690208B8680208D8B00024D6
:105790001069020800BFEC4B1B683A8F114618468F
:1057A00001F052F8034600BFE84A0521204613F0F5
:1057B000F3FC07F134031846FEF7E8FA7B6903F1BE
:1057C000C4027B6903F5287319461046FFF77EFC77
:1057D0007B6903F1C40407F13C0303211846FFF77A
:1057E00087FA07F13C03194620460EF001FF07F146
:1057F0003C031846FEF7CAFA7B6903F588701E233E
:10580000009328230022002100F044FB7B6903F56C
:1058100088730521184600F05DFB7B6903F58874E9
:10582000002387F8A630662387F8A530992387F8E8
:10583000A43097F8A6301B041A4697F8A5301B022F
:105840001A4397F8A430134343F07F4207F18003D3
:1058500011461846FEF7D4FED7F880301D460023C7
:1058600087F8A930992387F8A830CC2387F8A73088
:1058700097F8A9301B041A4697F8A8301B021A4360
:1058800097F8A730134343F07F4207F17C0311469A
:105890001846FEF7B5FEFB6F1E46002387F8AC30B6
:1058A000332387F8AB30662387F8AA3097F8AC30FB
:1058B0001B041A4697F8AB301B021A4397F8AA301C
:1058C000134343F07F4207F1780311461846FEF771
:1058D00097FEBB6F9846332387F8AF30662387F86F
:1058E000AE30992387F8AD3097F8AF301B041A46D5
:1058F00097F8AE301B021A4397F8AD30134343F0CC
:105900007F4207F1740311461846FEF779FE7B6F5C
:105910000093434632462946204600F0EDFA7B6963
:1059200003F5887407F1440302211846FFF7E0F9F4
:1059300007F144031946204600F0FBFA07F144033F
:105940001846FEF723FA7B6903F588701E2300933F
:1059500028230022002100F002FB7B6903F58874F4
:105960000A2387F8B2300A2387F8B1300A2387F870
:10597000B03097F8B2301B041A4697F8B1301B02CA
:105980001A4397F8B030134343F07F4207F1700396
:1059900011461846FEF734FE3B6F1D460A2387F872
:1059A000B5300A2387F8B4300A2387F8B33097F864
:1059B000B5301B041A4697F8B4301B021A4397F807
:1059C000B330134343F07F4207F16C03114618468E
:1059D000FEF716FEFB6E1A462946204600F0DFFA57
:1059E0007B6903F588701E2300932823C822282191
:1059F000FEF7C0FE7B6903F588727B6903F52B73A4
:105A000019461046FFF7E2FB7B6903F5EC701E2395
:105A1000009328230022002100F03CFA7B6903F563
:105A2000EC730521184600F055FA7B6903F5EC7418
:105A3000002387F8B830662387F8B730992387F8B2
:105A4000B63097F8B8301B041A4697F8B7301B02E7
:105A50001A4397F8B630134343F07F4207F16803C7
:105A600011461846FEF7CCFDBB6E1D46002387F895
:105A7000BB30992387F8BA30CC2387F8B93097F830
:105A8000BB301B041A4697F8BA301B021A4397F82A
:105A9000B930134343F07F4207F1640311461846BF
:105AA000FEF7AEFD7B6E1E46002387F8BE30332323
:105AB00087F8BD30662387F8BC3097F8BE301B04EA
:105AC0001A4697F8BD301B021A4397F8BC301343AF
:105AD00043F07F4207F1600311461846FEF790FD40
