:020000040800F2
:1000000070040020A1010008871300085F11000898
:1000100085130008AD0200089115000800000000DB
:10002000000000000000000000000000F9140008BB
:10003000AF0200080000000089130008FB1400084C
:10004000BB010008BB010008BB010008BB010008A0
:10005000BB010008BB010008B1020008BB01000899
:10006000BB010008BB010008BB010008BB01000880
:10007000BB010008BB010008BB010008BB01000870
:10008000BB010008BB010008BB010008BB01000860
:10009000BB010008BB010008BB010008BB01000850
:1000A000BB010008BB010008BB010008BB01000840
:1000B000BB010008BB010008BB010008BB01000830
:1000C000BB010008BB010008BB010008BB01000820
:1000D000BB010008BB010008BB010008BB01000810
:1000E000BB010008BB010008BB010008BB01000800
:1000F000BB010008BB010008BB010008BB010008F0
:10010000BB010008BB010008BB010008BB010008DF
:10011000BB010008BB010008BB010008BB010008CF
:10012000BB010008BB010008BB010008BB010008BF
:10013000BB010008BB010008BB010008BB010008AF
:10014000BB010008BB010008BB010008BB0100089F
:10015000BB010008BB010008BB010008BB0100088F
:10016000BB010008BB010008BB010008BB0100087F
:10017000BB010008BB010008BB0100080000000033
:10018000BB010008BB010008DFF810D000F07CF8CC
:1001900000480047D1150008AFF30080700400202C
:1001A0000648804706480047FEE7FEE7FEE7FEE711
:1001B000FEE7FEE7FEE7FEE7FEE7FEE78115000843
:1001C000890100082DE9F05F0546002092469B4614
:1001D00088460646814640241BE02846414647465D
:1001E000224600F041F853465A46C01A914110D3B6
:1001F00011461846224600F028F82D1A67EB010830
:100200004F4622460120002100F01FF817EB00099D
:100210004E41201EA4F10104DFDC484631462A4647
:100220004346BDE8F09FD2B201E000F8012B491E21
:10023000FBD270470022F6E710B513460A46044683
:100240001946FFF7F0FF204610BD202A04DB203AB4
:1002500000FA02F1002070479140C2F1200320FA19
:1002600003F3194390407047202A04DB203A21FA17
:1002700002F00021704721FA02F3D040C2F12002BF
:100280009140084319467047064C074D06E0E06868
:1002900040F0010394E8070098471034AC42F6D3CD
:1002A000FFF776FF84160008A4160008FEE77047E3
:1002B000012000F02BB8000010B5104C00220821DE
:1002C000204600F02DF90E49A920322308700122A2
:1002D0000C4800F08CFD0A4932230122891C094890
:1002E00000F0D8FC01220821204600F019F9A114E1
:1002F000BDE81040044800F00BB9000000100240B7
:100300000000002014000020000C0240044910B539
:100310000A68024202D00860FFF7CEFF10BD00005D
:10032000143C01402DE9F84FDFF8B8A10022012567
:100330000AF1040B03264FF00F090BF1040E00BF66
:100340000B6805FA02F42340A3426FD10F7907F03E
:100350000307012F01D0022F16D187684FEA420808
:1003600006FA08FC27EA0C07D1F80CC00CFA08FCC6
:100370004CEA070CC0F808C04768A7430C79C4F3DF
:10038000001494403C4344600C79E443A4070AD031
:10039000C4684FEA420C06FA0CF7BC438F6807FAB0
:1003A0000CF72743C7600C7904F00304022C12D128
:1003B000D40800EB840CDCF820405707FF0E09FA44
:1003C00007F824EA0804D1F8108008FA07F848EA88
:1003D0000408CCF8208004684FEA420C06FA0CF7B7
:1003E000BC430F7907F0030707FA0CF727430760B0
:1003F0004C68E40070D53C4C276847F48047276080
:10040000246822F0030704F480440094374C07EB7F
:10041000040CDCF8084897074FEA177809FA08F740
:10042000BC43334FB84202D1002724E054E0314F9F
:10043000B84201D101271EE02F4FB84201D1022757
:1004400019E02E4FB84201D1032714E02C4FB842D7
:1004500001D104270FE02B4FB84201D105270AE054
:10046000294FB84201D1062705E0284FB84201D1F3
:10047000072700E0082707FA08F72743CCF8087891
:10048000DAF800405746D1F804C09C435FEACC3C00
:1004900000D51C433C60DBF800405F46D1F804C047
:1004A0009C435FEA8C3C00D51C433C60DEF8004076
:1004B0007746D1F804C09C435FEACC2C00D51C439E
:1004C0003C60084F0C373C68D1F804C09C435FEA9D
:1004D0008C2C00D51C433C60521C102AFFF430AF1A
:1004E000BDE8F88F003C0140443802400030014034
:1004F000000002400004024000080240000C0240DC
:10050000001002400014024000180240001C02408B
:10051000426921EA02030A4043EA024181617047CD
:100520000AB1816170470904FBE700000148806857
:1005300070470000040000200248816802781144DE
:1005400081607047040000200B4810B5016841F439
:1005500000710160016841F480610160016841F44B
:1005600080710160032000F071F8002000F006F8AF
:1005700000F024F8002010BD003C024070B50D4D85
:1005800004464FF47A712878B1FBF0F00A49096803
:10059000B1FBF0F000F0CFFD48B9102C07D20022DB
:1005A0002146501E00F032F800206C6070BD012022
:1005B00070BD000004000020100000200B4882B035
:1005C000016841F480410160006800F480400090BF
:1005D0000648001F016841F080510160006800F08A
:1005E00080500090072002B000F030B8443802403C
:1005F000002809DB00F01F02012191404009800022
:1006000000F1E020C0F8001170470000F0B40E4B7C
:100610001B680C46C3F30223C3F10705042D00D960
:100620000425191D072901D2002300E0DB1E012645
:1006300006FA05F1491E214099409E40761E16405B
:100640003143F0BC00F0A5BF0CED00E0064900F01E
:10065000070208684FF6FF03184040EA0220034AE9
:1006600010430860704700000CED00E00000FA0540
:100670002DE9F0470E46050065D0DFF81481D8F863
:100680000000F7B200F00700B04207D288F800700F
:10069000D8F8000000F00700B04254D128683D4C63
:1006A000810712D5400703D5206840F4E050206050
:1006B0002878000703D5206840F460402060206857
:1006C000A96820F0F000084320602878C0072DD0EA
:1006D000304968680839012812D0022813D003284D
:1006E00011D00968890700292DDA216821F003015A
:1006F00001432160FFF71AFF814641F2883A0EE07C
:1007000009688903EFE709688901ECE7FFF70EFF45
:10071000A0EB0901514502D90320BDE8F08720680C
:10072000696800F00C00B0EB810FEFD1D8F8001031
:10073000404601F00701B14207D90770006800F098
:100740000700B04201D00120E7E72878400705D52F
:100750002068E96820F4E05008432060287800070A
:1007600006D52068296920F4604040EAC100206075
:1007700000F018F82168084AC1F30311515CC84021
:100780000649086006480068FFF7F8FE0020C4E745
:10079000003C024008380240741600081000002097
:1007A00008000020154810B5006810F00C0214482D
:1007B00013D04110042A0FD0082A0ED10F4C241F49
:1007C0002268236802F03F025B0207D52068C0F36D
:1007D0008810A0FB010106E0084610BD2168C1F3A6
:1007E0008811A1FB00010023FFF7ECFC2168C1F395
:1007F0000141491C4900B0FBF1F010BD083802402E
:100800000024F4002DE9F84F04006ED02078DFF8C2
:100810004C93C007A9F104054AD009F1040001680E
:10082000C1F38101012908D00068C0F381000228CA
:100830000AD1D9F80000400206D52868800337D5D0
:1008400060680028E1D033E06068B0F5803F10D0E8
:10085000B0F5A02F286810D020F4803028602868D8
:1008600020F4802028606068A8B1FFF75FFE06468C
:100870000DE0286840F48030F4E740F480202860E0
:10088000F7E700BFFFF752FE801B642873D8286883
:100890008003F7D50CE0FFF749FE064605E000BFF0
:1008A000FFF744FE801B6428F0D828688003F7D443
:1008B0002078DFF8AC8280074FF0000A3ED5A748C9
:1008C000001D016811F00C0F08D00068C0F3810012
:1008D00002280BD1D9F80000400207D4286880070D
:1008E00016D5E068012800D112E033E1E068B8B124
:1008F0000120C8F80000FFF719FE064605E000BF1A
:10090000FFF714FE801B0228C0D828688007F7D59F
:100910002868216920F0F80040EAC10028600DE055
:10092000C8F800A0FFF702FE064604E0FFF7FEFD50
:10093000801B02281FD828688007F7D4207800077A
:1009400022D5864F87486169703771B101210160F6
:10095000FFF7ECFD064604E0FFF7E8FD801B0228E8
:1009600009D838688007F7D50EE0C0F800A0FFF777
:10097000DDFD064605E082E0FFF7D8FD801B02287A
:100980007DD838688007F7D42078400768D5DFF82D
:10099000CCB100270BF13C0BDBF80000C0000BD4FE
:1009A000DBF8001041F08051CBF80010DBF80000BC
:1009B000012700F0805000906B4E3068C00510D4C5
:1009C000306840F480703060FFF7B0FD009005E0C3
:1009D000FFF7ACFD0099401A022850D83068C005D6
:1009E000F6D55E4EA0686C3601280FD00528306819
:1009F00010D020F001003060306820F0040030603A
:100A0000A068B8B1FFF792FD00900FE0306840F0A9
:100A10000100F4E740F004003060F7E7FFF786FDDF
:100A20000099411A41F28830814266D830688007C7
:100A3000F4D50EE0FFF77AFD009007E0FFF776FDB2
:100A40000099411A41F28830814256D830688007B7
:100A5000F4D42FB1DBF8001021F08051CBF8001056
:100A6000A069C8B33D49091D0968C1F38101022984
:100A70004AD00228504607D0C8F8600000E03CE0A9
:100A8000FFF754FD04463BE04746C8F86000FFF717
:100A90004DFD064605E000BFFFF748FD801B02281C
:100AA0002BD828688001F7D4D4E907010843A16A4C
:100AB0002E4A490802EB0141626A41EA8211084369
:100AC00094F82C1040EA0161C9F800100120386642
:100AD000FFF72CFD044606E03EE000BFFFF726FDD1
:100AE000001B022809D828688001F7D534E000BF30
:100AF000FFF71CFD001B022802D90320BDE8F88F78
:100B000028688001F4D427E00128F7D0D9F8000044
:100B1000E26900F4800191421CD1226A00F03F0199
:100B2000914217D147F6C071626A0140B1EB821F52
:100B300010D1A26A4FF0FF3300F4403103EB5202B0
:100B4000B1EB024F06D194F82C1000F07060B0EBBE
:100B5000016F01D00120D1E70020CFE70438024027
:100B600000004742800E4742007000400000FFFF37
:100B700070B5040009D0606A002540B12561656147
:100B8000A56294F8510040B10CE0012070BD60688E
:100B9000B0F5827FF4D0E561F2E784F8505020464A
:100BA00000F044F8022084F851002068016821F028
:100BB00040010160A088218900F4827001F40441A1
:100BC0000843A18901F400610843217C01F002017E
:100BD0000843217D01F001010843218B01F40071DC
:100BE0000843217F01F03801084394F8201001F0F8
:100BF00080010843218D01F40051084321680860F9
:100C0000A069042101EA104094F8241001F01001B9
:100C10000843216848602068C16921F40061C1610E
:100C20006565012084F85100002070BD10B586B0C4
:100C3000044614216846FFF7FDFA134920688842EC
:100C40001FD112480021026842F4805202600068FD
:100C500000F4805005900D481438026842F00102FB
:100C60000260006800F001000590E0200090022082
:100C7000CDE901010520CDE9031069460448FFF7DD
:100C800051FB06B010BD0000003001404438024066
:100C9000000002402DE9F84F0446406800259846C0
:100CA00016460F464FF0040BB0F5827F01D1A068C5
:100CB00088B194F85000012818D0012084F8500021
:100CC000FFF734FC814694F851004FF0000A0128E8
:100CD0000ED0022582E084F851B013460A46204621
:100CE000CDF8008000F036F9BDE8F88F0220FBE770
:100CF000002F72D0002E70D084F851B0C4F854A0E8
:100D0000A763A687E687C4F830A0A4F834A0A4F8A7
:100D100036A0C4F840A0C4F844A0A068B0F5004FC5
:100D200009D12068016821F0400101602068016854
:100D300021F48041016020680168490603D40168FC
:100D400041F040010160E068D8B139E02068816875
:100D5000C90709D0007BA16B0870A06B401CA06381
:100D6000E08F401EE0870CE0FFF7E0FBA0EB0901FD
:100D7000414503D3B8F1FF3F03D036E0B8F1000F8F
:100D800033D0E08F0028E1D11DE020688168C907D9
:100D900009D0C068A16B0880A06B801CA063E08FA5
:100DA000401EE0870CE0FFF7C1FBA0EB09014145C5
:100DB00003D3B8F1FF3F03D017E0B8F1000F14D010
:100DC000E08F0028E1D14A464146204600F0DDFA96
:100DD00008B120206065606D00B10125012084F814
:100DE000510084F850A028467EE70325F6E72DE958
:100DF000F84F044690F8500000271D4616468946D5
:100E000001280DD04FF0010B84F850B0FFF78EFB96
:100E1000804694F85100BA46012804D0022793E096
:100E20000220BDE8F88FB9F1000F73D0002E71D009
:100E3000032084F85100C4F854A0C4F83090A6866A
:100E4000E686C4F838A0A4F83CA0A4F83EA0C4F8F4
:100E500044A0C4F840A0A068B0F5004F09D12068B4
:100E6000016821F0400101602068016841F480417F
:100E7000016020680168490603D4016841F040011F
:100E80000160E068B0F5006F606803D030B3012EF8
:100E900024D041E008B1012E1CD1206B21680088CC
:100EA000C86006E020688168890709D5216B098838
:100EB000C160206B801C2063E08E401EE08609E04C
:100EC000FFF734FBA0EB0800A84202D3681C01D056
:100ED00031E07DB3E08E0028E4D120E0206B216872
:100EE0000078087306E020688168890709D5216BBE
:100EF00009780173206B401C2063E08E401EE08661
:100F00000AE0FFF713FBA0EB0800A84203D3681C1C
:100F100002D010E017E06DB1E08E0028E3D1424628
:100F20002946204600F060FA08B120206065A068DC
:100F300018B106E0FFE7032706E02068C168806873
:100F40000090606D00B1012784F851B084F850A082
:100F5000384666E72DE9F84F044690F85000002720
:100F60000A9E1D4692468B464FF0010901280ED07D
:100F7000012084F85000FFF7D9FA804694F8510018
:100F8000616801280CD0B1F5827F07D102E0022010
:100F9000BDE8F88FA16809B9042801D00227C2E092
:100FA000BBF1000F27D0BAF1000F24D01DB394F885
:100FB0005100042802D0052084F85100002060650B
:100FC000C4F838A0E587A587C4F830B0E586A586C3
:100FD0002064606420680168490603D4016841F018
:100FE00040010160E068B0F5006F606805D0E8B3CB
:100FF000012D46D07FE0012795E008B1012D39D1C0
:10100000206B21680088C860206B801C2063E08E04
:10101000401EE0862EE02068816889070FD5E18EAA
:1010200069B1B9F1010F0AD1216B0988C160206B48
:10103000801C2063E08E401EE0864FF0000920688F
:101040008168C9070CD0E18F51B1C068A16B0880DD
:10105000A06B801CA063E08F401EE0874FF0010969
:10106000FFF764FAA0EB0800B04200E009E001D30A
:10107000701C50D1E08E0028CDD1E08F0028CAD15D
:101080003FE0206B216800780873206B401C2063D0
:10109000E08E401EE0862EE02068816889070FD52B
:1010A000E18E69B1B9F1010F0AD1216B09780173A1
:1010B000206B401C2063E08E401EE0864FF000094C
:1010C00020688168C9070CD0E18F51B1C068A16B5D
:1010D0000870A06B401CA063E08F401EE0874FF0BB
:1010E0000109FFF723FAA0EB0800B04202D3701CFD
:1010F00001D010E07EB1E08E0028CDD1E08F002835
:10110000CAD142463146204600F06EF928B1012787
:101110002020606507E0032705E0A06818B9206873
:10112000C16880680090012084F85100002084F894
:10113000500038462CE710B5401EB0F1807F01D337
:10114000012010BD4FF0E02460610F21601700F016
:1011500020FA0020A06107202061002010BDFEE7DA
:101160002DE9F04F87B014216846FFF763F86C480B
:101170000024016841F010010160016801F01001D4
:101180000591016841F004010160016801F004016A
:101190000591016841F080010160016801F0800162
:1011A0000591016841F001010160016801F0010150
:1011B0000591016841F002010160016801F002013E
:1011C0000591016841F0080101600068012200F00A
:1011D0000800059008215348FFF7A2F901221146A3
:1011E0005148FFF79DF94FF2100A002251464F482F
:1011F000FFF796F9082601250096CDE901546946C6
:1012000048480394FFF78EF80095CDE901546946EC
:1012100045480394FFF786F800960226CDE901645D
:101220000527CDE9034769463F48FFF77BF81020C3
:101230000090CDE901644FF00608CDE90348694606
:101240003B48FFF76FF84FF00409CDE90094DFF851
:10125000E4B0694658460294FFF764F8A80200908B
:10126000CDE90164CDE9034769465846FFF75AF8CE
:10127000CDF800A0CDE9015469462C480394FFF74E
:1012800051F84FF4A4500090CDE90164CDE9034832
:1012900069462548FFF746F86802CDE9000469462B
:1012A00023480294FFF73EF84FF4E0500090CDE958
:1012B00001640A20CDE9034069461D48FFF732F872
:1012C0002020CDE90004694618480294FFF72AF867
:1012D0004FF4107000901220CDE90105CDE90349CB
:1012E00069465846FFF71EF813480095CDE90104FA
:1012F00069460C48FFF716F810480096CDE901043E
:1013000069460848FFF70EF8002211460620FFF74D
:101310007DF90620FFF76CF907B0BDE8F08F0000FB
:10132000303802400010024000080240000C024029
:1013300000000240000402400000111000001210E2
:101340000F4810B50D4901604FF4827141600021D2
:101350008160C1604FF400720161C0E9051218227A
:10136000C0E90721416281620A21C162FFF700FCE6
:10137000002801D072B6FEE710BD00000030014029
:1013800014000020FEE7FEE77047F8B50446406809
:101390004FF48273984221D1A0684FF48065B0F574
:1013A000004F01D0A8420AD12068066826F0400606
:1013B00006606068984211D1A068A8420ED00092E1
:1013C0000B4600228021204600F03AF8002804D085
:1013D000606D40F0200060650320F8BD00920B4670
:1013E00000220121EFE7000038B504461248134BF4
:1013F0000068B0FBF3F04FF47A73584300906068D4
:10140000B0F5827F0DD10B4600920022802120464C
:1014100000F016F870B1606D40F0200060650320A8
:1014200038BD009830B1401E009020688068C043ED
:101430000006F6D5002038BD1000002000366E01F1
:101440002DE9F8431E46914688460446089DFFF75D
:101450006DF8401B351AFFF769F807462548006804
:10146000C0F3CB30684338E0701C37D0FFF75EF82C
:10147000C01BA84203D215B1009860B32CE02068CD
:10148000416821F0E00141606068B0F5827F0BD1D6
:10149000A068B0F5004F02D0B0F5806F04D120688D
:1014A000016821F040010160A06AB0F5005F09D138
:1014B0002068016821F4005101602068016841F44E
:1014C00000510160012084F85100002084F8500090
:1014D0000320BDE8F8830025401E00902068816845
:1014E00038EA010004D000214945BDD10020F0E7D1
:1014F0000121F9E7100000207047FFF71DB8000038
:1015000010B592B030216846FEF794FE14210CA865
:10151000FEF790FE18480024016841F080510160F8
:10152000006800F0805011901448016841F4804137
:1015300001600068069400F4804011900220009041
:1015400001200390102004906846FFF75BF908B172
:1015500072B6FEE70F20CDE90C044FF4A050CDE9A0
:101560000E4000210CA81094FFF782F8002801D04B
:1015700072B6FEE712B010BD403802400070004065
:101580000248016841F470010160704788ED00E095
:10159000FEE70907090E002804DB00F1E02080F8CF
:1015A0000014704700F00F0000F1E02080F8141DD7
:1015B000704702E008C8121F08C1002AFAD170471C
:1015C0007047002001E001C1121F002AFBD17047C3
:1015D000FEF7BAFFFFF794FFFFF7C2FDFFF7B0FE7B
:1015E000214D002208212846FEF79AFF1F4C20209B
:1015F0003223207031206070022221461C48FFF700
:10160000F6FB012208212846FEF78AFF0022082166
:101610002846FEF785FFA0202070322301222146B4
:101620001348FFF7E4FB32230122A11C1048FFF707
:1016300031FB012208212846FEF772FF0022082113
:101640002846FEF76DFF23202070C82060703223EB
:10165000022221460648FFF7CAFB0122082128463C
:10166000FEF75EFFFEE700000010024000000020D1
:10167000140000200000000000000000010203042C
:1016800006070809A4160008000000201400000046
:10169000B2150008B8160008140000205C04000011
:1016A000C21500080000000001000000100000004A
:0816B000000000000024F4001A
:040000050800018965
:00000001FF
