:020000040810E2
:100000009007001039031008B1221008FD211008D4
:10001000AD221008A3041008B1251008000000004C
:100020000000000000000000000000008125100812
:10003000A704100800000000B5221008832510084E
:1000400053031008530310085303100853031008F8
:1000500053031008530310085303100853031008E8
:1000600053031008530310085303100853031008D8
:1000700053031008530310085303100853031008C8
:1000800053031008530310085303100853031008B8
:1000900053031008530310085303100853031008A8
:1000A0005303100853031008530310085303100898
:1000B0005303100853031008530310085303100888
:1000C0005303100853031008530310085303100878
:1000D0005303100853031008530310085303100868
:1000E00053031008530310080000000053031008C6
:1000F0005303100853031008530310085303100848
:100100005303100853031008530310085303100837
:100110005303100853031008530310085303100827
:100120005303100853031008530310085303100817
:100130005303100853031008530310085303100807
:1001400053031008530310080000000000000000D3
:1001500053031008530310085303100853031008E7
:1001600053031008530310085303100853031008D7
:100170005303100853031008530310080000000035
:1001800053031008530310085303100853031008B7
:1001900053031008530310085303100853031008A7
:1001A0005303100853031008530310085303100897
:1001B0005303100853031008530310085303100887
:1001C0005303100853031008530310085303100877
:1001D0005303100853031008530310085303100867
:1001E0005303100853031008530310085303100857
:1001F0005303100853031008530310085303100847
:100200005303100853031008530310085303100836
:100210005303100853031008530310085303100826
:100220005303100853031008530310080000000084
:100230005303100853031008530310085303100806
:1002400053031008530310085303100853031008F6
:1002500053031008530310085303100853031008E6
:1002600053031008530310085303100853031008D6
:1002700053031008530310085303100853031008C6
:100280005303100853031008530310080000000024
:10029000530310085303100800F002F800F03CF874
:1002A0000AA090E8000C82448344AAF10107DA45D1
:1002B00001D100F031F8AFF2090EBAE80F0013F0E7
:1002C000010F18BFFB1A43F001031847C0240000B8
:1002D000E0240000103A24BF78C878C1FAD8520749
:1002E00024BF30C830C144BF04680C6070470000B0
:1002F0000023002400250026103A28BF78C1FBD82F
:10030000520728BF30C148BF0B6070471FB502F0CD
:1003100001FA1FBD10B510BD00F08AF81146FFF7B5
:10032000F5FF02F063F900F0A8F803B4FFF7F2FF5D
:1003300003BC00F0AFF800000948804709480047B7
:10034000FEE7FEE7FEE7FEE7FEE7FEE7FEE7FEE785
:10035000FEE7FEE704480549054A064B70470000E2
:100360008D251008990210089001001090070010C8
:10037000900300109003001010B5203AC0F00B80DD
:10038000B1E81850203AA0E81850B1E81850A0E899
:100390001850BFF4F5AF5FEA027C24BFB1E81850F3
:1003A000A0E8185044BF18C918C0BDE810405FEA63
:1003B000827C24BF51F8043B40F8043B08BF7047DF
:1003C000D20728BF31F8023B48BF11F8012B28BFE4
:1003D00020F8023B48BF00F8012B70474FF00002A5
:1003E00000B5134694469646203922BFA0E80C502B
:1003F000A0E80C50B1F12001BFF4F7AF090728BF06
:10040000A0E80C5048BF0CC05DF804EB890028BF81
:1004100040F8042B08BF704748BF20F8022B11F0AA
:10042000804F18BF00F8012B704770477047704726
:10043000754600F02BF8AE4605006946534620F09D
:100440000700854618B020B5FFF784FFBDE82040BF
:100450004FF000064FF000074FF000084FF0000B80
:1004600021F00701AC46ACE8C009ACE8C009ACE833
:10047000C009ACE8C0098D46704710B50446AFF31B
:1004800000802046BDE81040FFF74FBF004870478E
:100490003001001001491820ABBEFEE72600020023
:1004A000704700BFFEE7704772B600BFFEE700006E
:1004B00010B501464A6B0868D0F884004FF6FC740A
:1004C000A04340EA82000C68C4F884000868D0F8B1
:1004D000840020F47F04088F44EA00400C68C4F8CC
:1004E0008400886B02440868D0F888004FF6FC74DA
:1004F000A04340EA82000C68C4F888000868D0F87D
:10050000880020F4FE04888F44EA00400C68C4F898
:100510008800C86B02EB40020868D0F8A0004FF6D4
:10052000FC74A04340EA82000C68C4F8A00008688C
:10053000D0F8A00020F4FE044020405A44EA0040D5
:100540000C68C4F8A000D1E9104004FB0022086840
:10055000D0F8B0004FF6FC74A04340EA82000C686B
:10056000C4F8B0000868D0F8B00020F4FE04B1F878
:10057000480044EA00400C68C4F8B000D1E91240D9
:1005800004FB00220868D0F8AC004FF6FC74A043CE
:1005900040EA82000C68C4F8AC00D1E9144004FBC6
:1005A00000220868D0F8F0004FF6FC74A04340EA3F
:1005B00082000C68C4F8F0000868D0F8F00020F45D
:1005C0007C14B1F8580044EA00400C68C4F8F0000C
:1005D000886D02EB40020868D0F8C0004FF6FC744A
:1005E000A04340EA82000C68C4F8C0000868D0F854
:1005F000C00020F47C14B1F85C0044EA00400C68B0
:10060000C4F8C0000868D0F8C00020F07C5491F80D
:10061000600044EA00600C68C4F8C0002A4C486BD3
:1006200004EB8000C866CC6E886B04EB80040C671A
:100630000C6FC86B04EBC0044C67D1E91004604335
:100640004C6F04EB80048C67D1E9120460438C6F1B
:1006500004EB8004CC67D1E914046043CC6F04EB55
:100660008004802044504458886D04EBC0048420EA
:1006700044508C6EC86D60438424645804EB80043D
:10068000882044508C6E086E60438824645804EBC4
:1006900080049020445040580C4CA04209D9983115
:1006A000486840F020004860032001F898090120C4
:1006B00010BDCB6E02E0002018601B1D902040583A
:1006C0009842F8D80020F3E700AC0040FCD300408B
:1006D0002DE9F041054614461E46D1F804C0BCF190
:1006E000000F0AD1D1F810C0D1F808804CEA080CEC
:1006F000B1F800804CEA88430BE0D1F810C04CF010
:10070000804CD1F808804CEA080CD1F800804CEA03
:10071000080391F82080D1F81CC04CEA086CD1F88D
:1007200018804CEA080CD1F814804CEA080CD1F877
:100730000C804CEA0807D5F868C00CFB06FCD5F81D
:10074000848008EB8C021360121D1760121D0020BC
:1007500019E000F1030C14F80CC04FEA0C6800F12A
:10076000020C14F80CC048EA0C4800F1010C14F813
:100770000CC048EA0C2C14F800804CEA080CC2F8B3
:1007800000C0121D001DDFF81880D1F80CC008EB66
:100790001C4C9CF800C08445DBD8BDE8F08100000B
:1007A000202710082DE9F04104460E4690461D46CC
:1007B00094F89870706800B900E000BF012F01D074
:1007C000022F2BD12068D0F8C000C0F3054095FA65
:1007D000A5F1B1FA81F1884208D8D4F89C0040F024
:1007E0002000C4F89C000120BDE8F0812068D0F80A
:1007F000CC00284038B1D4F89C0040F04000C4F848
:100800009C000120F0E795FAA5F0B0FA80F342468B
:1008100031462046FFF75CFF0020E5E7D4F89C0056
:1008200040F00200C4F89C000120DDE7F0B502466C
:1008300092F89860012E01D0022E43D1C868072893
:1008400000D100BF086818BBC868072800D000BFE7
:10085000C86807280BD1088A4FF0605747EA004064
:10086000CF6940EA07208F6940EA07040AE0087A66
:1008700080070F7B40EAC7600F8A40EA07404F6954
:1008800040EA0704D76E486807EB80031C6017E056
:10089000C868072800D000BF0F7B086940EA47748A
:1008A000C868072801D18D6903E00F7A486940EADA
:1008B0008775176F486807EBC0031C601B1D1D6020
:1008C0000020F0BDD2F89C0040F00200C2F89C006D
:1008D0000120F6E7024692F89800022804D1106839
:1008E000C0F8D01000207047D2F89C0040F00800FB
:1008F000C2F89C000120F6E72DE9F04304460D46BE
:100900009C46002394F89880B8F1020F74D1402DD2
:1009100038D12068D0F8A00000F4FE0040B9D4F827
:100920009C0040F02000C4F89C000120BDE8F0834A
:100930002068D0F8A40000F07F0038B9D4F89C00FB
:1009400040F48070C4F89C000120EFE72068D0F8E4
:10095000A400C0F3006040B12068D0F8A0004FF0C0
:100960000049B9EBD07F00D101232068D0F8A40062
:10097000C0F305200344606C5843D4F8749009EB2D
:1009800080014BE0412D38D12068D0F8B00000F450
:10099000FE0038B9D4F89C0040F02000C4F89C0058
:1009A0000120C3E72068D0F8B40000F07F0038B918
:1009B000D4F89C0040F48070C4F89C000120B5E796
:1009C0002068D0F8B400C0F3006040B12068D0F8CF
:1009D000B0004FF00049B9EBD07F00D1012320686F
:1009E000D0F8B400C0F305200344E06C5843D4F8B9
:1009F000789009EB800111E06EE0206DA84207D8E5
:100A0000D4F89C0040F02000C4F89C0001208DE741
:100A1000606D6843D4F87C9009EB8001086800F0B1
:100A200080405060506820B90868C0F38A40106068
:100A300003E0086820F060401060086800F0005093
:100A40009060086800F000401061091D088880B2BD
:100A5000D061086800F47020D060086800F480104D
:100A60005061086800F4001090610868C0F30660E7
:100A700010620868C00F5062091D0F46002603E08F
:100A8000B85D0CF80600761CDFF85C90D06809EBC6
:100A900010400078B042F3D8402D03D12068C0F850
:100AA000A83017E0412D03D12068C0F8B83011E01C
:100AB000202D06D20120A840D4F80090C9F8980053
:100AC00008E005F01F09012000FA09F0D4F80090B1
:100AD000C9F89C00002029E7D4F89C0040F00800E9
:100AE000C4F89C00012021E72027100870B594B0BD
:100AF00004464C22B34901A8FFF73EFC14B901207B
:100B000014B070BDB0492068884203D1206800F558
:100B100080706060A068B0F5407F00D100BF206C9D
:100B200000B100BFA06C00B100BF206D00B100BFDC
:100B3000206E00B100BFD4E91710084400B100BF17
:100B400094F8980028B9002084F89900204600F015
:100B500071F92068806920F010002168886100F038
:100B6000DBFA05460EE000F0D7FA401B0A2809D947
:100B70009834606840F001006060032004F8980930
:100B80000120BDE72068806900F008000828EAD04D
:100B90002068806940F001002168886100F0BCFA9B
:100BA00005460EE000F0B8FA401B0A2809D998342F
:100BB000606840F001006060032004F8980901209B
:100BC0009EE72068806900F001000028EAD02068D4
:100BD000806940F0020021688861207C012806D1EC
:100BE0002068806920F040002168886105E0206865
:100BF000806940F0400021688861607C012806D14E
:100C00002068806940F480402168886105E02068A0
:100C1000806920F4804021688861A07C012806D189
:100C20002068806920F480502168886105E0206890
:100C3000806940F48050216888612068806920F4D0
:100C40004070A1680843216888612068806920F0AD
:100C5000A400216888612068006920F010002168E4
:100C60000861E068012806D12068806940F004002E
:100C70002168886120E0E068F0B1E068022815D0C2
:100C80002068806940F080002168886120680069E0
:100C900040F0100021680861E06803280CD120684A
:100CA000806940F020002168886105E02068806943
:100CB00040F0200021688861207E401E4106E069E6
:100CC000401E41EA0020216A491E0843A18A491EAC
:100CD00040EA01402168C861A068B0F5407F0FD1AB
:100CE000A06A401EE16A491E40EA0121206B401EB5
:100CF00041EA0011A08C401E41EA00402168C86012
:100D0000206E38B12068D0F8C000616E08432168B9
:100D1000C1F8C000D4E91710084460B12068D0F8C9
:100D2000C80020F0070001AAA16E52F82110084364
:100D30002168C1F8C800206C60B12068D0F8BC0000
:100D400020F0070001AA616C52F8211008432168C5
:100D5000C1F8BC00A06C68B12068D0F8BC0020F0DD
:100D6000700101AAE06C52F8200041EA00102168ED
:100D7000C1F8BC00206D68B12068D0F8BC0020F438
:100D8000E06101AA606D52F8200041EA002021686C
:100D9000C1F8BC000C492068884205D160688068B1
:100DA00020F0030061688860002044F8940FA06080
:100DB00001202071943C2046FFF77AFB064630461E
:100DC0009EE600003027100800A0004030B5024623
:100DD0001068D0F898301068D0F89C40202903D2D1
:100DE00001208840184038B1202907D301F01F05A1
:100DF0000120A840204008B9002030BD202905D29C
:100E0000012088401568C5F8980006E001F01F052C
:100E10000120A8401568C5F89C000120EDE70246B6
:100E20001068D0F8CC00084008B9002070470120B5
:100E3000FCE7000010B5B6B00446142131A8FFF756
:100E4000CDFABC2102A8FFF7C9FA1E4920688842E2
:100E500036D14FF40040029040031D9002A800F0EC
:100E6000EBFA08B1FFF720FB00BF1748006840F419
:100E70008070154908600846006800F48070019091
:100E800000BF00BF00BF10480C38006840F0800071
:100E90000D490C3908600846006800F08000019098
:100EA00000BF00BF4FF4C0403190022032900020BC
:100EB000339034900920359031A9044800F022F88D
:100EC00036B010BD00A00040EC440258001C02588F
:100ED000014691F8980001280CD1022081F8980071
:100EE0000868806920F001000A6890610020C1F85C
:100EF0009C007047D1F89C0040F00400C1F89C00B1
:100F00000120F6E7F8B502460B4600216F4DD7E009
:100F100001278F401E6806EA0704002C72D01E7954
:100F200006F00306012E04D01E7906F00306022EF9
:100F300013D190684F000326BE40B0434F00DE68D7
:100F4000BE4030439060506801268E40B0431E7909
:100F5000C6F300168E40304350601E7906F003063B
:100F6000032E09D0D0684F000326BE40B0434F0087
:100F70009E68BE403043D0601E7906F00306022E04
:100F800013D1CF0802F1200656F827004E07F70EBE
:100F90000F26BE40B0434F07FF0E1E69BE403043D0
:100FA000CF0802F1200646F8270010684F000326FC
:100FB000BE40B0431E7906F003064F00BE403043EA
:100FC00010605E6806F44036002E78D000BF404EB8
:100FD000366846F002063E4F3E603E46366806F0F2
:100FE0000206009600BF00BF3A4E8F0856F8270051
:100FF0008E07370F0F26BE40B043374EB24202D1A4
:1010000000262EE05BE0354EB24201D1012628E0F9
:10101000334EB24201D1022623E0324EB24201D118
:1010200003261EE0304EB24201D1042619E02F4EB5
:10103000B24201D1052614E02D4EB24201D106265E
:101040000FE02C4EB24201D107260AE02A4EB242EE
:1010500001D1082605E0294EB24201D1092600E05F
:101060000A268F073F0FBE4030431A4E8F0846F8BE
:1010700027004FF0B0463068A0435E6806F4801643
:1010800006B120434FF0B04630607068A0435E6800
:1010900006F4001606B120434FF0B0467060686851
:1010A000A0435E6806F4003606B1204368602868F5
:1010B000A0435E6806F4803606B120432860491CD0
:1010C0001E68CE40002E7FF423AFF8BDC00000584C
:1010D000F444025808040058000002580004025862
:1010E00000080258000C0258001002580014025860
:1010F00000180258001C0258002002580024025810
:1011000004480068C0F30310072801D1032070478A
:101110000120FCE700ED00E0014800687047000096
:1011200010000010024909680143014A116070472C
:1011300010650258034800680349097808440149CA
:1011400008607047100000101800001038B500BF8C
:101150002248006840F48040204908600846006842
:1011600000F48040009000BF00BF1D4800681D498A
:10117000084040F401401A4908600846006840F001
:1011800001000860032000F0B1F800F007FF1349E8
:10119000C0390968C1F30321134A515C01F01F01F2
:1011A00020FA01F40D48C038006800F00F00114625
:1011B000085C00F01F0024FA00F00C4908600846A3
:1011C00000680B4908600F2000F014F808B10120F6
:1011D00038BD00F03BF80020FAE70000D844025880
:1011E00000440240FF00F0FF7C27100820000010A0
:1011F0001C00001070B504461148007808B90120A1
:1012000070BD0F4800784FF47A71B1FBF0F00D49D2
:101210000968B1FBF0F5284600F0D6FF08B10120BF
:10122000EEE7102C07D200222146501E00F020F8D5
:101230000548046001E00120E2E70020E0E700004B
:10124000180000101C0000101400001008B500BFAA
:101250000648006840F0020004490860084600683B
:1012600000F00200009000BF00BF08BDF444025827
:101270002DE9F05F80460D46164601F09BF90746C2
:1012800039462A46334601F00700C0F1070ABAF191
:10129000040F02D94FF0040A01E0C0F1070AD14659
:1012A00000F1040ABAF1070F02D24FF0000A01E080
:1012B000A0F1030AD4464FF0010A0AFA09FAAAF18A
:1012C000010A0AEA020A0AFA0CFA4FF0010B0BFAB9
:1012D0000CFBABF1010B0BEA030B4AEA0B042146B2
:1012E000404601F06FF9BDE8F09F000000BF00F03C
:1012F0000702064B19684FF6FF031940044B0B43D6
:1013000043EA0221014B196000BF70470CED00E079
:101310000000FA0510B5FFF7F3FE032801D120BF46
:1013200001E040BF20BF10BD70B506460C46154613
:101330003F48006820F0010030433D49086075BB1C
:10134000FFF7DEFE032800D070BD3948103000687A
:1013500020F001003649103108603648006840F03E
:1013600004003449086000BF00BF00BFBFF34F8FC7
:1013700000BF00BF00BF00BF00BF00BFBFF36F8F43
:1013800000BF00BF00BF012C01D130BF00E020BF73
:101390002848006820F004002649086046E0FFE77E
:1013A000012D2ED1FFF7ACFE012800D0CCE720485C
:1013B0001430006820F002001D49143108601D48F7
:1013C000006840F004001B49086000BF00BF00BF78
:1013D000BFF34F8F00BF00BF00BF00BF00BF00BF03
:1013E000BFF36F8F00BF00BF00BF012C01D130BF22
:1013F00000E020BF0F48006820F004000D4908609D
:1014000014E0FFF77DFE032808D10948103000687A
:1014100020F0040006491031086007E00448143049
:10142000006820F0040002491431086000BF8BE717
:101430000048025810ED00E02DE9F0410446002577
:10144000A846206800F00060B0F1006F30D1606EF7
:1014500048B1B0F5801F0DD0B0F5001F10D0B0F529
:10146000401F15D113E0F948006840F40030F749F7
:1014700008600FE00221201D00F01EFF054609E074
:10148000022104F1240000F0C9FF054602E001E05A
:10149000012500BF00BF55B9EC482430006820F496
:1014A0004010616E0843E9492431086000E0A84615
:1014B000208800F48070B0F5807F2DD1606D052804
:1014C0001AD2DFE800F0030A10171800DF4800689E
:1014D00040F40030DD49086010E00021201D00F0DC
:1014E000EBFE05460AE0002104F1240000F096FF1F
:1014F000054603E002E001E0012500BF00BF55B949
:10150000D2482430006820F00700616D0843CF49BD
:101510002431086000E0A846208800F40070B0F58F
:10152000007F33D1A06D802817D003DC40B1402864
:101530001CD10CE0C02817D0B0F5807F16D114E084
:10154000C248006840F40030C049086010E0002143
:10155000201D00F0B1FE05460AE0002104F1240040
:1015600000F05CFF054603E002E001E0012500BF5A
:1015700000BF55B9B5482430006820F4E070A16D73
:101580000843B2492431086000E0A846208800F4EE
:101590008060B0F5806F38D1D4F8A400B0F5800F2A
:1015A00019D004DC50B1B0F5001F1DD10DE0B0F52D
:1015B000C00F17D0B0F5000F16D114E0A348006893
:1015C00040F40030A149086010E00021201D00F027
:1015D00073FE05460AE0002104F1240000F01EFF1E
:1015E000054603E002E001E0012500BF00BF5DB950
:1015F00096482C30006820F46000D4F8A41008430A
:1016000092492C31086000E0A846208800F4006070
:10161000B0F5006F38D1D4F8A800B0F1007F19D030
:1016200004DC50B1B0F1807F1DD10DE0B0F1407FFE
:1016300017D0B0F1806F16D114E08448006840F4F0
:1016400000308249086010E00021201D00F034FEC7
:1016500005460AE0002104F1240000F0DFFE054603
:1016600003E002E001E0012500BF00BF5DB977485B
:101670002C30006820F0E060D4F8A81008437349CB
:101680002C31086000E0A846206800F00070B0F13E
:10169000007F27D1A06CA0B1102804D0202809D049
:1016A00030280FD10CE06948006840F400306749E9
:1016B000086009E00221201D00F0FEFD054603E060
:1016C00002E001E0012500BF00BF55B95F482030AE
:1016D000006820F03000A16C08435C4920310860AC
:1016E00000E0A846208800F48050B0F5805F36D135
:1016F000E06DB0F5005F19D004DC50B1B0F5805F4B
:101700001DD10DE0B0F5405F17D0B0F5804F16D178
:1017100014E04E48006840F400304C49086010E086
:101720000021201D00F0C8FD05460AE0002104F15B
:10173000240000F073FE054603E002E001E001250D
:1017400000BF00BF55B941482430006820F4E04094
:10175000E16D08433D492431086000E0A846208837
:1017600000F40050B0F5005F34D1206EB0F5403F7A
:101770001DD007DC68B1B0F5803F0BD0B0F5003F5D
:1017800018D10DE0B0F5802F12D0B0F5A02F11D1F7
:101790000FE011E00121201D00F08EFD05460BE059
:1017A000012104F1240000F039FE054604E003E0C5
:1017B00002E001E0012500BF00BF55B923482430F5
:1017C000006820F4E020216E08432049243108609D
:1017D00000E0A846208800F48040B0F5804F38D162
:1017E000D4F8AC00B0F1405F1DD007DC68B1B0F1B7
:1017F000805F0BD0B0F1005F18D10DE0B0F1804FE9
:1018000012D0B0F1A04F11D10FE011E00121201D45
:1018100000F052FD05460BE0012104F1240000F028
:10182000FDFD054604E003E002E001E0012500BF04
:1018300000BF6DB905482C30006820F0E040D4F8B6
:10184000AC10084301492C31086002E02C440258D6
:10185000A846208800F40040B0F5004F26D1E06E85
:1018600098B1B0F1805F03D0B0F1005F0ED106E017
:10187000F948006840F40030F749086008E00121A9
:10188000201D00F019FD054602E001E0012500BF22
:1018900000BF55B9F0482430006820F04050E16E98
:1018A0000843ED492431086000E0A846206800F0B4
:1018B0008070B0F1807F27D1606CA0B1012804D086
:1018C000022809D003280FD10CE0E348006840F457
:1018D0000030E149086009E00221201D00F0ECFC25
:1018E000054603E002E001E0012500BF00BF55B955
:1018F000D9482030006820F00300616C0843D649C5
:101900002031086000E0A846206800F48000B0F5AF
:10191000800F7DD1D148006840F48070CF490860C5
:10192000FFF7FAFB064606E0FFF7F6FB801B64288C
:1019300001D9032505E0C948006800F4807000283B
:10194000F2D000BF85BBC4484430006800F440704A
:10195000B4F8B01001F44071884213D0BE4844304E
:10196000006820F44077BC484430006840F4803080
:10197000B949443108600846006820F480300860A6
:1019800008460760D4F8B000B0F5807F15D1FFF7A6
:10199000C3FB064609E0FFF7BFFB801B41F288311D
:1019A000884202D9032507E038E0AB48443000689C
:1019B000C0F340000028EED000BF55BB00BFB4F814
:1019C000B00000F44070B0F5407F0ED1A2481C3842
:1019D000006820F47C51A24AD4F8B000104041EADB
:1019E00010109D491C39086007E09B481C380068AE
:1019F00020F47C5098491C390860974844300068AE
:101A0000B4F8B010C1F30B0108439349443101E02D
:101A100005E001E0086002E0A84600E0A846207862
:101A200000F0010068B3A06F182819D005DC48B198
:101A3000082808D0102816D10BE0202811D028281B
:101A400011D10FE011E00121201D00F035FC054609
:101A50000BE0012104F1240000F0E0FC054604E065
:101A600003E002E001E0012500BF00BF55B97A485C
:101A70002830006820F03800A16F084376492831EB
:101A8000086000E0A846207800F00200022828D173
:101A9000606F062815D2DFE800F003040A11121364
:101AA00011E00121201D00F007FC05460BE001219B
:101AB00004F1240000F0B2FC054604E003E002E07B
:101AC00001E0012500BF00BF55B963482830006818
:101AD00020F00700616F08435F492831086000E08B
:101AE000A846207800F0040004282AD1D4F89000F9
:101AF000062815D2DFE800F003040A11121311E0E2
:101B00000121201D00F0D8FB05460BE0012104F166
:101B1000240000F083FC054604E003E002E001E05D
:101B2000012500BF00BF5DB94B482C30006820F094
:101B30000700D4F89010084347492C31086000E0B2
:101B4000A846207800F02000202836D1D4F88C0058
:101B5000B0F1405F1DD007DC68B1B0F1805F0BD001
:101B6000B0F1005F18D10DE0B0F1804F12D0B0F1AC
:101B7000A04F11D10FE011E00021201D00F09CFBCF
:101B800005460BE0022104F1240000F047FC054665
:101B900004E003E002E001E0012500BF00BF5DB901
:101BA0002D482830006820F0E040D4F88C1008431D
:101BB00029492831086000E0A846207800F040005C
:101BC000402836D1D4F89800B0F5406F1DD007DC1E
:101BD00068B1B0F5806F0BD0B0F5006F18D10DE093
:101BE000B0F5805F12D0B0F5A05F11D10FE011E029
:101BF0000021201D00F060FB05460BE0022104F1EE
:101C0000240000F00BFC054604E003E002E001E0E4
:101C1000012500BF00BF5DB90F482C30006820F4DB
:101C2000E050D4F8981008430B492C31086000E0CC
:101C3000A846207800F0800080283AD1D4F89C0093
:101C4000B0F5C04F23D00DDC98B1B0F5005F11D0D6
:101C5000B0F5804F1ED113E02C44025800480258C2
:101C6000FFFCFF0FB0F5004F12D0B0F5204F11D19F
:101C70000FE011E00021201D00F01EFB05460BE0E7
:101C8000022104F1240000F0C9FB054604E003E052
:101C900002E001E0012500BF00BF4DB9BE48006869
:101CA00020F46040D4F89C100843BB49086000E071
:101CB000A846207800F00800082817D1D4F8800042
:101CC000B0F5805F07D1022104F1240000F0A6FBEB
:101CD00008B14FF00108B048001F006820F44050E0
:101CE000D4F880100843AC49091F0860207800F040
:101CF0001000102815D1D4F89400B0F5807F07D1DA
:101D0000022104F1240000F089FB08B14FF0010822
:101D1000A148006820F44070D4F8941008439E490C
:101D20000860206800F40020B0F5002F26D1D4F818
:101D3000A00030B1B0F5803F09D0B0F5003F0ED122
:101D40000CE00021201D00F0B7FA054609E0022151
:101D500004F1240000F062FB054602E001E00125E9
:101D600000BF00BF4DB98C48006820F44030D4F863
:101D7000A01008438849086000E0A846206800F4E5
:101D80008020B0F5802F2DD1D4F88400B0F5801FCD
:101D900006D0B0F5001F0CD0B0F5401F11D10FE0F8
:101DA0007D482C38006840F400307B492C390860AD
:101DB00009E0012104F1240000F030FB054602E0B7
:101DC00001E0012500BF00BF5DB97348001F006836
:101DD00020F44010D4F8841008436F49091F0860AC
:101DE00000E0A846206800F48030B0F5803F24D1A0
:101DF000E06C18B1B0F5803F0FD108E066482C3890
:101E0000006840F4003064492C39086007E0022182
:101E1000201D00F051FA054601E0012500BF00BF7A
:101E200055B95D480C38006820F48030E16C0843F7
:101E300059490C39086000E0A846206800F00050BD
:101E4000B0F1005F07D1022104F1240000F0E6FAAE
:101E500008B14FF00108206800F40030B0F5003FF1
:101E600027D1E06FA0B1B0F5807F06D0B0F5007F3C
:101E70000CD0B0F5407F0CD109E047482C38006801
:101E800040F4003044492C39086004E003E002E0EB
:101E900001E0012500BF00BF55B93F48001F0068A1
:101EA00020F44070E16F08433B49091F086000E0DF
:101EB000A846206800F48010B0F5801F09D136488C
:101EC0000838006820F00040216F08433249083983
:101ED0000860206800F08050B0F1805F0AD12E4881
:101EE0004838006820F48040D4F8B41008432A49E8
:101EF00048390860206800F40010B0F5001F09D1CF
:101F000025480838006820F08070A16E08432249F7
:101F100008390860206800F08040B0F1804F11D18E
:101F200000BF1D484838006820F400401A4948396D
:101F3000086008460068D4F8B810084316494839C4
:101F4000086000BF206800F00040B0F1004F09D1E8
:101F500011480C38006820F04050216D08430E49AC
:101F60000C390860206800F40000B0F5000F0AD1B9
:101F70000948001F006820F44000D4F88810084386
:101F80000549091F0860B8F1000F02D10020BDE823
:101F9000F0810120FBE7000058440258F0B5824E62
:101FA000366806F0380636B1082E15D0102E15D03A
:101FB000182E7DD114E07C4E103E3668C6F34016D4
:101FC00046B1794E103E3668C6F3C107774E26FA01
:101FD00007F000E07548E5E07548E3E07548E1E0AA
:101FE000714E1836366806F003046F4E18363668A0
:101FF000C6F305116C4E1C36366806F001056A4EB4
:1020000024363668C6F3CC0616FB05F601EE106AD8
:10201000B8EE410A002971D024B1012C50D0022C15
:102020006DD16DE0604E103E3668C6F340163EB38B
:102030005D4E103E3668C6F3C1075C4E26FA07F3C4
:1020400001EE103AF8EE411A01EE101AB8EE411AFC
:1020500081EE812A9FED581AC0EE011A524E2036A9
:102060003668C6F3080601EE106AB8EE411A31EE82
:10207000811AF7EE001A31EE211A62EE010A1EE013
:1020800001EE101AB8EE411ADFED4C1A81EE812AEA
:102090009FED491AC0EE011A434E20363668C6F34A
:1020A000080601EE106AB8EE411A31EE811A00E01E
:1020B00076E0F7EE001A31EE211A62EE010A5BE0DB
:1020C00001EE101AB8EE411A9FED3D2AC2EE011A38
:1020D0009FED391A80EE012A334E20363668C6F35A
:1020E000080601EE106AB8EE411A32EE011AB7EE98
:1020F000002A31EE021A61EE810A3DE04EE01DE059
:1021000001EE101AB8EE411ADFED2E1A81EE812A87
:102110009FED291AC0EE011A234E20363668C6F309
:10212000080601EE106AB8EE411A31EE811AF7EE98
:10213000001A31EE211A62EE010A1DE001EE101ABA
:10214000B8EE411A9FED1E2AC2EE011A9FED1A1A2F
:1021500080EE012A144E20363668C6F3080601EEDA
:10216000106AB8EE411A32EE011AB7EE002A31EECB
:10217000021A61EE810A00BF00BF0B4E203636689E
:10218000C6F34626721C01EE102AB8EE411AC0EEC4
:10219000811ABCEEE11A11EE100A00E0002001E005
:1021A000034800BF00BFF0BD104402580090D003A8
:1021B00000093D0040787D01000000460024744C79
:1021C0000024744A20BCBE4B70B504462546681EE8
:1021D000B0F1807F01D301200FE0681E4FF0E021B5
:1021E00048610F214FF0FF3000F0ECF900204FF074
:1021F000E021886107200861002070BD00BFFEE774
:1022000010B51F481F4908600020886000211D4844
:10221000C160012101740021417481740421416174
:10222000062181611721C1610621016204214162F9
:10223000062181621721C1620621016300214163E9
:10224000012181630021C1630121016404214164F2
:10225000002181640421C1640021016504214165DC
:1022600001218165C165002101664FF08041416611
:1022700004218166FEF73AFC08B1FEF715F910BD9E
:1022800000A000409000001008B500BF064800689C
:1022900040F08000044908600846006800F08000B3
:1022A000009000BF00BF08BDE044025800BFFEE739
:1022B00000BFFEE7704700002DE9F04104460E46DE
:1022C00000275548006800F00300032802D10120D0
:1022D000BDE8F08150482838006820F080604E4901
:1022E00028390860FEF718FF054606E0FEF714FFE0
:1022F000401B022801D90320EAE747482838006834
:10230000C0F3C0600028F1D100BF4348006820F44A
:102310007C30216840EA01303F490860A088401EB7
:10232000C0F30800A168491E4FF47E4202EA412131
:102330000843A189491ED20102EA01410843217CD8
:10234000491E120202EA0161084333491031086054
:1023500000BF3148001D006820F0C00061690843DB
:102360002D49091D08600846006820F02000A16979
:1023700008432949091D08600846006820F010003C
:1023800008602548143000684FF6F8718843E16909
:1023900040EAC1002049143108601F48001D006850
:1023A00040F010001C49091D08602EB9084600685D
:1023B00040F40020086012E0012E08D11648001DEC
:1023C000006840F480101449091D086007E01248B5
:1023D000001D006840F400100F49091D08600E48F8
:1023E0002838006840F080600B4928390860FEF703
:1023F00093FE054606E0FEF78FFE401B022801D93A
:10240000032065E7044828380068C0F3C06000284E
:10241000F1D038465CE70000284402582DE9F0412D
:1024200004460E4600275548006800F003000328C4
:1024300002D10120BDE8F08150482838006820F022
:1024400080504E4928390860FEF766FE054606E0D2
:10245000FEF762FE401B022801D90320EAE7474845
:1024600028380068C0F340700028F1D100BF43480D
:10247000006820F07C70218840EA01503F490860E4
:10248000A088401EC0F30800A168491E4FF47E4298
:1024900002EA41210843A189491ED20102EA014111
:1024A0000843217C491E120202EA016108433349B4
:1024B0001831086000BF3148001D006820F44060FA
:1024C000616908432D49091D08600846006820F429
:1024D0000070A16908432949091D08600846006881
:1024E00020F48070086025481C3000684FF6F871B1
:1024F0008843E16940EAC10020491C3108601F4857
:10250000001D006840F480701C49091D08602EB948
:102510000846006840F48000086012E0012E08D1EF
:102520001648001D006840F400001449091D0860A9
:1025300007E01248001D006840F080700F49091D37
:1025400008600E482838006840F080500B49283950
:102550000860FEF7E1FD054606E0FEF7DDFD401BE5
:10256000022801D9032065E7044828380068C0F331
:1025700040700028F1D038465CE70000284402583B
:10258000704710B5FEF7D6FD10BD00000748006883
:1025900040F470000549086004487838006840F04D
:1025A00010000249783908607047000088ED00E0AB
:1025B00000BFFEE702480068C0F302207047000039
:1025C0000CED00E010B5002804DB0A07130E054AE5
:1025D000135406E00A07140E034A00F00F031B1FF2
:1025E000D45410BD00E400E018ED00E008B500BFD1
:1025F0003F48006840F000703D49086008460068A8
:1026000000F00070009000BF00BF0120FEF78AFDBF
:10261000FEF780FE012202210020FEF785FE3548EC
:102620000068C0F30310072806D13348006840F063
:1026300001003149086007E02F481030006840F081
:1026400001002D4910310860FEF780FDFFF71CFEE8
:10265000FFF7D6FD01202949086000204860886006
:102660004FF40020C8600020086148618861C8619B
:1026700008620123224A2348FEF794F808B1FDF7C7
:1026800013FF00202049086048600720C86002202E
:102690000861002088611B48FEF7C8F808B1FDF703
:1026A00003FF1848FEF714FC08B1FDF7FDFE0121F9
:1026B0001448FEF70FF908B1FDF7F6FE00BF01213F
:1026C0001048FEF7ACFB0128F9D000BF00210D48EF
:1026D000FEF77CFB0028F9D00C4B0D4A002109487D
:1026E000FEF70AF908B1FDF7DFFE00BFFEE70000C4
:1026F000E044025800ED00E0046502584400001078
:1027000000000010900000102400001008000010CD
:10271000680000104FF04070E1EE100A70470000B2
:102720000001020304050607080C101418203040AD
:102730000000000000000000000000000000000099
:102740000000000001000000020000000300000083
:102750000400000000000000050000000000000070
:102760000000000000000000060000000000000063
:102770000000000000000000070000000000000052
:10278000010203040102030406070809AC2710082C
:102790000000001024000000D4021008D027100808
:1027A000240000106C070000F0021008103254766C
:1027B000980011220000000000000000000000004E
:1027C00010000000010000000090D0030090D00332
:040000050810029944
:00000001FF
