:020000040800F2
:10000000C0040020A10100085F160008F9130008D1
:100010005D160008650400081117000800000000C4
:10002000000000000000000000000000631600084F
:100030001905000800000000611600086516000898
:10004000BB010008BB010008BB010008BB010008A0
:10005000BB010008BB010008BB010008BB01000890
:10006000BB010008BB010008BB010008BB01000880
:10007000BB010008BB010008BB010008BB01000870
:10008000BB010008BB010008BB010008BB01000860
:10009000BB010008BB010008BB010008BB01000850
:1000A000BB010008BB010008BB010008BB01000840
:1000B000BB010008BB010008BB010008BB01000830
:1000C000BB010008BB010008BB010008BB01000820
:1000D000BB010008BB010008BB010008BB01000810
:1000E000BB010008BB010008BB010008BB01000800
:1000F000BB010008BB010008BB010008BB010008F0
:10010000BB010008BB010008BB010008BB010008DF
:10011000BB010008BB010008BB010008BB010008CF
:1001200069040008BB010008BB010008BB0100080E
:10013000BB010008BB010008BB010008BB010008AF
:10014000BB010008BB010008BB010008BB0100089F
:10015000BB010008BB010008BB010008BB0100088F
:10016000BB010008BB010008BB010008BB0100087F
:10017000BB010008BB010008BB0100080000000033
:10018000BB010008BB010008DFF810D000F07CF8CC
:100190000048004751170008AFF30080C00400205A
:1001A0000648804706480047FEE7FEE7FEE7FEE711
:1001B000FEE7FEE7FEE7FEE7FEE7FEE701170008C1
:1001C000890100082DE9F05F0546002092469B4614
:1001D00088460646814640241BE02846414647465D
:1001E000224600F041F853465A46C01A914110D3B6
:1001F00011461846224600F028F82D1A67EB010830
:100200004F4622460120002100F01FF817EB00099D
:100210004E41201EA4F10104DFDC484631462A4647
:100220004346BDE8F09FD2B201E000F8012B491E21
:10023000FBD270470022F6E710B513460A46044683
:100240001946FFF7F0FF204610BD202A04DB203AB4
:1002500000FA02F1002070479140C2F1200320FA19
:1002600003F3194390407047202A04DB203A21FA17
:1002700002F00021704721FA02F3D040C2F12002BF
:100280009140084319467047064C074D06E0E06868
:1002900040F0010394E8070098471034AC42F6D3CD
:1002A000FFF776FFB4170008D417000810B5014611
:1002B000806B026C12F0500F05D0026CD20626D56E
:1002C00000F0D6F910BD016C41F4007101640168C1
:1002D0008A6812F0405F17D1027EAAB9CA6A12F486
:1002E000700F02D08A6852050ED44A6822F02002AC
:1002F0004A60016C21F480710164016CC90403D46B
:10030000016C41F00101016400F0B0F910BD806B97
:10031000C26CBDE810400846104710B5806B402104
:100320000164416C41F00401416400F0A1F910BD89
:1003300010B5806B00F09BF910BD0000464910B568
:100340004A6822F440324A604A6843681A434A6065
:1003500001684A6822F480724A6001684A68036949
:1003600042EA03224A6001684A6822F040724A6009
:1003700001684A6883681A434A6001688A6822F4FF
:1003800000628A6001688A68C3681A438A60816A69
:100390006FF07062D14201688A6822F070628A60F0
:1003A00001688A680CD0836A1A438A6001688A6887
:1003B00022F040528A6001688A68C36A1A4301E0E9
:1003C00022F040528A6001688A6822F002028A6044
:1003D00001688A68037E42EA43028A6090F820102E
:1003E000002901684A680FD042F400624A6001683F
:1003F0004A6822F460424A6001684A68174C436ABE
:1004000004EB43331A4301E022F400624A600168BE
:10041000CA6A22F47002CA620168CA6A838B104CED
:1004200004EB03531A43CA6201688A6822F400721B
:100430008A6001688A6890F8303042EA43228A6014
:1004400001688A6822F480628A6001688A6840696B
:1004500042EA8020886010BD0023014000E0FFFFD9
:100460000000F0FFFEE70000014800F021BA0000A4
:100470005C00002001681823CAB2103AB2FBF3F204
:10048000054B6FF30901032A9B5CC36500D9091D65
:1004900081650846704700009C17000810B50146AA
:1004A00000208B698A6A4FF0C07453B1B3F5005FC6
:1004B00015D072B1012A0CD0022A0AD0032A09D120
:1004C00004E01AB1012A06D0022A03D1C96AC9017F
:1004D00000D5012010BDC96AA142FAD010BD002A82
:1004E000F7D0012AF2D0022AF3D0032AF3D010BDAC
:1004F00030B50468256825F48025256004686360AC
:100500008368402B036803D099600068C26030BDE7
:100510009A600068C16030BD704772B6FEE70000A7
:1005200078B50024009490F83C20012A19D00122CB
:1005300080F83C200A6807230568092A13D9EE6869
:100540000A3A02EB420293409E43EE600B788A68BF
:100550000A3B03EB43039A400368DD682A43DA60F1
:1005600010E0022078BD2E6902EB420293409E43C8
:100570002E610B788A6803EB43039A4003681D6978
:100580002A431A614A681F23072A13D205686E6B33
:10059000521E02EB820293409E436E630B790A88DF
:1005A0005B1E92B203EB83039A4003685D6B2A43A0
:1005B0005A6327E005680D2A12D22E6BD21F02EB78
:1005C000820293409E432E630B790A88DB1F92B20E
:1005D00003EB83039A4003681D6B2A431A6311E0FF
:1005E000EE6A0D3A02EB820293409E43EE620B7973
:1005F0000A880D3B92B203EB83039A400368DD6ADD
:100600002A43DA62164B0568144A9D4206D10D68EA
:10061000122D03D1556845F48005556005689D424B
:1006200018D10B68102B01D0112B13D1536843F450
:1006300000035360096810290CD10A490A4A096865
:10064000B1FBF2F101EB8101490000E0491E00918C
:100650000029FBD180F83C40002078BD00230140F8
:10066000002001401000002040420F0070477047FA
:10067000704770B504004FF0000503D0206C0026D1
:1006800010B107E0012070BD204600F01DF866643F
:1006900084F83C60206CC00610D4206C20F4885094
:1006A00040F0020020642046FFF748FE6664206C9C
:1006B00020F0020040F00100206400E0012584F8F1
:1006C0003C60284670BD000070B586B00646142117
:1006D0006846FFF7AFFD1C493068884232D11B489D
:1006E0000025016841F480710160006800F48070A9
:1006F000059016481438016841F001010160006856
:10070000694600F001000590072000900320CDE924
:1007100001050F4800F03EFA0F4C0E48C4E90005F1
:100720000015A560C4E9035080106561C4E9065056
:1007300025622046656200F08BF908B1FFF7EDFEF7
:10074000B463A66306B070BD002001404438024087
:1007500000000240106402405C000020F8B504462E
:1007600000200E46009094F83C10012907D001218A
:1007700084F83C1021688B68DB0702D011E002206E
:10078000F8BD8B6843F001038B604049404B09681A
:10079000B1FBF3F101EB410100E0491E009100299A
:1007A000FBD121688B68DB0503D58B6823F480734C
:1007B0008B6021688B68DB075DD0236C40F201659C
:1007C000AB4343F4807323644968490505D5216C24
:1007D00021F4005141F480512164216CC90404D5F5
:1007E000616C21F00601616400E0606484F83C0003
:1007F000A16B2948274DC863A16B28480864A16BE9
:100800002748C86421686FF02200086020684168AA
:1008100041F0806141602068816841F480718160AD
:100820002168134632464C31A06B00F07BF96868B2
:100830001C49C006206806D0884224D1816811F086
:10084000405F13D01FE08842F8D0174A904203D18E
:10085000D1F80423D206F1D0144A904213D1D1F832
:10086000041301F01F011029E8D30CE0816841F066
:100870008041816007E0206C40F010002064606CD3
:1008800040F0010060640020F8BD0000100000206E
:1008900040420F0000230140AD0200083103000870
:1008A0001B030008002001400021014000220140FC
:1008B0002DE9F84304464FF00009CDF80090634855
:1008C0004FF41651A56D0068B0FBF1F72E6894F84F
:1008D0005C10082000FA01F131420FD021680A684B
:1008E00052070BD50A6822F004020A6094F85C10E3
:1008F0008840A860606D40F00100606594F85C106D
:100900004FF0010808FA01F0304208D02168496927
:10091000090604D5A860606D40F00200606594F897
:100920005C1004208840304208D02168096889079B
:1009300004D5A860606D40F00400606594F85C1018
:1009400010208840304218D021680968090714D562
:10095000A86020680168490304D50068000308D531
:10096000A16C07E00168C90503D4016821F0080102
:100970000160216C09B12046884794F85C10202062
:100980008840304231D021680968C9062DD5A86059
:1009900094F8350005282068016806D0490347D53A
:1009A000006800031DD4616C1CE021F01601016099
:1009B0002068416921F080014161206C08B9A06C78
:1009C00020B12068016821F00801016094F85C10F2
:1009D0003F208840A86084F8349084F83580216DE9
:1009E0001FE0E16B09B120468847606D00282BD0DD
:1009F000606DC00714D0052084F8350020680168B8
:100A000021F0010101600098401C0090B84203D819
:100A100020680068C007F6D184F8349084F83580E7
:100A2000E16C002910D001B02046BDE8F043084732
:100A30000168C905D5D4016821F01001016084F86E
:100A4000349084F83580CCE7BDE8F88310000020AE
:100A50002DE9F041044600F099F906465CB1002505
:100A600084F83450022084F835002068016821F0B1
:100A7000010101600DE00120BDE8F08100F086F980
:100A8000801B052805D920206065032084F83500E7
:100A9000F2E720680068C007F0D12268116820489A
:100AA0000140D4E901031843D4E903363343184322
:100AB00063691843A3691843E3691843236A184319
:100AC0000843616A042903D1D4E90B13194308438D
:100AD000106020684069666A20F0070130460E43C6
:100AE000012704280CD1A06A0643E06A40B12046E1
:100AF000FFF7D4FC20B14020606584F83570BAE778
:100B0000206846612046FFF7B5FC94F85C203F2141
:100B100091408160656584F835700020ACE7000085
:100B20003F8010F02DE9F0410446866D90F83400C6
:100B3000002501280DD0012084F8340094F8357088
:100B40000020012F07D084F8340002252846BDE894
:100B5000F0810220FBE7022784F8357060652046AB
:100B6000FFF7C6FC94F85C103F208840B060206816
:100B7000016841F016010160206C20B12068016815
:100B800041F0080101602068016841F00101016045
:100B9000DCE700002DE9F84FDFF8B8A100220125BD
:100BA0000AF1040B03264FF00F090BF1040E00BFEE
:100BB0000B6805FA02F42340A3426FD10F7907F0C6
:100BC0000307012F01D0022F16D187684FEA420890
:100BD00006FA08FC27EA0C07D1F80CC00CFA08FC4E
:100BE0004CEA070CC0F808C04768A7430C79C4F367
:100BF000001494403C4344600C79E443A4070AD0B9
:100C0000C4684FEA420C06FA0CF7BC438F6807FA37
:100C10000CF72743C7600C7904F00304022C12D1AF
:100C2000D40800EB840CDCF820405707FF0E09FACB
:100C300007F824EA0804D1F8108008FA07F848EA0F
:100C40000408CCF8208004684FEA420C06FA0CF73E
:100C5000BC430F7907F0030707FA0CF72743076037
:100C60004C68E40070D53C4C276847F48047276007
:100C7000246822F0030704F480440094374C07EB07
:100C8000040CDCF8084897074FEA177809FA08F7C8
:100C9000BC43334FB84202D1002724E054E0314F27
:100CA000B84201D101271EE02F4FB84201D10227DF
:100CB00019E02E4FB84201D1032714E02C4FB8425F
:100CC00001D104270FE02B4FB84201D105270AE0DC
:100CD000294FB84201D1062705E0284FB84201D17B
:100CE000072700E0082707FA08F72743CCF8087819
:100CF000DAF800405746D1F804C09C435FEACC3C88
:100D000000D51C433C60DBF800405F46D1F804C0CE
:100D10009C435FEA8C3C00D51C433C60DEF80040FD
:100D20007746D1F804C09C435FEACC2C00D51C4325
:100D30003C60084F0C373C68D1F804C09C435FEA24
:100D40008C2C00D51C433C60521C102AFFF430AFA1
:100D5000BDE8F88F003C01404438024000300140BB
:100D6000000002400004024000080240000C024063
:100D7000001002400014024000180240001C024013
:100D80000AB1816170470904FBE7000001488068EF
:100D90007047000004000020024881680278114476
:100DA00081607047040000200B4810B5016841F4D1
:100DB00000710160016841F480610160016841F4E3
:100DC00080710160032000F071F8002000F006F847
:100DD00000F024F8002010BD003C024070B50D4D1D
:100DE00004464FF47A712878B1FBF0F00A4909689B
:100DF000B1FBF0F000F0ECFA48B9102C07D2002259
:100E00002146501E00F032F800206C6070BD0120B9
:100E100070BD000004000020100000200B4882B0CC
:100E2000016841F480410160006800F48040009056
:100E30000648001F016841F080510160006800F021
:100E400080500090072002B000F030B844380240D3
:100E5000002809DB00F01F020121914040098000B9
:100E600000F1E020C0F8001170470000F0B40E4B14
:100E70001B680C46C3F30223C3F10705042D00D9F8
:100E80000425191D072901D2002300E0DB1E0126DD
:100E900006FA05F1491E214099409E40761E1640F3
:100EA0003143F0BC00F035BC0CED00E0064900F029
:100EB000070208684FF6FF03184040EA0220034A81
:100EC00010430860704700000CED00E00000FA05D8
:100ED0002DE9F0470E46050065D0DFF81481D8F8FB
:100EE0000000F7B200F00700B04207D288F80070A7
:100EF000D8F8000000F00700B04254D128683D4CFB
:100F0000810712D5400703D5206840F4E0502060E7
:100F10002878000703D5206840F4604020602068EE
:100F2000A96820F0F000084320602878C0072DD081
:100F3000304968680839012812D0022813D00328E4
:100F400011D00968890700292DDA216821F00301F1
:100F500001432160FFF71AFF814641F2883A0EE013
:100F600009688903EFE709688901ECE7FFF70EFFDD
:100F7000A0EB0901514502D90320BDE8F0872068A4
:100F8000696800F00C00B0EB810FEFD1D8F80010C9
:100F9000404601F00701B14207D90770006800F030
:100FA0000700B04201D00120E7E72878400705D5C7
:100FB0002068E96820F4E0500843206028780007A2
:100FC00006D52068296920F4604040EAC10020600D
:100FD00000F018F82168084AC1F30311515CC840B9
:100FE0000649086006480068FFF7F8FE0020C4E7DD
:100FF000003C024008380240A417000810000020FE
:1010000008000020154810B5006810F00C021448C4
:1010100013D04110042A0FD0082A0ED10F4C241FE0
:101020002268236802F03F025B0207D52068C0F304
:101030008810A0FB010106E0084610BD2168C1F33D
:101040008811A1FB00010023FFF7BCF82168C1F360
:101050000141491C4900B0FBF1F010BD08380240C5
:101060000024F4002DE9F84F04006ED02078DFF85A
:101070004C93C007A9F104054AD009F104000168A6
:10108000C1F38101012908D00068C0F38100022862
:101090000AD1D9F80000400206D52868800337D568
:1010A00060680028E1D033E06068B0F5803F10D080
:1010B000B0F5A02F286810D020F480302860286870
:1010C00020F4802028606068A8B1FFF75FFE064624
:1010D0000DE0286840F48030F4E740F48020286078
:1010E000F7E700BFFFF752FE801B642873D828681B
:1010F0008003F7D50CE0FFF749FE064605E000BF88
:10110000FFF744FE801B6428F0D828688003F7D4DA
:101110002078DFF8AC8280074FF0000A3ED5A74860
:10112000001D016811F00C0F08D00068C0F38100A9
:1011300002280BD1D9F80000400207D428688007A4
:1011400016D5E068012800D112E033E1E068B8B1BB
:101150000120C8F80000FFF719FE064605E000BFB1
:10116000FFF714FE801B0228C0D828688007F7D537
:101170002868216920F0F80040EAC10028600DE0ED
:10118000C8F800A0FFF702FE064604E0FFF7FEFDE8
:10119000801B02281FD828688007F7D42078000712
:1011A00022D5864F87486169703771B1012101608E
:1011B000FFF7ECFD064604E0FFF7E8FD801B022880
:1011C00009D838688007F7D50EE0C0F800A0FFF70F
:1011D000DDFD064605E082E0FFF7D8FD801B022812
:1011E0007DD838688007F7D42078400768D5DFF8C5
:1011F000CCB100270BF13C0BDBF80000C0000BD496
:10120000DBF8001041F08051CBF80010DBF8000053
:10121000012700F0805000906B4E3068C00510D45C
:10122000306840F480703060FFF7B0FD009005E05A
:10123000FFF7ACFD0099401A022850D83068C0056D
:10124000F6D55E4EA0686C3601280FD005283068B0
:1012500010D020F001003060306820F004003060D1
:10126000A068B8B1FFF792FD00900FE0306840F041
:101270000100F4E740F004003060F7E7FFF786FD77
:101280000099411A41F28830814266D8306880075F
:10129000F4D50EE0FFF77AFD009007E0FFF776FD4A
:1012A0000099411A41F28830814256D8306880074F
:1012B000F4D42FB1DBF8001021F08051CBF80010EE
:1012C000A069C8B33D49091D0968C1F3810102291C
:1012D0004AD00228504607D0C8F8600000E03CE041
:1012E000FFF754FD04463BE04746C8F86000FFF7AF
:1012F0004DFD064605E000BFFFF748FD801B0228B4
:101300002BD828688001F7D4D4E907010843A16AE3
:101310002E4A490802EB0141626A41EA8211084300
:1013200094F82C1040EA0161C9F8001001203866D9
:10133000FFF72CFD044606E03EE000BFFFF726FD68
:10134000001B022809D828688001F7D534E000BFC7
:10135000FFF71CFD001B022802D90320BDE8F88F0F
:1013600028688001F4D427E00128F7D0D9F80000DC
:10137000E26900F4800191421CD1226A00F03F0131
:10138000914217D147F6C071626A0140B1EB821FEA
:1013900010D1A26A4FF0FF3300F4403103EB520248
:1013A000B1EB024F06D194F82C1000F07060B0EB56
:1013B000016F01D00120D1E70020CFE704380240BF
:1013C00000004742800E4742007000400000FFFFCF
:1013D00010B5401EB0F1807F01D3012010BD4FF049
:1013E000E02460610F21601700F093F90020A061F4
:1013F00007202061002010BDFEE700007FB500251A
:1014000020480095019502951D49039501604FF410
:101410004031416001244FF0007104618160047625
:1014200080F820501849C0E90A150326C661C56036
:1014300080F830404561FFF71CF908B172B6FEE74D
:1014400007200095CDE9014069460E48FFF768F88E
:1014500008B172B6FEE70094022469460948019477
:10146000FFF75EF808B172B6FEE7CDE900466946BF
:101470000448FFF755F8002801D072B6FEE77FBD9B
:1014800000200140140000200100000F2DE9F04F62
:1014900087B014216846FEF7CDFE69480024016834
:1014A00041F010010160016801F01001059101682F
:1014B00041F004010160016801F004010591016837
:1014C00041F080010160016801F08001059101682F
:1014D00041F001010160016801F00101059101681D
:1014E00041F002010160016801F00201059101680B
:1014F00041F0080101600068002200F0080005903A
:1015000008215048FFF73CFC012211464E48FFF7E6
:1015100037FC4FF2100A002251464C48FFF730FCCE
:10152000082501260095CDE90164694645480394E4
:10153000FFF730FB0096CDE9016469464248039409
:10154000FFF728FB00950225CDE901540527CDE9D9
:10155000034769463C48FFF71DFB10200090CDE98A
:1015600001544FF00608CDE9034869463848FFF7B3
:1015700011FBE0200090CDE90154CDE90347694615
:101580003348FFF707FB4FF00409CDE90094DFF87B
:10159000C4B0694658460294FFF7FCFA680200900E
:1015A000CDE90154CDE9034769465846FFF7F2FA01
:1015B000CDF800A0CDE90164694624480394FFF703
:1015C000E9FA4FF4A4500090CDE90154CDE9034865
:1015D00069461D48FFF7DEFA2802CDE90004694696
:1015E0001B480294FFF7D6FA4FF4E0500090CDE983
:1015F00001540A20CDE9034069461548FFF7CAFAAD
:101600002020CDE90004694610480294FFF7C2FA91
:101610004FF4107000901220CDE90106CDE9034986
:1016200069465846FFF7B6FA0B480095CDE9010424
:1016300069460448FFF7AEFA07B0BDE8F08F000036
:10164000303802400010024000080240000C024006
:10165000000002400004024000001210FEE7FEE716
:1016600070477047FFF798BB30B593B0302168469C
:10167000FEF7E0FD14210CA8FEF7DCFD1E48002457
:10168000016841F080510160006800F080501190C5
:101690001A48016841F4804101600068022500F4A5
:1016A0008040119001200390102004900095069531
:1016B0000820CDE907403220099004200A90072035
:1016C0000B906846FFF7CEFC08B172B6FEE70F201C
:1016D000CDE90C054FF4A050CDE90E404FF48050F9
:1016E000109000210CA8FFF7F3FB002801D072B680
:1016F000FEE713B030BD00004038024000700040EB
:101700000248016841F470010160704788ED00E013
:10171000FEE70907090E002804DB00F1E02080F84D
:101720000014704700F00F0000F1E02080F8141D55
:10173000704702E008C8121F08C1002AFAD170479A
:101740007047002001E001C1121F002AFBD1704741
:1017500008B5FFF729FBFFF787FFFFF797FE0C4857
:10176000016841F4800101600068002200F48000FB
:10177000009011463820FFF779FB3820FFF768FB0F
:10178000FFF73CFE032203490348FEF7E7FFFEE7AD
:10179000303802400000002014000020000610161F
:1017A0000006101600000000000000000102030403
:1017B00006070809D41700080000002014000000E4
:1017C00032170008E817000814000020AC040000DD
:1017D0004217000800000000010000001000000097
:0817E000000000000024F400E9
:040000050800018965
:00000001FF
