:020000040810E2
:1000000078060010390310087D0C1008210C100828
:10001000790C10083F041008B10C10080000000013
:10002000000000000000000000000000830C100829
:100030004304100800000000810C1008850C100813
:1000400053031008530310085303100853031008F8
:1000500053031008530310085303100853031008E8
:1000600053031008530310085303100853031008D8
:1000700053031008530310085303100853031008C8
:1000800053031008530310085303100853031008B8
:1000900053031008530310085303100853031008A8
:1000A0005303100853031008530310085303100898
:1000B0005303100853031008530310085303100888
:1000C0005303100853031008530310085303100878
:1000D0005303100853031008530310085303100868
:1000E00053031008530310080000000053031008C6
:1000F0005303100853031008530310085303100848
:100100005303100853031008530310085303100837
:100110005303100853031008530310085303100827
:100120005303100853031008530310085303100817
:100130005303100853031008530310085303100807
:1001400053031008530310080000000000000000D3
:1001500053031008530310085303100853031008E7
:1001600053031008530310085303100853031008D7
:100170005303100853031008530310080000000035
:1001800053031008530310085303100853031008B7
:1001900053031008530310085303100853031008A7
:1001A0005303100853031008530310085303100897
:1001B0005303100853031008530310085303100887
:1001C0005303100853031008530310085303100877
:1001D0005303100853031008530310085303100867
:1001E0005303100853031008530310085303100857
:1001F0005303100853031008530310085303100847
:100200005303100853031008530310085303100836
:100210005303100853031008530310085303100826
:100220005303100853031008530310080000000084
:100230005303100853031008530310085303100806
:1002400053031008530310085303100853031008F6
:1002500053031008530310085303100853031008E6
:1002600053031008530310085303100853031008D6
:1002700053031008530310085303100853031008C6
:100280005303100853031008530310080000000024
:10029000530310085303100800F002F800F03CF874
:1002A0000AA090E8000C82448344AAF10107DA45D1
:1002B00001D100F031F8AFF2090EBAE80F0013F0E7
:1002C000010F18BFFB1A43F001031847C40A0000CE
:1002D000E40A0000103A24BF78C878C1FAD852075F
:1002E00024BF30C830C144BF04680C6070470000B0
:1002F0000023002400250026103A28BF78C1FBD82F
:10030000520728BF30C148BF0B6070471FB500F0CF
:1003100031FD1FBD10B510BD00F058F81146FFF7B4
:10032000F5FF00F0E3FC00F076F803B4FFF7F2FF0E
:1003300003BC00F07DF800000948804709480047E9
:10034000FEE7FEE7FEE7FEE7FEE7FEE7FEE7FEE785
:10035000FEE7FEE704480549054A064B70470000E2
:100360008D0C100899021008780000107806001013
:1003700078020010780200104FF0000200B513461A
:1003800094469646203922BFA0E80C50A0E80C50B5
:10039000B1F12001BFF4F7AF090728BFA0E80C5066
:1003A00048BF0CC05DF804EB890028BF40F8042B5F
:1003B00008BF704748BF20F8022B11F0804F18BFCC
:1003C00000F8012B7047704770477047754600F082
:1003D0002BF8AE4605006946534620F007008546D7
:1003E00018B020B5FFF7B6FFBDE820404FF000067B
:1003F0004FF000074FF000084FF0000B21F007010D
:10040000AC46ACE8C009ACE8C009ACE8C009ACE84F
:10041000C0098D46704710B50446AFF300802046F2
:10042000BDE81040FFF781BF00487047140000107E
:1004300001491820ABBEFEE726000200704700BF4E
:10044000FEE7704770B5044600F02AF906462546D7
:10045000681C10B104480078054400BF00F020F982
:10046000801BA842FAD370BD08000010F8B5024600
:100470000B4600216F4DD7E001278F401E6806EA2A
:100480000704002C72D01E7906F00306012E04D05A
:100490001E7906F00306022E13D190684F00032642
:1004A000BE40B0434F00DE68BE40304390605068AD
:1004B00001268E40B0431E79C6F300168E403043AD
:1004C00050601E7906F00306032E09D0D0684F0055
:1004D0000326BE40B0434F009E68BE403043D0600C
:1004E0001E7906F00306022E13D1CF0802F1200672
:1004F00056F827004E07F70E0F26BE40B0434F07B1
:10050000FF0E1E69BE403043CF0802F1200646F8B8
:10051000270010684F000326BE40B0431E7906F046
:1005200003064F00BE40304310605E6806F440365C
:10053000002E78D000BF404E366846F002063E4F8F
:100540003E603E46366806F00206009600BF00BFD9
:100550003A4E8F0856F827008E07370F0F26BE40F9
:10056000B043374EB24202D100262EE05BE0354E5A
:10057000B24201D1012628E0334EB24201D1022617
:1005800023E0324EB24201D103261EE0304EB24289
:1005900001D1042619E02F4EB24201D1052614E004
:1005A0002D4EB24201D106260FE02C4EB24201D1AF
:1005B00007260AE02A4EB24201D1082605E0294E5C
:1005C000B24201D1092600E00A268F073F0FBE4044
:1005D00030431A4E8F0846F827004FF0B046306877
:1005E000A0435E6806F4801606B120434FF0B04683
:1005F00030607068A0435E6806F4001606B12043C0
:100600004FF0B04670606868A0435E6806F400363C
:1006100006B1204368602868A0435E6806F480360F
:1006200006B120432860491C1E68CE40002E7FF48E
:1006300023AFF8BDC0000058F44402580804005825
:10064000000002580004025800080258000C02582A
:10065000001002580014025800180258001C0258DA
:10066000002002580024025810B5426921EA020312
:1006700002EA010443EA0443836110BD0AB18161C7
:1006800001E00B048361704704480068C0F3031065
:10069000072801D1032070470120FCE700ED00E0AE
:1006A0000148006870470000000000100249096816
:1006B0000143014A11607047106502580348006801
:1006C0000349097808440149086070470000001098
:1006D0000800001038B500BF2248006840F4804090
:1006E000204908600846006800F48040009000BF80
:1006F00000BF1D4800681D49084040F401401A49E8
:1007000008600846006840F001000860032000F01F
:10071000B1F800F055F91349C0390968C1F3032154
:10072000134A515C01F01F0120FA01F40D48C03852
:10073000006800F00F001146085C00F01F0024FA6A
:1007400000F00C490860084600680B4908600F205B
:1007500000F014F808B1012038BD00F03BF800208B
:10076000FAE70000D844025800440240FF00F0FFBE
:100770007E0D1008100000100C00001070B504462B
:100780001148007808B9012070BD0F4800784FF477
:100790007A71B1FBF0F00D490968B1FBF0F528461C
:1007A00000F024FA08B10120EEE7102C07D2002255
:1007B0002146501E00F020F80548046001E00120A9
:1007C000E2E70020E0E70000080000100C00001045
:1007D0000400001008B500BF0648006840F00200A1
:1007E000044908600846006800F00200009000BF5D
:1007F00000BF08BDF44402582DE9F05F80460D4665
:10080000164600F057FA074639462A46334601F0A5
:100810000700C0F1070ABAF1040F02D94FF0040A29
:1008200001E0C0F1070AD14600F1040ABAF1070F4E
:1008300002D24FF0000A01E0A0F1030AD4464FF0C3
:10084000010A0AFA09FAAAF1010A0AEA020A0AFAEC
:100850000CFA4FF0010B0BFA0CFBABF1010B0BEA9E
:10086000030B4AEA0B042146404600F02BFABDE890
:10087000F09F000000BF00F00702064B19684FF61A
:10088000FF031940044B0B4343EA0221014B19605B
:1008900000BF70470CED00E00000FA0510B5FFF74F
:1008A000F3FE032801D120BF01E040BF20BF10BDEF
:1008B00070B506460C4615463F48006820F001001A
:1008C00030433D49086075BBFFF7DEFE032800D0CA
:1008D00070BD39481030006820F0010036491031F1
:1008E00008603648006840F004003449086000BFE2
:1008F00000BF00BFBFF34F8F00BF00BF00BF00BFEE
:1009000000BF00BFBFF36F8F00BF00BF00BF012C4F
:1009100001D130BF00E020BF2848006820F004006B
:100920002649086046E0FFE7012D2ED1FFF7ACFE17
:10093000012800D0CCE720481430006820F00200E5
:100940001D49143108601D48006840F004001B492F
:10095000086000BF00BF00BFBFF34F8F00BF00BFE4
:1009600000BF00BF00BF00BFBFF36F8F00BF00BF5D
:1009700000BF012C01D130BF00E020BF0F4800684C
:1009800020F004000D49086014E0FFF77DFE032805
:1009900008D109481030006820F0040006491031E1
:1009A000086007E004481430006820F004000249A1
:1009B0001431086000BF8BE70048025810ED00E0DA
:1009C000F0B5824E366806F0380636B1082E15D0DE
:1009D000102E15D0182E7DD114E07C4E103E3668B6
:1009E000C6F3401646B1794E103E3668C6F3C107CD
:1009F000774E26FA07F000E07548E5E07548E3E039
:100A00007548E1E0714E1836366806F003046F4E03
:100A100018363668C6F305116C4E1C36366806F07B
:100A200001056A4E24363668C6F3CC0616FB05F679
:100A300001EE106AB8EE410A002971D024B1012CF0
:100A400050D0022C6DD16DE0604E103E3668C6F37A
:100A500040163EB35D4E103E3668C6F3C1075C4E8D
:100A600026FA07F301EE103AF8EE411A01EE101AD9
:100A7000B8EE411A81EE812A9FED581AC0EE011A94
:100A8000524E20363668C6F3080601EE106AB8EEFC
:100A9000411A31EE811AF7EE001A31EE211A62EE98
:100AA000010A1EE001EE101AB8EE411ADFED4C1AF1
:100AB00081EE812A9FED491AC0EE011A434E20367D
:100AC0003668C6F3080601EE106AB8EE411A31EE38
:100AD000811A00E076E0F7EE001A31EE211A62EE9C
:100AE000010A5BE001EE101AB8EE411A9FED3D2AB3
:100AF000C2EE011A9FED391A80EE012A334E2036DC
:100B00003668C6F3080601EE106AB8EE411A32EEF6
:100B1000011AB7EE002A31EE021A61EE810A3DE0B9
:100B20004EE01DE001EE101AB8EE411ADFED2E1A6C
:100B300081EE812A9FED291AC0EE011A234E20363C
:100B40003668C6F3080601EE106AB8EE411A31EEB7
:100B5000811AF7EE001A31EE211A62EE010A1DE049
:100B600001EE101AB8EE411A9FED1E2AC2EE011ACC
:100B70009FED1A1A80EE012A144E20363668C6F30D
:100B8000080601EE106AB8EE411A32EE011AB7EE0D
:100B9000002A31EE021A61EE810A00BF00BF0B4E3F
:100BA00020363668C6F34626721C01EE102AB8EECF
:100BB000411AC0EE811ABCEEE11A11EE100A00E0F3
:100BC000002001E0034800BF00BFF0BD1044025800
:100BD0000090D00300093D0040787D0100000046F0
:100BE0000024744C0024744A20BCBE4B70B50446EB
:100BF0002546681EB0F1807F01D301200FE0681EFA
:100C00004FF0E02148610F214FF0FF3000F05AF81B
:100C100000204FF0E021886107200861002070BDAE
:100C200000BFFEE700B587B0142102A8FFF7A4FBC0
:100C300000BF0F48006840F400700D490860084686
:100C4000006800F40070019000BF00BF0022042182
:100C50000848FFF713FD04200290012003900020B4
:100C60000490059002A90348FFF700FC07B000BDFF
:100C7000E04402580024025800BFFEE700BFFEE730
:100C80007047704710B5FFF719FD10BD07480068A1
:100C900040F470000549086004487838006840F066
:100CA00010000249783908607047000088ED00E0C4
:100CB00000BFFEE702480068C0F302207047000052
:100CC0000CED00E010B5002804DB0A07130E054AFE
:100CD000135406E00A07140E034A00F00F031B1F0B
:100CE000D45410BD00E400E018ED00E008B500BFEA
:100CF0001C48006840F000701A4908600846006807
:100D000000F00070009000BF00BF0120FFF7CEFC94
:100D1000FFF7C4FD012202210020FFF7C9FD1248A0
:100D20000068C0F30310072806D11048006840F09F
:100D300001000E49086007E00C481030006840F0E0
:100D400001000A4910310860FFF7C4FCFFF76AFF91
:100D500007E004210648FFF787FC4FF4FA70FFF71D
:100D600071FBF6E7E044025800ED00E0046502582C
:100D7000002402584FF04070E1EE100A7047000066
:100D80000000010203040102030406070809000031
:100D9000B00D10080000001014000000D40210086C
:100DA000C40D10081400001064060000F0021008C2
:100DB0000000000010000000010000000090D003BF
:040DC0000090D003CC
:040000050810029944
:00000001FF
