:020000040800F2
:1000000098040020A10100080B1500089D130008AA
:1000100009150008AD0200081916000800000000CC
:100020000000000000000000000000002F15000884
:1000300015040008000000002D1500083115000807
:10004000BB010008BB010008BB010008BB010008A0
:10005000BB010008BB01000817040008BB01000831
:10006000BB010008BB010008BB010008BB01000880
:10007000BB010008BB010008BB010008BB01000870
:10008000BB010008BB010008BB010008BB01000860
:10009000B1020008BB010008BB010008BB01000859
:1000A000BB010008BB010008BB010008BB01000840
:1000B000BB010008BB010008BB010008BB01000830
:1000C000BB010008BB010008BB010008BB01000820
:1000D000BB010008BB010008BB010008BB01000810
:1000E000BB010008BB010008BB010008BB01000800
:1000F000BB010008BB010008BB010008BB010008F0
:10010000BB010008BB010008BB010008BB010008DF
:10011000BB010008BB010008BB010008BB010008CF
:10012000BB010008BB010008BB010008BB010008BF
:10013000BB010008BB010008BB010008BB010008AF
:10014000BB010008BB010008BB010008BB0100089F
:10015000BB010008BB010008BB010008BB0100088F
:10016000BB010008BB010008BB010008BB0100087F
:10017000BB010008BB010008BB0100080000000033
:10018000BB010008BB010008DFF810D000F07CF8CC
:100190000048004739160008AFF30080980400209B
:1001A0000648804706480047FEE7FEE7FEE7FEE711
:1001B000FEE7FEE7FEE7FEE7FEE7FEE7C5150008FF
:1001C000890100082DE9F05F0546002092469B4614
:1001D00088460646814640241BE02846414647465D
:1001E000224600F041F853465A46C01A914110D3B6
:1001F00011461846224600F028F82D1A67EB010830
:100200004F4622460120002100F01FF817EB00099D
:100210004E41201EA4F10104DFDC484631462A4647
:100220004346BDE8F09FD2B201E000F8012B491E21
:10023000FBD270470022F6E710B513460A46044683
:100240001946FFF7F0FF204610BD202A04DB203AB4
:1002500000FA02F1002070479140C2F1200320FA19
:1002600003F3194390407047202A04DB203A21FA17
:1002700002F00021704721FA02F3D040C2F12002BF
:100280009140084319467047064C074D06E0E06868
:1002900040F0010394E8070098471034AC42F6D3CD
:1002A000FFF776FFC8160008E8160008FEE7000012
:1002B000014800F031B900001000002010B50029FD
:1002C00058D0826B4FF4D873046803EB0113E458E1
:1002D00014F0040494600468E4584DD0E4085460B9
:1002E0000468E35803F00203D3604FF4DA73046840
:1002F00003EB0113E45804F00F0414611162046865
:10030000E358C3F30723D3614FF4DC73046803EBB2
:100310000113E45814750468E458240A54750468F9
:10032000E458240C94750468E3581B0ED3754FF4FD
:10033000DE73046803EB0113E45814760468E45890
:10034000240A54760468E458240C94760468E3582C
:100350001B0ED3760368202289B11A6102685369A3
:1003600023F05003536190F83C20222A0DD0322A0A
:100370000BD00FE0426BA5E7640D1460B0E7DA60C4
:100380000268536923F00A03ECE70268536923F417
:100390000F43536112220123002990F83C1006D02C
:1003A000522915D0622916D0722906D115E04229AA
:1003B0000ED0622908D0722908D080F83C3000BFE6
:1003C00000F000FB002010BD322107E0522105E0C3
:1003D00080F83C20F4E7222100E0422180F83C1024
:1003E000EEE7000000B58BB00E200121CDE908102A
:1003F00000200290009001900490039006900791D5
:1004000005906946024800F009F80BB000BD0000F5
:10041000100000207047012000F0EABB10B5087DF5
:10042000012282403A48D0F8003243F00103C0F87C
:100430000032D0F8003223F47C53C0F80032D0F8F8
:1004400000324C6A43EA0423C0F80032D0F81C3270
:100450009343C0F81C32CB69B3B9D0F80C32934344
:10046000C0F80C328C894B6864F31F434C6900EB75
:10047000C404C4F840320C890B6864F31F434C6910
:1004800000EBC404C4F84432CB69012B16D1D0F878
:100490000C321343C0F80C320C884B6864F31F43D2
:1004A0004C6900EBC404C4F840320C89CB6864F397
:1004B0001F434C6900EBC404C4F844328B69002B21
:1004C000D0F8043205D01343C0F804320B6913B1DD
:1004D00006E09343F8E7D0F814329343C0F814329F
:1004E0000B69012B04D1D0F814321343C0F8143235
:1004F000096A012904D1D0F81C121143C0F81C125A
:10050000D0F8001221F00101C0F80012002010BD47
:1005100000640040704700002DE9F0410446006887
:100520000026C168C1F300134169C1F3C002102164
:1005300013B10AB14E01C160206802694369C2F378
:100540000012C3F380131AB113B146F4806601613F
:10055000216848694FF00105C043C0074ED18A6841
:100560007648904323D000208B68754A9A4320D068
:1005700000228F68734BBB431DD0002310431843E8
:100580003CD088688A68C0F340008B68C2F3402280
:10059000C3F340431043184329D04A69204622F050
:1005A00001024A6194F83C10122906D00AE00120A9
:1005B000DAE70122DDE70123E0E701684A6922F476
:1005C0000F424A6190F83C10422908D0522908D0C5
:1005D000722908D080F83C5000F0FAFA09E0222194
:1005E00002E0322100E0622180F83C10F4E746F49A
:1005F000006620688168544A114381602168C86898
:10060000496910F0030FC1F3400104D019B1002172
:100610002046FFF753FE21680869496910F0030F6F
:10062000C1F3001104D019B101212046FFF746FEA5
:10063000206C3043206420688169426911F0010F09
:100640004369C2F30022C3F3C03305D022B11BB10A
:10065000216C41F0010121648169C1F340034169CA
:10066000C1F340224169C1F3C0312BB122B119B1AC
:10067000216C41F0020121648169C1F38003416969
:100680004269C1F38021C2F3C0322BB121B11AB14A
:10069000216C41F004012164816911F0700F08D0D0
:1006A00000224169C1F3C0234169C1F3C03112B1D5
:1006B00021E00122F5E7F3B1E9B1816901F07001B0
:1006C00040292FD006DC102909D020290BD0302951
:1006D0000DD123E0502929D0602908D12AE0216CCE
:1006E00041F0080102E0216C41F0100121648169B0
:1006F00021F070018161206C00280DD02168042058
:10070000486084F83C502068416948F65B72914328
:1007100041612046FFF7FEFEBDE8F081216C41F00B
:100720002001E3E7216C41F04001DFE7216C41F05B
:100730008001DBE7216C41F48071D7E703000004FE
:100740000003000800000310190501002DE9F04125
:10075000040004D094F83C00002518B107E0012003
:10076000BDE8F08184F83D50204600F093F8022067
:1007700084F83C002068016821F0020101602068D3
:10078000016841F00101016000F020FB07460326EB
:1007900005E000BF00F01AFBC01B0A2863D82068E0
:1007A0004068C007F6D020684168C90768D0A169D1
:1007B000012901683FD021F080010160E069012832
:1007C000206801683AD021F040010160206A0128C8
:1007D0002068016835D021F020010160606A01289D
:1007E0002068016830D021F010010160A06A012862
:1007F000206801682BD021F008010160E06A01281F
:100800002068016826D021F004010160D4E90201CA
:100810000843D4E90412114308436168491E0843A0
:100820002168C8612068016821F00101016000F0C1
:10083000CDFA07461CE041F08001BEE741F04001DF
:10084000C3E741F02001C8E741F01001CDE741F0D6
:100850000801D2E741F00401D7E700BF00F0B6FA83
:10086000C01B0A2804D904F83C6F0320657077E7A1
:1008700020684068C007F1D120684068C00703D0F5
:10088000042084F83C006AE72564012084F83C00D9
:10089000002065E710B586B0044614216846FFF7CE
:1008A000C9FC18492068884229D1174800210268EC
:1008B00042F000720260006800F00070059012487B
:1008C0001038026842F002020260006800F0020084
:1008D00005904FF4407000900220CDE90101032003
:1008E0000390092004906946084800F08DF902221F
:1008F0000021142000F0CCFA142000F0BDFA06B05C
:1009000010BD000000640040403802400004024076
:1009100030B511B1012925D010E090F83C20222AF1
:1009200028D090F83C20422A24D000BF90F83C20E8
:10093000622A1FD090F83C20722A1BD090F83D20EC
:10094000012A17D0012280F83D20622290F83C4015
:10095000722389B1122C19D0222C18D0422C19D014
:10096000322214E090F83C20322A03D090F83C2048
:10097000522ADBD1022030BD122C05D0322C06D0F9
:10098000522C07D0222202E0422200E0522280F8BC
:100990003C2001E080F83C300022026403685C697E
:1009A00048F601752C435C6180F83D200068002901
:1009B000416904D041F050014161002030BD41F057
:1009C0000A01F9E710B5406B074902688B889A4223
:1009D00003D1007D087000F0E3FCBDE81040002169
:1009E0000248FFF795BF0000000000201000002023
:1009F0002DE9F05F0E46016804468868400105D481
:100A00008868000102D48868C00070D594F83D0061
:100A100001280CD0012784F83D7094F83C0022286E
:100A200008D0322808D062280ED0122005E002201B
:100A3000BDE8F09F422000E0522084F83C00886826
:100A4000400103D5002507E07220F6E78868000121
:100A500001D5012500E002254FF4C07000EB051020
:100A60000A5802F001020A50216B8A68F2B3D4F8E6
:100A700000C05CF800301343CA68496842EAC1010B
:100A80000B434CF80030216B0A7C02F00F020A6124
:100A90004FF4C271226801EB0511535823F00F0384
:100AA000535022685358D4F830C0DCF810C043EAE1
:100AB0000C035350216B0A7DCB7D42EA03628B7D90
:100AC000497D1B0443EA01210A434FF4C4732168A2
:100AD00003EB0513CA50216B0A7ECB7E42EA036208
:100AE0008B7E497E1B0443EA012101E016E063E0AE
:100AF0000A434FF4C673216803EB0513CA502168FB
:100B00000A5842F001020A5000F060F981464FF0A5
:100B10000008DFF8B0A0DFF8B0B026E02268135874
:100B2000D1F80CC0098843EA0C0343EA4151115043
:100B3000A9E7701C19D02EB100F048F9A0EB09000C
:100B4000B04212D9032084F83C004DB1012D09D0E8
:100B50004FF400002168886084F83D80032067E737
:100B60008020F7E74FF40040F4E7ADB12068012D95
:100B7000816816D0154888430028DAD194F83C00E3
:100B8000422811D0522811D0722813D084F83C701A
:100B900084F83D8000204BE7206881682AEA010044
:100BA000EAE72BEA0100E7E7222000E0322084F8A0
:100BB0003C00EDE76220FAE7042084F83C000120C5
:100BC00036E70000030000040003000800000310E3
:100BD000704731B500F0FAF8009C0546601C00D063
:100BE000641C00F0F3F8401BA042FAD338BD7047F4
:100BF000044910B50A68024202D00860FFF7F7FF07
:100C000010BD0000143C01402DE9F84FDFF87CB125
:100C100000224FF001084FF0030A4FF00F090BF1CB
:100C2000040E00BF0B6808FA02F42340A3426ED101
:100C30004D68022D01D0122D0ED1D50800EB850C88
:100C4000DCF820505607F70E09FA07F6B5430E698F
:100C5000BE402E43CCF82060066855000F790AFA92
:100C600005FC07F0030726EA0C06AF403743076090
:100C70004E68012E05D0022E03D0112E01D0122E67
:100C80000ED18668CF6826EA0C06AF4037438760EE
:100C90004668A6430C79C4F300149440344344607E
:100CA000C6688C6826EA0C06AC403443C4604C68C5
:100CB000E40065D5364C256845F4804525602468F8
:100CC00022F0030504F480440094324C2E19D6F827
:100CD000084895072F0F09FA07F5AC432E4DA84297
:100CE00001D1002524E02D4DA84201D101251FE0AE
:100CF0002B4DA84201D102251AE02A4DA84201D16C
:100D0000032515E0284DA84202D1042510E037E064
:100D1000264DA84201D105250AE0254DA84201D162
:100D2000062505E0234DA84201D1072500E008254E
:100D3000BD402543C6F80858DBF800405D464E68C4
:100D40009C43F60300D51C432C60DEF8004075463A
:100D50004E689C43B60300D51C432C600B4D0835F0
:100D60002C684E689C43F60200D51C432C60074D4E
:100D70000C352C684E689C43B60200D51C432C6091
:100D8000521C102AFFF44EAFBDE8F88F003C014022
:100D9000443802400030014000000240000402409C
:100DA00000080240000C0240001002400014024003
:100DB00000180240001C02400069084000D00120D9
:100DC00070470AB1816170470904FBE70148006878
:100DD000704700000800002002480168491C0160BB
:100DE00070470000080000200B4810B5016841F46E
:100DF00000710160016841F480610160016841F4A3
:100E000080710160032000F063F8002000F006F814
:100E100000F018F8002010BD003C024010B5044658
:100E200007484FF47A710068B0FBF1F000F0A2FAC5
:100E300000222146501E00F02BF8002010BD0000BB
:100E40000C0000200B4882B0016841F48041016031
:100E5000006800F4804000900648001F016841F0DF
:100E600080510160006800F080500090072002B0BF
:100E700000F02EB84438024000F01F0201219140DA
:100E80004009800000F1E020C0F800117047000028
:100E9000F0B40E4B1B680C46C3F30223C3F10705E5
:100EA000042D00D90425191D072901D2002300E0D3
:100EB000DB1E012606FA05F1491E214099409E409D
:100EC000761E16403143F0BC00F020BB0CED00E074
:100ED000064900F0070208684FF6FF03184040EA91
:100EE0000220034A10430860704700000CED00E048
:100EF0000000FA052DE9F0470E46050065D0DFF841
:100F00001481D8F80000F7B200F00F00B04207D209
:100F100088F80070D8F8000000F00F00B04254D1FB
:100F200028683D4C810712D5400703D5206840F45E
:100F3000E05020602878000703D5206840F4604026
:100F400020602068A96820F0F0000843206028781D
:100F5000C0072DD0304968680839012812D002280E
:100F600013D0032811D00968890700292DDA2168D8
:100F700021F0030101432160FFF728FF814641F280
:100F8000883A0EE009688903EFE709688901ECE710
:100F9000FFF71CFFA0EB0901514502D90320BDE872
:100FA000F0872068696800F00C00B0EB810FEFD18A
:100FB000D8F80010404601F00F01B14207D9077080
:100FC000006800F00F00B04201D00120E7E7287868
:100FD000400705D52068E96820F4E0500843206008
:100FE0002878000706D52068296920F4604040EA87
:100FF000C100206000F016F82168084AC1F303110F
:10100000515CC840064908600020FFF707FF002038
:10101000C5E70000003C024008380240B81600084E
:101020000C000020154810B5006810F00C021448A0
:1010300013D04110042A0FD0082A0ED10F4C241FC0
:101040002268236802F03F025B0207D52068C0F3E4
:101050008810A0FB010106E0084610BD2168C1F31D
:101060008811A1FB00010023FFF7ACF82168C1F350
:101070000141491C4900B0FBF1F010BD08380240A5
:101080000024F4002DE9F84F050071D0DFF8D0926C
:101090002878A9F1040BC007ABF104044AD0D9F8B1
:1010A00000104846C1F38101012908D00068C0F34F
:1010B000810002280AD1DBF80000400206D5206832
:1010C000800337D568680028DFD033E06868B0F562
:1010D000803F10D0B0F5A02F206810D020F48030D1
:1010E0002060206820F4802020606868A8B1FFF7A5
:1010F0006DFE06460DE0206840F48030F4E740F4D1
:1011000080202060F7E700BFFFF760FE801B6428A7
:1011100073D820688003F7D50CE0FFF757FE06462A
:1011200005E000BFFFF752FE801B6428F0D820685E
:101130008003F7D428788B4F80074FF0010A4FF0D7
:1011400000083DD5D9F80010484611F00C0F08D022
:101150000068C0F3810002280BD1DBF800004002D8
:1011600007D42068800715D5E868012800D111E070
:10117000F3E0E868B0B1C7F800A0FFF727FE064625
:1011800005E000BFFFF722FE801B022835D820684B
:101190008007F7D52068296920F0F80040EAC100EF
:1011A00020600DE0C7F80080FFF710FE064604E05F
:1011B000FFF70CFE801B02281FD820688007F7D499
:1011C0002878000724D56848696981B1C0F800A073
:1011D000FFF7FCFD064604E0FFF7F8FD801B022840
:1011E0000BD85F486C3000688007F5D510E0C0F878
:1011F0000080FFF7EBFD064605E074E0FFF7E6FD33
:10120000801B02286FD856486C3000688007F5D4E0
:101210002878400753D552483830016841F0805152
:101220000160006800F0805000905048016841F46F
:1012300080710160FFF7CAFD064604E0FFF7C6FDB6
:10124000801B02284FD849480068C005F6D5444E97
:10125000A868683601280FD00528306810D020F023
:1012600001003060306820F004003060A868B8B138
:10127000FFF7ACFD00900FE0306840F00100F4E7AC
:1012800040F004003060F7E7FFF7A0FD0099411A35
:1012900041F28830814258D830688007F4D50EE09A
:1012A000FFF794FD009007E0FFF790FD0099411AC9
:1012B00041F28830814248D830688007F4D4A86968
:1012C00090B3D9F80010C1F38101022945D002285A
:1012D000C7F8608003D0FFF779FD054638E0FFF7D7
:1012E00075FD064605E030E0FFF770FD801B022823
:1012F0002BD820688001F7D4D5E907010843A96AF3
:101300001B4A490802EB01416A6A41EA821108431B
:1013100095F82C1040EA0161CBF80010C7F860A0E6
:10132000FFF754FD054606E015E000BFFFF74EFD50
:10133000401B022809D820688001F7D50BE000BFC8
:10134000FFF744FD401B022802D90320BDE8F88FB7
:1013500020688001F4D40020F8E70120F6E70000BF
:101360000838024000004742800E474200700040AB
:101370000000FFFF10B5401EB0F1807F01D30120B7
:1013800010BD4FF0E02460610F21601700F0BEF83F
:101390000020A06107202061002010BDFEE70000B2
:1013A0002DE9F0471B4C05464FF48056002231468C
:1013B0002046FFF706FD7700002239462046FFF75A
:1013C00000FD4FF48048002241462046FFF7F9FC1B
:1013D0004FF40049002249462046FFF7F2FC012D58
:1013E0000CD0022D0DD0032D0ED0042D0FD10122D3
:1013F00049462046BDE8F047FFF7E3BC01223146ED
:10140000F7E701223946F4E701224146F1E7BDE85A
:10141000F0870000000C02400F4910B5A1F1440014
:101420004FF4803201631C3141630C490160152186
:10143000416000218160C0E9031241618161C161A5
:10144000016241628162C162FFF780F9002801D028
:1014500072B6FEE710BD000054000020006400409A
:10146000F0B587B014216846FEF7E4FE2248002458
:10147000016841F080010160016801F0800105917F
:10148000016841F001010160016801F0010105916D
:10149000016841F008010160016801F0080105914F
:1014A000016841F0020101600068144F00F0020081
:1014B0004FF470460590002231463846FFF781FC14
:1014C00001250F480095CDE9010469460D48FFF755
:1014D0009BFB0096CDE90154694638460394FFF71B
:1014E00093FB012200210620FFF7D2FC0620FFF724
:1014F000C3FC07B0F0BD000030380240000C0240D1
:101500000000111000000240FEE7FEE70907090E87
:10151000002806DA00F00F0000F1E02080F8141D2A
:10152000704700F1E02080F8001470477047704762
:10153000FFF752BC30B593B030216846FEF77AFE13
:1015400014210CA8FEF776FE1C480025016841F026
:1015500080510160006800F08050119018480168C7
:1015600041F4804101600068022400F48040119041
:101570000120039010200490009406940820CDE9E7
:1015800007505420CDE9090407200B906846FFF767
:1015900079FD08B172B6FEE70CA90F2081E8310091
:1015A0004FF480500F90109002210CA8FFF7A2FC7E
:1015B000002801D072B6FEE713B030BD40380240BB
:1015C000007000401048016841F4700101600F484C
:1015D000016841F0010101600C4A002108321160EC
:1015E00002680B4B1A400260031D0A4A1A60026827
:1015F00022F48022026005480C300160024958063E
:10160000803908607047000088ED00E00038024033
:10161000FFFFF6FE10300024FEE702E008C8121FAC
:1016200008C1002AFAD170477047002001E001C1CB
:10163000121F002AFBD17047FFF7D6FBFFF77AFF96
:10164000FFF70EFFFFF7E8FEFEF7CCFE002117487C
:10165000FFF75EF9154D0026154C286B154F866077
:10166000296B60880860286BC660296B02200861BE
:1016700001213846FFF7A0FB0028F9D02078042884
:1016800000D126702078401CC0B22070FFF788FE81
:10169000296B20780875286B142146750348FFF7DD
:1016A000A7F9C820FFF795FAE2E700001000002034
:1016B00000000020000002400000000000000000C8
:1016C0000102030406070809E816000800000020CC
:1016D000100000001A160008F8160008100000207C
:1016E000880400002A1600080000230123010000DE
:0816F000000000000024F400DA
:040000050800018965
:00000001FF
