:020000040800F2
:1000000098520020F90300087F3600087B32000870
:100010007D36000843060008E140000800000000AB
:10002000000000000000000000000000390300088C
:10003000450600080000000095030008573E000830
:100040001304000813040008130400081304000834
:100050001304000813040008130400081304000824
:100060001304000813040008130400081304000814
:100070001304000813040008130400081304000804
:1000800013040008130400081304000813040008F4
:1000900013040008130400081304000813040008E4
:1000A00013040008130400081304000813040008D4
:1000B00013040008130400081304000813040008C4
:1000C00013040008130400081304000813040008B4
:1000D00013040008130400081304000813040008A4
:1000E000470600081304000800000000130400087D
:1000F0001304000813040008130400081304000884
:100100001304000813040008130400081304000873
:100110001304000813040008130400081304000863
:100120001304000813040008130400081304000853
:100130001304000813040008130400081304000843
:100140001304000813040008000000000000000071
:100150001304000813040008130400081304000823
:100160001304000813040008130400081304000813
:100170001304000813040008130400080000000022
:1001800013040008130400081304000813040008F3
:1001900013040008130400081304000813040008E3
:1001A00013040008130400081304000813040008D3
:1001B00013040008130400081304000813040008C3
:1001C00013040008130400081304000813040008B3
:1001D00013040008130400081304000813040008A3
:1001E0001304000813040008130400081304000893
:1001F0001304000813040008130400081304000883
:100200001304000813040008130400081304000872
:100210001304000813040008114000081304000828
:100220001304000813040008130400080000000071
:100230001304000813040008130400081304000842
:100240001304000813040008130400081304000832
:100250001304000813040008130400081304000822
:100260001304000813040008130400081304000812
:100270001304000813040008130400081304000802
:100280001304000813040008130400080000000011
:10029000130400081304000800F002F800F03CF812
:1002A0000AA090E8000C82448344AAF10107DA45D1
:1002B00001D100F031F8AFF2090EBAE80F0013F0E7
:1002C000010F18BFFB1A43F001031847245C00001C
:1002D000445C0000103A24BF78C878C1FAD85207AD
:1002E00024BF30C830C144BF04680C6070470000B0
:1002F0000023002400250026103A28BF78C1FBD82F
:10030000520728BF30C148BF0B6070471FB505F0CA
:10031000C9FD1FBD10B510BD00F059F91146FFF71A
:10032000F5FF03F0EFFE00F077F903B4FFF7F2FFFB
:1003300003BC00F07FF900002C4B19680868B0E896
:10034000F04F80F30988BFF36F8F4FF0000080F308
:10035000118870470000000008480068006880F3BA
:1003600008884FF0000080F3148862B661B6BFF3CE
:100370004F8FBFF36F8F00DF00BF00BF08ED00E0BD
:10038000DFF80C00016841F470010160704700BFA4
:1003900088ED00E0EFF30980BFF36F8F134B1A680D
:1003A0001EF0100F08BF20ED108A20E9F04F1060FA
:1003B00009B44FF0500080F31188BFF34F8FBFF3A3
:1003C0006F8F04F001FF4FF0000080F3118809BC2B
:1003D00019680868B0E8F04F1EF0100F08BFB0ECC5
:1003E000108A80F30988BFF36F8F704720000020C8
:1003F000EFF305807047000009488047094800472F
:10040000FEE7FEE7FEE7FEE7FEE7FEE7FEE7FEE7C4
:10041000FEE7FEE704480549054A064B7047000021
:10042000193F000899020008984C002098520020BB
:10043000984E0020984E0020032A40F2308010F0A1
:10044000030C00F0158011F8013BBCF1020F62446F
:1004500098BF11F801CB00F8013B38BF11F8013B00
:10046000A2F1040298BF00F801CB38BF00F8013BAD
:1004700011F0030300F02580083AC0F0088051F81D
:10048000043B083A51F804CBA0E80810F5E7121D28
:100490005CBF51F8043B40F8043BAFF30080D20747
:1004A00024BF11F8013B11F801CB48BF11F8012B13
:1004B00024BF00F8013B00F801CB48BF00F8012B36
:1004C000704710B5203AC0F00B80B1E81850203AC0
:1004D000A0E81850B1E81850A0E81850BFF4F5AFE4
:1004E0005FEA027C24BFB1E81850A0E8185044BF6E
:1004F00018C918C0BDE810405FEA827C24BF51F8DB
:10050000043B40F8043B08BF7047D20728BF31F8CE
:10051000023B48BF11F8012B28BF20F8023B48BF1F
:1005200000F8012B704702F0FF0343EA032242EA7E
:10053000024200F02CB84FF0000200B5134694467A
:100540009646203922BFA0E80C50A0E80C50B1F12B
:100550002001BFF4F7AF090728BFA0E80C5048BF3F
:100560000CC05DF804EB890028BF40F8042B08BFDD
:10057000704748BF20F8022B11F0804F18BF00F8D9
:10058000012B70477047704770474FF000020429F5
:10059000C0F0128010F0030C3FF4CFAFCCF1040C8C
:1005A000BCF1020F18BF00F8012BA8BF20F8022BE6
:1005B000A1EB0C01FFF7C1BF5FEAC17C24BF00F8CB
:1005C000012B00F8012B48BF00F8012B704775463E
:1005D00000F02CF8AE4605006946534620F00700AF
:1005E000854618B020B5FFF715FFBDE820404FF055
:1005F00000064FF000074FF000084FF0000B21F00D
:100600000701AC46ACE8C009ACE8C009ACE8C009D9
:10061000ACE8C0098D46704710B50446AFF30080C2
:100620002046BDE81040FFF780BE0000004870473C
:10063000344C002001491820ABBEFEE72600020022
:100640007047FEE770474FF4005000F027B872B6CD
:10065000FEE7000070B5044600F04EF90546601C48
:1006600002D004480078044400F046F9401BA04240
:10067000FAD370BD0C000020B0F5005F08D105482A
:100680000168491C016004480221006803F024BE8F
:100690007047000001000020040000204FF0B0412E
:1006A00010B5D1F88820024203D0C1F88800FFF7C6
:1006B000E3FF10BD2DE9F84F03247D4D00234FF0DB
:1006C00001094FF0B04B4FF00F0AE9E009FA03F7C8
:1006D0003A4076D00E7906F00306012E01D0022EA4
:1006E00018D1D0F808C04FEA430ECE6804FA0EF8CD
:1006F0002CEA080C06FA0EF646EA0C068660D0F8DC
:1007000004C00E792CEA070CC6F300169E4046EA98
:100710000C0646600E79F643B6070BD0C6684FEA62
:1007200043088F6804FA08FC26EA0C0607FA08F763
:100730003743C7600E7906F00306022E12D1DE0899
:100740000F694FEA437C00EB8606B646366A4FEAED
:10075000DC6C0AFA0CF807FA0CF726EA08063743AD
:10076000CEF820700F7906684FEA430807F00307B8
:1007700004FA08FC07FA08F726EA0C063743076074
:100780004E6816F4403F1CD04A4E376847F00207C7
:10079000376036689F0706F00206009623F00306CE
:1007A00006F1B046B6463F0FD6F80864DFF8088178
:1007B0000AFA07FC404526EA0C0603D14FF0000C6C
:1007C00041E06CE0DFF8F4C0604502D14FF0010C6D
:1007D00039E0DFF8ECC0604502D14FF0020C32E0A6
:1007E000DFF8E0C0604502D14FF0030C2BE0DFF8EA
:1007F000D8C0604502D14FF0040C24E0DFF8CCC033
:10080000604502D14FF0050C1DE0DFF8C4C0604523
:1008100002D14FF0060C16E0DFF8B8C0604502D1F7
:100820004FF0070C0FE0DFF8B0C0604502D14FF089
:10083000080C08E0DFF8A4C0604502D14FF0090CB5
:1008400001E04FF00A0C0CFA07FC4CEA060CCEF85B
:1008500008C44F68DBF80060FF0226EA020600D5F4
:1008600016435F46CBF80060D1F804C0DBF80460A3
:100870005FEA8C2C26EA020600D516437E606E687D
:100880004F6826EA0206BF0300D516436E602E6845
:100890004F6826EA0206FF0300D516432E605B1C54
:1008A0000A6832FA03F67FF411AFBDE8F88F000052
:1008B00080000058F4440258000002580004025816
:1008C00000080258000C0258001002580014025888
:1008D00000180258001C0258002002580024025838
:1008E0000AB1816170470904FBE700000148006814
:1008F000000C70470010005C0148806870470000E1
:100900000C00002002488168027811448160704721
:100910000C000020032010B500F0DEFD02F006F808
:100920000F4A104914681368C4F3032203F00F033D
:100930008A5CC95C02F01F0201F01F01D0400A4A24
:1009400020FA01F11160094908600F2000F010F849
:1009500008B1012010BD00F07FFD002010BD000097
:1009600018440258D45E00081C0000201800002023
:1009700010B5102804468AB02AD2002201467620FB
:1009800000F08AFD762000F079FD154804601548D6
:10099000016841F480210160006808A900F480200A
:1009A0000990684601F04EFF01F0AEFF0E4940008D
:1009B00000220E4CB0FBF1F10D4840F2E733046029
:1009C000C0E90332491EC0E9011202F00FFB10B169
:1009D00001200AB010BD064802F03AFBF9E700001A
:1009E00010000020F044025840420F00004801402F
:1009F000140300202DE9F04305460F46032087B07D
:100A000085F830004FF000082868416809030ED5CA
:100A10004068400301D5042200E0022239462846FE
:100A200002F0B8FC04004FF0010902D030E00122CE
:100A3000F4E7B7F5004F06D0B7F5804F06D047B1C1
:100A40004FF0006424E02949286804E02849286818
:100A500001E02849286803F07DF8040018D14FF61A
:100A6000FF7600BFB5F840102868090403F017F8B6
:100A700004000BD12868002103F0B2F9A6F10106A9
:100A80008046C00502D4002EECD129E046B364B103
:100A900085F8309014B3296817488863686B204341
:100AA0006863012007B0BDE8F0835FEA086003D502
:100AB0004FF48034484616E01422291D02A8FFF79F
:100AC00000FD04973B46DDE90501CDE900012868FA
:100AD000DDE9021203F088F985F830900020E1E7A3
:100AE0004FF00044484685F83000D4E70002B703D1
:100AF0000001B7030000B703FF0FE01FF8B50026A1
:100B000004460D460096406D800F0870606DC0F37E
:100B100083604870606DC0F301608870606D000C88
:100B2000C870B4F85400000A287194F85400687131
:100B3000A06D000DE880A06DC0F303402872B4F8EA
:100B40005800C0F3C0306872B4F85800C0F3803069
:100B5000A872B4F85800C0F34030E872B4F85800F6
:100B6000C0F3003028736E73D4226FF0704369466F
:100B7000204602F075FC08B10120F8BDA06B0121F0
:100B80004FF4007358B1012839D022684A48906365
:100B9000606B40F08050606384F83010ECE7B4F88C
:100BA0005800E26D8005000D40EA92702861E06D0A
:100BB000C0F3C2602875E06DC0F302606875E06D37
:100BC000C0F34250A875E06DC0F38240E875E06D57
:100BD000C0F3C23028762869401C60642A7E02F087
:100BE0000702921C904060642A7A236502F00F028B
:100BF00001FA02F2570A7843C4E9122004E000988F
:100C0000C4E91103C4E91303B4F85C00C0F38030F5
:100C10006876B4F85C00C0F3C610A87694F85C005F
:100C200000F07F00E876206EC00F2877206EC0F3BA
:100C300041706877206EC0F38260A877206EC0F3A1
:100C40008350E877206EC0F3405085F8200085F887
:100C50002160206EC0F3004085F82200B4F86000E7
:100C6000C0F3C03085F82300B4F86000C0F38030D2
:100C700085F82400B4F86000C0F3403085F8250002
:100C8000B4F86000C0F3003085F82600B4F86000C6
:100C9000C0F3812085F82700B4F86000C0F301207C
:100CA00085F8280094F86000C0F3460085F8290014
:100CB00085F82A100020F8BDFF0FE01F2DE9F0474E
:100CC00086B092460D460446FFF716FE814625B1D2
:100CD00094F83000012805D07CE0606B40F00060A3
:100CE000606371E000206063032184F8301027689E
:100CF000411E902302264FF40072F862CDE9036092
:100D000005908DE80E002068694602F071FF2068AA
:100D1000C16841F04001C1602068002102F0A6FED8
:100D2000DFF8B4804FF00106D0B12268C2F83880F5
:100D3000616B0143616345E0406B000407D5002708
:100D4000206803F067F87F1C082F01C5F8D3FFF770
:100D5000D3FDA0EB0901514515D2BAF1000F12D015
:100D60002068416B11F4957FE6D0C16821F0400105
:100D7000C1602068416B090712D5C0F83880606BEC
:100D800040F008001DE02168C1F83880606B40F039
:100D90000040606384F83060032006B0BDE8F0874F
:100DA000416B890705D5C0F83880606B40F00200C0
:100DB00007E0416B890609D5C0F83880606B40F0C8
:100DC0002000606384F830600120E6E70349816316
:100DD00084F830600020E0E7FF0FE01F3A0F0018B2
:100DE00070B5B0F84010002504460068090402F010
:100DF00056FE18B1616B0143616304E02068002175
:100E000002F0EEFF0546C5F3432070BD70B5040047
:100E10001AD094F83000002518B92046257600F045
:100E200093F8032084F83000204600F011F80128E0
:100E30000BD0E16801206563E56284F8300029B1D8
:100E40002046FFF7D7FD08B1012070BD002070BD1E
:100E50002DE9FC414FF0000804464FF48030414634
:100E600000F088FD05004FF0010620D032484346CF
:100E700042464146B5FBF0F7CDE90087206802F015
:100E8000B3FF206802F0C0FF1FB17800B5FBF0F59A
:100E90002DB12A48B0FBF5F0401CFFF7DBFBCDF885
:100EA00000804546206802F025FD68BB22E04FF037
:100EB000006084F8306060633BE00098B84200F165
:100EC0000100009002D14FF080701DE02068414683
:100ED00002F03AFD10B14FF0805015E0206800217B
:100EE00002F07EFFC10FE8D0C021B1EB106F06D138
:100EF000A66305E0DFF848804FF6FF77DDE7A563DE
:100F0000204602F0BBF928B184F83060616B0143E0
:100F100061630EE020684FF4007102F0D1FC0028FC
:100F200008D0226807499163616B0143616384F8CB
:100F300030600120BDE8FC8100350C00102101006B
:100F40000080FFC0FF0FE01FF0B5B7B004461421CA
:100F500030A8FFF7F0FAC0216846FFF7ECFA2C49F9
:100F60002068884251D1002014904FF4803104460B
:100F7000CDE90010684600F061FE08B1FFF767FB9D
:100F80002448016841F480310160006800F4803039
:100F9000359020480C30016841F00401016001687F
:100FA00001F004013591016841F00201016001681E
:100FB00001F002013591016841F00801016000680B
:100FC000022532AA00F0080035904FF4FE50CDE91A
:100FD0003005032610480C2782E8D00030A9FFF71F
:100FE00069FB300232AACDE930050C4830A982E80D
:100FF000D000FFF75FFB042032AACDE93005084896
:1010000030A982E8D000FFF755FB37B0F0BD0000F3
:1010100000700052D44402580008025800040258DC
:10102000000C02582DE9F04F87B01F4616460D46BA
:101030000446FFF761FC83463DB194F83000012877
:1010400007D0606B40F000500CE0606B40F0006037
:1010500008E0E26C0020F1196063914204D9606BF2
:1010600040F00070606399E0B4F8B01011F47F4F65
:101070000BD0790703D0606B40F08000F2E7710776
:1010800003D0606B40F04000ECE7032184F830109F
:101090002168C862A16B012900D076024FF00209D5
:1010A000CDE9039090234FF0FF317A0205908DE84F
:1010B0000E002068694602F09BFD2068C168012F80
:1010C0004FF0010841F04001C16006D9C4F82C90EE
:1010D0003146206802F04EFC05E0C4F82C80314611
:1010E000206802F061FCDFF8F09038B123684146D7
:1010F000C3F83890626B024362634DE0DDF804A0F0
:101100001FE0406B000414D5BAF1200F11D3002664
:10111000206802F07FFE020A2870010C6A70030E3C
:10112000A970761CEB70082E05F10405F0D3AAF126
:10113000200AFFF7E1FBA0EB0B01109881421ED2C1
:10114000E8B12068416B11F4957FDAD0C16821F0D5
:101150004001C1602068416BC90505D5012F03D945
:1011600002F0CEFC0028C1D12068416B090717D5D9
:101170004146C0F83890606B40F0080023E02268D8
:10118000C2F83890616B41F00041616384F83080AF
:10119000032007B0BDE8F08F84F830100120F8E795
:1011A000416B890706D54146C0F83890606B40F026
:1011B000020008E0416B890607D54146C0F8389027
:1011C000606B40F020006063E6E7044A826384F8C5
:1011D00030800020DDE70000FF0FE01F3A0F00180D
:1011E0002DE9F04F89B01F4616460D460446FFF71D
:1011F00083FB06903DB194F83000012807D0606B66
:1012000040F000500CE0606B40F0006008E0E26CE1
:101210000020F1196063914204D9606B40F00070C6
:101220006063AAE0B4F8B01011F47F4F0BD07907D7
:1012300003D0606B40F08000F2E7710703D0606B71
:1012400040F04000ECE7032184F830102168C862C8
:10125000A16B012900D076024FF0FF317A02059090
:1012600090230490CDE90230CDE900122068694650
:1012700002F0BEFC2068012FC16841F04001C1604E
:1012800006D92020E0622068314602F07DFC05E0AE
:101290001020E0622068314602F090FCDFF814A1D3
:1012A0005FEA00084FF0010909D02268C2F838A0AF
:1012B000616B41EA0801616384F830905DE0DDF81C
:1012C00004B026E0406B40041BD5BBF1200F18D3BF
:1012D000002628780790697840EA01200790A978CD
:1012E00040EA01400790E9782D1D40EA016007902F
:1012F000206807A902F0A6FD761C082EE9D3ABF101
:10130000200BFFF7F9FA0699411A129881421AD276
:10131000C8B12068416B11F48D7FD3D0C16821F032
:101320004001C1602068416BC90519D5012F17D94B
:1013300002F0E6FBA0B123684946C3F838A0626B0F
:101340000243626317E02268C2F838A0616B41EA89
:101350000801616384F83090032009B0BDE8F08F84
:101360002068416B09070AD54946C0F838A0606B70
:1013700040F0080016E084F830100120EDE7416BE2
:10138000890706D54946C0F838A0606B40F00200D6
:1013900008E0416BC90607D54946C0F838A0606B24
:1013A00040F010006063E6E7034A826384F83090FF
:1013B0000020D2E7FF0FE01F3A0F0018F0B5154CE0
:1013C0004378211D0A1D23600378F3B143680B6045
:1013D000057BC67A817A437B2D07847B45EA0665C7
:1013E000C77B90F809C0067A90F800E045EAC14052
:1013F00040EA834040EA444040EA074040EA0C208B
:1014000040EA460040EA0E0001E00020086010605B
:10141000F0BD000098ED00E0BFF35F8F04480021AD
:101420000368034A23F4803303607032116070470D
:1014300024ED00E0074A40F00100064970321060D8
:10144000086840F480300860BFF34F8FBFF36F8FA0
:101450007047000024ED00E0074882B0016841F0C9
:1014600002010160006800220F2100F002000090DC
:10147000901E02B000F010B8F4440258002809DBB6
:10148000410900F01F028900012001F1E021904094
:10149000C1F80001704700000E4BF0B41B680D4608
:1014A000C3F30223C3F10706042E00D90426191D35
:1014B000072901D2002300E0DB1E012404FA06F113
:1014C0009C40491E2940641E994014402143F0BCB1
:1014D00002F007BE0CED00E0064900F0070210B56F
:1014E0004FF6FF040868044B204040EA02201843EE
:1014F000086010BD0CED00E00000FA052DE9F04198
:101500001E4C0546206800F007000628206804D01D
:1015100000F03F00A84228D12EE020F03F002843F1
:101520002060FFF7E9F9154F4FF47A780646083F37
:1015300005E000BFFFF7E0F9801B404515D838688B
:10154000C0438004F6D41E2D05D02E2D03D01D2DB2
:1015500001D02D2D10D1FFF7CFF90546464607E003
:10156000FFF7CAF9401BB04202D90120BDE8F08163
:101570002068C043C003F3D40020F7E70C480258AA
:1015800010B501F08DF905490968054AC1F302114A
:10159000515C01F01F01C84010BD000020440258FA
:1015A000D45E00084A4930B5494C0B1D0A680C341A
:1015B00009681D68246802F0030305F00102C1F305
:1015C0000511C4F3CC04002914FB02F200EE102A2A
:1015D000F8EE400A76D0414A9FED3E1ADFED3E1A02
:1015E000B7EE000A23B1012B5AD0022B18D15CE0D0
:1015F000374C283C23689B0612D5394B246801EEF2
:10160000901A1168C4F3C104F8EE612AE34001EEB8
:10161000903AC1F30801F8EE611A81EEA22A07E0C0
:1016200002EE101A1168F8EE422A81EEA22A45E075
:1016300001EE901A1168F8EE611A40EE811A71EE0F
:10164000800A62EE200AC1F3462101EE101AB8EEBC
:10165000411A31EE001AC0EE811ABCEEE11A80ED9B
:10166000001A1168C1F3064101EE101AB8EE411AD2
:1016700031EE001AC0EE811ABCEEE11A80ED011ABB
:101680001168C1F3066101EE101AB8EE411A31EE8D
:10169000000A80EE801ABCEEC10A80ED020A30BD5D
:1016A00001EE901ADFED0F2A03E001EE901ADFED54
:1016B0000E2A1168F8EE611A82EEA12AC1F3080120
:1016C000B6E7FFE7002101604160816030BD0000A6
:1016D00028440258000000390024744C3044025859
:1016E0000090D0030024744A20BCBE4B494930B559
:1016F000484C0B1D0A68143409681D68246802F000
:101700000303C5F30012C1F30531C4F3CC0400296F
:1017100014FB02F200EE102AF8EE400A75D03F4AA0
:101720009FED3D1AB7EE000A6BB1DFED3D1A012BBC
:1017300001D0022B64D002EE101A1168F8EE422A92
:1017400081EEA22A21E0334C283C23689B0612D567
:10175000344B246801EE901A1168C4F3C104F8EE0A
:10176000612AE34001EE903AC1F30801F8EE611AF4
:1017700081EEA22A0BE001EE901ADFED2B2A00BFCA
:10178000F8EE611A116882EEA12AC1F3080101EE98
:10179000901A1168F8EE611A40EE811A71EE800A13
:1017A00062EE200AC1F3462101EE101AB8EE411A8A
:1017B00031EE001AC0EE811ABCEEE11A80ED001A7B
:1017C0001168C1F3064101EE101AB8EE411A31EE6C
:1017D000001AC0EE811ABCEEE11A80ED011A116800
:1017E000C1F3066101EE101AB8EE411A31EE000A9B
:1017F00080EE801ABCEEC10A80ED020A30BD04E022
:1018000001EE901ADFED092ABAE70021016041607C
:101810008160F3E728440258000000393844025838
:101820000024744A0090D0030024744C20BCBE4BAA
:10183000494930B5484C0B1D0A681C3409681D68BD
:10184000246802F00303C5F30022C1F30551C4F379
:10185000CC04002914FB02F200EE102AF8EE400A34
:1018600075D03F4A9FED3D1AB7EE000A6BB1DFED30
:101870003D1A012B01D0022B64D002EE101A116820
:10188000F8EE422A81EEA22A21E0334C283C23685C
:101890009B0612D5344B246801EE901A1168C4F3EC
:1018A000C104F8EE612AE34001EE903AC1F3080169
:1018B000F8EE611A81EEA22A0BE001EE901ADFED3C
:1018C0002B2A00BFF8EE611A116882EEA12AC1F33B
:1018D000080101EE901A1168F8EE611A40EE811AC3
:1018E00071EE800A62EE200AC1F3462101EE101A61
:1018F000B8EE411A31EE001AC0EE811ABCEEE11AC0
:1019000080ED001A1168C1F3064101EE101AB8EE1D
:10191000411A31EE001AC0EE811ABCEEE11A80EDD8
:10192000011A1168C1F3066101EE101AB8EE411AEE
:1019300031EE000A80EE801ABCEEC10A80ED020A88
:1019400030BD04E001EE901ADFED092ABAE700216C
:10195000016041608160F3E72844025800000039CB
:10196000404402580024744A0090D0030024744C70
:1019700020BCBE4B2DE9F04FAC4A0546DFF8A8A2CB
:1019800080F48070DFF8AC9289B01311AA4C084340
:10199000A748AAF104064FF0805C4FF000582CD005
:1019A00085F400770F4357D0DFF87CB285F4806769
:1019B0000F430BF1080B61D085F400670F4374D01F
:1019C00085F480570F436ED085F400570F434FF4D2
:1019D00080394FF4003E67D085F400270F4371D063
:1019E00085F480370F436ED085F480460E436BD06C
:1019F00085F400420A4368D02AE0DAF8001001F0CA
:101A00000701052924D2DFE801F075BC7D25B1006E
:101A100006A8FFF7C7FD079809B0BDE8F08F684634
:101A2000FFF764FE0098F7E703A8FFF701FF0398AC
:101A3000F2E72068C0F3C10022FA00F0ECE7226868
:101A4000D20571D561456FD11846E5E74145E3D030
:101A50000020E1E74846DFE7DAF8001001F4E07122
:101A600080294FD004DC002944D04029F0D188E0FF
:101A7000C029EFD0B1F5807FEAD177E0DBF8001024
:101A800001F46001B1F5800F3CD004DC91B3B1F5F5
:101A9000001FDDD175E0B1F5C00FDBD0B1F5000F4F
:101AA000D6D163E001E018E030E0DBF8001001F08F
:101AB000E061B1F1007F25D008DCD9B1B1F1807FC0
:101AC000C6D15EE049E06CE079E09CE0B1F1407F96
:101AD000C0D0B1F1806FBBD148E0DAF8001001F45A
:101AE000E041B1F5005F0DD005DC19B1B1F5805FC3
:101AF000AED146E094E0B1F5405FABD0B1F5804F98
:101B0000A6D133E020688000A2D58DE7DAF8001076
:101B100001F4E021B1F5403F6CD006DC61B14945EC
:101B20007AD0714594D157E037E0B1F5802F65D078
:101B3000B1F5A02F8CD10CE000F0D4FE6CE7684624
:101B4000FFF7D4FD019867E703A8FFF771FE04983B
:101B500062E721688903F1D47AE7DBF8001011F419
:101B600040310ED0494510D07145F5D13168256816
:101B700001F040516D077FF562AF00297FF45FAF40
:101B800057E720680001E7D549E720688000E3D5E2
:101B900003A8FFF74DFE05983EE722689203DBD5C8
:101BA00054E7306810F480303AD04845D4D12068EA
:101BB0000001D1D56846FFF799FD02982CE7DBF8C4
:101BC000001001F0E041B1F1405F13D008DC71B1C9
:101BD000614521D04145BFD120688000B4D437E7AA
:101BE000B1F1804F0AD0B1F1A04FB2D030E7FFF78A
:101BF000C7FC11E720684007AED51AE72068C0058A
:101C0000AAD521E708E0DAF8001011F04051A0D081
:101C1000614505D041459FD1206800018FD417E769
:101C20002068800198D5F3E6504402580090D00314
:101C300040787D010080BB00004402582DE9FE4F32
:101C40000546DFF8E48350F8081B0024F64FC9432B
:101C5000019005F12800264608F1240800900801AB
:101C60001DD4A86E50B1B0F5801F0CD0B0F5001F88
:101C70000ED0B0F5401F1ED001240FE0386840F4AC
:101C80000030386017E00198022101F0F9FC03E010
:101C90000098022101F084FD04000CD0264628881B
:101CA000C043C00523D4A86D05281ED2DFE800F08C
:101CB0000C11161B1B00AA6ED8F8001021F440115D
:101CC0001143C8F80010EAE7386840F40030386083
:101CD00009E00198002101F0D3FC03E00098002105
:101CE00001F05EFD044674B100E001242646288818
:101CF000C043800528D4E86D80281ED00CDC90B14C
:101D000040280ED114E0AA6DD8F8001021F0070188
:101D10001143C8F80010EAE7C02813D0B0F5807F5F
:101D200010D001240FE0386840F40030386009E03A
:101D30000198002101F0A4FC03E00098002101F0CB
:101D40002FFD04469CB126462888DFF8DC92C0436C
:101D500009F12C0940052CD4D5F8A800B0F5800F66
:101D600020D00DDCA0B1B0F5001F0FD115E0EA6D59
:101D7000D8F8001021F4E0711143C8F80010E3E72F
:101D8000B0F5C00F13D0B0F5000F10D001240FE054
:101D9000386840F40030386009E00198002101F013
:101DA0006FFC03E00098002101F0FAFC04467CB1CE
:101DB00026462888C04300052DD4D5F8AC00B0F1E4
:101DC000007F21D00EDCA8B1B0F1807F10D116E0E9
:101DD000D5F8A820D9F8001021F460011143C9F802
:101DE0000010E6E7B0F1407F13D0B0F1806F10D063
:101DF00001240FE0386840F40030386009E00198B1
:101E0000002101F03DFC03E00098002101F0C8FC36
:101E1000044674B126462868C04380011FD4E86C8C
:101E2000D8B110280FD0202812D0302815D0012486
:101E300014E0D5F8AC20D9F8001021F0E06111438E
:101E4000C9F80010E7E7386840F40030386004E073
:101E50000198022101F014FC044674B1264628883A
:101E6000C043C0042BD4286EB0F5005F20D00DDC39
:101E7000A0B1B0F5805F0FD115E06B48EA6C20305F
:101E8000016821F0300111430160E8E7B0F5405FDF
:101E900013D0B0F5804F10D001240FE0386840F423
:101EA0000030386009E00198002101F0E9FB03E00F
:101EB0000098002101F074FC04468CB12646288865
:101EC000C043800429D4686EB0F5403F23D010DCB5
:101ED00008B3B0F5803F14D0B0F5003F0FD115E046
:101EE0002A6ED8F8001021F4E0411143C8F8001020
:101EF000E5E7B0F5802F0ED0B0F5A02F0BD0012470
:101F00000AE00198012101F0BBFB03E000980121E8
:101F100001F046FC044694B126462888C04340049C
:101F20002AD4D5F8B000B0F1405F23D010DC08B35C
:101F3000B0F1805F14D0B0F1005F0FD115E06A6E90
:101F4000D8F8001021F4E0211143C8F80010E4E7AC
:101F5000B0F1804F0ED0B0F1A04F0BD001240AE0B9
:101F60000198012101F08CFB03E00098012101F0B0
:101F700017FC044674B126462888C04300041FD4C9
:101F8000286FD8B1B0F1805F0ED0B0F1005F10D0F3
:101F9000012414E0D5F8B020D9F8001021F0E04178
:101FA0001143C9F80010E7E7386840F400303860A2
:101FB00004E00198012101F063FB044674B1264658
:101FC0002868C043C0011ED4A86CD0B101280ED02F
:101FD000022811D0032814D0012413E02A6FD8F866
:101FE000001021F040511143C8F80010E8E73868AC
:101FF00040F40030386004E00198022101F040FB19
:102000000446ACB126462868DFF81CB0C043ABF1EB
:102010001C0B400252D40548016841F480710160F4
:10202000FEF76AFC824611E02C4402580048025830
:10203000FA48AA6C016821F0030111430160E2E74C
:10204000FEF75AFCA0EB0A00642835D8F448006873
:10205000C005F5D58CBBDFF8C4A3B5F8B4100AF100
:10206000240ADAF8000001F4407100F4407088425C
:1020700011D0DAF80010DAF8002021F4407142F4AF
:102080008032CAF80020DAF8002022F48032CAF840
:102090000020CAF80010D5F8B400B0F5807F1AD13E
:1020A000FEF72AFC029012E0FEF726FC0299411A84
:1020B00041F2883081420AD9032426462878DFF885
:1020C0005CA3C0430AF1080AC00721D03CE0DAF85B
:1020D00000008007E8D5D5F8B410C1F3012003282B
:1020E00058460DD0016821F47C510160B5F8B42048
:1020F000DAF80010C2F30B021143CAF80010DDE752
:10210000C84A036802EA111223F47C511143ECE738
:10211000E86F182816D005DCA0B1082808D01028D0
:1021200004D10AE020280DD028280BD001240AE091
:102130000198012101F0A4FA03E00098012101F0C7
:102140002FFB044664B126462878C04380071ED47E
:10215000A86F062819D2DFE800F0160C1116161623
:10216000EA6FDAF8001021F038011143CAF80010C4
:10217000EAE70198012101F083FA03E000980121C8
:1021800001F00EFB04467CB100E0012426462878CD
:10219000C04340071FD4D5F89400062819D2DFE8C1
:1021A00000F0160C11161616AA6FDAF8001021F0BE
:1021B00007011143CAF80010E9E70198012101F075
:1021C0005FFA03E00098012101F0EAFA0446A4B1A5
:1021D00000E0012426462878C04380062BD4D5F899
:1021E0009000B0F1405F24D011DC10B3B0F1805FFB
:1021F00015D0B0F1005F10D116E0D5F89420D9F8D1
:10220000001021F007011143C9F80010E3E7B0F115
:10221000804F0ED0B0F1A04F0BD001240AE00198FE
:10222000002101F02DFA03E00098022101F0B8FA34
:10223000044694B126462878C04340062BD4D5F8EE
:102240009C00B0F5406F24D011DC10B3B0F5806F66
:1022500015D0B0F5006F10D116E0D5F89020DAF85F
:10226000001021F0E0411143CAF80010E3E7B0F597
:10227000805F0ED0B0F5A05F0BD001240AE001987A
:10228000002101F0FDF903E00098022101F088FA35
:10229000044694B126462878C04300062BD4D5F8CE
:1022A000A000B0F5C04F24D011DC10B3B0F5005F32
:1022B00015D0B0F5804F10D116E0D5F89C20D9F894
:1022C000001021F4E0511143C9F80010E3E7B0F524
:1022D000004F0ED0B0F5204F0BD001240AE001983A
:1022E000002101F0CDF903E00098022101F058FA35
:1022F000044654B126462878C04300071ED4D5F8BA
:102300008400B0F5805F0AD00FE0D5F8A020D9F89E
:10231000001021F460411143C9F80010EBE7009868
:10232000022101F03DFA00B10126D5F88420DAF847
:10233000001021F440511143CAF800102878C0431E
:10234000C00613D4D5F89800B0F5807F05D1009869
:10235000022101F025FA00B10126D5F89820D9F81C
:10236000001021F440711143C9F800102868C043DF
:10237000000316D4D5F8A40038B1B0F5803F09D0D9
:10238000B0F5003F0BD001240AE00198002101F0D4
:1023900077F903E00098022101F002FA04468CB1BB
:1023A00026462868C043400322D4D5F88800B0F5FB
:1023B000801F11D0B0F5001F13D0B0F5401F15D00D
:1023C000012414E0D5F8A420D9F8001021F44031FC
:1023D0001143C9F80010E4E7386840F40030386071
:1023E00004E00098012101F0DBF904465CB12646C7
:1023F0002868C043C00323D4286DA8B1B0F5803F3E
:1024000017D001241BE0D5F88820DAF8001021F459
:1024100040111143CAF80010EAE700004C4402588A
:1024200000480258CFFFFF00386840F400303860A1
:1024300004E00198022101F023F90446E4B12646A4
:102440002868C043800005D40098022101F0A8F953
:1024500000B101262868C04380031BD4D5F8800052
:10246000B0B1B0F5807F0FD0B0F5007F10D0B0F5DF
:10247000407F0DD001240CE05A482A6D016821F4F8
:10248000803111430160DBE7386840F40030386088
:10249000ECB326462868C043C00207D46A6FD8F858
:1024A000001021F000411143C8F800102868C04313
:1024B000C00008D4D5F8B820DBF8001021F4804122
:1024C0001143CBF800102868C043800207D4EA6E9D
:1024D000D8F8001021F080711143C8F80010286866
:1024E000C04340000CD4DBF8001021F40041CBF8CD
:1024F0000010DBF80010D5F8BC201143CBF8001019
:102500002868C04308D437486A6D016800E018E0C5
:1025100021F04051114301602868C043000208D4F3
:10252000D5F88C20DAF8001021F440011143CAF8E4
:10253000001028790024C04300F0010020430AD095
:102540000FE0D5F88020DAF8001021F44071114333
:10255000CAF800109EE70198002101F091F800B13F
:1025600006462879C04300F00200204305D10198B7
:10257000012101F085F800B106462879C04300F03A
:102580000400204305D10198022101F079F800B13F
:1025900006462879C04300F00800204305D1009882
:1025A000002101F0FDF800B106462879C04300F093
:1025B0001000204305D10098012101F0F1F800B18D
:1025C00006462879C04300F02000044304D1009857
:1025D000022101F0E5F800B916B10120BDE8FE8F37
:1025E0000020FBE74C4402582DE9F05F04000F4641
:1025F0007ED0DFF83882D8F8000000F00F00B84233
:102600000CD2D8F8001021F00F013943C8F800109F
:10261000D8F8000000F00F00B84269D12078844D4E
:1026200040070AD52069296801F07001884204D961
:10263000296821F070010143296020787C4E361D05
:1026400000070AD56069316801F07001884204D939
:10265000316821F07001014331602078C0060AD54D
:10266000A069316801F4E061884204D9316821F43D
:10267000E061014331602078DFF8B4B180060BF1EE
:10268000080B0CD5E1695846DBF8002002F0700217
:10269000914204D9026822F070020A430260207855
:1026A00080070AD5E068296801F00F01884204D943
:1026B000296821F00F01014329602078C0073ED02E
:1026C0005B49A2682868183920F4706010432860BC
:1026D0006068022818D0032819D00968012819D089
:1026E000490700294ADADFF848A1AAF1080A00E000
:1026F00044E0DAF8002022F007020243CAF8002082
:10270000FEF7FAF8814612E009688903E9E70968EB
:102710008901E6E7C905E4E7FEF7EEF8A0EB090159
:1027200041F28830814202D90320BDE8F09F616800
:10273000DAF8000000F03800B0EBC10FECD12078DF
:1027400080070AD5E068296801F00F01884204D2A9
:10275000296821F00F0101432960D8F80010404694
:1027600001F00F01B9420BD9016821F00F01394383
:102770000160006800F00F00B84201D00120D4E7EA
:10278000207840070AD52069296801F07001884245
:1027900004D2296821F070010143296020780007E4
:1027A0000AD56069316801F07001884204D231684D
:1027B00021F07001014331602078C0060AD5A0697C
:1027C000316801F4E061884204D2316821F4E061AB
:1027D00001433160207880060CD5E1695846DBF86A
:1027E000002002F07002914204D2026822F07002CE
:1027F0000A43026000F09AF80E492A682B68C2F377
:10280000032203F00F038A5CC95C02F01F0201F08F
:102810001F01D040084A20FA01F111600749086001
:1028200007480068BDE8F05FFEF7A2B8002000523C
:1028300018440258D45E00081C0000201800002034
:102840001000002070B5144C3F220260124A246828
:102850000832131D114D04F00704446016681C1D56
:1028600006F470668660166806F00F06C660126889
:1028700002F0700202611A6802F0700242611A6886
:1028800002F4E0628261226802F07002C26128688C
:1028900000F00F00086070BD104402580020005284
:1028A00030B500F043F80B4A0B490C4B156814681F
:1028B000C5F3032204F00F048A5C095D02F01F02D5
:1028C00001F01F01D040064A20FA01F119601060A2
:1028D000084630BD18440258D45E00081C00002091
:1028E0001800002000B5FFF7DBFF05490968054A1D
:1028F000C1F30211515C01F01F01C84000BD00008E
:102900001C440258D45E000800B5FFF7C9FF054912
:102910000968054AC1F30221515C01F01F01C8405A
:1029200000BD00001C440258D45E0008454970B543
:1029300045480968434B103B11F0380208D001119B
:10294000082A03D0102A0BD0182A0BD0084670BDD5
:1029500019688906FBD51968C1F3C101C84070BD6B
:102960003A4870BD3749374D18310C1D24350A6877
:10297000096826682D6802F0030406F00102C1F31D
:102980000511C5F3CC0515FB02F200EE102AB8EED6
:10299000400AE9B32F4ADFED2E0AB7EE001A6CB1F8
:1029A000DFED2D1A012C01D0022C43D002EE101ABB
:1029B0001068F8EE422A81EEA22A1EE01C68A406E6
:1029C00011D51B6801EE901A1168C3F3C103F8EE2C
:1029D000612AD84001EE900AC1F30800F8EE611AAE
:1029E00081EEA22A0BE001EE901ADFED1C2A00BF57
:1029F000F8EE611A106882EEA12AC0F3080001EE19
:102A0000900AF8EE611A40EE201A31EE810A00E0D9
:102A100015E022EE000A1068C0F34620401C00EECC
:102A2000900AF8EE600A80EE201ABCEEC10A10EEA1
:102A3000100A70BD01EE901ADFED092AD8E70020D8
:102A400070BD0000104402580090D00340787D0112
:102A500000000039304402580024744A0024744CA9
:102A600020BCBE4B2DE9F05F04007DD0FF4F2078E5
:102A7000FE4D1837DFF8F493103DC00748D0D9F861
:102A80000000396800F03800102815D0182803D14C
:102A900001F0030002280FD06068B0F5803F12D02B
:102AA00010B1B0F5A02F18D0286820F4803028602D
:102AB000286820F4802009E02868800328D5606811
:102AC0000028D2D024E0286840F480302860606874
:102AD00088B1FDF711FF064609E0286840F4802020
:102AE0002860F0E7FDF708FF801B64286FD828688E
:102AF0008003F7D50CE0FDF7FFFE064605E000BFBA
:102B0000FDF7FAFE801B6428F0D828688003F7D40C
:102B1000207841F20308D54E0C3E800769D5D9F8DC
:102B20000000396810F038000ED0182801D188074D
:102B30000AD0E06890B3296821F0190101432960A7
:102B4000FDF7DAFE824631E02868400702D5E068EA
:102B500000288AD0E168286820F01900084328601E
:102B6000FDF7CAFE824607E0DFE000BFFDF7C4FEC6
:102B7000A0EB0A000228B9D828684007F6D500BFA4
:102B8000FDF7B4FE40451BD82069402812D03168BB
:102B900021F47C3141EA003030602AE018E000BFC7
:102BA000FDF7AAFEA0EB0A0002289FD8286840077C
:102BB000F6D5E5E7306820F47C3040F40030EBE7F0
:102BC000207C316821F0FE4141EA0060E4E70DE13C
:102BD000286820F001002860FDF78EFE824605E09F
:102BE000FDF78AFEA0EB0A0002288DD8286840076E
:102BF000F6D42078C0065DD5D9F80000DFF86CB2B5
:102C0000396800F03800ABF1040B082810D0182800
:102C100003D101F0030001280AD0E06900282868E8
:102C200038D040F080002860FDF766FE824623E041
:102C30002868C00523D5E069802876D11FE0206A86
:102C4000202821D0316821F0F84141EA80603060CD
:102C500030E000BF94F82010DBF8002022F07C5216
:102C600042EA0161CBF8001024E000BFFDF744FE0A
:102C7000A0EB0A00022898D82868C005F6D5FDF711
:102C800035FE4045E6D8DAE7306820F0F84040F0FD
:102C90008040DCE720F080002860FDF72DFE06462E
:102CA00005E000BFFDF728FE801B02289DD828689C
:102CB000C005F7D42078000729D56C4861696430D5
:102CC00000298046016811D041F001010160FDF743
:102CD00013FE064605E000BFFDF70EFE801B02282E
:102CE000C9D8D8F800008007F6D510E021F001011E
:102CF0000160FDF701FE064605E000BFFDF7FCFDA3
:102D0000801B022872D8D8F800008007F6D42078FB
:102D1000800623D5A0690028286810D040F4805090
:102D20002860FDF7E9FD064605E036E1FDF7E4FD24
:102D3000801B02285AD828688004F7D50EE020F4BA
:102D400080502860FDF7D8FD064604E0FDF7D4FD6D
:102D5000801B02284AD828688004F7D420784007CE
:102D60004FD5DFF80C81D8F8001041F48071C8F815
:102D70000010FDF7C1FD064605E000BFFDF7BCFDF4
:102D8000801B642832D8D8F80000C005F6D5374E2D
:102D9000A068603601280AD008B1052813D0306831
:102DA00020F001003060306820F0040002E030685C
:102DB00040F001003060A06841F2883A90B1FDF720
:102DC0009BFD80460AE0306840F004003060EEE78A
:102DD000FDF792FDA0EB0801514507D83068800748
:102DE000F6D50EE0FDF788FD804607E084E000BFE1
:102DF000FDF782FDA0EB080151457DD830688007C2
:102E0000F6D4606AB0B3DFF86480D9F8001008F136
:102E100020084FF6F87B08F10409C1F3C201032929
:102E2000A8F1040A69D00228286820F08070286080
:102E300003D0FDF761FD044684E0FDF75DFD064625
:102E400005E000BFFDF758FD801B022877D82868F1
:102E50008001F7D4E26A40F2F331386854F8283F31
:102E6000884340EA02101843386004E010440258D6
:102E700000480258B5E0217B434622894FF4FE0CFE
:102E8000208A4FF0FE474902267D521E401EA1F5C2
:102E90000071C2F308088AB2761E0CEA004042EACA
:102EA00008020243504607EA06610A431A60DAF84C
:102EB000002022F00102CAF80020D9F80020266A7A
:102EC00022EA0B0242EAC602C9F80020DAF8001032
:102ED000A26921F00C011143CAF800100168E269EF
:102EE00021F0020111430160016841F48031016069
:102EF000016841F4003101E021E027E00160016850
:102F000041F480210160016841F0010101602868FD
:102F100040F080702860FDF7EFFC044605E000BF3C
:102F2000FDF7EAFC001B022809D828688001F7D5C4
:102F300057E000BFFDF7E0FC001B022802D9032088
:102F4000BDE8F09F28688001F4D44AE03968012880
:102F5000D8F8000021D0A26A01F0030393421CD1EB
:102F6000E26AC1F305118A4217D1216BC0F308024E
:102F7000491E8A4211D1616BC0F34622491E91421B
:102F80000BD1A16BC0F30642491E914205D1E16B02
:102F9000C0F30660491E814201D00120D0E7A16C38
:102FA0004E46D9F80000C0F3CC00814219D0DAF8BF
:102FB0000000554620F00100CAF80000FDF79CFC17
:102FC0004FEA0007FDF798FCB842FBD0A26C3068CE
:102FD00020EA0B0040EAC2003060286840F001009F
:102FE00028600020ACE770477047704710B50400B8
:102FF00003D094F83D0010B107E0012010BD00207F
:1030000084F83C00204600F022F8022084F83D00BD
:103010002068211D01F002F8012084F8480084F89E
:103020003E0084F83F0084F8400084F8410084F8B2
:10303000420084F8430084F8440084F8450084F892
:10304000460084F8470084F83D00002010BD70471A
:1030500090F83D10012901D001207047174A022144
:1030600080F83D100168CB6843F00103CB60006835
:10307000904214D0B0F1804F11D0114988420ED047
:10308000104988420BD01049884208D00F49884225
:1030900005D00F49884202D00E49884207D1816885
:1030A0000D4A1140062906D0B1F5803F03D00168D2
:1030B00041F0010101600020704700000000014064
:1030C0000004004000080040000C004000040140E3
:1030D000001800400040014007000100704770B533
:1030E0000446006800250169C943890715D4C168F1
:1030F000C943890711D4EA1E0261012121772068A2
:1031000080698007204602D0FFF7E8FF04E000F066
:10311000A7F8204600F0A5F8257720680169C94383
:10312000490717D4C168C943490713D402216FF076
:103130000402026121772068806910F4407F2046F4
:1031400002D0FFF7CBFF04E000F08AF8204600F041
:1031500088F8257720680169C943090716D4C16832
:10316000C943090712D404216FF0080202612177D4
:103170002068C0698007204602D0FFF7AFFF04E057
:1031800000F06EF8204600F06CF8257720680169A1
:10319000C943C90617D4C168C943C90613D4082155
:1031A0006FF01002026121772068C06910F4407F3F
:1031B000204602D0FFF792FF04E000F051F82046CD
:1031C00000F04FF8257720680169C943C90708D185
:1031D000C168C943C90704D1891E0161204600F0B6
:1031E00041F820680169C943090609D4C168C94387
:1031F000090605D46FF0800101612046FFF7F4FE57
:1032000020680169C943C90509D4C168C9430906D1
:1032100005D46FF4807101612046FFF7E4FE206859
:103220000169C943490609D4C168C943490605D49F
:103230006FF040010161204600F01EF8206801692E
:10324000C94389060BD4C168C943890607D46FF006
:10325000200101612046BDE87040FFF7C6BE70BD89
:103260007047704700680349884201D1FDF74ABBA7
:1032700070470000004801407047FEE730B5022566
:103280000446006893B000F0A7FD00284DD02068E8
:1032900000F0BEFB00284AD12068002100F0A0FD0C
:1032A00060660421206800F09BFDA066082120686C
:1032B00000F096FDE0660C21206800F091FD20678B
:1032C0002946206800F005FC002830D12564290437
:1032D000206800F0B3FB002829D12068002100F00D
:1032E0007FFD60650421206800F07AFDA06508215B
:1032F000206800F075FDE0650C21206800F070FD8D
:1033000020660421206800F06BFD000DE063B4F836
:1033100040102068090400F061FB002807D107A9CC
:103320002046FDF7EBFBB0B903E04FF0806013B02F
:1033300030BDB4F840102068090400F0B0FB10B1B3
:10334000616B0143616304F174014FF0FF32204669
:10335000FDF7B4FC08B1606BE9E7B4F840102068F1
:10336000090400F09CFB10B1616B014361631422FE
:10337000211D02A8FDF7A5F800230493DDE905014E
:10338000CDE900012068DDE9021200F02DFD0020EA
:10339000CDE700002DE9F8434FF400494FF0000657
:1033A000494590460F460546344602D0B7F5804F52
:1033B00051D100206946431E0090BB22284600F0F0
:1033C0004FF810B14FF4803402E00098000E0090E6
:1033D000B8F1040F05D0D5F83C01B8F1020F05D0C3
:1033E00001E0D5F86001000E1CB134E0C0F30740E5
:1033F000FAE74F4500D10009009901F00F0200F0F3
:103400000F018A4227D0154A286842EA012100F0BC
:10341000A1FB04001FD14FF6FF7700BFB5F84010A5
:103420002868090400F03BFB04000BD12868002148
:1034300000F0D6FCA7F101070646C00502D4002F14
:10344000ECD106E02FB134B9300604D54FF08054EA
:1034500001E04FF000442046BDE8F8830000BB03C4
:103460002DE9F04F87B09A4691468B460446FDF70A
:1034700043FA06900020012560632168421E6B021A
:1034800090260227C86269468DE8CC00CDE9040584
:103490000646206800F0ACFB2068002100F0E6FA48
:1034A000DFF8C88000B32268C2F83880616B01433E
:1034B000616346E0406B00040DD50027206800F0F2
:1034C000A9FCF219B2EB990F01D1CBF800007F1CD7
:1034D000082FF3D30836FDF70FFA0699411A514524
:1034E00010D2BAF1000F0DD02068416B11F4957F16
:1034F000E0D0416B090712D5C0F83880606B40F00E
:1035000008001DE02168C1F83880606B40F0004081
:10351000606384F83050032007B0BDE8F08F416B42
:10352000890705D5C0F83880606B40F0020007E0DD
:10353000416B890609D5C0F83880606B40F02000E7
:10354000606384F830500120E6E7B4F840100904C5
:1035500000F0A5FA10B1616B014361632168044872
:10356000886384F830500020D6E70000FF0FE01F8A
:103570003A0F0018044A0021044810B500F032FF49
:103580000349086010BD0000B05E00084F3E00080F
:103590000800002030B587B014216846FCF7CBFF47
:1035A0002648016841F004010160016801F004014E
:1035B0000591016841F002010160016801F002011A
:1035C0000591016841F008010160016801F00801FE
:1035D0000591016841F080010160016801F08001FE
:1035E0000591016841F40071016000680022144DEA
:1035F000042100F4007005902846FDF771F90024BD
:103600004FF400504FF488118DE813000D486946BF
:10361000FDF750F8042001218DE813006946284683
:103620000394FDF747F8002205212820FDF734FF19
:103630002820FDF723FF07B030BD0000E04402580A
:1036400000240258000802580B4800214FF40042A1
:10365000084B10B5C0E90031C0E9021201614161B7
:10366000FDF7D4FB002803D0BDE81040FCF7EFBF06
:1036700010BD000000700052A0000020FEE7FEE731
:103680002DE9F047454D044689464FF0000A286869
:10369000C04380070AD0414E283E306820F0806049
:1036A0003060FDF729F90746B04608E00120BDE883
:1036B000F08700BFFDF720F9C01B022867D8D8F8B3
:1036C00000000001F6D4206829684FF4FE0721F4B9
:1036D0007C313E0241EA00302860207AA389B4F8A8
:1036E00004C040022D4D2D495B1E227CACF1010C23
:1036F0001035091DA0F5007080B2521ECCF3080CE5
:1037000007EA034340EA0C00184306EA026210434A
:1037100028600868626920F0C000104308600A68E9
:10372000A06922F0200202430A60281D0A6822F0E4
:1037300010020A6002684FF6F873E4699A4342EA9D
:10374000C40202600868B9F1000F40F010020A607C
:1037500011D00868B9F1010F11D040F400100860D1
:10376000D8F80000444640F08060C8F80000FDF73B
:10377000C3F805460DE0086840F40020EFE740F488
:103780008010ECE7FDF7B8F8401B022801D90320B0
:103790008DE720680001F5D5504688E72844025897
:1037A0002DE9F047454D044689464FF0000A286848
:1037B000C04380070AD0414E283E306820F0805038
:1037C0003060FDF799F80746B04608E00120BDE8F3
:1037D000F08700BFFDF790F8C01B022867D8D8F823
:1037E00000008000F6D4208829684FF4FE0721F0FD
:1037F0007C713E0241EA00502860207AA389B4F827
:1038000004C040022D4D2D495B1E227CACF1010C01
:103810001835091DA0F5007080B2521ECCF3080CBB
:1038200007EA034340EA0C00184306EA0262104329
:1038300028600868626920F44060104308600A68E4
:10384000A06922F4007202430A60281D0A6822F46B
:1038500080720A6002684FF6F873E4699A4342EA9C
:10386000C40202600868B9F1000F40F480720A6077
:1038700011D00868B9F1010F11D040F080700860D4
:10388000D8F80000444640F08050C8F80000FDF72A
:1038900033F805460DE0086840F48000EFE740F497
:1038A0000000ECE7FDF728F8401B022801D90320AF
:1038B0008DE720688000F5D5504688E728440258F7
:1038C00030B50446102085B00DF1080C0201050248
:1038D000CDE90010002369468CE82C00204600F05A
:1038E0009DFA102141F28832204600F095F905B08A
:1038F00030BD000030B585B00546002469464FF460
:103900008050009401940294CDE90340284600F0D1
:1039100085FA0B4A4FF4FA5041F288311268B2FB33
:10392000F0F04843401E03D24FF0004005B030BDD8
:10393000696B0906F6D503492046A963F6E700003E
:1039400018000020C500200030B50446012085B0D5
:103950000DF1080C02020503CDE9001000236946B1
:103960008CE82C00204600F059FA204600F010FAAE
:1039700005B030BD30B585B0044612204FF48072DA
:103980000DF1080CCDE90010002369461501204611
:103990008CE82C0000F042FA122141F288322046D5
:1039A00000F03AF905B030BD30B585B004461120BD
:1039B0004FF480720DF1080CCDE900100023694628
:1039C000150120468CE82C0000F028FA112141F264
:1039D0008832204600F020F905B030BD30B585B002
:1039E000044607204FF480720DF1080CCDE9001059
:1039F00000236946150120468CE82C0000F00EFAE1
:103A0000072141F28832204600F006F905B030BDAA
:103A100010B585B00446002102204FF44072C30265
:103A20000493CDE90010CDE902216946204600F05B
:103A3000F5F9204600F082F905B010BD30B585B02B
:103A4000044609200DF1080C0023CDE900104FF4C5
:103A5000407269464FF4805520468CE82C0000F0F7
:103A6000DDF9204600F06AF905B030BD30B50446F6
:103A7000082085B00DF1080C42014502CDE9001087
:103A8000002369468CE82C00204600F0C7F9082185
:103A900041F28832204600F0BFF805B030BD30B5A5
:103AA00085B004460D204FF480720DF1080CCDE96D
:103AB000001000236946150120468CE82C0000F018
:103AC000ADF90D2141F28832204600F0A5F805B08D
:103AD00030BD30B585B004464FF480720804032130
:103AE000002315018DE82F006946204600F096F965
:103AF000032141F28832204600F08EF805B030BD37
:103B000010B585B004464FF4807200200C211301DB
:103B10008DE80700CDE90303E06840F08000E06035
:103B2000E06820F04000E0606946204600F076F949
:103B3000074A0C21204600F06FF8E168B0F1007FE1
:103B400021F08001E16000D1002005B010BD00002F
:103B500000E1F50530B585B0044606204FF48072CB
:103B60000DF1080CCDE9001000236946150120462F
:103B70008CE82C0000F052F9062141F288322046F0
:103B800000F04AF805B030BD30B585B004461920C4
:103B90004FF480720DF1080CCDE900100023694646
:103BA000150120468CE82C0000F038F9192141F26B
:103BB0008832204600F030F805B030BD30B585B011
:103BC000044618204FF480720DF1080CCDE9001066
:103BD00000236946150120468CE82C0000F01EF9F0
:103BE000182141F28832204600F016F805B030BDA9
:103BF00070B50A6842624A688262C46AD1E90225E5
:103C0000D1E9043624F0FF012A4333431A43114318
:103C1000C162002070BD000030B5464D4FF4FA532C
:103C2000434C2D68B5FBF3F353435B1E02D24FF0B8
:103C3000004030BD426B2242F7D09204F5D4426B73
:103C4000520703D504218163084630BD426BD20779
:103C500002D00121816306E0354A80328263026925
:103C6000D2B28A4201D0012030BD002100F0B8F864
:103C70003149084201D1002030BD002802DA4FF05E
:103C8000007030BD410001D5402030BD810001D51C
:103C9000802030BDC10002D54FF4807030BD0101DD
:103CA00002D54FF4007030BD410102D54FF4806061
:103CB00030BDC10102D54FF4006030BD010202D514
:103CC0004FF4805030BD410202D54FF4005030BD5A
:103CD000810202D54FF4804030BDC10202D54FF4BD
:103CE000004030BD410302D54FF4003030BD8103A8
:103CF00002D54FF4802030BDC10302D54FF400201F
:103D000030BD010402D54FF4801030BD410402D50E
:103D10004FF4001030BD810402D54FF4800030BD57
:103D2000000702D54FF4000030BD4FF4803030BDA5
:103D3000450020001800002008E0FFFD124B4FF462
:103D4000FA5141F288321B68B3FBF1F15143491E2D
:103D500002D24FF000407047426B12F0450FF6D090
:103D60009204F4D4416B490703D5042181630846CA
:103D70007047416BC90703D0012181630846704732
:103D8000024981630020704718000020C500200010
:103D90000F4B4FF4FA5141F288321B68B3FBF1F13B
:103DA0005143491E02D24FF000407047426B12F05F
:103DB000450FF6D09204F4D4416B490703D5042192
:103DC0008163084670470349816300207047000003
:103DD00018000020C5002000006800F003007047B4
:103DE000084440697047000030B511434268DDE97E
:103DF00003542B43034D194321432A400A43426095
:103E0000002030BD002CC0FF016841F003010160BB
:103E100000207047D0F880007047000070B5084D52
:103E20000A688260C368D1E90126D1E903412B40C9
:103E300032430C4322431343C360002070BD000093
:103E4000C0E0FEFF0968C0F8801000207047012024
:103E500000F006FAFBE74FF0E02010B5006901F032
:103E600027FE012803D0BDE8104001F059BA10BD6B
:103E7000F0B59DB04C216846FCF75DFB202113A8EE
:103E8000FCF759FB0420FDF739FB214900242148A8
:103E90000A6822F001020A600968016841F44041A1
:103EA0000160016801F440411B9101688904FCD55F
:103EB0000DF1280C0220099004210526A0278CE88A
:103EC000C100CDE90D01C3030F9108256846012209
:103ED0001294CDE91054CDE90023FEF7C3FD08B1DB
:103EE00072B6FEE740201A903F210301CDE916503B
:103EF0000322CDE9180313AB13A883E816000221AF
:103F0000FEF772FB002801D072B6FEE71DB0F0BDCF
:103F10002C040058184802583348F0B53249036859
:103F20007839324A43F470030360086840F01000A7
:103F30000860106800F00F00072804D2106820F015
:103F40000F00C01D10602A490020294C10340B6856
:103F5000284D43F001030B6020600B682B400B6081
:103F6000136803F00F03072B04D9136823F00F0322
:103F7000DB1D13601E4C204A1834204B261D371DB4
:103F800020601B4C1E4D28343060261D3860371DC4
:103F900023603B1D35601C1D3A60251D2E1D1860D9
:103FA000331D22602860326018600B684FF0B04209
:103FB0000F4C23F480230B6060342060D2F8E400BF
:103FC000104940F48040C2F8E40008686FF30F0025
:103FD000B0F1005F03D20C490120C1F8080143F29F
:103FE000D2000A490860F0BD88ED00E000200052D0
:103FF000004402587FEDF6EA80020101000202024D
:104000000000FF010010005C0080005100400052E1
:104010000148FFF764B80000140300202DE9F047C1
:10402000274B4FF0804A274D02689842264E274F73
:10403000274C09D0504507D0A84205D0B04203D044
:10404000B84201D0A04205D1D1F804C022F07002DC
:104050004CEA0202DFF87CC0DFF87C809842DFF88F
:104060007C900FD050450DD0A8420BD0B04209D063
:10407000B84207D0A04205D0604503D0404501D0EA
:10408000484503D1CD6822F440722A434D6922F09D
:1040900080022A43026098428A68C2620A68826289
:1040A00007D0A04205D0604503D0404501D0484527
:1040B00001D10969016301214161BDE8F087000078
:1040C000000001400004004000080040000C0040D7
:1040D000000401400040014000440140004801400C
:1040E000FEE7090700284FEA116104DB00F1E02038
:1040F00080F80014704700F00F0000F1E02080F815
:10410000141D70471FB50024009401940294039479
:10411000FDF782F901208DF80C0013228DF808209C
:104120008DF8094003238DF80D404FF050418DF874
:1041300000008DF80A408DF80E008DF801400191C5
:104140008DF80B308DF80F006846FDF737F9042025
:10415000FDF770F92B490868800311D4BFF34F8F26
:10416000BFF36F8F28480460BFF34F8FBFF36F8F8B
:10417000086840F400300860BFF34F8FBFF36F8FC3
:104180000868C00323D41F4870300460BFF34F8F0A
:10419000001F43F6FF7C00681B4D1035C0F34E3204
:1041A000C0F3C9030CEA4216184600BF46EA8077FE
:1041B0002F60401EFAD2521EF4D2BFF34F8F086810
:1041C00040F480300860BFF34F8FBFF36F8FFCF770
:1041D000A1FB0E4D6C70AC70FFF74AFEFFF7DAF9E9
:1041E000FFF732FA00220A48114600F0FBF82021BE
:1041F000686000F03FF900F041F8FFF7BBF900F00C
:104200004FF8FEE714ED00E050EF00E00000002062
:10421000154200080025104E6F1E642408B50121C8
:104220003A46022000F092F80B4901230B48002285
:10423000491C0094FCF7D4FF0848FCF7D1FD06495F
:104240000123064800220094FCF7ECFE0A20B5701A
:1042500000F006F8E3E7000000000020A0000020C6
:1042600010B5EFF3058111B16FF0050404E04FF0D4
:10427000000408B100F09AFE204610BDEFF305805F
:1042800010B16FF0050070470449086810B14FF095
:10429000FF30704701220A60002070477000002044
:1042A00010B5EFF3058010B16FF0050010BD0848A0
:1042B0000168012902D04FF0FF3010BD054A0021EE
:1042C00082F8141D0221016000F032FF002010BDB1
:1042D000700000200BE000E03EB5040001D0002992
:1042E00003DA6FF0030001902BE04FF0FF300190F4
:1042F000EFF30580D0B10025029502A82B460122DC
:104300000090204601F052FB0022204601AB1146EE
:10431000009501F04BFB029898B10B494FF080508B
:104320000860BFF34F8FBFF36F8F0AE00023204672
:10433000012201F0CBFA0022204601AB114601F028
:10434000C5FA01983EBD000004ED00E02DE9F84FEC
:10435000894605464FEA0206EFF3058010B16FF07B
:1043600005041EE0002D02DA6FF0030419E05FEA95
:10437000897002D54FF0000800E0A846924600245C
:1043800001F0A4FBE71E8346002053466A464146DF
:1043900001F006FC012807D016B36FF001040028D5
:1043A000F2D12046BDE8F88F00982C405FEAC97131
:1043B00044EA00040BD035EA0400F2D056B101F013
:1043C00085FBA0EB0B00504506D9002006E02542F6
:1043D000E7D1F3E73C46E4E7AAEB00008246D3E7E7
:1043E0003C46DCE72DE9FF414FEA01034FF00005B1
:1043F000EFF30581039561BB58B34FF080064FF092
:1044000018014FF000044AB3176807B13C4697699A
:104410001FB139467F1E382F02D21779FF0703D00C
:10442000002004B0BDE8F081576907B1BE08D2F89A
:1044300008C0BCF1000F0DD0D5685C2D18D31269EF
:104440003AB137B18DE806103246214601F013FA31
:1044500003900DE0D7685FB912694AB903AACDE9A4
:104460000012B2B2214601F0D9F9012800D003951B
:104470000398D6E710B5EFF3058212B16FF005048B
:104480000AE018B1012901DB382902DD6FF00304CD
:1044900002E0002400F0F2FD204610BD2DE9F041BD
:1044A000134C0F460546E6682068001D00F048FCE6
:1044B000681C07D137B12168BDE8F0410D48091DDE
:1044C00000F090BC20683544B5424560216805D2B3
:1044D000A06B091DBDE8F04100F06CBC606B091DCC
:1044E00000F068FCA06A854200D2A562BDE8F081B8
:1044F00020000020500800202DE9F041054600F082
:104500007DFC2D4C2D4FA068401CA060206810B190
:10451000606930B32BE02560A068012827D1002610
:1045200006EB860007EB800000F036FC761C382E88
:10453000F6D3234800F030FC2148143000F02CFC66
:104540001F48283000F028FC1D483C3000F024FCB7
:104550001B48503000F020FC194860631430A06301
:1045600005E0E86A2168C96A814200D82560606A6E
:10457000401C60626864E86A2169884200D9206151
:1045800000EB8000291D07EB800000F02BFC00F001
:1045900055FC606900280CD02068E96AC06A88422E
:1045A00007D208494FF080500860BFF34F8FBFF328
:1045B0006F8FBDE8F081000020000020A0030020E4
:1045C0000008002004ED00E038B500F017FC104CA6
:1045D0002068C8B90F4800F0DFFB0E48143000F027
:1045E000DBFB0C490020E16014312161A1F58273ED
:1045F0000090A1F1B40210210A2000F0A7FE206073
:1046000010B105A100F09CFCBDE8384000F016BCDC
:104610005C00002054090020546D7251000000001D
:1046200030B4026C0B46002A0BD0D0E90241114491
:10463000C160A14201D30168C160184630BCFBF7DC
:10464000FBBE30BC70472DE9F041856B1746026C0C
:104650000446002682B1C7B1E068FBF7EDFEE168D1
:10466000206C2268091AE160914202D2A168081AFE
:10467000E060022F16D017E02068A8B9A06801F00A
:10468000D5FA06460020A0600EE06068FBF7D4FE75
:10469000D4E90101226C10446060884204D3206890
:1046A000606001E005B16D1E6D1CA5633046BDE87C
:1046B000F08110B5044690F8590058B101280CD08B
:1046C00002280FD0502080F31188BFF34F8FBFF323
:1046D0006F8FFEE7206B00F0C5FB2046BDE8104061
:1046E00000F0C0BB10BD000011484FF4705110B570
:1046F000420706D00E49C01D20F00700411AC1F53F
:1047000070510C4C002301440839A4F1180221F027
:104710000701C4E900030C1A11604B600B60C0E98B
:10472000001494604FF000415460516110BD0000CE
:10473000341000208C000020144E4FF08058144C90
:10474000DFF85090A6F29C4712E000BF00F056FB45
:10475000F068C568281D00F0F3FAA068401EA0604C
:104760006068401E606000F069FB2846FFF7A1FF0B
:1047700060680028EAD138680128F9D9C9F80080B2
:10478000BFF34F8FBFF36F8FF2E700003C080020AC
:104790002000002004ED00E070B51D46049C51B1DE
:1047A000C4F80020C4E90F010121204600F002FEF8
:1047B00084F84C5070BD2460F4E72DE9F05F884622
:1047C0009A4691001546DDE90B940A9EA522834680
:1047D000206BFBF7A8FE206B6FF0030101EB850156
:1047E000084420F00707780707D0502080F311888D
:1047F000BFF34F8FBFF36F8FFEE7B8F1000F4FF09D
:1048000000050ED00020221818F8001082F834108D
:1048100018F8001011B1401C1028F4D384F843504C
:1048200001E084F83450382E00D33726E662201D8C
:10483000C4E9136500F0BBFA04F1180000F0B7FA00
:104840006565C6F13800A06184F85850524624616D
:1048500059463846646200F05BFAB9F1000F2060F7
:1048600001D0C9F80040BDE8F09F000030B5114903
:1048700000E011460A688242FBD34B685C18844210
:1048800003D14468084623444B6043681D18954291
:1048900009D1084C183C2468A24209D052681A4435
:1048A00042600A6812680260814200D0086030BD30
:1048B0000460F9E78C00002070B50D4D9142416015
:1048C0004FF00004006106D88169D21A8A4206D2EC
:1048D000011D286907E09A4203D2994201D30124BD
:1048E00003E0011DE86800F065FA204670BD000095
:1048F0005C00002010B5044600F080FAA06B28B1DF
:104900005FF0000400F09AFA204610BD0124F9E798
:1049100030B53C4D89B06BE00498002806DA059A62
:10492000DDE9060190470498002861DB069C606978
:1049300010B1201D00F004FA03A800F0D5F80246DB
:1049400004980A2854D2DFE800F00505052D304709
:1049500005052D3094F8280040F0010084F8280067
:10496000A06905990B4601442046FFF7A5FF50B307
:10497000216A2046884794F82800400738D500204F
:10498000009005980023A16942181946204601F0BD
:1049900055FAC0B9502080F31188BFF34F8FBFF391
:1049A0006F8FFEE794F828001EE094F8280040F08E
:1049B000010084F828000598A06128B181181346E9
:1049C0002046FFF779FF13E0502080F31188BFF3F2
:1049D0004F8FBFF36F8FFEE794F82800810703D451
:1049E000204600F03FFA03E020F0010084F82800A0
:1049F0002868002204A900F037FE00288CD109B0F5
:104A000030BD00005C0000202DE9FC410F4605464A
:104A100000F0D2FB01A800F067F80446019818B135
:104A200001F07AF9BDE8FC81254EAFB1306900682C
:104A3000D0B300273068291B3A4600F095FA01F000
:104A40006BF90028EED11F494FF080500860BFF38A
:104A50004F8FBFF36F8FE5E7A542EBD801F05CF90C
:104A6000F0682746C068C468201D00F069F994F812
:104A70002800410719D5A0692B463A46411920461E
:104A8000FFF71AFFA8B100202A460346014600900E
:104A9000204601F0D3F960B9502080F31188BFF3AC
:104AA0004F8FBFF36F8FFEE707E020F0010084F81F
:104AB0002800216A20468847B4E70127BAE70000AA
:104AC0005C00002004ED00E00648416B096829B154
:104AD000416BC968C9684968816270474FF0FF310E
:104AE000FAE700002000002070B5054600F0EEFF58
:104AF000064E0446B068844203D200F009F8012053
:104B000000E0002028602046B46070BD5C000020FA
:104B1000F8B5194D20E0C068C4680668201D00F093
:104B20000FF9216A2046884794F82800400713D5DA
:104B3000A0693044B04206D92461211D6060E86854
:104B400000F038F908E000203246034601460090A4
:104B5000204601F073F938B1E86801680029DAD11C
:104B60002969C5E90310F8BD502080F31188BFF30F
:104B70004F8FBFF36F8FFEE75C000020084840684E
:104B8000401C4FF0500080F3118804D0BFF34F8FCA
:104B9000BFF36F8FFEE7BFF34F8FBFF36F8FFEE75B
:104BA00094000020074CE068016841B1C068002112
:104BB000D0F80000FFF728FFFFF7AAFEF3E7012176
:104BC0000020F7E75C0000202DE9F041044600F0EA
:104BD00015F994F9455004F1240609E0606A48B1DA
:104BE000304601F061F808B100F00EFA6D1E6DB2AA
:104BF000002DF3DC4FF0FF3684F8456000F01EF91D
:104C000000F0FCF894F9445004F1100709E0206921
:104C100048B1384601F048F808B100F0F5F96D1ECA
:104C20006DB2002DF3DC84F84460BDE8F04100F083
:104C300005B900002DE9F0410027044600F0BCFA58
:104C4000324E306808B9FFF74FFD706904424ED10B
:104C5000C4B3083460070ED004F00700C0F10800A8
:104C60000444600707D0502080F31188BFF34F8FB2
:104C7000BFF36F8FFEE72CB37068844237D82348A8
:104C8000183001460D6801E028460D466968A142CA
:104C900002D229680029F7D131688D4227D00768F0
:104CA0002968016008376868011B10290FD9281985
:104CB000420708D0502080F31188BFF34F8FBFF315
:104CC0006F8FFEE713E041606C60FFF7CFFD69680E
:104CD0007068401A7060B268904200D2B0600020E4
:104CE00072691143C5E90001F068401CF06001F0F1
:104CF00013F8780707D0502080F31188BFF34F8F47
:104D0000BFF36F8FFEE73846BDE8F08174000020E6
:104D100070B5041F094E231F4FF0807521F001016B
:104D200025601C1F1960A0F120010B1F266044386C
:104D30000A606FF002051D6070BD00007D4B000829
:104D4000D0E9013201699A60D0E901235A604A68CA
:104D5000824201D182684A60002202610868401ED6
:104D6000086008687047000010B5044C8023046098
:104D700004F15C000860136010BD00007C09002095
:104D800010B5044C4FF48073046004F15C000860BB
:104D9000136010BDD80B00204FF0FF3300F1080165
:104DA0000022C0E901130260C16001617047002167
:104DB0000161704730B50B685A1C02D000F108023F
:104DC00002E0026904E02246546825689D42FAD94F
:104DD00053684B6099608A60516008610168491CA2
:104DE000016030BD42684A6093688B609368596087
:104DF000916008610168491C01607047502080F390
:104E00001188BFF34F8FBFF36F8F0A494868401C6A
:104E1000486001280CD10848006810F0FF0F07D047
:104E2000502080F31188BFF34F8FBFF36F8FFEE7E1
:104E3000704700009400002004ED00E00849486835
:104E400028B1401E486001D180F31188704750207E
:104E500080F31188BFF34F8FBFF36F8FFEE7000021
:104E60009400002070B500282AD0164DA0F1080447
:104E700061686869014207D1502080F31188BFF34F
:104E80004F8FBFF36F8FFEE722683AB1502080F357
:104E90001188BFF34F8FBFF36F8FFEE781436160CF
:104EA00000F08AF960686968084468602046FFF786
:104EB000DDFC2869401C2861BDE8704000F02CBF73
:104EC00070BD0000740000204FF0E020002101615F
:104ED0004FF47A728161072303490968B1FBF2F14B
:104EE000491E4161036170471800002010B5FBF7AF
:104EF0007FFA114910280ED300F1E0200A7890F8CB
:104F0000F003904207D2502080F31188BFF34F8FF7
:104F1000BFF36F8FFEE709488968006800F4E0601E
:104F2000884207D9502080F31188BFF34F8FBFF319
:104F30006F8FFEE710BD0000940000200CED00E034
:104F4000084B5FF0000210B553F832401CB1521C00
:104F5000082AF9D310BD03EBC20443F83210606095
:104F600010BD00006003002070B515460E460446D3
:104F7000FFF744FF94F944100020491C01D184F844
:104F8000440094F94510491C01D184F84500FFF70D
:104F900055FFA06B28B904F124002A46314600F0E1
:104FA00051F82046BDE87040FFF70EBE020010B574
:104FB00014D00F48006B38B1502080F31188BFF334
:104FC0004F8FBFF36F8FFEE700F0F6F80021104619
:104FD000FFF764FA00F0A0FE002807D105494FF062
:104FE00080500860BFF34F8FBFF36F8F10BD00007C
:104FF0002000002004ED00E002490A6A0260C9684E
:10500000416070472000002001490120C8617047BD
:105010002000002010B50C4650B10949096818312C
:10502000FFF7C8FE2046BDE810400121FFF736BA61
:10503000502080F31188BFF34F8FBFF36F8FFEE7CF
:105040002000002070B514460D4668B10A49096871
:105050001831FFF7C7FE0CB14FF0FF352146284647
:10506000BDE87040FFF71ABA502080F31188BFF3F3
:105070004F8FBFF36F8FFEE7200000202DE9F04136
:1050800038290D4604464FF0000707D3502080F31F
:105090001188BFF34F8FBFF36F8FFEE7FFF7AEFEB0
:1050A000204E04B93468E16CA94237D030688D4293
:1050B00006D9844207D03068C06AA84202D902E00B
:1050C000844200D10127E06A814200D1E562A169F2
:1050D000E564002902DBC5F13801A161124D00EB46
:1050E0008000616905EB800081420ED1201DFFF731
:1050F00027FEE06A3169884200D9306100EB800008
:10510000211D05EB8000FFF76DFE3FB107494FF011
:1051100080500860BFF34F8FBFF36F8FBDE8F04141
:10512000FFF78CBE20000020A003002004ED00E06B
:1051300030B587B0002405AA04A9039403A80494F9
:10514000FFF712FEDDE9030100940023CDE9011011
:10515000174815A1059A00F08EFB164D0028E8624D
:105160001FD000F03BFE012809D0401C19D150206F
:1051700080F31188BFF34F8FBFF36F8FFEE750208E
:1051800080F31188BFF34F8FBFF36F8F01214FF072
:10519000FF30A8626961EC6007B0BDE8304000F004
:1051A00045B807B030BD000049444C450000000040
:1051B00039470008200000200248016B491C0163A8
:1051C0007047000020000020164810B5016B11B197
:1051D0000121C16110BD0021C161134A016901E0D3
:1051E000B9B1491E01EB810352F82330002BF7D0EF
:1051F00001EB810302EB830202F1080453685B6850
:105200005360A34201D15B685360DA6802600161B8
:1052100010BD502080F31188BFF34F8FBFF36F8F05
:10522000FEE7000020000020A003002037481CB546
:10523000374902688A4207D1502080F31188BFF3B2
:105240004F8FBFF36F8FFEE731490068491E8842D8
:1052500007D1502080F31188BFF34F8FBFF36F8FBA
:10526000FEE72C49FF200A780192087008788DF833
:1052700000009DF800209DF8000002F0F00282423C
:1052800007D0502080F31188BFF34F8FBFF36F8F8B
:10529000FEE79DF8002007201F4C02F0500222700C
:1052A000A06005E09DF8002052008DF80020401E0F
:1052B0009DF800201206F5D40328A06007D05020E6
:1052C00080F31188BFF34F8FBFF36F8FFEE74FF46A
:1052D0004070A060019808700C482030016841F4CB
:1052E00070010160016841F070410160FFF7ECFD61
:1052F00000206060FBF744F80848016841F0404135
:105300000160FBF729F800201CBD000000ED00E063
:1053100071C20F4100E400E09400002034EF00E08F
:10532000502010B580F31188BFF34F8FBFF36F8FFC
:1053300000F0D2FB18B104494FF080500860002003
:1053400080F3118810BD000004ED00E0F8B5069D63
:1053500018B153B1CAB181B120E0502080F3118857
:10536000BFF34F8FBFF36F8FFEE7502080F311889C
:10537000BFF34F8FBFF36F8FFEE7502080F311888C
:10538000BFF34F8FBFF36F8FFEE739B1502080F32B
:105390001188BFF34F8FBFF36F8FFEE750241C4679
:1053A000012683F8466000932B46FFF7F5F9204667
:1053B000F8BD00002DE9F04704008A4629D0FFF728
:1053C0001DFD21680025D4E90F23D4F840C004F165
:1053D000100810460E46401E4FF0FF3902FB031224
:1053E00000FB0C10BAF1000FA563666084F84490CE
:1053F00084F84590C4E9022013D04046FFF7CCFC66
:1054000004F12400FFF7C8FCFFF718FD0120BDE8F8
:10541000F087502080F31188BFF34F8FBFF36F8F59
:10542000FEE720690028EFD0404600F03DFC002850
:10543000EAD004494FF080500860BFF34F8FBFF3AC
:105440006F8FE1E704ED00E02DE9FF4704001D4602
:1054500082B08A464FF0000803D0BAF1000F08D09E
:1054600011E0502080F31188BFF34F8FBFF36F8F8F
:10547000FEE7206C38B1502080F31188BFF34F8FC6
:10548000BFF36F8FFEE7022D0AD1E06B012807D032
:10549000502080F31188BFF34F8FBFF36F8FFEE76B
:1054A00000F006FB3F4F4FF080564FF0000948B91F
:1054B000049838B1502080F31188BFF34F8FBFF3A9
:1054C0006F8FFEE7FFF79AFCA06BE16B884207D372
:1054D000022D05D00498D0B1B8F1000F1AD01EE00B
:1054E0002A4651462046FFF7AEF8616A19B104F129
:1054F000240000F0D9FB20B13E60BFF34F8FBFF313
:105500006F8FFFF79BFC012006B0BDE8F087FFF727
:1055100095FC22E06846FFF76FFD4FF00108FFF7AA
:105520008DFCFFF749FEFFF769FC94F94400401C2D
:1055300001D184F8449094F94500401C01D184F8CD
:105540004590FFF77BFC04A9684600F02BF930B1C9
:105550002046FFF739FB00F0DFFB0020D4E7FFF720
:105560004DFCA06BE16B884213D1FFF767FC0499F7
:1055700004F11000FFF74EFD2046FFF725FB00F079
:10558000CBFB00289ED13E60BFF34F8FBFF36F8FE0
:1055900098E7FFF753FC2046FFF716FB00F0BCFB33
:1055A00090E7000004ED00E02DE9F04704001F46FD
:1055B0009046894603D0B9F1000F08D011E0502081
:1055C00080F31188BFF34F8FBFF36F8FFEE7206C1E
:1055D00038B1502080F31188BFF34F8FBFF36F8F26
:1055E000FEE7022F0AD1E06B012807D0502080F39C
:1055F0001188BFF34F8FBFF36F8FFEE7FFF776FC85
:105600005020EFF3118680F31188BFF34F8FBFF363
:105610006F8FA06BE16B884206D3022F04D000206D
:1056200086F31188BDE8F08794F94550A06B3A469F
:1056300049462046FFF707F8681C04D06D1C84F823
:1056400045500120ECE7606A0028FAD004F12400FC
:1056500000F02AFB0028F4D0B8F1000FF1D00121AE
:10566000C8F80010EDE700002DE9F74704008A466E
:1056700083B04FF0000603D0BAF1000F08D011E05C
:10568000502080F31188BFF34F8FBFF36F8FFEE779
:10569000206C38B1502080F31188BFF34F8FBFF3D7
:1056A0006F8FFEE700F004FADFF8F4804FF08057C8
:1056B0004FF0000948B9059838B1502080F311889F
:1056C000BFF34F8FBFF36F8FFEE7FFF797FBA56B1D
:1056D000C5B151462046FEF7A3FF6D1EA5632069A4
:1056E00050B104F1100000F0DFFA28B1C8F80070E2
:1056F000BFF34F8FBFF36F8FFFF7A0FB012006B002
:10570000BDE8F087059808B11EB106E0FFF796FBEB
:1057100027E06846FFF770FC0126FFF78FFBFFF7D5
:105720004BFDFFF76BFB94F94400401C01D184F85A
:10573000449094F94500401C01D184F84590FFF74E
:105740007DFB05A9684600F02DF8002820460AD008
:10575000FFF73AFA00F0E0FA2046FFF7CBF800280E
:10576000B3D00020CBE7FFF7C5F890B1059904F15D
:105770002400FFF74FFC2046FFF726FA00F0CCFA92
:105780000028A2D1C8F80070BFF34F8FBFF36F8F0E
:105790009BE72046FFF718FA00F0BEFA95E70000F5
:1057A00004ED00E02DE9F04105000C4612D0CCB12B
:1057B000FFF724FB184E2068F268471C6B68A2EBC9
:1057C000030117D02F68366AB74215D0934213D819
:1057D00001251CE0502080F31188BFF34F8FBFF3E9
:1057E0006F8FFEE7502080F31188BFF34F8FBFF318
:1057F0006F8FFEE700250AE0884205D9401A206035
:105800002846FFF7F9FBF5E7002020600125FFF7A8
:1058100015FB2846BDE8F081200000202DE9FF5F40
:10582000994616468A4683469000DDE90E87FFF7C3
:1058300001FA05001CD05C20FFF7FCF9040014D02D
:105840000020256384F859004B46CDE90087CDE957
:105850000240324651465846FEF7AFFF2046FEF75B
:105860004BFE012004B0BDE8F09F2846FFF7FAFA8E
:105870004FF0FF30F6E7F0B585B0DDE90B740A9D17
:10588000A7B1DCB15C262763022684F859600027A3
:1058900003970DF1100C0095CDE901C4FEF78DFFC3
:1058A0002046FEF729FE049805B0F0BD502080F395
:1058B0001188BFF34F8FBFF36F8FFEE7502080F347
:1058C0001188BFF34F8FBFF36F8FFEE72DE9F041D3
:1058D0001F4690460D464FF0010690B10446FFF773
:1058E0008DFA0FB1606D3860022294F8580084F888
:1058F0005820B8F1050F19D2DFE808F0230B0E1479
:105900001200502080F31188BFF34F8FBFF36F8FC9
:10591000FEE7616D294301E0616D491C616510E09E
:10592000022801D065650CE0002634E0616D491C59
:1059300007D0502080F31188BFF34F8FBFF36F8FD4
:10594000FEE7012827D1201DFFF7FAF9144DE06A80
:105950002969884200D9286100EB8000114901EBD8
:105960008000211DFFF73EFAA06A38B1502080F375
:105970001188BFF34F8FBFF36F8FFEE72868E16A8E
:10598000C06A814207D908494FF080500860BFF3D0
:105990004F8FBFF36F8FFFF751FA3046BDE8F081AC
:1059A00020000020A003002004ED00E02DE9F047D6
:1059B00004001F4692460D46DDF820904FF0010886
:1059C0001AD0FFF793FA5020EFF3118680F3118875
:1059D000BFF34F8FBFF36F8F0FB1606D386002223E
:1059E00094F8580084F85820BAF1050F1AD2DFE86D
:1059F0000AF0240B0E141200502080F31188BFF31C
:105A00004F8FBFF36F8FFEE7616D294301E0616D3A
:105A1000491C616511E0022801D065650DE04FF079
:105A200000083AE0616D491C07D0502080F31188CE
:105A3000BFF34F8FBFF36F8FFEE701282DD1A06A10
:105A400038B1502080F31188BFF34F8FBFF36F8FB1
:105A5000FEE7144D286B18B1134804F118010DE04E
:105A6000201DFFF76DF9E06A2969884200D9286195
:105A700000EB80000D4901EB8000211DFFF7B2F91A
:105A8000E06A2968C96A884207D9B9F1000F4FF066
:105A9000010001D0C9F80000E86186F31188404692
:105AA000BDE8F0872000002028080020A003002087
:105AB0000548416919B1006B18B1002070470120F9
:105AC0007047022070470000200000200148C06895
:105AD00070470000200000202DE9F0412E4C206B83
