:020000040800F2
:10000000280D0020A1010008B31C0008491A0008AF
:10001000B11C0008F90300087B3200080000000052
:10002000000000000000000000000000C31C0008E9
:100030002905000800000000C11C0008C51C0008BC
:10004000BB010008BB010008BB010008BB010008A0
:10005000BB010008BB010008BB010008BB01000890
:10006000BB010008BB010008BB010008BB01000880
:10007000BB010008BB010008BB010008BB01000870
:10008000BB010008BB010008BB010008BB01000860
:10009000BB010008BB010008BB010008BB01000850
:1000A000BB010008BB010008BB010008BB01000840
:1000B000BB010008BB010008BB010008BB01000830
:1000C000BB010008BB010008BB010008BB01000820
:1000D000BB010008BB010008BB010008BB01000810
:1000E000BB010008BB010008BB010008BB01000800
:1000F000BB010008BB010008BB010008BB010008F0
:10010000BB010008BB010008BB010008BB010008DF
:10011000BB010008BB010008BB010008BB010008CF
:10012000BB010008BB010008BB010008BB010008BF
:10013000BB010008BB010008BB010008BB010008AF
:10014000BB010008BB010008BB010008B51C00088A
:10015000BB010008BB010008BB010008BB0100088F
:10016000BB010008BB010008BB010008BB0100087F
:10017000BB010008BB010008BB0100080000000033
:10018000BB010008BB010008DFF810D000F08EF8BA
:10019000004800470D330008AFF30080280D002011
:1001A0000648804706480047FEE7FEE7FEE7FEE711
:1001B000FEE7FEE7FEE7FEE7FEE7FEE7511D00086B
:1001C000890100082DE9F05F0546002092469B4614
:1001D00088460646814640241BE02846414647465D
:1001E000224600F053F853465A46C01A914110D3A4
:1001F00011461846224600F03AF82D1A67EB01081E
:100200004F4622460120002100F031F817EB00098B
:100210004E41201EA4F10104DFDC484631462A4647
:100220004346BDE8F09F40EA01039B0703D009E085
:1002300008C9121F08C0042AFAD203E011F8013BD2
:1002400000F8013B521EF9D27047D2B201E000F82B
:10025000012B491EFBD270470022F6E710B513466A
:100260000A4604461946FFF7F0FF204610BD202A33
:1002700004DB203A00FA02F1002070479140C2F1FD
:10028000200320FA03F3194390407047202A04DB2F
:10029000203A21FA02F00021704721FA02F3D040FF
:1002A000C2F120029140084319467047064C074DA1
:1002B00006E0E06840F0010394E807009847103436
:1002C000AC42F6D3FFF764FFC0330008E033000808
:1002D000464910B54A6822F440324A604A68436889
:1002E0001A434A6001684A6822F480724A600168D1
:1002F0004A68036942EA03224A6001684A6822F0B8
:1003000040724A6001684A6883681A434A6001681B
:100310008A6822F400628A6001688A68C3681A43A6
:100320008A60816A6FF07062D14201688A6822F047
:1003300070628A6001688A680CD0836A1A438A6096
:1003400001688A6822F040528A6001688A68C36A3C
:100350001A4301E022F040528A6001688A6822F064
:1003600002028A6001688A68037E42EA43028A6068
:1003700090F82010002901684A680FD042F400620A
:100380004A6001684A6822F460424A6001684A682B
:10039000174C436A04EB43331A4301E022F4006232
:1003A0004A600168CA6A22F47002CA620168CA6AB5
:1003B000838B104C04EB03531A43CA6201688A68AA
:1003C00022F400728A6001688A6890F8303042EA4C
:1003D00043228A6001688A6822F480628A60016828
:1003E0008A68406942EA8020886010BD002301408D
:1003F00000E0FFFF0000F0FFFEE7000070B50546DB
:10040000D0F87C03C46994F84E0003281BD004285C
:1004100018D1217B284602F059F9012812D1217BFD
:10042000284602F03EF9A16A814214D0628B8242D2
:1004300011D2091AA162216A084420625FF0030008
:1004400084F84E0070BD237B628B2846216A01F040
:10045000A9FC0420F4E7002084F84E00284601F0AF
:1004600005FE70BDF8B50646D0F87C030125C469C9
:1004700094F84D0001280AD0022807D1617B30464C
:1004800002F024F9012811D002281AD0F8BD228BDD
:10049000606A0095637B904200D882B23046E16981
:1004A00001F090FC022084F84D00F8BD208B626AB8
:1004B0000021824208D9121A6262E3691844E0619D
:1004C00003D084F84D50F8BD616284F84D10304679
:1004D00001F0CFFDF8BD000010B500224FEA020187
:1004E00000EB8203521CC3F884130F2AF8D30022B6
:1004F0004FF400738418521C84F81C119A42F9D3EB
:100500000170417001228270C0F8C413027640234A
:100510008371417680F81C1380F81D2380F81F1327
:1005200080F81E13002010BD70477047A12202748E
:10053000212242740022428282820722C28201F07A
:10054000BCBD000078B50024009490F83C20012A3E
:1005500019D0012280F83C200A6807230568092A7F
:1005600013D9EE680A3A02EB420293409E43EE60D2
:100570000B788A680A3B03EB43039A400368DD6803
:100580002A43DA6010E0022078BD2E6902EB4202B5
:1005900093409E432E610B788A6803EB43039A4095
:1005A00003681D692A431A614A681F23072A13D268
:1005B00005686E6B521E02EB820293409E436E638F
:1005C0000B790A885B1E92B203EB83039A4003689F
:1005D0005D6B2A435A6327E005680D2A12D22E6B01
:1005E000D21F02EB820293409E432E630B790A884E
:1005F000DB1F92B203EB83039A4003681D6B2A430F
:100600001A6311E0EE6A0D3A02EB820293409E43B8
:10061000EE620B790A880D3B92B203EB83039A409A
:100620000368DD6A2A43DA62164B0568144A9D4264
:1006300006D10D68122D03D1556845F4800555602B
:1006400005689D4218D10B68102B01D0112B13D1D6
:10065000536843F400035360096810290CD10A4918
:100660000A4A0968B1FBF2F101EB8101490000E09F
:10067000491E00910029FBD180F83C40002078BD44
:1006800000230140002001401800002040420F00DC
:100690000068C06C704770B504004FF0000503D0CF
:1006A000206C002610B107E0012070BD204600F04C
:1006B0001DF8666484F83C60206CC00610D4206C81
:1006C00020F4885040F0020020642046FFF700FE2E
:1006D0006664206C20F0020040F00100206400E01D
:1006E000012584F83C60284670BD000010B586B036
:1006F000044614216846FFF7AFFD1149206888427F
:100700001CD110480021026842F480720260006827
:1007100000F4807005900B481438026842F0010222
:100720000260006800F001000590012000900320A5
:10073000CDE901016946044800F090F806B010BD0B
:1007400000200140443802400000024018B500215A
:10075000009190F83C20012A07D0012280F83C202B
:1007600002689368DB0702D011E0022018BD93688D
:1007700043F0010393602A4A2A4B1268B2FBF3F25A
:1007800002EB420200E0521E0092002AFBD10268F6
:100790009368DB0741D0036C40F20164A34343F448
:1007A0008073036453685B0505D5036C23F4005321
:1007B00043F480530364036CDB0404D5436C23F0DF
:1007C0000603436400E0416480F83C1016496FF072
:1007D0002203136049680068CA06144906D088429B
:1007E0001BD1816811F0405F13D016E08842F8D029
:1007F0000F4A904203D1D1F80423D206F1D00D4A1A
:1008000090420AD1D1F8041301F01F011029E8D356
:1008100003E0816841F080418160002018BD000044
:100820001800002040420F0000230140002001403A
:10083000002101400022014070B5044600F0F0F8AC
:100840000546601C02D004480078044400F0E8F833
:10085000401BA042FAD370BD0C0000202DE9F84FD8
:1008600000224FF0010803254FF00F0E0B6808FA25
:1008700002F42340A3426ED14E68012E05D0022E11
:1008800003D0112E01D0122E12D186684FEA420CED
:1008900005FA0CF7BE43CF6807FA0CF737438760B9
:1008A0004668A6430C79C4F3001494403443446072
:1008B000C668570005FA07FC8C6826EA0C06BC409F
:1008C0003443C4604C68022C01D0122C13D1D408DC
:1008D00000EB8404A346D4F8209054074FEAD46A6E
:1008E0000EFA0AF629EA06090E6906FA0AF646EA37
:1008F0000906CBF8206006680C7926EA0C0604F09D
:100900000304BC40344304604C68E40065D5364CB5
:10091000266846F480462660246822F0030604F424
:1009200080440094314C3444A446D4F808489607D7
:10093000370F0EFA07F6B4432D4EB04201D1002610
:1009400024E02C4EB04201D101261FE02A4EB042D5
:1009500002D102261AE040E0284EB04201D103261F
:1009600014E0274EB04201D104260FE0254EB042DC
:1009700001D105260AE0244EB04201D1062605E049
:10098000224EB04201D1072600E00826BE40264391
:10099000CCF808681E4E34684F689C43FF0300D5AE
:1009A0001C4334601A4C241D26684F689E43BF03C5
:1009B00000D51E432660164E083634684F689C43A7
:1009C000FF0200D51C433460114E0C3634684F686A
:1009D0009C43BF0200D51C433460521C102AFFF414
:1009E00045AFBDE8F88F00004438024000300140B8
:1009F000000002400004024000080240000C0240D7
:100A0000001002400014024000180240001C024086
:100A1000003C01400AB1816170470904FBE7000016
:100A200001488068704700000C000020D0F8C00228
:100A300001F009BED0F8C00201F00FBE006802F05C
:100A40006DB9006802F06EB901EB810100EBC100E5
:100A500090F85C00704701EB810100EBC100C06CB5
:100A6000704710B5044690F8B802012809D001205B
:100A700084F8B802206802F060F9002084F8B80217
:100A800010BD022010BD2DE9FE430546DDE90B70C7
:100A900095F8B842DDF828C0012C1CD001EB810488
:100AA0004FF0010905EBC40485F8B892002684F8DC
:100AB0003D6084F83830A4F8400084F8391084F898
:100AC0003F7002F07F0884F83A805FEA026805D53B
:100AD00084F83B9004E00220BDE8FE8384F83B608C
:100AE00084F83CC0CDF800C0CDE90170286802F060
:100AF00085F985F8B862EFE770472DE9F0030E46F7
:100B0000DDE906C9DDE9087401EB860100EBC101EE
:100B1000022581F83B2081F83F30BCF1000F0AD05C
:100B200081F8425000246BB1012B2DD0022B12D042
:100B3000032B16D10FE04FF0030881F8428081F8B3
:100B40003D40EFE7BCF1010F0BD152B9CFB9012203
:100B500081F8512003E0A2B191F85020A2B181F8B0
:100B60004250C1E9119781F85C40CC6481F839604A
:100B700081F85D40027C0068BDE8F003383102F086
:100B8000B9B991F85120E9E781F84240E9E700005E
:100B90002DE9F04104460068064602F0CAF8012833
:100BA0007ED1206802F0D5FA002879D0206802F0C2
:100BB000D0FA800203D521684FF400104861206804
:100BC00002F0C7FAC00203D521684FF480104861D3
:100BD000206802F0BEFA400103D521684FF0806022
:100BE0004861206802F0B5FA800702D5216802202A
:100BF0004861206802F0ADFA80000ED521684FF000
:100C000000504861D6F84004C00706D12046FFF7DF
:100C100011FF0121206802F081FA206802F099FAA0
:100C2000C00102D5204600F08DFE206802F091FA46
:100C3000000705D5204600F0D2F821680820486159
:100C4000206802F086FA800123D5206802F04EF970
:100C5000074600254FF0010814E000BF05F00F0122
:100C600008FA01F038420CD006EB4510D0F8000528
:100C7000E9B20004204602D500F006FC01E000F0D5
:100C80003FFD6D1CA068A842E8D821684FF00070B5
:100C90004861206802F05DFAC043C0060ED400E04F
:100CA0000CE02068816921F010018161204600F08C
:100CB00093FE2068816941F010018161BDE8F081F7
:100CC00070B58AB0040005D094F8B90225680026F2
:100CD00018B107E001200AB070BD84F8B862204660
:100CE00000F028F8032084F8B902E86BC00500D4AE
:100CF0002661206801F0BCFF04F1100128220D4696
:100D00006846FFF790FA94E80F0001F05BFF0121BD
:100D1000206802F049FA282229466846FFF783FA3C
:100D200094E80F0002F08EF9012084F8B902002047
:100D3000D1E7000030B587B0044614216846FFF7BC
:100D40008BFA2068B0F1A04F38D11D48002401680B
:100D500041F00101016000681A4D00F001000590AA
:100D60004FF40070CDE90004694628460294FFF76D
:100D700075FD4FF4E05000900220CDE901040A20F7
:100D8000CDE9034069462846FFF768FD0C48001D81
:100D9000016841F08001016009481430016841F4A4
:100DA000804101600068002200F4804005901146F7
:100DB000432000F0ABF8432000F09AF807B030BDB4
:100DC0003038024000000240D0F8C00201F0C8BC38
:100DD000D0F8C00201F0C8BC006802F0CCB9D0F86D
:100DE000C00201F077BC10B5044690F8B8020128A3
:100DF0000DD0012084F8B802206801F067FF0121BE
:100E0000206801F04DFF002084F8B80210BD0220D8
:100E100010BD10B5044690F8B802012809D0012091
:100E200084F8B802206802F0D7F9002084F8B802EC
:100E300010BD022010BD00000248816802781144F4
:100E4000816070470C0000200B4810B5016841F428
:100E500000710160016841F480610160016841F442
:100E600080710160032000F071F8002000F006F8A6
:100E700000F024F8002010BD003C024070B50D4D7C
:100E800004464FF47A712878B1FBF0F00A490968FA
:100E9000B1FBF0F000F0E4FA48B9102C07D20022C0
:100EA0002146501E00F032F800206C6070BD012019
:100EB00070BD00000C000020180000200B4882B01C
:100EC000016841F480410160006800F480400090B6
:100ED0000648001F016841F080510160006800F081
:100EE00080500090072002B000F030B84438024033
:100EF000002809DB00F01F02012191404009800019
:100F000000F1E020C0F8001170470000F0B40E4B73
:100F10001B680C46C3F30223C3F10705042D00D957
:100F20000425191D072901D2002300E0DB1E01263C
:100F300006FA05F1491E214099409E40761E164052
:100F40003143F0BC02F09AB90CED00E0064900F024
:100F5000070208684FF6FF03184040EA0220034AE0
:100F600010430860704700000CED00E00000FA0537
:100F70002DE9F0470E46050065D0DFF81481D8F85A
:100F80000000F7B200F00F00B04207D288F80070FE
:100F9000D8F8000000F00F00B04254D128683D4C52
:100FA000810712D5400703D5206840F4E050206047
:100FB0002878000703D5206840F46040206020684E
:100FC000A96820F0F000084320602878C0072DD0E1
:100FD000304968680839012812D0022813D0032844
:100FE00011D00968890700292DDA216821F0030151
:100FF00001432160FFF714FD814641F2883A0EE07B
:1010000009688903EFE709688901ECE7FFF708FD44
:10101000A0EB0901514502D90320BDE8F087206803
:10102000696800F00C00B0EB810FEFD1D8F8001028
:10103000404601F00F01B14207D90770006800F087
:101040000F00B04201D00120E7E72878400705D51E
:101050002068E96820F4E050084320602878000701
:1010600006D52068296920F4604040EAC10020606C
:1010700000F018F82168084AC1F30311515CC84018
:101080000649086006480068FFF7F8FE0020C4E73C
:10109000003C024008380240AC3300081800002031
:1010A00010000020154810B5006810F00C0214481C
:1010B00013D04110042A0FD0082A0ED10F4C241F40
:1010C0002268236802F03F025B0207D52068C0F364
:1010D0008810A0FB010106E0084610BD2168C1F39D
:1010E0008811A1FB00010023FFF76CF82168C1F310
:1010F0000141491C4900B0FBF1F010BD0838024025
:101100000024F4002DE9F84F04006ED02078DFF8B9
:101110003C93C007A9F104054AD009F10400016815
:10112000C1F38101012908D00068C0F381000228C1
:101130000AD1D9F80000400206D52868800337D5C7
:1011400060680028E1D033E06068B0F5803F10D0DF
:10115000B0F5A02F286810D020F4803028602868CF
:1011600020F4802028606068A8B1FFF759FC06468B
:101170000DE0286840F48030F4E740F480202860D7
:10118000F7E700BFFFF74CFC801B642873D8286882
:101190008003F7D50CE0FFF743FC064605E000BFEF
:1011A000FFF73EFC801B6428F0D828688003F7D442
:1011B0002078DFF89C8280074FF0000A3ED5A348D4
:1011C000001D016811F00C0F08D00068C0F3810009
:1011D00002280BD1D9F80000400207D42868800704
:1011E00016D5E068012800D112E02BE1E068B8B123
:1011F0000120C8F80000FFF713FC064605E000BF19
:10120000FFF70EFC801B0228C0D828688007F7D59E
:101210002868216920F0F80040EAC10028600DE04C
:10122000C8F800A0FFF7FCFB064604E0FFF7F8FB58
:10123000801B02281FD828688007F7D42078000771
:1012400022D5824E83486169703671B101210160F7
:10125000FFF7E6FB074604E0FFF7E2FBC01B0228AE
:1012600009D830688007F7D50EE0C0F800A0FFF776
:10127000D7FB074605E082E0FFF7D2FBC01B022840
:101280007DD830688007F7D42078400768D5DFF82C
:10129000BCB100270BF13C0BDBF80000C0000BD405
:1012A000DBF8001041F08051CBF80010DBF80000B3
:1012B000012700F080500090674E3068C00510D4C0
:1012C000306840F480703060FFF7AAFB009005E0C2
:1012D000FFF7A6FB0099401A022850D83068C005D5
:1012E000F6D55A4EA0686C3601280FD00528306814
:1012F00010D020F001003060306820F00400306031
:10130000A068B8B1FFF78CFB00900FE0306840F0A8
:101310000100F4E740F004003060F7E7FFF780FBDE
:101320000099411A41F28830814266D830688007BE
:10133000F4D50EE0FFF774FB009007E0FFF770FBB9
:101340000099411A41F28830814256D830688007AE
:10135000F4D42FB1DBF8001021F08051CBF800104D
:10136000A069C8B33949091D0968C1F3810102297F
:101370004AD00228504607D0C8F8600000E03CE0A0
:10138000FFF74EFB04463BE04746C8F86000FFF716
:1013900047FB064605E000BFFFF742FB801B022823
:1013A0002BD828688001F7D4D4E907010843A16A43
:1013B0002A4A490802EB0141626A41EA8211084364
:1013C00094F82C1040EA0161C9F800100120386639
:1013D000FFF726FB044606E036E000BFFFF720FBE0
:1013E000001B022809D828688001F7D52CE000BF2F
:1013F000FFF716FB001B022802D90320BDE8F88F77
:1014000028688001F4D41FE00128F7D0D9F8000043
:10141000E26900F48001914214D1226A00F03F0198
:1014200091420FD147F6C071626A0140914209D1E1
:10143000A26A00F44031914204D1E16A00F0706088
:10144000884201D00120D9E70020D7E704380240C4
:1014500000004742800E4742007000400000FFFF3E
:1014600010B5401EB0F1807F01D3012010BD4FF0B8
:10147000E02460610F21601701F000FF0020A061EF
:1014800007202061002010BD2DE9F05F07460068AD
:101490000E4600EB4114D4F808054FF0040942074A
:1014A00001EB86004FF0050B4FF0100807EBC0056D
:1014B00008D5C4F80895D4F80C0540F00200C4F82B
:1014C0000C0542E0D4F80805C0050DD54FF4807036
:1014D000C4F80805072085F85D00D4F80C0540F035
:1014E0000200C4F80C0517E0D4F80805800601D501
:1014F000202028E0D4F808054FF0080A00070FD58F
:10150000D4F80C0540F00200C4F80C0585F85DB075
:10151000C4F80885C4F808A5386801F00EFC14E08A
:10152000D4F80805400510D5D4F80C0540F00200A9
:10153000C4F80C05386801F000FCC4F8088585F88B
:101540005DA04FF48060C4F80805D4F80805800554
:101550000ED5D4F80C0540F00200C4F80C05314655
:1015600004F5A164386801F0E8FB4FF40070A4E0D2
:10157000D4F808054FF00001C0074FF0010242D037
:10158000386930B1A86CD4F81035C3F31203C01A0F
:10159000E86485F85D20A965C4F8082595F83F0042
:1015A00030B1022804D0032811D0012818D023E03C
:1015B000D4F80C0540F00200C4F80C05314604F5DF
:1015C000A164386801F0B9FBC4F8008014E0D4F8D5
:1015D000000540F00050C4F8000585F85C2007E0E5
:1015E00085F85C2095F8500080F0010085F85000E7
:1015F00031463846FFF780FA15F8500F80F00100A9
:101600002870BDE8F09FD4F8080580073ED5D4F8CF
:101610000C0520F00200C4F80C0595F85D000223CB
:1016200001280AD005280BD006280CD008280AD09B
:1016300003281AD007281BD01FE085F85C201CE087
:1016400085F85CB019E0A86D401CA86503280CD98A
:10165000A96585F85C9000BFD4F8000520F08040B3
:1016600040F00040C4F8000507E085F85C30F3E77F
:10167000A86D401CA86585F85C90C4F8083595F8FD
:101680005C2031463846FFF737FABAE7D4F8080548
:10169000000614D5D4F80C0540F00200C4F80C057F
:1016A000A86D3146401CA865062085F85D0004F54C
:1016B000A164386801F041FB80202060A1E7D4F8E4
:1016C0000805C0069DD595F83F00032803D020B13A
:1016D000022802D011E0A96505E0A965386960B962
:1016E000032085F85D00D4F80C0540F00200C4F832
:1016F0000C053146386801F020FBC4F8088580E706
:101700002DE9F047026802EB4114D4F808254FF0A8
:101710000403520709D5C4F80835D4F80C0540F085
:101720000200C4F80C05BDE8F087D4F8082501EBE9
:10173000810596064FF0000200EBC5054FF0020C44
:1017400015D52023C4F8083595F83D30012BEAD192
:1017500085F83D2085F85CC0D4F80C2542F00202E3
:10176000C4F80C250068BDE8F04701F0E6BAD4F8EB
:10177000086577064FF0010611D585F85D3085F8CC
:101780003D60AA65D4F80C2542F00202C4F80C258D
:10179000006804F5A16401F0D0FA402010E0D4F80C
:1017A0000875BF050ED5D4F80C2542F00202C4F826
:1017B0000C25006804F5A16401F0BFFA4FF4007035
:1017C0002060B0E7D4F80875FF070FD0AA65D4F8F9
:1017D0000C2542F00202C4F80C25006804F5A1644F
:1017E00001F0ABFA266085F85D609CE7D4F80875D7
:1017F0004FF005095FEA07784FF008070DD5C4F8E8
:101800000875D4F80C2542F00202C4F80C250068D3
:1018100001F093FA85F85D9085E7D4F808854FF0DC
:10182000100A5FEAC86818D5AA65032285F85D200A
:1018300095F83D2022B995F83C200AB985F83D601D
:10184000D4F80C2542F00202C4F80C25006804F517
:10185000A16401F072FA5046B2E7D4F808855FEA55
:1018600008680FD5D4F80C2542F00202C4F80C2504
:10187000006804F5A16401F060FA062085F85D00B7
:1018800080209DE7D4F808855FEA485812D5D4F83F
:101890000C2542F00202C4F80C25006804F5A1648E
:1018A00001F04BFAC4F800A04FF48060206085F886
:1018B0005D7038E7D4F80875BF0796D5D4F80C7575
:1018C00027F00207C4F80C7595F85D70012F0AD057
:1018D000032F17D0042F15D0052F16D0062F17D0A1
:1018E000082F15D027E085F85C6095F83F20022A84
:1018F00001D0032A1FD195F8512082F0010285F80A
:10190000512018E085F85CC015E085F85C9012E085
:10191000AE6D761CAE65032E03D9AA6585F85C30E2
:1019200001E085F85CC0D4F8002522F0804242F046
:101930000042C4F80025C4F808C595F85C20FFF7FC
:10194000DBF8F0E67CB504680546D4F84004019065
:10195000D4F8400420F02E0000900198800709D5AB
:101960000198C00702D02846FFF760F8009840F0C1
:10197000020000900198000724D5009840F008006C
:101980000090019840071AD5A869022803D0E8689A
:1019900001280CD00FE00198C0F3414002282868CC
:1019A00003D0012101F0BAFB05E00221FAE74EF66F
:1019B0006020C4F804042846FFF70AFA02E028462B
:1019C000FFF702FA01988006009802D540F0200047
:1019D0000090C4F840047CBD2DE9F0410246006847
:1019E0000646016AC1F3434301F00F07C1F30A142D
:1019F000022B25D1002C23D007EB870102EBC10578
:101A0000696C00291CD0224601F0A7FB686C2044B9
:101A10006864E86C2044E86406EB4710D0F81015C1
:101A2000084A11420CD0D0F8001521F0804141F055
:101A30000041C0F8001515F8500F80F00100287023
:101A4000BDE8F0810000F81FFEE700007FB500242C
:101A500012480094019402940F49039401604FF4DA
:101A60004031C0E9011401250461057680F8204069
:101A70000B49C0E90A14C561C46080F83040456173
:101A8000FEF709FE07200094CDE90150694603489E
:101A9000FEF758FD7FBD00000020014044000020FB
:101AA0000100000F20B1002201210248FEF7B2BF61
:101AB0000122F9E7000802402DE9F04F87B0142118
:101AC0006846FEF7C9FB60480024016841F0100138
:101AD0000160016801F010010591016841F0040105
:101AE0000160016801F004010591016841F0800185
:101AF0000160016801F080010591016841F0010178
:101B00000160016801F001010591016841F00201E5
:101B10000160016801F002010591016841F00801CE
:101B200001600068002200F0080005900821474885
:101B3000FEF770FF012211464548FEF76BFF4FF29A
:101B4000100A002251464348FEF764FF082501268B
:101B50000095CDE9016469463C480394FEF77EFE9A
:101B60000096CDE90164694639480394FEF776FE94
:101B700000950225CDE901540527CDE903476946C3
:101B80003348FEF76BFE10200090CDE901544FF072
:101B90000608DFF8C490CDE9034869464846FEF7D9
:101BA0005DFEE0200090CDE90154CDE90347694690
:101BB0004846FEF753FE4FF00409CDE90094DFF8E4
:101BC0009CB0694658460294FEF748FE68020090B1
:101BD000CDE90154CDE9034769465846FEF73EFE7C
:101BE000CDF800A0CDE9016469461A480394FEF7D8
:101BF00035FE4FF4A4500090CDE90154CDE90348DF
:101C000069461348FEF72AFE2020CDE90004694604
:101C100010480294FEF722FE4FF41070009012203C
:101C2000CDE90106CDE9034969465846FEF716FE9F
:101C30000B480095CDE9010469460448FEF70EFE05
:101C400007B0BDE8F08F00003038024000100240BD
:101C500000080240000C0240000002400004024064
:101C60000000121010B501220B490C4800F0C3FC13
:101C700008B1FEF75AFC0A49084800F045FF08B1D0
:101C8000FEF753FC054800F082FF002803D0BDE8B2
:101C90001040FEF74ABC10BDA52B00088C000020A8
:101CA0001C000020014800F01BBE00008C0000203A
:101CB000FEE770470148FEF76BBF00006404002098
:101CC00070477047FFF7B8B810B592B0302168463A
:101CD000FEF7C2FA14210CA8FEF7BEFA1A48002437
:101CE000016841F080510160006800F0805011905F
:101CF0001648016841F4804101600068602100F4E9
:101D000080401190032000904FF48030019001201A
:101D100003901020049002200690400507900420B4
:101D2000CDE908010621CDE90A106846FFF7EAF976
:101D30000F20CDE90C040E940F9400210CA81094F0
:101D4000FFF716F912B010BD403802400070004095
:101D50000548016841F47001016003494FF00060DB
:101D6000803908607047000088ED00E010B500225F
:101D70004FF6FF7300EB8204B4F8844324040BD4C1
:101D80009A4207D002F00F0300EB830041F40041B8
:101D9000C0F88413D0B210BD521CD2B20B2AE9D3C2
:101DA0001A46F7E77FB51C46012501AE00230095D2
:101DB00086E80E0002232A46214600F007FD04B003
:101DC000002070BD7FB51D4690F81D33089C03B1FF
:101DD00000240123CDE90031CDE9022402230022B1
:101DE000294600F0F3FC04B0002070BD70B5044635
:101DF000D0F87C03C16920464031FEF797FB05000F
:101E000004D1D4F8D423022120469047284670BD3F
:101E100070B50546D0F87C030026C469217839B135
:101E2000284600F027F92178284600F0ABF9267003
:101E3000217B39B1284600F01DF9217B284600F0AE
:101E4000A1F92673617B39B1284600F013F9617B53
:101E5000284600F097F96673D5F87C03C06920B175
:101E600001F02CFAD5F87C03C661002070BDFEB5E8
:101E7000022205460123114600F062F90646FF28BA
:101E800041D0022E3FD20146284600F04BFED0BB87
:101E9000502001F055FAD5F87C130446C8612000A3
:101EA00031D05021FEF7D8F906EB860000EBC600D2
:101EB00005EB400191F84E03020603D56070B1F8BE
:101EC0005003608161782846FFF750FF207001467B
:101ED00095F81D03638903228DE80D0095F81C33E6
:101EE0006278284600F083FC21780022284600F022
:101EF0004BFC00231A460A21284600F021F9FF284E
:101F000001D0022801D30220FEBD00EB800101EBCD
:101F1000C00005EB400090F84E130A0604D5E173AB
:101F2000B0F85013618303E0A173B0F8501321831C
:101F300090F856130A0604D5E173B0F8580360838D
:101F400003E0A173B0F858032083A17B2846FFF774
:101F50000DFF6073E17B2846FFF708FF2073208B9D
:101F600095F81D1302260091CDE9016095F81C3308
:101F7000A27B617B284600F03AFC608B95F81D132C
:101F80000091CDE9016095F81C33E27B217B284666
:101F900000F02DFC002084F84C000246617B2846AE
:101FA00000F0F2FB217B0022284600F0EDFB002030
:101FB000FEBD70472DE9F0410546D0F87C030127AE
:101FC0000026C4694FF0040894F84C0005284AD252
:101FD000DFE800F00305163B4200002743E0212222
:101FE000A16C2A7420226A746E82AE82072228466F
:101FF000EA8200F062F848B9022084F84C0032E02E
:1020000004F140012846FEF791FA20B101282AD0B8
:1020100084F84C8027E084F84C60A06C94F844105D
:10202000027991421FD194F84610827991421AD1D7
:1020300094F845104279914215D1216C0068814293
:1020400011D12846FFF7B5FF0DE02846FEF70AFA42
:102050002846FEF7D3F906E00021284600F00FF8E5
:1020600008B984F84C603846BDE8F081704700201C
:102070007047704710B500F0DDFA002010BD82787F
:10208000012A07D1022202740122427400224282F4
:102090008182C2820022114600F00FB87FB51C4633
:1020A000012501AE0023009586E80E002A46214650
:1020B00000F08CFB04B0002070BD70B50446012018
:1020C000A3780546012B0BD0022B08D1204600F047
:1020D00014F958B1032809D0022800D1A57070BDA9
:1020E000A160A28125760221A17070BDA57000219A
:1020F000217670BD7FB51D4690F81D33089C03B155
:1021000000240123CDE90031CDE9022400231A4641
:10211000294600F05BFB04B0002070BD1FB5002312
:102120001446CDE900310822CDE902231A462146A2
:1021300000F04CFB04B0002010BDFEF77DBB00009A
:1021400070B50546002005F54E7500BF00EB800414
:1021500004EBC00405EB4404E67B0A348E4201D054
:10216000FF2909D1A679964201D0FF2A04D1E4794A
:102170009C4206D0FF2B04D0401CC0B20228E5D3FD
:10218000FF2070BD0B2907D200EB8100B0F884134B
:10219000C1F30E01C0F884130020704730B4857875
:1021A000029C012D0FD141F0800101740621417480
:1021B00003214282B1EB122F02D140F2094100E02B
:1021C00000218182C482224630BC1946FFF775BFC8
:1021D0000A8803781A440A80017808447047F8B5E1
:1021E0000E4600F11C05009104462B464FF4007288
:1021F0000021FFF7D3FF070005D13246294604F539
:102200004E7000F0FEFA3846F8BD38B50D46009124
:10221000044600F58E734FF480720021FFF7BEFF75
:10222000002839D194F81C1184F8261394F81D1154
:1022300084F82713B4F81E11A4F8281394F8201179
:1022400084F82A1394F8211184F82B1394F822119E
:1022500084F82C1394F8231184F82D13082D1BD91E
:10226000B4F82411A4F82E13B4F82611A4F83013EE
:10227000B4F82811A4F8321394F82A1184F834130E
:1022800094F82B1184F8351394F82C1184F8361334
:1022900094F82D1184F8371338BDF8B51C4616464E
:1022A000009341F4407200F58E731D460021FFF744
:1022B00075FF002814D16978032911D129788A1E65
:1022C000A24200D814460021A2B2AD1C04E06B5C0F
:1022D000891C06F8013B89B29142F8D30021317084
:1022E000F8BD01004FF0000004D0012901D00229FF
:1022F00001D002207047012070472DE9F84F0125D9
:10230000017E04460B26092728464FF007084FF0A8
:10231000050A4FF00D090C2919D2DFE801F0B406C7
:102320000E26313C48606B7C899A627904F1100179
:102330002046FFF7F3FE022012E06179204600F00C
:10234000C5F9012804D0042871D002287FD09AE072
:10235000207CE18A00F0800021B180283AD103205E
:10236000207690E0802814D02EE0D4F8C403E081D9
:102370002379A2892046A168FFF790FE0420EFE7A9
:102380002179204600F0A2F9012802D0052840D08A
:1023900056E0277677E000906379A2892046A1680D
:1023A000FFF7A8FED4F8C403E0810620D8E76179DE
:1023B000204600F08BF9012806D0052807D0022816
:1023C00008D0042809D05EE084F818805BE00C2077
:1023D00020761EE084F818A055E0267652E0002210
:1023E000237911462046FFF759FED4F8C403E08153
:1023F0000820B5E72179204600F068F9012804D0CB
:10240000042824D0052804D03DE084F81890002545
:1024100039E0032537E00090002263791146204619
:10242000FFF768FED4F8C403E0810A2098E70EE0C5
:102430006179204600F04AF9012804D00228A8D08A
:10244000042804D01FE0002584F818901BE02676AD
:1024500019E0617E491CC9B26176022902D8207652
:10246000A07010E0D4F8D423062120469047002520
:10247000657661792046FFF785FE21792046FFF7D2
:1024800081FE257002252846BDE8F88F2DE9FE4320
:1024900004460126407800250D27B04604F58E72CB
:1024A00008280CD2DFE800F0042A3C686F86929975
:1024B00008212046FFF7A9FE10B103280DD097E0B0
:1024C00094F82D03A07184F8018094F81D130091F5
:1024D000CDE9015094F81C3338E094F81E03401CF9
:1024E000C0B284F81E03032818D861792046FFF78C
:1024F00049FE21792046FFF745FE59E0122120468A
:10250000FFF783FEA8BB022047E000BF94F81E033C
:10251000401CC0B284F81E03032840D9277067E02E
:102520000121204600F009FB10B1032822D05FE012
:102530000220FFF702FE84F81C8303206070A0795C
:1025400094F81D13CDE900154346029021798022AD
:10255000204600F04CF9A07994F81D130091CDE9C4
:10256000015094F81C3361790022204600F03FF9B5
:102570003EE00EE027702EE009212046FFF72FFEF7
:1025800038B9042009E0B4F83A132046FFF727FED3
:1025900010B10328BAD02BE00520607028E06179E3
:1025A0002046FFF7EFFD21792046FFF7EBFD657030
:1025B00025701DE094F8341306250AE0FF23204619
:1025C000FFF76BFE38B1032805D011E094F83513FE
:1025D00007250029F2D165700AE094F8361331B16D
:1025E000FF232046FFF759FE08B1032800D100263B
:1025F0003046BDE8FE8370B50E46040018D084F85E
:10260000CC230025C4F87C53C4F8805304F54874E7
:10261000FDF762FFE57025706570A570A4F548743C
:102620000EB1C4F8D463204600F064F8002070BDF9
:10263000022070BD10B5D0F8D003FEF712FABDE845
:102640001040FFF74EBE012180F82013002180F8D2
:10265000211380F822130846704710B50446012064
:1026600084F82103002084F8200384F82303204603
:1026700000F0A3F821792046FFF784FD6179204618
:10268000FFF780FD002010BD10B590F8CC030128A5
:1026900002D10846FFF706FAC820FEF7CDF8002061
:1026A00010BDD0F8D003FEF7D6B910B50124D0F88C
:1026B000D003FEF7C6F920B1012805D0022803D1C6
:1026C00001E0002400E00224204610BDD0F8D00331
:1026D000FEF7BAB9D0F8C413491CC0F8C413017886
:1026E0000B2905D1D0F87C13002901D0896908474E
:1026F0007047000010B5044690F8CC0301281CD1A7
:102700000F484FF0A0410022C0F8C042C4F8D003E7
:102710000160082181600121C0E903120221C0E9A2
:102720000612FEF7CDFA08B1FDF7FFFE0448FEF7EA
:1027300085F90146204600F024F8002010BD000075
:1027400064040020FEB508AF97E870008DE87000C3
:10275000D0F8D003FEF797F9BDE8FE40FFF7C1BD02
:10276000002180F823137047012180F8231370475C
:1027700010B5D0F8D003FEF72FFBBDE81040FFF7EF
:10278000B0BDC0F8C4137047D0F8D00301EB81018D
:1027900000EBC10090F83B1011B180F8502001E02F
:1027A00080F851200020704710B5D0F8D003FEF714
:1027B0001AFBBDE81040FFF794BD10B5D0F8D00368
:1027C000FEF727FBBDE81040FFF78BBD2DE9FF4169
:1027D0000DF1280898E8F0008DE8F000D0F8D0035B
:1027E000FEF78BF904B0BDE8F041FFF77ABDFEB506
:1027F00008AF97E870008DE87000FFF7A3FF002096
:10280000FEBD2DE9F84105460B782B704B786B70B7
:102810004B886B800B792B714B796B718B79AB711A
:10282000CB790846EB710027097A2972092A54D915
:102830000921ADF800104BE06946FFF7C9FC41786B
:10284000042943D107EB870101EBC70105EB4108E0
:10285000017888F80A10417888F80B10817888F898
:102860000C10C17888F80D10017988F80E104179A4
:1028700088F80F10817988F81010C17908F10A04DE
:1028800088F81110017A2172002615E06946FFF7D9
:102890009FFC417805290FD108EBC60102780A7523
:1028A00042784A7582788A75C278CA7582880A83A6
:1028B0008279761C8A76F6B22179B14204D96A8887
:1028C000BDF800108A42E1D87F1CFFB2022F04D26B
:1028D0006988BDF800209142AED8BDE8F8810000BB
:1028E000FEB5022104468DF8001094F82123002043
:1028F000012A01D10322227022780D260827002503
:102900000C2A17D2DFE802F0061734DEF869C27C21
:10291000848C9AD794F8200300280BD001202070D3
:10292000C820FFF70AFC2046FFF722FF84F81C535B
:10293000C4F8C853E0E094F8230301280DD0D4F87C
:10294000C803B0F57A7F0CD994F81F03401CC0B2BD
:1029500084F81F03032870D86DE084F81F5321709A
:10296000CAE00A30C4F8C8030A20FFF7E6FBC3E058
:10297000D4F8D42312B10421204690476420FFF7F5
:10298000DCFB2046FFF791FE84F81D030520207034
:1029900000212046FFF7EAF9607180212046FFF709
:1029A000E5F920710146A07994F81D230092CDE944
:1029B000015094F81C3380222046FFF718FFA079BD
:1029C00094F81D130091CDE9015094F81C336179FE
:1029D00000222046FFF70BFF8EE02046FFF756FD52
:1029E0008DF800009DF80000002808D184F82453D9
:1029F00094F83703012801D0072058E027707BE0C6
:102A0000D4F8D423002A77D0012120469047F5E757
:102A100094F83D13204600F09EF8B0BB092046E034
:102A200094F83F034FF00A05800604D501212046A3
:102A300000F09FF848BB25705EE03AE0D4F88013C0
:102A400019B3C4F87C5394F8471300BF04EB800219
:102A5000D2F8782312798A4206D104EB8000D0F8AC
:102A60007803C4F87C0304E0401C10F0FF00EDD0B4
:102A70002846F0B1816820468847D0B906202070EA
:102A8000D4F8D42303212046904735E0D4F87C03C2
:102A900078B10169204688478DF800009DF8000054
:102AA00020B19DF80000022803D025E00B20207003
:102AB00022E0267020E0D4F87C03E8B1416920468A
:102AC000884719E084F821532046FDF705FDD4F826
:102AD0007C0320B1C16820468847C4F87C53D4F8F1
:102AE000D42312B105212046904794F822030128EF
:102AF00004D02046FFF758FE0020FEBD84F8225384
:102B0000204600F044F8F7E7002211B1D0F88033F6
:102B100013B10222104670470123C0F88033C0F879
:102B20007813F7E70246002092F83C338B4202D933
:102B300082F824137047022070478278012A06D158
:102B4000002202740523437441828282C2820022E1
:102B50001146FFF7B2BA8278012A06D10022027428
:102B60000923437441828282C28200221146FFF708
:102B7000A4BA8278012A06D1002202740323437486
:102B800041828282C28200221146FFF796BA10B5B6
:102B90000446FFF709FE01212046FFF775FD0020DE
:102BA00010BD000001290AD00548022906D00429D9
:102BB00003D0052903D1032100E0012101707047F2
:102BC0000400002070B5044606990A9E049D0D98E5
:102BD000012916D0E06840F04000E060204600F097
:102BE0002BF8A16B1EB321F48031A163012D07D115
:102BF000A16841F00601A160A16841F02001A16037
:102C000070BDA16B21F48031A163E168094A1140D4
:102C1000E160E16821F44011E160012803D1E0683E
:102C200040F48010E060204600F006F8DEE741F452
:102C30008031DAE7BFFFBDFF01220C4902E0521CE0
:102C40008A420BD80369002BF9DA026942F00102CB
:102C50000261012204E0521C8A4201D9032070471C
:102C60000369DB07F7D1002070470000400D030027
:102C7000816821F0010181600020704700EB411064
:102C8000064AC0F81025D0F8001521F0804141F027
:102C90000041C0F8001500207047000000000880C7
:102CA00008B5D0F8402422F02E020092D20405D4B8
:102CB000012909D1009941F4805103E021B900991B
:102CC00021F48051C0F84014002008BD816841F013
:102CD0000101816000207047002110220261054A35
:102CE000491C914201D9032070470369DB06F7D4E0
:102CF00000207047400D03000022202343EA811189
:102D000001610549521C8A4201D9032070470369B9
:102D10009B06F7D400207047400D0300D0F808044C
:102D200080B2704708B5D0F840040090C0F341402D
:102D300008BD406900F00100704700EB4111D1F877
:102D400000254FF47A73C2F381426AB1022A0BD094
:102D5000D1F8002542F08042C1F80025D0F81004D7
:102D600010F47F0F2ED009E0D1F8002542F0804208
:102D7000C1F80025C06A10F47F0F07D0D1F8000514
:102D800040F00040C1F8000500207047D1F8000570
:102D900020F00040C1F80005D1F8000540F00040E7
:102DA000C1F80005D1F8000520F40040C1F8000585
:102DB000012002E0401C9842E6D8D1F80025002A04
:102DC000F8DBE1E7D1F8000520F00040C1F800058C
:102DD000D1F8000540F00040C1F80005D1F8000529
:102DE00020F40040C1F80005012002E0401C984298
:102DF000CAD8D1F80025002AF8DBC5E72DE9F04351
:102E00000026DDE9078500EB4114771EDDF82490EC
:102E1000C4F80875CDB1012D32D0022D15D0032D87
:102E200027D00126D0F8187401F00F0C012101FA07
:102E30000CF10F43C0F81874816941F00071816191
:102E400010062AD54FF4004028E040F29D47C4F810
:102E50000C75170605D500BFD4F80C7547F48077BC
:102E600018E0C76BFF05DDD5D4F80C7547F0600797
:102E700010E040F29D67C4F80C751706ECD4D1E75A
:102E800040F22527C4F80C751706CBD5D4F80C757D
:102E900047F4C077C4F80C75C4E70020B8F1020FFE
:102EA00018D000214FF0FE5707EA83534FF4F04744
:102EB00007EAC22213434FF4402202EA8542134339
:102EC000C9F30A02134303430B43C4F80035032D2F
:102ED00003D008E04FF40031E4E7D4F8000540F0F7
:102EE0000050C4F800053046BDE8F083D0F8140463
:102EF00080B27047F8B54C78C56B4FF48073ED0520
:102F00004FF0000715D50D799DB912B1012A07D0F0
:102F10000FE04D79012D0CD12146FFF7AFFE8CE07B
:102F200000EB4415D5F80C6526F06006C5F80C6575
:102F30004F710E695EB10D892E44761EB6FBF5F613
:102F4000B6B29E4204D91E462B020B6100E0012658
:102F5000CB78CBB30B897343C1F810306FF0604569
:102F6000C3F3120305EAC6452B438D7A4FF0C046E2
:102F700006EA45752B4300EB44140546C4F81035AA
:102F800012B1CB68C4F81435D5F80834D4F800551C
:102F900043F3000325F00055C4F80055D4F800555C
:102FA0005B1C45EA4373C4F80035D4F80055244B44
:102FB0001D601D6825F080451D60CD78002D1D68C1
:102FC00005D045F4004504E0FFE70B69C6E725F4AA
:102FD00000451D601D6845F000451D601B68C4F874
:102FE000003552BBCA7842BB0A6932B3CB7933B1E0
:102FF000012B0FD0022B02D0032B17D10AE0D21CD9
:10300000C36AC2F38F029BB293420FD2826942F02D
:1030100020020AE0D21CD0F81034C2F38F029BB217
:10302000934203D2826942F08062826100970A8AE9
:1030300093B24A78C96800F00EF90020F8BD00008C
:10304000080000202DE9F0410025DDF81880174622
:103050000446C0F8005E806B40F40010A063A06BD3
:1030600020F40020A063A06B20F48020A063E06B1C
:10307000C00501D5012B04D0D4F8000420F00401D0
:1030800003E0D4F8000440F004012046C4F8001422
:103090001021FFF731FE2046FFF71EFE0020461EDE
:1030A00007E000BF04EB4011C1F80865C1F80C55FA
:1030B000401C8742F6D801212046FFF7F1FDC820C9
:1030C000FDF7BAFBA5616661E06BC00506D54FF45C
:1030D000007060620C48A0620C4804E080206062CE
:1030E0000B48A0620B48C4F80001B8F1000F03D1EF
:1030F000A06940F01000A061A06907490843A061E1
:103100000020BDE8F0810000000200010003E000A3
:1031100080006000E0004000080020A3D0F80024F8
:1031200022F00302C0F80024D0F8002401F00303C9
:103130001A43C0F80024012902D0022903D006E076
:103140004BF6803101E041F27071C0F804140020A8
:1031500070474169806908407047D21C10B59308D8
:10316000002200F5805002E00468521C10C19A420F
:10317000FAD3084610BD38B50446D0F8400420F014
:103180002E00009040F48070C4F84004642004F5E0
:103190008864FDF751FB009820F4807020600A20BD
:1031A000FDF74AFB002038BD10B5C26822F0C042CE
:1031B000C260012902D029B1012010BDC16841F0CF
:1031C000005102E0C16841F08041C1603220FDF74A
:1031D00033FB002010BD000030B504468068002598
:1031E00020F00100A06010212046FFF785FD204659
:1031F000FFF772FD5FF0000004EB4011D1F80025ED
:1032000022F0802242F08042C1F80025401C0F28A5
:10321000F2D900204FF47A7304EB4011D1F8002565
:1032200022F4004242F04042C1F800256D1C9D424C
:1032300003D8D1F80025002AF8DB401C0F28EBD971
:103240004FF0FF30C4F814046061A06840F0010042
:10325000A060002030BD10B5029C64B9DB1C9C0846
:1032600000EB0230002300F5805002E004C9026048
:103270005B1CA342FAD3002010BDFEE70907090E2C
:10328000002804DB00F1E02080F80014704700F013
:103290000F0000F1E02080F8141D704702E008C81C
:1032A000121F08C1002AFAD170477047002001E0C0
:1032B00001C1121F002AFBD17047000010B5002881
:1032C00021D0114B0022001F196803E0814203D86E
:1032D0000A4649680029F9D152B11368841A9C4200
:1032E00004D1006818441060104602E0506000E00D
:1032F000186039B102680B1A934203D10B681A4463
:1033000002604968416010BD3C000020FDF79CFD53
:10331000FEF7DAFCFEF7D0FBFEF798FBFEF7A2FC07
:103320000548FDF713FA054CFEF7BCFC0248FDF713
:10333000AFF92060F8E70000440000200000002002
:10334000F0B50B30154D20F007010024144A0FE0B2
:1033500003688B420BD38B4205D95E1A431847682A
:10336000C3E9006700E04368136002C004E0021D87
:1033700010680028ECD12046002802D1286808B146
:103380000020F0BD064A07481060074A121A22F0D2
:103390000702C0E9002401202860D7E74000002090
:1033A0003C0000202C07002028090020000000001D
:1033B000000000000102030406070809434443001B
:1033C000E033000800000020440000009C320008A8
:1033D0002434000844000020E40C0000AC32000853
:1033E00000000000000000000000000001000000DC
:1033F00010000000000000000024F400BC330008AE
:10340000020000006F1E0008111E0008ED1D0008DC
:10341000B51F00086F200008000000000000000039
:0434200000000000A8
:040000050800018965
:00000001FF
