:020000040800F2
:10000000A0040020A10100085518000815170008D9
:1000100051180008AD020008351900080000000062
:100020000000000000000000000000005B18000855
:10003000F102000800000000591800085D180008CF
:10004000BB010008BB010008BB010008BB010008A0
:10005000BB010008BB010008F5020008BB01000855
:10006000BB010008BB010008BB010008BB01000880
:10007000BB010008BB010008BB010008BB01000870
:10008000BB010008BB010008BB010008BB01000860
:10009000B1020008E1020008BB010008BB01000832
:1000A000BB010008BB010008BB010008BB01000840
:1000B000BB010008BB010008BB010008BB01000830
:1000C000BB010008BB010008BB010008BB01000820
:1000D000BB010008BB010008BB010008BB01000810
:1000E000BB010008BB010008BB010008BB01000800
:1000F000BB010008BB010008BB010008BB010008F0
:10010000BB010008BB010008BB010008BB010008DF
:10011000BB010008BB010008BB010008BB010008CF
:10012000BB010008BB010008BB010008BB010008BF
:10013000BB010008BB010008BB010008BB010008AF
:10014000BB010008BB010008BB010008BB0100089F
:10015000BB010008BB010008BB010008BB0100088F
:10016000BB010008BB010008BB010008BB0100087F
:10017000BB010008BB010008BB0100080000000033
:10018000BB010008BB010008DFF810D000F07CF8CC
:100190000048004791190008AFF30080A004002038
:1001A0000648804706480047FEE7FEE7FEE7FEE711
:1001B000FEE7FEE7FEE7FEE7FEE7FEE719190008A7
:1001C000890100082DE9F05F0546002092469B4614
:1001D00088460646814640241BE02846414647465D
:1001E000224600F041F853465A46C01A914110D3B6
:1001F00011461846224600F028F82D1A67EB010830
:100200004F4622460120002100F01FF817EB00099D
:100210004E41201EA4F10104DFDC484631462A4647
:100220004346BDE8F09FD2B201E000F8012B491E21
:10023000FBD270470022F6E710B513460A46044683
:100240001946FFF7F0FF204610BD202A04DB203AB4
:1002500000FA02F1002070479140C2F1200320FA19
:1002600003F3194390407047202A04DB203A21FA17
:1002700002F00021704721FA02F3D040C2F12002BF
:100280009140084319467047064C074D06E0E06868
:1002900040F0010394E8070098471034AC42F6D3CD
:1002A000FFF776FF041A0008241A000800BFFEE7D3
:1002B00010B5074800F03CFA064B074A00210448F5
:1002C00000F079F90348007800030449086010BD84
:1002D000180000200100002058000020140C0240EB
:1002E00010B5024800F024FA10BD000018000020EC
:1002F0007047000010B50121094800F09BFD50B186
:1003000008480078401C07490870074B0A4607490F
:10031000074800F012F8012000F07CFC10BD00003E
:1003200000000240000000200400002040000020E7
:100330001800002072B600BFFEE7F0B504460D4677
:100340001E4694F8207020688368A86800B900E011
:1003500000BF012F01D0022F7CD103F0806030B9A3
:1003600003F0006018B903F08050002873D0C3F385
:100370000161022905D9606A40F400006062012031
:10038000F0BD012088403060A86860B9B5F800C0B1
:10039000E86840EA4C5C206800F5C07000EB011092
:1003A000C0F800C00FE0D5E901C040EACC00D5F8A4
:1003B0000CC040EA0C00D4F800C00CF5C07C0CEB7B
:1003C000011CCCF80000D5F810C0206800F5C07002
:1003D00000EB0110C0F804C0287D01280ED1206870
:1003E00000F5C07000EB0110406840F4807C20688C
:1003F00000F5C07000EB0110C0F804C0D079000611
:1004000092F806C040EA0C4092F805C040EA0C2C75
:1004100010794CEA000C206800F5C07000EB011068
:10042000C0F80CC0D078000692F802C040EA0C4038
:1004300092F801C040EA0C2092F800C040EA0C009B
:10044000D4F800C00CF5C07C0CEB011CCCF8080003
:10045000206801E016E00FE000F5C07000EB01102D
:10046000006840F0010C206800F5C07000EB01103E
:10047000C0F800C0002083E7606A40F400106062AA
:1004800001207DE7606A40F480206062012077E708
:10049000F0B504460A46216894F82050012D01D099
:1004A000022D7ED1424901F50071086840F001003B
:1004B0000860086820F47C5008600868566A40EAC2
:1004C00006200860107D00F01F06012000FA06F3E8
:1004D000C8699843C861A1F50071D069C8B9D1F85D
:1004E0000C029843C1F80C02908880B2968940EAC9
:1004F000064601F51070576940F83760108880B2E1
:10050000168940EA064601F51070576900EBC700EE
:100510004660D069012819D1D1F80C021843C1F8FE
:100520000C02908880B2168840EA064601F51070E9
:10053000576940F83760908980B2168940EA0646CC
:1005400001F51070576900EBC7004660906928B943
:10055000D1F804029843C1F8040204E0D1F804027F
:100560001843C1F80402106928B9D1F8140298435D
:10057000C1F8140204E0D1F814021843C1F81402BF
:10058000106A012804D1D1F81C021843C1F81C02DA
:10059000D1F8000220F00100C1F800020020F0BDF7
:1005A000FFE7606A40F4802060620120F7E7000006
:1005B00000640040704770B5044694F82050012D47
:1005C00001D0022D7DD151B92068C06800F0030030
:1005D00080B9606A40F400106062012070BD20683C
:1005E000006900F0030028B9606A40F400106062FE
:1005F0000120F3E7206800F5D87000EB01100068D7
:1006000000F004009060906840B9206800F5D87050
:1006100000EB01100068400D106007E0206800F555
:10062000D87000EB01100068C0085060206800F529
:10063000D87000EB0110006800F00200D060206864
:1006400000F5D87000EB0110406800F00F00106159
:10065000206800F5D87000EB0110406800F47F407E
:10066000000A9061206800F5D87000EB0110406826
:10067000000C5061206800F5D87000EB0110806814
:100680001870206800F5D87000EB0110806800F445
:100690007F40000A5870206800F5D87000EB011008
:1006A000806800F47F00000C9870206800F5D87016
:1006B00000EB01108068000ED870206800F5D8703B
:1006C00000E02FE000EB0110C0681871206800F511
:1006D000D87000EB0110C06800F47F40000A587128
:1006E000206800F5D87000EB0110C06800F47F00AE
:1006F000000C9871206800F5D87000EB0110C068FC
:10070000000ED87131B92068C06840F0200026681A
:10071000F06005E02068006940F020002668306144
:1007200000205BE7606A40F480206062012055E7AA
:100730002DE9F05F04460025206846692068D0F85E
:100740000490206887682068D0F80CA02068D0F852
:1007500010B02068D0F8188006F00100002855D0AD
:1007600007F00100C0B101202168886007F0020095
:1007700018B1204600F047FA0EE007F0040010B16F
:1007800045F4006508E007F0080010B145F4805515
:1007900002E0204600F036FA07F48070C8B14FF44A
:1007A00080702168886007F4007018B1204600F05E
:1007B0002CFA0EE007F4806010B145F4005508E013
:1007C00007F4006010B145F4804502E0204600F0D7
:1007D0001BFA07F48030C8B14FF48030216888607C
:1007E00007F4003018B1204600F011FA0EE007F4CB
:1007F000802010B145F4004508E007F4002010B156
:1008000045F4803502E0204600F000FA06F00800CA
:1008100038B10AF0100020B145F4007510202168AD
:10082000C86006F0040040B10AF0080028B10820B2
:100830002168C860204600F0B1F906F0020038B126
:100840002068C06800F0030010B1204600F0A7F94E
:1008500006F0400038B10BF0100020B145F480657F
:1008600010202168086106F0200040B10BF008005C
:1008700028B1082021680861204600F091F906F0AF
:10088000100038B12068006900F0030010B1204664
:1008900000F087F906F4003040B109F0100028B1EB
:1008A000102021684860204600F07CF906F4803072
:1008B00040B109F0080028B10820216848602046AE
:1008C00000F0A6F906F4004088B309F0040078B3FC
:1008D00006F4807020B108F0010008B145F0010570
:1008E00006F4007020B108F0020008B145F00205DE
:1008F00006F4806020B108F0040008B145F004055A
:1009000006F40060A0B108F0700088B108F0700033
:10091000402817D006DC10280BD020280CD0302817
:1009200019D10CE0502810D0602814D110E01DE03F
:1009300019E045F008050FE045F010050CE045F022
:10094000200509E045F0400506E045F0800503E09C
:1009500045F4807500E000BF00BF2068806920F08A
:100960007000216888610420216848602DB1606AA8
:10097000284360622046FFF71DFEBDE8F09F70B57A
:1009800004460CB9012070BD94F8200010B920462F
:1009900000F0B0F82068006820F0020021680860CC
:1009A00000F056FA05460DE000F052FA401B0A2806
:1009B00008D9606A40F400306062052084F82000A5
:1009C0000120E0E72068406800F002000028EBD139
:1009D0002068006840F001002168086000F038FAE3
:1009E00005460DE000F034FA401B0A2808D9606A79
:1009F00040F400306062052084F820000120C2E746
:100A00002068406800F001000028EBD0207E01281B
:100A100006D12068006840F080002168086005E089
:100A20002068006820F0800021680860607E01284E
:100A300006D12068006840F040002168086005E0A9
:100A40002068006820F0400021680860A07E01282E
:100A500006D12068006840F020002168086005E0A9
:100A60002068006820F0200021680860E07E0128EE
:100A700006D12068006820F010002168086005E0B9
:100A80002068006840F0100021680860207F01287D
:100A900006D12068006840F008002168086005E081
:100AA0002068006820F0080021680860607F012845
:100AB00006D12068006840F004002168086005E065
:100AC0002068006820F0040021680860D4E9020171
:100AD000084321690843616908436168491E084366
:100AE0002168C86100206062012084F82000002095
:100AF00049E7000010B586B00446142101A8FFF7AD
:100B000099FB23492068884240D100BF0020009013
:100B10002048006840F000701E49086008460068E0
:100B200000F00070009000BF00BF00BF00200090E8
:100B300018481038006840F0020016491039086063
:100B40000846006800F00200009000BF00BF4FF4AC
:100B50004070019002200290002003900220049037
:100B60000920059001A90C4800F062F8022200213A
:100B7000142000F0FBF9142000F0E8F900221146DF
:100B8000152000F0F3F9152000F0E0F906B010BDD3
:100B90000064004040380240000402407047704743
:100BA00070477047704770B5044694F820000128DC
:100BB00022D1022084F820002068006820F0010083
:100BC0002168086000F044F905460DE000F040F9A6
:100BD000401B0A2808D9606A40F400306062052092
:100BE00084F82000012070BD2068406800F00100FA
:100BF0000028EBD16062F6E7606A40F40020606292
:100C00000120F0E7704770477047704770477047A2
:100C10007047704710B5044604480068204020B172
:100C2000024804602046FFF7F4FF10BD143C014069
:100C3000F8B502460B460025002400200021DEE026
:100C4000012606FA01F51E6806EA0504AC4275D1D4
:100C50001E7906F00306012E04D01E7906F0030665
:100C6000022E13D190684F000326BE40B0434F00C0
:100C7000DE68BE4030439060506801268E40B0432D
:100C80001E79C6F300168E40304350601E7906F080
:100C90000306032E09D0D0684F000326BE40B043A0
:100CA0004F009E68BE403043D0601E7906F00306B8
:100CB000022E13D1CF0802F1200656F827004E0766
:100CC000F70E0F26BE40B0434F07FF0E1E69BE4011
:100CD0003043CF0802F1200646F8270010684F0085
:100CE0000326BE40B0431E7906F003064F00BE4007
:100CF000304310605E6806F08056B6F1805F7DD1AB
:100D000000BF00260096404E366846F480463E4FAF
:100D10003E603E46366806F48046009600BF00BF3F
:100D20003A4E8F0856F827008E07370F0F26BE4021
:100D3000B043374EB24202D1002624E05EE0354E89
:100D4000B24201D101261EE0334EB24201D1022649
:100D500019E0324EB24201D1032614E0304EB242C5
:100D600001D104260FE02F4EB24201D105260AE040
:100D70002D4EB24201D1062605E02C4EB24201D1E1
:100D8000072600E008268F073F0FBE4030431F4E66
:100D90008F0846F82700264E3068A0435E6806F4A8
:100DA0008036B6F5803F00D12043214E3060361D9D
:100DB0003068A0435E6806F40036B6F5003F00D107
:100DC00020431B4E361D3060361D3068A0435E68E0
:100DD00006F48016B6F5801F00D12043144E083665
:100DE0003060361D3068A0435E6806F40016B6F524
:100DF000001F00D120430E4E0C363060491C1029D4
:100E0000FFF41EAFF8BD000044380240083801402E
:100E1000000002400004024000080240000C0240B2
:100E2000001002400014024000180240001C024062
:100E3000003C0140024613690B400BB1012000E069
:100E4000002070470AB1816101E00B0483617047A3
:100E5000014800687047000008000020034800684F
:100E600003490978084401490860704708000020D8
:100E70001000002010B50D48006840F400700B49C8
:100E800008600846006840F4806008600846006812
:100E900040F480700860032000F0A6F8002000F005
:100EA00007F800F02BF8002010BD0000003C0240C5
:100EB00070B504460E4800784FF47A71B1FBF0F03B
:100EC0000C490968B1FBF0F5284600F009FC08B1AF
:100ED000012070BD102C07D200222146501E00F0C8
:100EE00045F80548046001E00120F2E70020F0E742
:100EF00010000020140000200C00002008B500BFE6
:100F0000002000901048006840F480400E490860BE
:100F10000846006800F48040009000BF00BF00BF9A
:100F200000200090081F006840F08050091F0860F2
:100F30000846006800F08050009000BF00BF072006
:100F400000F052F808BD000044380240014608464F
:100F5000002809DB00F01F0301229A4043099B008F
:100F600003F1E023C3F8002100BF70472DE9F05FD3
:100F700080460D461646002700F0DEFC074639463F
:100F80002A46334601F00700C0F1070ABAF1040F00
:100F900002D94FF0040A01E0C0F1070AD14600F17E
:100FA000040ABAF1070F02D24FF0000A01E0A0F1E3
:100FB000030AD4464FF0010A0AFA09FAAAF1010A13
:100FC0000AEA020A0AFA0CFA4FF0010B0BFA0CFBC0
:100FD000ABF1010B0BEA030B4AEA0B042146404636
:100FE00000F0B2FCBDE8F09F00BF00F00702064B26
:100FF00019684FF6FF031940044B0B4343EA0221E3
:10100000014B196000BF70470CED00E00000FA05CD
:1010100070B504460D460CB9012070BD58480068F3
:1010200000F00700A84209D255490D700846006833
:1010300000F00700A84201D00120EEE7207800F080
:10104000020002281DD1207800F00400042805D1F8
:101050004C48006840F4E0504A490860207800F0AD
:101060000800082805D14748006840F46040454919
:1010700008604448006820F0F000A1680843414936
:101080000860207800F00100A8B36068012807D14B
:101090003C4808380068C0F34040B8B90120BCE7BC
:1010A0006068022802D06068032807D135480838F4
:1010B0000068C0F3406048B90120AEE73148083805
:1010C0000068C0F3400008B90120A6E72D48006879
:1010D00020F00300616808432A490860FFF7B8FE62
:1010E000064609E0FFF7B4FE801B41F288318842D2
:1010F00002D9032091E707E02248006800F00C00C5
:101100006168B0EB810FEDD11D48006800F0070069
:10111000A84209D91A490D700846006800F0070076
:10112000A84201D0012078E7207800F004000428CC
:1011300007D11448006820F4E050E16808431149E1
:101140000860207800F00800082808D10D480068E1
:1011500020F46040216940EAC1000A49086000F0BB
:1011600019F808490968C1F30311074A515CC840DE
:101170000649086006480068FFF79AFE00204CE721
:10118000003C024008380240EC190008140000201E
:101190000C0000202DE9F047002400250026A14680
:1011A0002548006800F00C0020B1042805D008286C
:1011B0003AD105E0DFF8849039E0DFF8849036E03A
:1011C0001D48001F006800F03F041B48001F006816
:1011D00000F4800078B11A481749091F0968C1F363
:1011E0008811A0FB01700146224600233846FEF715
:1011F000E9FF05460EE011480F49091F0968C1F3D0
:101200008811A0FB01700146224600233846FEF7F4
:10121000D9FF05460848001F0068C0F30140401C84
:101220004600B5FBF6F902E0DFF8109000BF00BF02
:101230004846BDE8F0870000083802400024F4006A
:1012400000127A00F8B504460CB90120F8BD2078E8
:1012500000F00100002874D0F948006800F00C008C
:1012600004280DD0F648006800F00C00082813D1BF
:10127000F348001F006800F48000B0F5800F0BD128
:10128000EF4808380068C0F34040002859D0606833
:10129000002856D10120D9E700BF6068B0F5803F33
:1012A00008D1E7480838006840F48030E44908393C
:1012B00008601EE06068B0F5A02F0DD1E048083846
:1012C000006840F48020DE4908390860084600685C
:1012D00040F4803008600CE0D9480838006820F4F9
:1012E0008030D749083908600846006820F480201B
:1012F000086000BF606890B1FFF7AAFD054606E0F0
:10130000FFF7A6FD401B642801D903209EE7CC48C7
:1013100008380068C0F340400028F1D011E0FFF722
:1013200097FD054606E0FFF793FD401B642801D9B1
:1013300003208BE7C24808380068C0F3404000280B
:10134000F1D1207800F0020002285FD1BC4800688B
:1013500000F00C0058B1BA48006800F00C000828F2
:101360001CD1B748001F006800F48000B0B9B44831
:1013700008380068C0F3400020B1E068012801D0BF
:10138000012063E7AE480838006820F0F8002169C2
:1013900040EAC100AA490839086037E0E06800B3B4
:1013A0000120A8490860FFF753FD054606E0FFF756
:1013B0004FFD401B022801D9032047E7A048083809
:1013C0000068C0F340000028F1D09D48083800684C
:1013D00020F0F800216940EAC10099490839086005
:1013E00014E0002097490860FFF732FD054606E04B
:1013F000FFF72EFD401B022801D9032026E7904865
:1014000008380068C0F340000028F1D1207800F0CF
:10141000080008282CD16069A8B101208A49086019
:10142000FFF716FD054606E0FFF712FD401B0228F8
:1014300001D903200AE782486C300068C0F34000FD
:101440000028F1D014E000207F490860FFF700FD7C
:10145000054606E0FFF7FCFC401B022801D90320EB
:10146000F4E677486C300068C0F340000028F1D102
:10147000207800F00400042870D10027704838302C
:10148000006800F0805090B900BF002000906C48C8
:101490003830006840F080506949383108600846AB
:1014A000006800F08050009000BF00BF012767482F
:1014B000006800F48070B0B96448006840F480703F
:1014C00062490860FFF7C4FC054606E0FFF7C0FC70
:1014D000401B022801D90320B8E65C48006800F4EC
:1014E00080700028F2D000BFA068012808D15448BD
:1014F0006830006840F001005149683108601DE023
:10150000A06805280DD14E486830006840F00400FE
:101510004B49683108600846006840F001000860E7
:101520000CE047486830006820F001004449683109
:1015300008600846006820F00400086000BFA0684A
:10154000A8B1FFF785FC054609E0FFF781FC401BC9
:1015500041F28831884202D9032077E626E03848F4
:1015600068300068C0F340000028EED013E0FFF7B9
:101570006FFC054608E0FFF76BFC401B41F2883129
:10158000884201D9032061E62D4868300068C0F325
:1015900040000028EFD1012F07D1294838300068DA
:1015A00020F0805026493831086000BFA06900282B
:1015B00045D02348006800F00C0008285DD0A069E1
:1015C000022845D100201F490866FFF741FC054667
:1015D00006E0FFF73DFC401B022801D9032035E659
:1015E000174808380068C0F340600028F1D1D4E9FA
:1015F00007010843616A40EA81110122A06AC2EB37
:10160000500041EA00412C20005D41EA00600C4995
:10161000091F086001200B490866FFF719FC054601
:1016200006E0FFF715FC401B022801D903200DE658
:10163000034808380068C0F340600028F1D049E052
:101640000838024000004742800E474200700040C8
:10165000002021490866FFF7FBFB054606E0FFF77F
:10166000F7FB401B022801D90320EFE51B48006867
:10167000C0F340600028F2D12CE0A069012800D11D
:10168000E4E51648001D0668A069012820D006F48C
:101690008001E06981421BD106F03F01206A81424E
:1016A00016D147F6C0703040616AB0EB811F0FD190
:1016B00006F440310122A06AC2EB5000B1EB004FAA
:1016C00006D106F070612C20005DB1EB006F01D0F7
:1016D0000120BBE50020B9E5000047420038024088
:1016E00070B504462546681EB0F1807F01D3012005
:1016F0000FE0681E4FF0E02148610F214FF0FF30EE
:1017000000F022F900204FF0E021886107200861F5
:10171000002070BD00BFFEE710B5124812490860F6
:1017200002204860002110488160C1604FF46021B0
:1017300001614FF48001416100210176417681769B
:101740000121C1760021017701214177FFF717F9C7
:1017500008B1FEF7EFFD0448FFF725FA08B1FEF7E0
:10176000E9FD10BD006400401800002000B587B0FE
:10177000142102A8FEF75EFD00BF00200190304852
:10178000006840F080002E4908600846006800F0BC
:101790008000019000BF00BF00BF002001900846FC
:1017A000006840F0010008600846006800F0010091
:1017B000019000BF00BF00BF0020019008460068F4
:1017C00040F0080008600846006800F0080001903A
:1017D00000BF00BF00BF002001900846006840F035
:1017E000020008600846006800F00200019000BF97
:1017F00000BF00224FF470411248FFF723FB012085
:101800000290114803900020049002A90F48FFF7AE
:101810000FFA4FF4704002900120039000200490D2
:10182000059002A90748FFF703FA012200210620CC
:10183000FFF79CFB0620FFF789FB07B000BD000007
:1018400030380240000C024000001110000002403D
:1018500000BFFEE700BFFEE77047704710B5FFF717
:10186000FDFA10BD00B593B0302107A8FEF7E2FCE9
:10187000142102A8FEF7DEFC00BF002001902448DE
:10188000006840F08050224908600846006800F077
:101890008050019000BF00BF00BF002001901D4894
:1018A000006840F480401B4908600846006800F466
:1018B0008040019000BF00BF012007900004089005
:1018C00002200D9041050E9108210F914FF4A8714F
:1018D0001091022111910721129107A8FFF7B2FC84
:1018E00008B1FEF727FD0F20029002200390002090
:1018F00004904FF4A05005904FF4805006900521BD
:1019000002A8FFF785FB08B1FEF714FD13B000BD78
:1019100040380240007000400548006840F4700004
:10192000034908604FF00060014980390860704742
:1019300088ED00E000BFFEE702480068C0F3022027
:10194000704700000CED00E010B5002804DB0A072A
:10195000130E054A135406E00A07140E034A00F05A
:101960000F031B1FD45410BD00E400E018ED00E08D
:1019700002E008C8121F08C1002AFAD17047704758
:10198000002001E001C1121F002AFBD170470000B6
:10199000FFF770FAFFF766FFFFF7E8FEFFF7BCFE00
:1019A00001200F49086100208860C8604FF48070F2
:1019B000086000200B4908614FF480400860002057
:1019C00048608860C8600120C861086200208861A2
:1019D00048610C2048620448FEF75AFD00BFFEE74C
:1019E00040000020740000201800002000000000CB
:1019F00000000000010203040607080900000000BF
:101A000001020304241A000800000020180000004E
:101A1000701900083C1A0008180000208804000013
:101A20008019000800000000000000000000000015
:0C1A300010000000010000000024F40081
:040000050800018965
:00000001FF
