:020000040800F2
:1000000028040020A1010008D7100008150F0008DF
:10001000D5100008810500088911000800000000C3
:10002000000000000000000000000000DB100008DD
:100030008305000800000000D9100008DD1000084A
:10004000BB010008BB010008BB010008BB010008A0
:10005000BB010008BB010008BB010008BB01000890
:10006000BB010008BB010008BB010008BB01000880
:10007000BB010008BB010008BB010008BB01000870
:10008000BB010008BB010008BB010008BB01000860
:10009000BB010008BB010008BB010008BB01000850
:1000A000BB010008BB010008BB010008BB01000840
:1000B000BB010008BB010008BB010008BB01000830
:1000C000BB010008BB010008BB010008BB01000820
:1000D000BB010008BB010008BB010008BB01000810
:1000E000BB010008BB010008BB010008BB01000800
:1000F000BB010008BB010008BB010008BB010008F0
:10010000BB010008BB010008BB010008BB010008DF
:10011000BB010008BB010008BB010008BB010008CF
:10012000BB010008BB010008BB010008BB010008BF
:10013000BB010008BB010008BB010008BB010008AF
:10014000BB010008BB010008BB010008BB0100089F
:10015000BB010008BB010008BB010008BB0100088F
:10016000BB010008BB010008BB010008BB0100087F
:10017000BB010008BB010008BB0100080000000033
:10018000BB010008BB010008DFF810D000F0E6F961
:1001900000480047C9110008AFF300802804002080
:1001A0000648804706480047FEE7FEE7FEE7FEE711
:1001B000FEE7FEE7FEE7FEE7FEE7FEE7791100084F
:1001C000890100082DE9F05F0546002092469B4614
:1001D00088460646814640241BE02846414647465D
:1001E000224600F04EF953465A46C01A914110D3A8
:1001F00011461846224600F035F92D1A67EB010822
:100200004F4622460120002100F02CF917EB00098F
:100210004E41201EA4F10104DFDC484631462A4647
:100220004346BDE8F09FD2B201E000F8012B491E21
:10023000FBD270470022F6E710B513460A46044683
:100240001946FFF7F0FF204610BD2DE9FE4F81EA69
:10025000030404F0004421F0004100944FF0000B2F
:1002600023F0004350EA01045ED052EA03045BD05D
:10027000C3F30A54C1F30A552C44A4F2F334019495
:10028000A0FB0254C1F3130141F48011C3F3130323
:1002900043F4801301FB024400FB034E840A970AD7
:1002A00044EA815447EA8357A4FB076802958D0A04
:1002B00005FB07854FEA932C04FB0C542705029D90
:1002C0004FEA065847EA1637B5EB08056EEB070C00
:1002D000870E920E47EA811742EA8312A7FB0201BA
:1002E000B6EB0B0164EB00042B0D43EA0C335E18F4
:1002F00044EB1C50DA465146E7FB0201C5F31304F8
:100300004FEA0B3343EA14534FEA0432019C43EAA9
:100310000603A4F10C040294009CCDE900B400F0A3
:10032000CFF803B0BDE8F08F00200146F9E72DE9D2
:10033000F04D81EA030404F0004B21F0004514461F
:100340004FF0000A23F0004150EA050220D054EAA1
:1003500001021DD0C5F30A570246C5F31303C1F3CA
:100360001300C1F30A5640F4801543F48013A7EB41
:100370000608101BD64608F2FD3873EB050002D3C1
:1003800008F1010801E092185B41B8F1000F03DAAF
:1003900000200146BDE8F08D00204FF48011064694
:1003A00084460EE0171B73EB050705D3121B63EBA6
:1003B000050306434CEA010C49084FEA3000921845
:1003C0005B4150EA0107EDD152EA030012D082EA04
:1003D000040083EA0501084305D0101BAB4106D297
:1003E0000122002306E000224FF0004302E06FF0FC
:1003F000010253101AEB06004CEB085110EB0A00F7
:1004000041EB0B01BDE8F04D00F04BB8C1F30A52CF
:1004100010B5C1F3130140F2FF3341F480119A4249
:1004200001DA002010BD40F233439A42A2F2334277
:1004300003DC524200F025F810BD904010BD00F0E2
:10044000004230F000400AD0C10D01F56071C0F3E8
:10045000160042EA0151C2084007114370470020CC
:1004600001467047202A04DB203A00FA02F10020FE
:1004700070479140C2F1200320FA03F319439040E2
:100480007047202A04DB203A21FA02F0002170474D
:1004900021FA02F3D040C2F12002914008431946EC
:1004A000704710B5141E73F1000408DA401C41F1C6
:1004B000000192185B411A4301D120F0010010BDE8
:1004C0002DE9F04D92469B4611B1B1FA81F202E05E
:1004D000B0FA80F220329046FFF7C4FF04460F4680
:1004E00040EA0A0041EA0B0153465A46084313D03A
:1004F000114653EA010019D0C8F140025046FFF7F7
:10050000C0FF05460E46504659464246FFF7AAFF31
:10051000084305D0012004E020463946BDE8F08DAF
:100520000020054346EAE0762C4337430A986305EA
:10053000E40AA0EB08000022FD0A44EA47540A300E
:1005400002D500200146E9E7010510196941DDE9FE
:10055000084500196941BDE8F04DA2E7064C074D7A
:1005600006E0E06840F0010394E807009847103483
:10057000AC42F6D3FFF70CFE6C1200088C12000898
:10058000FEE7704770B54379012B1CD001264671F8
:100590000223037105682B6802F0100440F6FE7216
:1005A000A2409343D1E900210A43A2401A432A60A2
:1005B00001680A68C023A3409A430A6006710021BB
:1005C0004171084670BD022070BD70B5040003D0B3
:1005D0002079002510B105E0012070BD657120462D
:1005E00000F008F802202071256101202071002010
:1005F00070BD000010B586B0044614216846FFF7B0
:1006000019FE1149206888421CD110480021026857
:1006100042F000520260006800F0005005900B4864
:100620001038026842F001020260006800F0010028
:100630000590102000900320CDE90101694604488F
:1006400000F044F806B010BD00740040403802408D
:100650000000024018B5046800940068104421B1FD
:10066000143000900360002018BD0830F9E770B521
:100670004279012A1ED001224271022303710468CB
:10068000266801F0100302FA03F52E4326600029C4
:10069000016811D00C6804F470153C249C40A542FC
:1006A00003D14B6843F002034B600271002141719A
:1006B000084670BD022070BD0B68C3F383030F2B87
:1006C000F3D14B6843F00103EEE700002DE9F84F4A
:1006D000DFF8B8A1002201250AF1040B03264FF030
:1006E0000F090BF1040E00BF0B6805FA02F423405A
:1006F000A3426FD10F7907F00307012F01D0022F1A
:1007000016D187684FEA420806FA08FC27EA0C0768
:10071000D1F80CC00CFA08FC4CEA070CC0F808C071
:100720004768A7430C79C4F3001494403C434460E9
:100730000C79E443A4070AD0C4684FEA420C06FAD5
:100740000CF7BC438F6807FA0CF72743C7600C7996
:1007500004F00304022C12D1D40800EB840CDCF862
:1007600020405707FF0E09FA07F824EA0804D1F8D9
:10077000108008FA07F848EA0408CCF820800468DA
:100780004FEA420C06FA0CF7BC430F7907F0030757
:1007900007FA0CF7274307604C68E40070D53C4C1F
:1007A000276847F480472760246822F0030704F491
:1007B00080440094374C07EB040CDCF8084897079A
:1007C0004FEA177809FA08F7BC43334FB84202D111
:1007D000002724E054E0314FB84201D101271EE048
:1007E0002F4FB84201D1022719E02E4FB84201D154
:1007F000032714E02C4FB84201D104270FE02B4F00
:10080000B84201D105270AE0294FB84201D1062795
:1008100005E0284FB84201D1072700E0082707FA72
:1008200008F72743CCF80878DAF800405746D1F8A3
:1008300004C09C435FEACC3C00D51C433C60DBF821
:1008400000405F46D1F804C09C435FEA8C3C00D571
:100850001C433C60DEF800407746D1F804C09C435E
:100860005FEACC2C00D51C433C60084F0C373C6839
:10087000D1F804C09C435FEA8C2C00D51C433C603B
:10088000521C102AFFF430AFBDE8F88F003C014045
:1008900044380240003001400000024000040240A1
:1008A00000080240000C0240001002400014024008
:1008B00000180240001C02400AB18161704709041F
:1008C000FBE700000148806870470000040000203A
:1008D000024881680278114481607047040000205A
:1008E0000B4810B5016841F400710160016841F4E2
:1008F00080610160016841F480710160032000F0B3
:1009000063F8002000F006F800F024F8002010BD85
:10091000003C024070B50D4D04464FF47A712878C2
:10092000B1FBF0F00A490968B1FBF0F000F0DEFA23
:1009300048B9102C07D200222146501E00F024F89E
:1009400000206C6070BD012070BD0000040000201C
:10095000100000200B4882B0016841F48041016022
:10096000006800F4804000900648001F016841F0D4
:1009700080510160006800F080500090072002B0B4
:1009800000F022B844380240F0B40E4B1B680C460D
:10099000C3F30223C3F10705042D00D90425191D53
:1009A000072901D2002300E0DB1E012606FA05F12B
:1009B000491E214099409E40761E16403143F0BCAE
:1009C00000F0E3BB0CED00E0064900F00702086808
:1009D0004FF6FF03184040EA0220034A1043086024
:1009E000704700000CED00E00000FA052DE9F0472B
:1009F0000E46050065D0DFF81481D8F80000F7B284
:100A000000F00700B04207D288F80070D8F8000064
:100A100000F00700B04254D128683D4C810712D540
:100A2000400703D5206840F4E05020602878000794
:100A300003D5206840F4604020602068A96820F059
:100A4000F000084320602878C0072DD0304968683E
:100A50000839012812D0022813D0032811D00968C0
:100A6000890700292DDA216821F003010143216063
:100A7000FFF728FF814641F2883A0EE009688903B2
:100A8000EFE709688901ECE7FFF71CFFA0EB09011C
:100A9000514502D90320BDE8F0872068696800F05D
:100AA0000C00B0EB810FEFD1D8F80010404601F0F8
:100AB0000701B14207D90770006800F00700B04293
:100AC00001D00120E7E72878400705D52068E968CC
:100AD00020F4E050084320602878000706D52068FD
:100AE000296920F4604040EAC100206000F018F855
:100AF0002168084AC1F30311515CC84006490860E7
:100B000006480068FFF706FF0020C4E7003C0240EB
:100B1000083802405C120008100000200800002085
:100B2000154810B5006810F00C02144813D041109D
:100B3000042A0FD0082A0ED10F4C241F22682368E4
:100B400002F03F025B0207D52068C0F38810A0FBCB
:100B5000010106E0084610BD2168C1F38811A1FB20
:100B600000010023FFF72EFB2168C1F30141491C5E
:100B70004900B0FBF1F010BD083802400024F40039
:100B80002DE9F84F04006ED02078DFF84C93C007B1
:100B9000A9F104054AD009F104000168C1F38101FB
:100BA000012908D00068C0F3810002280AD1D9F8D1
:100BB0000000400206D52868800337D56068002809
:100BC000E1D033E06068B0F5803F10D0B0F5A02FE1
:100BD000286810D020F480302860286820F4802015
:100BE00028606068A8B1FFF76DFE06460DE0286832
:100BF00040F48030F4E740F480202860F7E700BF3D
:100C0000FFF760FE801B642873D828688003F7D53F
:100C10000CE0FFF757FE064605E000BFFFF752FE67
:100C2000801B6428F0D828688003F7D42078DFF888
:100C3000AC8280074FF0000A3ED5A748001D01682E
:100C400011F00C0F08D00068C0F3810002280BD10E
:100C5000D9F80000400207D42868800716D5E0685C
:100C6000012800D112E033E1E068B8B10120C8F8F2
:100C70000000FFF727FE064605E000BFFFF722FE53
:100C8000801B0228C0D828688007F7D5286821690A
:100C900020F0F80040EAC10028600DE0C8F800A08C
:100CA000FFF710FE064604E0FFF70CFE801B02284B
:100CB0001FD828688007F7D42078000722D5864FF0
:100CC00087486169703771B101210160FFF7FAFD52
:100CD000064604E0FFF7F6FD801B022809D83868B5
:100CE0008007F7D50EE0C0F800A0FFF7EBFD064641
:100CF00005E082E0FFF7E6FD801B02287DD838681A
:100D00008007F7D42078400768D5DFF8CCB10027FA
:100D10000BF13C0BDBF80000C0000BD4DBF800103B
:100D200041F08051CBF80010DBF80000012700F003
:100D3000805000906B4E3068C00510D4306840F48D
:100D400080703060FFF7BEFD009005E0FFF7BAFD50
:100D50000099401A022850D83068C005F6D55E4E7A
:100D6000A0686C3601280FD00528306810D020F01C
:100D700001003060306820F004003060A068B8B135
:100D8000FFF7A0FD00900FE0306840F00100F4E7AD
:100D900040F004003060F7E7FFF794FD0099411A36
:100DA00041F28830814266D830688007F4D50EE081
:100DB000FFF788FD009007E0FFF784FD0099411AD6
:100DC00041F28830814256D830688007F4D42FB180
:100DD000DBF8001021F08051CBF80010A069C8B3F7
:100DE0003D49091D0968C1F3810102294AD0022841
:100DF000504607D0C8F8600000E03CE0FFF762FD15
:100E000004463BE04746C8F86000FFF75BFD064636
:100E100005E000BFFFF756FD801B02282BD828688D
:100E20008001F7D4D4E907010843A16A2E4A490892
:100E300002EB0141626A41EA8211084394F82C10E6
:100E400040EA0161C9F8001001203866FFF73AFD59
:100E5000044606E03EE000BFFFF734FD001B022819
:100E600009D828688001F7D534E000BFFFF72AFDD4
:100E7000001B022802D90320BDE8F88F28688001F2
:100E8000F4D427E00128F7D0D9F80000E26900F493
:100E9000800191421CD1226A00F03F01914217D19A
:100EA00047F6C071626A0140B1EB821F10D1A26A9D
:100EB0004FF0FF3300F4403103EB5202B1EB024F2D
:100EC00006D194F82C1000F07060B0EB016F01D0E7
:100ED0000120D1E70020CFE704380240000047425C
:100EE000800E4742007000400000FFFF10B5401E1A
:100EF000B0F1807F01D3012010BD4FF0E02460618C
:100F00000F21601700F041F90020A0610720206147
:100F1000002010BDFEE700002DE9F04F87B014213E
:100F20006846FFF787F963480024016841F0100123
:100F30000160016801F010010591016841F00401B0
:100F40000160016801F004010591016841F0800130
:100F50000160016801F080010591016841F0010123
:100F60000160016801F001010591016841F0020191
:100F70000160016801F002010591016841F008017A
:100F800001600068002200F00800059008214A482E
:100F9000FFF792FC012211464848FFF78DFC4FF203
:100FA0001009002249464648FFF786FC082601251D
:100FB0000096CDE9015469463F480394FFF786FB4C
:100FC0000095CDE9015469463C480394FFF77EFB48
:100FD00000960226CDE901640527CDE9034769465D
:100FE0003648FFF773FB37480095CDE90104DFF879
:100FF000D8A069465046FFF769FB4FF00408CDE9D9
:101000000084DFF8C8B0694658460294FFF75EFBDB
:10101000A8020090CDE90164CDE90347694658462E
:10102000FFF754FBCDF80090CDE901546946244800
:101030000394FFF74BFB4FF4A4500090CDE90164FB
:101040000620CDE9034069461C48FFF73FFB6802D4
:10105000CDE90004694650460294FFF737FB4FF490
:10106000E0500090CDE901640A20CDE903406946D3
:101070005046FFF72BFB2020CDE9000469461048BD
:101080000294FFF723FB4FF4107000901220CDE97B
:101090000105CDE9034869465846FFF717FB0C48A0
:1010A0000096CDE9010469460348FFF70FFB07B03E
:1010B000BDE8F08F303802400010024000080240C6
:1010C000000C024000001110000002400004024029
:1010D00000001210FEE7FEE770477047FFF7F8BB0D
:1010E00030B593B030216846FFF7A4F814210CA85E
:1010F000FFF7A0F81E480024016841F0805101600C
:10110000006800F0805011901A48016841F4804155
:1011100001600068022500F48040119001200390D6
:1011200010200490009506950820CDE90740322054
:10113000099004200A9007200B906846FFF720FDD5
:1011400008B172B6FEE70F20CDE90C054FF4A050B0
:10115000CDE90E404FF48050109000210CA8FFF70D
:1011600045FC002801D072B6FEE713B030BD000088
:1011700040380240007000400248016841F47001AC
:101180000160704788ED00E0FEE70907090E0028BE
:1011900004DB00F1E02080F80014704700F00F003D
:1011A00000F1E02080F8141D704702E008C8121F0B
:1011B00008C1002AFAD170477047002001E001C140
:1011C000121F002AFBD170472DED048B82B0FFF770
:1011D00087FBFFF785FFFFF79FFE00241949009466
:1011E0001748019408600846FFF7EFF908B172B696
:1011F000FEE700940022694612480194FFF7C2F905
:1012000008B172B6FEE700210E48FFF730FA0E4C27
:101210009FED0E8B9FED0F9B2068FFF710F953ECAD
:10122000182BFFF784F853EC192BFFF70EF8FFF794
:10123000EDF8C3B2082200210248FFF70BFAEBE7F2
:101240000074004014000020000000200000000096
:10125000000008400000000000E06F4000000000B7
:101260000000000001020304060708098C120008B0
:101270000000002014000000AA110008A0120008BD
:101280001400002014040000BA110008CDCC0C405A
:101290000100000010000000000000000024F40025
:040000050800018965
:00000001FF
