:020000040800F2
:10000000000008249D4E0008954C00089B4C0008F9
:10001000A14C0008A74C0008AD4C000800000000EF
:1000200000000000000000000000000001110008B6
:10003000B34C00080000000051130008D50300086D
:10004000ED4E0008ED4E0008ED4E0008ED4E0008A4
:10005000ED4E0008ED4E0008ED4E0008ED4E000894
:10006000ED4E0008ED4E0008ED4E0008ED4E000884
:10007000ED4E0008ED4E0008ED4E0008ED4E000874
:10008000ED4E0008ED4E0008ED4E0008ED4E000864
:10009000ED4E0008ED4E0008ED4E0008ED4E000854
:1000A000ED4E0008ED4E0008ED4E0008ED4E000844
:1000B000ED4E0008ED4E0008ED4E0008ED4E000834
:1000C000ED4E0008ED4E0008ED4E0008ED4E000824
:1000D000ED4E0008ED4E0008ED4E0008ED4E000814
:1000E000ED4E0008ED4E000800000000ED4E000847
:1000F000ED4E0008ED4E0008ED4E0008ED4E0008F4
:10010000ED4E0008ED4E0008ED4E0008ED4E0008E3
:10011000ED4E0008ED4E0008C14C0008ED4E000801
:10012000ED4E0008ED4E0008ED4E0008ED4E0008C3
:10013000ED4E0008ED4E0008ED4E0008ED4E0008B3
:10014000ED4E0008ED4E0008000000000000000029
:10015000ED4E0008ED4E0008ED4E0008ED4E000893
:10016000ED4E0008ED4E0008ED4E0008ED4E000883
:10017000ED4E0008ED4E0008ED4E000800000000B6
:10018000ED4E0008ED4E0008ED4E0008ED4E000863
:10019000ED4E0008ED4E0008ED4E0008ED4E000853
:1001A000D54C0008ED4E0008E94C0008ED4E000863
:1001B000FD4C0008ED4E0008ED4E0008ED4E000825
:1001C000ED4E0008ED4E0008ED4E0008ED4E000823
:1001D000ED4E0008ED4E0008ED4E0008ED4E000813
:1001E000ED4E0008ED4E0008ED4E0008ED4E000803
:1001F000ED4E0008ED4E0008ED4E0008ED4E0008F3
:10020000ED4E0008ED4E0008ED4E0008ED4E0008E2
:10021000ED4E0008ED4E0008ED4E0008ED4E0008D2
:10022000ED4E0008ED4E0008ED4E00080000000005
:10023000ED4E0008ED4E0008ED4E0008ED4E0008B2
:10024000ED4E0008ED4E0008ED4E0008ED4E0008A2
:10025000ED4E0008ED4E0008ED4E0008ED4E000892
:10026000ED4E0008ED4E0008ED4E0008ED4E000882
:10027000ED4E0008ED4E0008ED4E0008ED4E000872
:10028000ED4E0008ED4E0008ED4E000800000000A5
:08029000ED4E0008ED4E0008E0
:1002A00010B5054C237833B9044B13B10448AFF3B0
:1002B00000800123237010BD2C01002400000000E9
:1002C000D837020808B5034B1BB103490348AFF305
:1002D000008008BD0000000030010024D83702086B
:1002E00001F0FF01102A2BDB10F0070F08D010F8E7
:1002F000013B013A8B422DD010F0070F42B3F6D1EB
:10030000F0B441EA012141EA014122F007047FF003
:1003100000070023F0E80256083C85EA010586EA5A
:10032000010685FA47F5A3FA87F586FA47F6A5FA96
:1003300087F68EB9EED1F0BC01F0FF0102F00702A2
:1003400032B110F8013B013A83EA010313B1F8D14D
:100350000020704701387047002D06BF354603382E
:10036000073815F0010F07D1013015F4807F02BF67
:10037000013015F4C03F0130F0BC0138704700BFB8
:1003800080B483B000AF03463960FB80B7F9063014
:10039000002B0ADB3B68DAB20C49B7F906301201D0
:1003A000D2B20B4483F800230AE03B68DAB2084972
:1003B000FB8803F00F03043B1201D2B20B441A7600
:1003C00000BF0C37BD465DF8047B704700E100E0DC
:1003D00000ED00E080B500AF054B1B6802F0A8FE01
:1003E0000346012B01D000F0E7FF00BF80BD00BF36
:1003F00010E000E080B500AF00216FF00400FFF7CF
:10040000BFFF00BF80BD000080B483B000AFEFF33A
:1004100005833B603B68002B03D06FF005037B60D6
:100420000CE00A4B1B68002B05D1084B01221A6017
:1004300000237B6002E04FF0FF337B607B6818464F
:100440000C37BD465DF8047B704700BF48010024AF
:1004500080B582B000AFEFF305833B603B68002BB3
:1004600003D06FF005037B6010E00B4B1B68012B82
:1004700009D1FFF7BFFF084B02221A6002F010FA01
:1004800000237B6002E04FF0FF337B607B681846FF
:100490000837BD4680BD00BF4801002480B58EB03E
:1004A00004AFF860B9607A6000233B61EFF3058325
:1004B0007B617B69002B7ED1FB68002B7BD0802386
:1004C0003B621823FB6100237B624FF0FF33BB616B
:1004D0007B68002B45D07B681B68002B02D07B68B3
:1004E0001B687B627B689B69002B02D07B689B69E1
:1004F000FB61FB69002B08D0FB69382B05D87B68B2
:100500005B6803F00103002B01D0002354E07B68FB
:100510005B69002B03D07B685B699B083B627B684F
:100520009B68002B0ED07B68DB685B2B0AD97B684D
:100530001B69002B06D07B685B69002B02D001236E
:10054000BB6110E07B689B68002B0CD17B68DB688B
:10055000002B08D17B681B69002B04D10023BB61F1
:1005600001E00023BB61BB69012B10D17B681B69D3
:100570007A68926802920193FB690093BB683A6AB9
:10058000796AF86801F0B6FF03463B6113E0BB6986
:10059000002B10D13B6A9AB207F110030193FB695B
:1005A0000093BB68796AF86802F001F80346012BF2
:1005B00001D000233B613B6918462837BD4680BD0A
:1005C00080B584B000AF7860EFF30583BB60BB6893
:1005D000002B03D06FF00503FB6007E00023FB60F6
:1005E0007B68002B02D0786802F026F9FB68184679
:1005F0001037BD4680BD80B58AB002AFF860B960E3
:100600007A600023FB61EFF305833B613B69002BBC
:1006100075D1FB68002B72D0BA68FB689A426ED81D
:100620004FF0FF33BB617B68002B15D07B689B6864
:10063000002B06D07B68DB684F2B02D90123BB61FE
:100640000CE07B689B68002B08D17B68DB68002B83
:1006500004D10023BB6101E00023BB61BB69B3F19E
:10066000FF3F4CD0FB68012B28D1BB69012B0AD17D
:100670007B689B680322009200220021012000F089
:1006800093FFF86105E003220021012001F004F846
:10069000F861FB69002B22D0BB68002B1FD0002320
:1006A00000220021F86901F0BFF80346012B16D0A3
:1006B000F86901F04BFD0023FB6110E0BB69012BE1
:1006C00008D17B689B681A46B968F86801F041F860
:1006D000F86104E0B968F86801F072F8F861FB6944
:1006E000002B0CD07B68002B03D07B681B687B61E0
:1006F00001E000237B617969F86901F073FEFB6911
:1007000018462037BD4680BD80B586B000AF786002
:1007100039607B683B6100237B613B69002B03D11F
:100720006FF003037B6139E0EFF30583FB60FB6847
:10073000002B22D03B68002B03D06FF003037B61BA
:100740002CE00023BB6007F108031A46002138693A
:1007500001F07CFC0346012B03D06FF002037B61A8
:100760001CE0BB68002B19D00F4B4FF080521A6071
:10077000BFF34F8FBFF36F8F10E03968386901F016
:1007800059FB0346012B09D03B68002B03D06FF0C7
:1007900001037B6102E06FF002037B617B69184615
:1007A0001837BD4680BD00BF04ED00E080B586B0BF
:1007B00000AF78607B683B6100237B613B69002B65
:1007C00003D16FF003037B612CE0EFF30583FB6043
:1007D000FB68002B1AD00023BB6007F10803194601
:1007E000386901F0BAF90346012B03D06FF0020318
:1007F0007B6117E0BB68002B14D00D4B4FF080528B
:100800001A60BFF34F8FBFF36F8F0BE000230022FE
:100810000021386901F008F80346012B02D06FF07F
:1008200002037B617B6918461837BD4680BD00BF57
:1008300004ED00E080B58AB002AFF860B9607A607C
:100840000023FB61EFF305833B613B69002B5FD124
:10085000FB68002B5CD0BB68002B59D04FF0FF33F6
:10086000BB617B68002B29D07B689B68002B12D072
:100870007B68DB684F2B0ED97B681B69002B0AD085
:100880007B685A69FB68B96801FB03F39A4202D39B
:100890000123BB6114E07B689B68002B10D17B684F
:1008A000DB68002B0CD17B681B69002B08D17B68AF
:1008B0005B69002B04D10023BB6101E00023BB6115
:1008C000BB69012B0BD17B681A697B689B6800218F
:1008D0000091B968F86800F067FEF86108E0BB694C
:1008E000002B05D10022B968F86800F0D5FEF86148
:1008F000FB69002B0CD07B68002B03D07B681B6846
:100900007B6101E000237B617969F86901F06AFD90
:10091000FB6918462037BD4680BD000080B588B011
:1009200000AFF860B9603B601346FB71FB68BB61C8
:100930000023FB61EFF305837B617B69002B28D0EB
:10094000BB69002B05D0BB68002B02D03B68002B95
:1009500003D06FF00303FB6138E000233B6107F134
:1009600010020023B968B86901F05CF80346012B56
:1009700003D06FF00203FB6128E03B69002B25D018
:10098000154B4FF080521A60BFF34F8FBFF36F8F3C
:100990001CE0BB69002B02D0BB68002B03D16FF0B9
:1009A0000303FB6112E000233A68B968B86900F0FC
:1009B0003BFF0346012B09D03B68002B03D06FF0AF
:1009C0000103FB6102E06FF00203FB61FB69184663
:1009D0002037BD4680BD00BF04ED00E080B588B083
:1009E00000AFF860B9607A603B60FB68BB610023D0
:1009F000FB61EFF305837B617B69002B28D0BB692A
:100A0000002B05D0BB68002B02D03B68002B03D025
:100A10006FF00303FB6137E000233B6107F1100334
:100A20001A46B968B86901F011FB0346012B03D0DF
:100A30006FF00203FB6127E03B69002B24D0154BCC
:100A40004FF080521A60BFF34F8FBFF36F8F1BE0E0
:100A5000BB69002B02D0BB68002B03D16FF00303EE
:100A6000FB6111E03A68B968B86901F003F903461F
:100A7000012B09D03B68002B03D06FF00103FB6111
:100A800002E06FF00203FB61FB6918462037BD46A8
:100A900080BD00BF04ED00E080B485B000AFF86019
:100AA000B9607A60FB68074A1A60BB68064A1A6038
:100AB0007B6880221A6000BF1437BD465DF8047B56
:100AC000704700BF4C010024A801002480B485B009
:100AD00000AFF860B9607A60FB68074A1A60BB68CB
:100AE000064A1A607B684FF480721A6000BF1437A0
:100AF000BD465DF8047B7047A8030024040400246D
:100B000080B58AB000AF78600023FB6101F02EFF52
:100B10005B4B1B68002B01D100F020F9594B1A6880
:100B20007B681340002B40F093807B68002B1DD026
:100B300008227B6813447B607B6803F00703002B6B
:100B400014D07B6823F0070308337B607B6803F0D5
:100B50000703002B0AD04FF0500383F31188BFF333
:100B60006F8FBFF34F8F7B6100BFFEE77B68002B69
:100B70006ED0454B1B687A689A4269D8434B3B62FA
:100B8000424B1B687B6204E07B6A3B627B6A1B68AA
:100B90007B627B6A5B687A689A4203D97B6A1B68CE
:100BA000002BF1D1364B1B687A6A9A4250D03B6ACF
:100BB0001B6808221344FB617B6A1A683B6A1A604F
:100BC0007B6A5A687B68D21A08235B009A421FD955
:100BD0007A6A7B681344BB61BB6903F00703002B8F
:100BE0000AD04FF0500383F31188BFF36F8FBFF328
:100BF0004F8F3B6100BFFEE77B6A5A687B68D21A61
:100C0000BB695A607B6A7A685A60B86900F008F973
:100C10001D4B1A687B6A5B68D31A1B4A13601A4B18
:100C20001A681B4B1B689A4203D2174B1B68184A61
:100C300013607B6A5A68134B1B681A437B6A5A60BD
:100C40007B6A00221A60134B1B680133114A136040
:100C500001F09AFEFB6903F00703002B0AD04FF066
:100C6000500383F31188BFF36F8FBFF34F8FFB6087
:100C700000BFFEE7FB6918462837BD4680BD00BFB0
:100C80000C88002420880024108800240488002474
:100C9000148800241888002480B586B000AF7860DE
:100CA0007B687B617B68002B4DD008235B427A69AF
:100CB00013447B617B693B613B695A68244B1B6829
:100CC0001340002B0AD14FF0500383F31188BFF378
:100CD0006F8FBFF34F8FFB6000BFFEE73B691B6860
:100CE000002B0AD04FF0500383F31188BFF36F8FAE
:100CF000BFF34F8FBB6000BFFEE73B695A68144BE0
:100D00001B681340002B1ED03B691B68002B1AD1B7
:100D10003B695A680E4B1B68DB431A403B695A60BB
:100D200001F024FE3B695A680A4B1B681344094AC8
:100D30001360386900F074F8074B1B680133064AEA
:100D4000136001F021FE00BF1837BD4680BD00BF13
:100D500020880024108800241C88002480B485B0DA
:100D600000AF4FF40043BB60274BFB60FB6803F010
:100D70000703002B0CD0FB680733FB60FB6823F0F4
:100D80000703FB60BA68FB68D31A1F4A1344BB60B1
:100D9000FB687B601D4A7B6813601C4B00225A6015
:100DA0007B68BA681344FB600822FB689B1AFB60EF
:100DB000FB6823F00703FB60FB68154A1360144BC4
:100DC0001B6800225A60124B1B6800221A607B6865
:100DD0003B603B68FA68D21A3B685A600C4B1A6851
:100DE0003B681A603B685B680A4A13603B685B6853
:100DF000094A1360094B4FF000421A6000BF1437D4
:100E0000BD465DF8047B7047040800240488002474
:100E10000C880024148800241088002420880024D2
:100E200080B485B000AF7860284BFB6002E0FB68BF
:100E30001B68FB60FB681B687A689A42F7D8FB68FE
:100E4000BB60FB685B68BA6813447A689A4208D151
:100E5000FB685A687B685B681A44FB685A60FB68E9
:100E60007B607B68BB607B685B68BA681A44FB6820
:100E70001B689A4218D1FB681A68154B1B689A4286
:100E80000DD07B685A68FB681B685B681A447B68F6
:100E90005A60FB681B681A687B681A6008E00C4B94
:100EA0001A687B681A6003E0FB681A687B681A603E
:100EB000FA687B689A4202D0FB687A681A6000BFC1
:100EC0001437BD465DF8047B704700BF04880024DA
:100ED0000C88002480B483B000AF78607B6803F195
:100EE00008027B685A607B684FF0FF329A607B682B
:100EF00003F108027B68DA607B6803F108027B6813
:100F00001A617B6800221A6000BF0C37BD465DF88D
:100F1000047B704780B483B000AF78607B680022A8
:100F20001A6100BF0C37BD465DF8047B704780B482
:100F300085B000AF786039607B685B68FB603B68B8
:100F4000FA685A60FB689A683B689A60FB689B681D
:100F50003A685A60FB683A689A603B687A681A6136
:100F60007B681B685A1C7B681A6000BF1437BD463B
:100F70005DF8047B704780B485B000AF786039605D
:100F80003B681B68BB60BB68B3F1FF3F03D17B6864
:100F90001B69FB600CE07B680833FB6002E0FB68C8
:100FA0005B68FB60FB685B681B68BA689A42F6D2B4
:100FB000FB685A683B685A603B685B683A689A60AD
:100FC0003B68FA689A60FB683A685A603B687A68DE
:100FD0001A617B681B685A1C7B681A6000BF143753
:100FE000BD465DF8047B704780B485B000AF786083
:100FF0007B681B69FB607B685B687A6892689A60B3
:101000007B689B687A6852685A60FB685B687A689C
:101010009A4203D17B689A68FB685A607B68002219
:101020001A61FB681B685A1EFB681A60FB681B6824
:1010300018461437BD465DF8047B704780B485B010
:1010400000AFF860B9607A60FB68043BFB60FB6846
:101050004FF080721A60FB68043BFB60BB6823F0B2
:101060000102FB681A60FB68043BFB600C4AFB68EA
:101070001A60FB68143BFB607A68FB681A60FB68C7
:10108000043BFB60FB686FF002021A60FB68203BC8
:10109000FB60FB6818461437BD465DF8047B70475B
:1010A000A510000880B485B000AF00237B60124B10
:1010B0001B68B3F1FF3F0AD04FF0500383F3118850
:1010C000BFF36F8FBFF34F8FFB6000BFFEE74FF0A2
:1010D000500383F31188BFF36F8FBFF34F8FBB6053
:1010E00000BF00BF7B68002BFCD000BF00BF1437DF
:1010F000BD465DF8047B704704000024000000003A
:10110000074B19680868B0E8F04F80F30988BFF30F
:101110006F8F4FF0000080F311887047AFF30080AD
:101120006C88002400BF00BF08480068006880F396
:1011300008884FF0000080F3148862B661B6BFF3F0
:101140004F8FBFF36F8F00DF00BF00BF08ED00E0DF
:1011500080B586B000AF464B1B68464A93420AD121
:101160004FF0500383F31188BFF36F8FBFF34F8F9E
:101170003B6100BFFEE73E4B1B683F4A93420AD1EA
:101180004FF0500383F31188BFF36F8FBFF34F8F7E
:10119000FB6000BFFEE7394B7B617B691B78DBB2EC
:1011A0007B607B69FF221A707B691B78DBB2FB7066
:1011B000FB78DBB203F05003DAB2314B1A70314BDB
:1011C00007221A6009E02F4B1B68013B2D4A136070
:1011D000FB78DBB25B00DBB2FB70FB78DBB203F0C9
:1011E0008003802BEFD0274B1B68C3F10703042B30
:1011F0000AD04FF0500383F31188BFF36F8FBFF312
:101200004F8FBB6000BFFEE71E4B1B681B021D4AD1
:1012100013601C4B1B6803F4E0631A4A13607B687D
:10122000DAB27B691A70184B1B68174A43F47003D3
:101230001360154B1B68144A43F07043136000F0B1
:10124000DDF8124B00221A6000F0FCF8104B1B680E
:101250000F4A43F040431360FFF766FF01F0FCFCC8
:10126000FFF720FF002318461837BD4680BD00BF9A
:1012700000ED00E071C20F4170C20F4100E400E0D8
:10128000248800242888002420ED00E004000024A5
:1012900034EF00E080B483B000AF4FF0500383F32D
:1012A0001188BFF36F8FBFF34F8F7B6000BF0F4B71
:1012B0001B6801330D4A13600C4B1B68012B0FD1C7
:1012C0000B4B1B68DBB2002B0AD04FF0500383F3AB
:1012D0001188BFF36F8FBFF34F8F3B6000BFFEE7F6
:1012E00000BF0C37BD465DF8047B70470400002446
:1012F00004ED00E080B483B000AF124B1B68002BFC
:101300000AD14FF0500383F31188BFF36F8FBFF3FF
:101310004F8F7B6000BFFEE70A4B1B68013B094A09
:101320001360084B1B68002B05D100233B603B6812
:1013300083F3118800BF00BF0C37BD465DF8047B06
:10134000704700BF040000240000000000000000FF
:10135000EFF30980BFF36F8F154B1A681EF0100F63
:1013600008BF20ED108A20E9F04F10602DE9090038
:101370004FF0500080F31188BFF34F8FBFF36F8F92
:1013800001F06AFC4FF0000080F3118809BC196875
:101390000868B0E8F04F1EF0100F08BFB0EC108ADC
:1013A00080F30988BFF36F8F704700BFAFF30080F1
:1013B0006C88002400BF00BF80B582B000AF4FF042
:1013C000500383F31188BFF36F8FBFF34F8F7B60A0
:1013D00000BF01F087FB0346002B03D0064B4FF004
:1013E00080521A6000233B603B6883F3118800BF82
:1013F00000BF0837BD4680BD04ED00E080B400AFFB
:101400000B4B00221A600B4B00221A600A4B1B6820
:101410000A4AA2FB03239B09094A013B1360044BC0
:1014200007221A6000BFBD465DF8047B704700BF0D
:1014300010E000E018E000E010000024D34D62103E
:1014400014E000E0DFF80C00016841F47001016075
:10145000704700BF88ED00E080B485B000AFEFF3C7
:101460000583FB60FB680F2B14D9174AFB681344F4
:101470001B78FB72154B1B78FA7A9A420AD24FF00E
:10148000500383F31188BFF36F8FBFF34F8F7B60DF
:1014900000BFFEE70E4B1B6803F4E0620D4B1B68B8
:1014A0009A420AD94FF0500383F31188BFF36F8F2C
:1014B000BFF34F8F3B6000BFFEE700BF1437BD4650
:1014C0005DF8047B704700BFF0E300E0248800244F
:1014D0000CED00E02888002480B584B000AF78606F
:1014E00039607B68FB60FB68002B0AD14FF050032A
:1014F00083F31188BFF36F8FBFF34F8FBB6000BFC3
:10150000FEE7FFF7C7FEFB681A68FB68DB6BF9684C
:10151000096C01FB03F31A44FB689A60FB68002224
:101520009A63FB681A68FB685A60FB681A68FB6874
:10153000DB6B013BF968096C01FB03F31A44FB68A0
:10154000DA60FB68FF2283F84420FB68FF2283F8FF
:1015500045203B68002B14D1FB681B69002B1AD077
:10156000FB681033184601F025FC0346002B12D00F
:101570000C4B4FF080521A60BFF34F8FBFF36F8F49
:1015800009E0FB6810331846FFF7A4FCFB6824331E
:101590001846FFF79FFCFFF7ADFE012318461037F2
:1015A000BD4680BD04ED00E080B58EB002AFF860AE
:1015B000B9607A603B60FB68002B0AD14FF05003A2
:1015C00083F31188BFF36F8FBFF34F8FBB6200BFF0
:1015D000FEE73B68002B0AD14FF0500383F31188DC
:1015E000BFF36F8FBFF34F8F7B6200BFFEE77B6857
:1015F000002B02D0BB68002B01D0012300E00023A8
:10160000002B0AD14FF0500383F31188BFF36F8F83
:10161000BFF34F8F3B6200BFFEE77B68002B02D118
:10162000BB68002B01D1012300E00023002B0AD16D
:101630004FF0500383F31188BFF36F8FBFF34F8FC9
:10164000FB6100BFFEE750237B617B69502B0AD012
:101650004FF0500383F31188BFF36F8FBFF34F8FA9
:10166000BB6100BFFEE77B693B68FB62FB6A002B46
:101670000DD0FB6A012283F8462097F83820FB6AD8
:10168000009313467A68B968F86800F03FF8FB6A7F
:1016900018463037BD4680BD80B58AB002AFF860CD
:1016A000B9601346FB71FB68002B0AD14FF0500361
:1016B00083F31188BFF36F8FBFF34F8F3B6100BF80
:1016C000FEE7FB68BA6802FB03F3FB61FB6950337A
:1016D0001846FFF715FAB861BB69002B11D0BB693A
:1016E0007B617B6950337B61BB69002283F84620B4
:1016F000FA79BB69009313467A69B968F86800F013
:1017000005F8BB6918462037BD4680BD80B584B05A
:1017100000AFF860B9607A60FB70BB68002B03D142
:10172000BB69BA691A6002E0BB697A681A60BB6972
:10173000FA68DA63BB69BA681A640121B869FFF70D
:10174000CBFEBB69FA7883F84C2000BF1037BD464A
:1017500080BD80B58AB002AFF860B9607A60FB687E
:10176000002B0AD14FF0500383F31188BFF36F8F22
:10177000BFF34F8FBB6100BFFEE7BA68FB689A42B8
:101780000AD94FF0500383F31188BFF36F8FBFF373
:101790004F8F7B6100BFFEE7022300937B6800222E
:1017A0000021F868FFF700FFF861FB69002B02D009
:1017B000FB69BA689A63FB6918462037BD4680BD4D
:1017C00080B586B000AF786039607B68002B0AD1A5
:1017D0004FF0500383F31188BFF36F8FBFF34F8F28
:1017E0003B6100BFFEE73A687B689A420AD94FF036
:1017F000500383F31188BFF36F8FBFF34F8FFB60EC
:1018000000BFFEE7022200217868FFF745FF7861FC
:101810007B69002B02D07B693A689A637B69184622
:101820001837BD4680BD000080B58EB000AFF860AF
:10183000B9607A603B6000237B63FB683B633B6B72
:10184000002B0AD14FF0500383F31188BFF36F8F41
:10185000BFF34F8FBB6200BFFEE7BB68002B03D115
:101860003B6B1B6C002B01D1012300E00023002BFC
:101870000AD14FF0500383F31188BFF36F8FBFF38A
:101880004F8F7B6200BFFEE73B68022B03D13B6BAF
:10189000DB6B012B01D1012300E00023002B0AD1D7
:1018A0004FF0500383F31188BFF36F8FBFF34F8F57
:1018B0003B6200BFFEE701F03BFC0346002B02D178
:1018C0007B68002B01D1012300E00023002B0AD10B
:1018D0004FF0500383F31188BFF36F8FBFF34F8F27
:1018E000FB6100BFFEE7FFF7D5FC3B6B9A6B3B6BE0
:1018F000DB6B9A4202D33B68022B29D13A68B96864
:10190000386B00F05EFCF8623B6B5B6A002B10D01A
:101910003B6B2433184601F04DFA0346002B13D0DD
:101920003F4B4FF080521A60BFF34F8FBFF36F8F62
:101930000AE0FB6A002B07D0394B4FF080521A6047
:10194000BFF34F8FBFF36F8FFFF7D4FC012363E02A
:101950007B68002B03D1FFF7CDFC00235CE07B6BA1
:10196000002B06D107F11403184601F087FA012372
:101970007B63FFF7BFFC00F0F9FFFFF78BFC3B6BCD
:1019800093F844305BB2B3F1FF3F03D13B6B0022CD
:1019900083F844203B6B93F845305BB2B3F1FF3FD3
:1019A00003D13B6B002283F84520FFF7A3FC3A1DCF
:1019B00007F114031146184601F076FA0346002B8E
:1019C00024D1386B00F0F5FC0346002B18D03B6B9C
:1019D00010337A681146184601F09CF9386B00F014
:1019E00080FC00F0D1FF0346002B7FF47CAF0C4B52
:1019F0004FF080521A60BFF34F8FBFF36F8F72E7C3
:101A0000386B00F06EFC00F0BFFF6CE7386B00F045
:101A100068FC00F0B9FF002318463837BD4680BD8A
:101A200004ED00E080B590B000AFF860B9607A6076
:101A30003B60FB68BB63BB6B002B0AD14FF05003CC
:101A400083F31188BFF36F8FBFF34F8FBB6200BF6B
:101A5000FEE7BB68002B03D1BB6B1B6C002B01D1D5
:101A6000012300E00023002B0AD14FF0500383F341
:101A70001188BFF36F8FBFF34F8F7B6200BFFEE70C
:101A80003B68022B03D1BB6BDB6B012B01D1012324
:101A900000E00023002B0AD14FF0500383F311889C
:101AA000BFF36F8FBFF34F8F3B6200BFFEE7FFF7BF
:101AB000D3FCEFF311824FF0500383F31188BFF38F
:101AC0006F8FBFF34F8FFA61BB61FB697B63BB6BA9
:101AD0009A6BBB6BDB6B9A4202D33B68022B2FD114
:101AE000BB6B93F8453087F83330BB6B9B6BFB6265
:101AF0003A68B968B86B00F064FB97F93330B3F11A
:101B0000FF3F12D1BB6B5B6A002B16D0BB6B24333B
:101B1000184601F04FF90346002B0ED07B68002BCE
:101B20000BD07B6801221A6007E097F8333001334D
:101B3000DBB25AB2BB6B83F845200123FB6301E0A3
:101B40000023FB637B6B7B617B6983F3118800BFA0
:101B5000FB6B18464037BD4680BD80B58EB000AFE8
:101B6000786039607B683B633B6B002B0AD14FF098
:101B7000500383F31188BFF36F8FBFF34F8F3B6226
:101B800000BFFEE73B6B1B6C002B0AD04FF05003ED
:101B900083F31188BFF36F8FBFF34F8FFB6100BFDB
:101BA000FEE73B6B1B68002B03D13B6B9B68002B54
:101BB00001D1012300E00023002B0AD14FF0500394
:101BC00083F31188BFF36F8FBFF34F8FBB6100BFEB
:101BD000FEE7FFF741FCEFF311824FF0500383F370
:101BE0001188BFF36F8FBFF34F8F7A613B617B69C1
:101BF000FB623B6B9B6BBB623B6BDB6BBA6A9A42D3
:101C00002BD23B6B93F8453087F82730BB6A5A1CC0
:101C10003B6B9A6397F92730B3F1FF3F12D13B6BCF
:101C20005B6A002B16D03B6B2433184601F0C2F8D8
:101C30000346002B0ED03B68002B0BD03B680122E3
:101C40001A6007E097F827300133DBB25AB23B6BDA
:101C500083F8452001237B6301E000237B63FB6A5B
:101C6000FB60FB6883F3118800BF7B6B1846383735
:101C7000BD4680BD80B58CB000AFF860B9607A60B9
:101C80000023FB62FB68BB62BB6A002B0AD14FF0EA
:101C9000500383F31188BFF36F8FBFF34F8F3B6205
:101CA00000BFFEE7BB68002B03D1BB6A1B6C002B97
:101CB00001D1012300E00023002B0AD14FF0500393
:101CC00083F31188BFF36F8FBFF34F8FFB6100BFAA
:101CD000FEE701F02DFA0346002B02D17B68002BB2
:101CE00001D1012300E00023002B0AD14FF0500363
:101CF00083F31188BFF36F8FBFF34F8FBB6100BFBA
:101D0000FEE7FFF7C7FABB6A9B6B7B627B6A002B1F
:101D10001FD0B968B86A00F0BEFA7B6A5A1EBB6A67
:101D20009A63BB6A1B69002B0FD0BB6A103318463D
:101D300001F040F80346002B07D03D4B4FF0805296
:101D40001A60BFF34F8FBFF36F8FFFF7D3FA0123F2
:101D500069E07B68002B03D1FFF7CCFA002362E037
:101D6000FB6A002B06D107F11003184601F086F834
:101D70000123FB62FFF7BEFA00F0F8FDFFF78AFAD5
:101D8000BB6A93F844305BB2B3F1FF3F03D1BB6A47
:101D9000002283F84420BB6A93F845305BB2B3F16C
:101DA000FF3F03D1BB6A002283F84520FFF7A2FA68
:101DB0003A1D07F110031146184601F075F8034665
:101DC000002B23D1B86A00F0DEFA0346002B17D0AF
:101DD000BB6A24337A681146184600F09BFFB86A44
:101DE00000F07FFA00F0D0FD0346002B89D1104BA4
:101DF0004FF080521A60BFF34F8FBFF36F8F80E7B1
:101E0000B86A00F06EFA00F0BFFD7AE7B86A00F039
:101E100068FA00F0B9FDB86A00F0B5FA0346002B85
:101E20003FF46FAF002318463037BD4680BD00BF7A
:101E300004ED00E080B58EB000AF7860396000231B
:101E40007B637B68FB6200233B63FB6A002B0AD148
:101E50004FF0500383F31188BFF36F8FBFF34F8FA1
:101E60003B6200BFFEE7FB6A1B6C002B0AD04FF001
:101E7000500383F31188BFF36F8FBFF34F8FFB6164
:101E800000BFFEE701F054F90346002B02D13B6886
:101E9000002B01D1012300E00023002B0AD14FF0D9
:101EA000500383F31188BFF36F8FBFF34F8FBB6174
:101EB00000BFFEE7FFF7EEF9FB6A9B6BBB62BB6AF4
:101EC000002B24D0BB6A5A1EFB6A9A63FB6A1B680C
:101ED000002B04D101F0A2FA0246FB6A9A60FB6A69
:101EE0001B69002B0FD0FB6A1033184600F062FF0D
:101EF0000346002B07D0544B4FF080521A60BFF3BB
:101F00004F8FBFF36F8FFFF7F5F9012397E03B6821
:101F1000002B11D13B6B002B0AD04FF0500383F301
:101F20001188BFF36F8FBFF34F8F7B6100BFFEE758
:101F3000FFF7E0F9002382E07B6B002B06D107F16D
:101F40000C03184600F09AFF01237B63FFF7D2F9D8
:101F500000F00CFDFFF79EF9FB6A93F844305BB28A
:101F6000B3F1FF3F03D1FB6A002283F84420FB6AF0
:101F700093F845305BB2B3F1FF3F03D1FB6A002217
:101F800083F84520FFF7B6F93A4607F10C031146EE
:101F9000184600F089FF0346002B32D1F86A00F0A2
:101FA000F2F90346002B26D0FB6A1B68002B09D1EF
:101FB000FFF770F9FB6A9B68184601F0D7F83863A1
:101FC000FFF798F9FB6A24333A681146184600F087
:101FD000A1FEF86A00F085F900F0D6FC0346002B5C
:101FE0007FF468AF184B4FF080521A60BFF34F8FE9
:101FF000BFF36F8F5EE7F86A00F073F900F0C4FC7E
:1020000058E7F86A00F06DF900F0BEFCF86A00F0DD
:10201000BAF90346002B3FF44DAF3B6B002B0DD0BC
:10202000FFF738F9F86A00F0B4F87862FB6A9B6849
:10203000796A184601F070F9FFF75CF90023184639
:102040003837BD4680BD00BF04ED00E080B58EB0DE
:1020500000AFF860B9607A60FB683B633B6B002BB4
:102060000AD14FF0500383F31188BFF36F8FBFF392
:102070004F8F3B6200BFFEE7BB68002B03D13B6B79
:102080001B6C002B01D1012300E00023002B0AD19F
:102090004FF0500383F31188BFF36F8FBFF34F8F5F
:1020A000FB6100BFFEE7FFF7D7F9EFF311824FF0B6
:1020B000500383F31188BFF36F8FBFF34F8FBA6163
:1020C0007B61BB69FB623B6B9B6BBB62BB6A002B9A
:1020D0002FD03B6B93F8443087F82730B968386BC2
:1020E00000F0D9F8BB6A5A1E3B6B9A6397F9273008
:1020F000B3F1FF3F12D13B6B1B69002B16D03B6B3A
:102100001033184600F056FE0346002B0ED07B68B5
:10211000002B0BD07B6801221A6007E097F827306C
:102120000133DBB25AB23B6B83F8442001237B635B
:1021300001E000237B63FB6A3B613B6983F3118809
:1021400000BF7B6B18463837BD4680BD80B584B074
:1021500000AF78607B68FB60FB68002B0AD14FF012
:10216000500383F31188BFF36F8FBFF34F8FBB60B2
:1021700000BFFEE7F86800F05FF9FB6893F84630AF
:10218000002B02D1F868FEF787FD00BF1037BD466F
:1021900080BD80B485B000AF78607B685B6A002B3F
:1021A00006D07B681B6B1B68C3F13803FB6001E042
:1021B0000023FB60FB6818461437BD465DF8047BBE
:1021C000704780B586B000AFF860B9607A600023D0
:1021D0007B61FB689B6B3B61FB681B6C002B0DD12B
:1021E000FB681B68002B4DD1FB689B68184601F00B
:1021F00025F87861FB6800229A6043E07B68002B39
:1022000019D1FB685868FB681B6C1A46B96820F046
:10221000B1FAFB685A68FB681B6C1A44FB685A6089
:10222000FB685A68FB689B689A422BD3FB681A6864
:10223000FB685A6026E0FB68D868FB681B6C1A468E
:10224000B96820F097FAFB68DA68FB681B6C5B42A0
:102250001A44FB68DA60FB68DA68FB681B689A421C
:1022600007D2FB689A68FB681B6C5B421A44FB68E8
:10227000DA607B68022B05D13B69002B02D03B69F9
:10228000013B3B613B695A1CFB689A637B691846BA
:102290001837BD4680BD80B582B000AF7860396028
:1022A0007B681B6C002B18D07B68DA687B681B6C22
:1022B0001A447B68DA607B68DA687B689B689A42BC
:1022C00003D37B681A687B68DA607B68D9687B68AF
:1022D0001B6C1A46386820F04DFA00BF0837BD461F
:1022E00080BD80B584B000AF7860FEF7D3FF7B6817
:1022F00093F84530FB7311E07B685B6A002B12D0CA
:102300007B682433184600F055FD0346002B01D0AE
:1023100000F02CFEFB7B013BDBB2FB7397F90F3027
:10232000002BE9DC00E000BF7B68FF2283F845203A
:10233000FEF7E0FFFEF7AEFF7B6893F84430BB7317
:1023400011E07B681B69002B12D07B6810331846A4
:1023500000F030FD0346002B01D000F007FEBB7BF0
:10236000013BDBB2BB7397F90E30002BE9DC00E0D8
:1023700000BF7B68FF2283F84420FEF7BBFF00BF4D
:102380001037BD4680BD80B584B000AF7860FEF7E1
:1023900081FF7B689B6B002B02D10123FB6001E076
:1023A0000023FB60FEF7A6FFFB6818461037BD460A
:1023B00080BD80B584B000AF7860FEF76BFF7B68AE
:1023C0009A6B7B68DB6B9A4202D10123FB6001E0D0
:1023D0000023FB60FEF78EFFFB6818461037BD46F2
:1023E00080BD000080B485B000AF78603960002304
:1023F000FB6014E00F4AFB6852F83330002B0BD11E
:102400000C49FB683A6841F833200A4AFB68DB0054
:1024100013447A685A6006E0FB680133FB60FB688E
:10242000072BE7D900BF00BF1437BD465DF8047B1A
:10243000704700BF2C88002480B485B000AF78605E
:102440000023FB6016E0104AFB68DB0013445B6866
:102450007A689A420BD10C4AFB68002142F833108B
:10246000094AFB68DB00134400225A6006E0FB685F
:102470000133FB60FB68072BE5D900BF00BF1437B1
:10248000BD465DF8047B70472C88002480B586B07B
:1024900000AFF860B9607A60FB687B61FEF7FAFE16
:1024A0007B6993F844305BB2B3F1FF3F03D17B69A2
:1024B000002283F844207B6993F845305BB2B3F186
:1024C000FF3F03D17B69002283F84520FEF712FF0E
:1024D0007B699B6B002B06D17B6924337A68B968D2
:1024E000184600F03BFC7869FFF7FBFE00BF183789
:1024F000BD4680BD80B58EB004AFF860B9607A602B
:102500003B607B6B002B0AD14FF0500383F31188A3
:10251000BFF36F8FBFF34F8F3B6200BFFEE7BB6B14
:10252000002B0AD14FF0500383F31188BFF36F8F54
:10253000BFF34F8FFB6100BFFEE75C233B613B694C
:102540005C2B0AD04FF0500383F31188BFF36F8FD9
:10255000BFF34F8FBB6100BFFEE73B69BB6B002B36
:102560001ED07B6B002B1BD0BB6B7B627B6A7A6BB4
:102570001A637B6A022283F85920002303937B6A43
:10258000029307F1140301933B6B00933B687A6855
:10259000B968F86800F050F8786A00F0DDF801E0FA
:1025A00000237B617B6918462837BD4680BD80B516
:1025B0008CB004AFF860B9603B601346FB80FB88C9
:1025C0009B001846FEF79CFA78617B69002B0ED0C1
:1025D0005C20FEF795FAF861FB69002B03D0FB69DC
:1025E0007A691A6305E07869FEF756FB01E000237B
:1025F000FB61FB69002B17D0FB69002283F859208F
:10260000FA8800230393FB690293FB6A0193BB6A78
:1026100000933B68B968F86800F00EF8F86900F0BC
:102620009BF80123BB6102E04FF0FF33BB61BB6944
:1026300018462037BD4680BD80B588B000AFF86031
:10264000B9607A603B603B6B186B7B689B001A46F5
:10265000A52120F09DF83B6B1A6B79686FF0404321
:102660000B449B001344BB61BB6923F00703BB61B0
:10267000BB6903F00703002B0AD04FF0500383F32C
:102680001188BFF36F8FBFF34F8F7B6100BFFEE7F1
:10269000BB68002B1FD00023FB6112E0BA68FB6906
:1026A000134419783A6BFB69134434330A461A70A1
:1026B000BA68FB6913441B78002B06D0FB69013311
:1026C000FB61FB690F2BE9D900E000BF3B6B0022E7
:1026D00083F8432003E03B6B002283F83420BB6A7D
:1026E000372B01D93723BB623B6BBA6ADA623B6B8B
:1026F000BA6ADA643B6B00221A653B6B04331846F6
:10270000FEF708FC3B6B18331846FEF703FC3B6BE7
:102710003A6B1A61BB6AC3F138023B6B9A613B6B3F
:102720003A6B5A623B6B00225A653B6B002283F87E
:1027300058203A68F968B869FEF780FC02463B6B9E
:102740001A60FB6A002B02D0FB6A3A6B1A6000BF6A
:102750002037BD4680BD000080B582B000AF7860F4
:10276000FEF798FD2D4B1B6801332C4A13602C4B50
:102770001B68002B09D12A4A7B681360274B1B6812
:10278000012B10D100F016FC0DE0264B1B68002B2E
:1027900009D1234B1B68DA6A7B68DB6A9A4202D84C
:1027A0001F4A7B681360204B1B6801331E4A13606D
:1027B0001D4B1A687B685A647B68DA6A1B4B1B687E
:1027C0009A4203D97B68DB6A184A13607B68DA6A2D
:1027D00013469B0013449B00154A1A447B6804333C
:1027E00019461046FEF7A3FBFEF784FD0D4B1B6850
:1027F000002B0ED00A4B1B68DA6A7B68DB6A9A42B0
:1028000007D20C4B4FF080521A60BFF34F8FBFF3CB
:102810006F8F00BF0837BD4680BD00BF408D0024CC
:102820006C8800244C8D00245C8D0024488D00248D
:102830007088002404ED00E080B584B000AF7860BB
:102840000023FB607B68002B17D0134B1B68002B09
:102850000AD04FF0500383F31188BFF36F8FBFF39B
:102860004F8FBB6000BFFEE700F080F80021786862
:1028700000F0E8FD00F088F8F860FB68002B07D155
:10288000064B4FF080521A60BFF34F8FBFF36F8F2C
:1028900000BF1037BD4680BD688D002404ED00E008
:1028A00080B58AB004AF0023BB6000237B603A464A
:1028B000391D07F108031846FEF7EEF839687B6802
:1028C000BA68029201930023009300230A4621492B
:1028D0002148FFF70FFE0346204A13601F4B1B6879
:1028E000002B02D001237B6101E000237B617B6927
:1028F000012B02D100F0FAFD78617B69012B16D122
:102900004FF0500383F31188BFF36F8FBFF34F8FE6
:102910003B6100BF124B4FF0FF321A60114B012296
:102920001A60114B00221A60FEF712FC0EE07B6960
:10293000B3F1FF3F0AD14FF0500383F31188BFF387
:102940006F8FBFF34F8FFB6000BFFEE700BF1837EC
:10295000BD4680BDF0370208852F0008648D002435
:10296000608D00244C8D0024448D002480B400AF81
:10297000044B1B680133034A136000BFBD465DF87A
:10298000047B7047688D002480B584B000AF0023BD
:10299000FB600023BB60424B1B68002B0AD14FF049
:1029A000500383F31188BFF36F8FBFF34F8F3B60EA
:1029B00000BFFEE7FEF76EFC394B1B68013B384A4F
:1029C0001360374B1B68002B62D1364B1B68002B02
:1029D0005ED02FE0344BDB68DB68FB60FB681833AC
:1029E0001846FEF701FBFB6804331846FEF7FCFAB5
:1029F000FB68DA6A2D4B1B689A4203D9FB68DB6AD5
:102A00002A4A1360FB68DA6A13469B0013449B0052
:102A1000274A1A44FB68043319461046FEF787FA22
:102A2000FB68DA6A234B1B68DB6A9A4202D3224BAB
:102A300001221A601C4B1B68002BCBD1FB68002BBA
:102A400001D000F055FB1D4B1B687B607B68002BA1
:102A500010D000F047F80346002B02D0164B01229D
:102A60001A607B68013B7B607B68002BF1D1134BC4
:102A700000221A60104B1B68002B09D00123BB6099
:102A80000F4B4FF080521A60BFF34F8FBFF36F8F21
:102A9000FEF730FCBB6818461037BD4680BD00BF4E
:102AA000688D0024408D0024008D0024488D002472
:102AB000708800246C880024548D0024508D0024DC
:102AC00004ED00E080B483B000AF054B1B687B6071
:102AD0007B6818460C37BD465DF8047B704700BF25
:102AE000448D002480B586B000AF00237B614F4B3E
:102AF0001B68002B40F08F804D4B1B6801333B61FE
:102B00004B4A3B6913603B69002B20D1494B1B6842
:102B10001B68002B0AD04FF0500383F31188BFF3DA
:102B20006F8FBFF34F8F3B6000BFFEE7414B1B68C9
:102B3000FB60414B1B683F4A13603F4AFB681360D0
:102B40003E4B1B6801333D4A136000F0D1FA3C4B09
:102B50001B683A699A4249D3364B1B681B68002BA5
:102B600004D1374B4FF0FF321A603FE0314B1B6806
:102B7000DB68DB68BB60BB685B687B603A697B686D
:102B80009A4203D22E4A7B6813602FE0BB6804335D
:102B90001846FEF729FABB689B6A002B04D0BB6875
:102BA00018331846FEF720FABB68DA6A254B1B6813
:102BB0009A4203D9BB68DB6A224A1360BB68DA6AAF
:102BC00013469B0013449B001F4A1A44BB680433FE
:102BD00019461046FEF7ABF9BB68DA6A1B4B1B6857
:102BE000DB6A9A42B8D301237B61B5E7174B1B68B8
:102BF000DA6A154913469B0013449B000B441B687B
:102C0000012B01D901237B61114B1B68002B07D0DD
:102C100001237B6104E00F4B1B6801330D4A1360F5
:102C20007B6918461837BD4680BD00BF688D0024FB
:102C3000448D0024F88C0024FC8C0024588D002442
:102C4000608D0024488D0024708800246C88002446
:102C5000548D0024508D002480B485B000AF284BE3
:102C60001B68002B03D0274B01221A6041E0254B43
:102C700000221A60244B1B68FB6010E0FB68002BED
:102C80000AD14FF0500383F31188BFF36F8FBFF366
:102C90004F8F7B6000BFFEE7FB68013BFB601B4979
:102CA000FA6813469B0013449B000B441B68002BDF
:102CB000E4D0FA6813469B0013449B00134A134464
:102CC000BB60BB685B685A68BB685A60BB685A687F
:102CD000BB6808339A4204D1BB685B685A68BB681A
:102CE0005A60BB685B68DB68094A1360064AFB6888
:102CF000136000BF1437BD465DF8047B704700BF0A
:102D0000688D0024548D0024488D00247088002490
:102D10006C88002480B584B000AF786039607B682F
:102D2000002B0AD14FF0500383F31188BFF36F8F4C
:102D3000BFF34F8FFB6000BFFEE7074B1B681833E4
:102D400019467868FEF717F90121386800F07AFB18
:102D500000BF1037BD4680BD6C88002480B586B0AA
:102D600000AFF860B9607A60FB68002B0AD14FF0C1
:102D7000500383F31188BFF36F8FBFF34F8F7B61D5
:102D800000BFFEE70A4B1B6818331946F868FEF7C8
:102D9000CEF87B68002B02D04FF0FF33BB60796820
:102DA000B86800F04FFB00BF1837BD4680BD00BFBC
:102DB0006C88002480B586B000AF78607B68DB68E3
:102DC000DB683B613B69002B0AD14FF0500383F372
:102DD0001188BFF36F8FBFF34F8FFB6000BFFEE71B
:102DE0003B6918331846FEF7FFF81E4B1B68002B93
:102DF0001DD13B6904331846FEF7F6F83B69DA6AE1
:102E0000194B1B689A4203D93B69DB6A164A136067
:102E10003B69DA6A13469B0013449B00134A1A4429
:102E20003B69043319461046FEF781F805E03B691B
:102E3000183319460E48FEF77AF83B69DA6A0D4BEB
:102E40001B68DB6A9A4205D901237B610A4B012288
:102E50001A6001E000237B617B6918461837BD4684
:102E600080BD00BF688D0024488D00247088002438
:102E7000008D00246C880024548D002480B483B01D
:102E800000AF7860064B1A687B681A60054B1A68B9
:102E90007B685A6000BF0C37BD465DF8047B704705
:102EA000588D0024448D002480B588B000AF786030
:102EB00039607B68002B0AD14FF0500383F31188EF
:102EC000BFF36F8FBFF34F8F3B6100BFFEE73B68DF
:102ED000002B0AD14FF0500383F31188BFF36F8F9B
:102EE000BFF34F8FFB6000BFFEE7FEF7D3F91D4B2A
:102EF0001B68BB617B685B68BA69D31A7B613B68FE
:102F00001B68B3F1FF3F02D10023FB6123E07B6824
:102F10001A68154B1B689A4207D07B685B68BA69D0
:102F20009A4202D30123FB6115E03B681B687A6972
:102F30009A420BD23B681A687B69D21A3B681A60C6
:102F40007868FFF79BFF0023FB6104E03B680022E9
:102F50001A600123FB61FEF7CDF9FB6918462037A3
:102F6000BD4680BD448D0024588D002480B400AF40
:102F7000034B01221A6000BFBD465DF8047B704719
:102F8000548D002480B582B000AF786000F052F814
:102F9000064B1B68012BF9D9054B4FF080521A6084
:102FA000BFF34F8FBFF36F8FF0E700BF708800242F
:102FB00004ED00E080B582B000AF00237B600CE040
:102FC0007A6813469B0013449B00124A1344184628
:102FD000FDF780FF7B6801337B607B68372BEFD97F
:102FE0000D48FDF777FF0D48FDF774FF0C48FDF71E
:102FF00071FF0C48FDF76EFF0B48FDF76BFF0B4BA5
:10300000054A1A600A4B054A1A6000BF0837BD46D8
:1030100080BD00BF70880024D08C0024E48C002484
:10302000008D0024148D00242C8D0024F88C0024A5
:10303000FC8C002480B582B000AF19E0FEF72AF9BD
:10304000104BDB68DB687B607B6804331846FDF758
:10305000CBFF0D4B1B68013B0B4A13600B4B1B68EE
:10306000013B0A4A1360FEF745F9786800F010F852
:10307000064B1B68002BE1D100BF00BF0837BD46DF
:1030800080BD00BF148D0024408D0024288D0024B5
:1030900080B584B000AF78607B6893F85930002B1E
:1030A00008D17B681B6B1846FDF7F6FD7868FDF7C5
:1030B000F3FD18E07B6893F85930012B03D1786851
:1030C000FDF7EAFD0FE07B6893F85930022B0AD038
:1030D0004FF0500383F31188BFF36F8FBFF34F8F0F
:1030E000FB6000BFFEE700BF1037BD4680BD00009B
:1030F00080B483B000AF0C4B1B681B68002B04D15D
:103100000A4B4FF0FF321A6008E0074B1B68DB6880
:10311000DB687B607B685B68044A136000BF0C3728
:10312000BD465DF8047B7047F88C0024608D002458
:1031300080B483B000AF0B4B1B68002B02D101237E
:103140007B6008E0084B1B68002B02D102237B60E8
:1031500001E000237B607B6818460C37BD465DF8B4
:10316000047B70474C8D0024688D002480B584B0AA
:1031700000AF78607B68BB600023FB607B68002B3E
:1031800051D0BB68DA6A2A4B1B68DB6A9A4241D28B
:10319000BB689B69002B06DB254B1B68DB6AC3F110
:1031A0003802BB689A61BB685969BB68DA6A134622
:1031B0009B0013449B001F4A1344994222D1BB68D1
:1031C00004331846FDF710FF194B1B68DA6ABB6819
:1031D000DA62BB68DA6A184B1B689A4203D9BB688B
:1031E000DB6A154A1360BB68DA6A13469B00134416
:1031F0009B00104A1A44BB68043319461046FDF779
:1032000096FE04E00A4B1B68DA6ABB68DA620123A7
:10321000FB6008E0BB68DA6C054B1B68DB6A9A420E
:1032200001D20123FB60FB6818461037BD4680BD04
:103230006C88002470880024488D002480B586B0F6
:1032400000AF78607B683B6100237B617B68002B6B
:1032500056D02E4B1B683A699A420AD04FF0500361
:1032600083F31188BFF36F8FBFF34F8FFB6000BFF5
:10327000FEE73B691B6D002B0AD14FF0500383F32F
:103280001188BFF36F8FBFF34F8FBB6000BFFEE7A6
:103290003B691B6D5A1E3B691A653B69DA6A3B69DB
:1032A000DB6C9A422CD03B691B6D002B28D13B690B
:1032B00004331846FDF798FE3B69DA6C3B69DA6225
:1032C0003B69DB6AC3F138023B699A613B69DA6AA0
:1032D0000F4B1B689A4203D93B69DB6A0C4A1360A7
:1032E0003B69DA6A13469B0013449B00094A1A445F
:1032F0003B69043319461046FDF719FE01237B6133
:103300007B6918461837BD4680BD00BF6C88002415
:10331000488D00247088002480B588B000AF7860A4
:1033200039607B68BB6101237B617B68002B6AD0BD
:10333000BB691B6D002B0AD14FF0500383F311883A
:10334000BFF36F8FBFF34F8FFB6000BFFEE7BB691A
:10335000DB6C3A689A4202D93B68FB6102E0BB69C8
:10336000DB6CFB61BB69DB6AFA699A424BD0BB69D3
:103370001B6D7A699A4246D1254B1B68BA699A42FD
:103380000AD14FF0500383F31188BFF36F8FBFF35F
:103390004F8FBB6000BFFEE7BB69DB6A3B61BB6967
:1033A000FA69DA62BB699B69002B04DBFB69C3F134
:1033B0003802BB699A61BB6959693A6913469B0037
:1033C00013449B00134A134499421CD1BB69043334
:1033D0001846FDF709FEBB69DA6A0F4B1B689A4273
:1033E00003D9BB69DB6A0C4A1360BB69DA6A13460E
:1033F0009B0013449B00074A1A44BB6904331946D7
:103400001046FDF794FD00BF2037BD4680BD00BFCC
:103410006C88002470880024488D002480B400AF9C
:10342000074B1B68002B04D0054B1B681A6D01323B
:103430001A65034B1B681846BD465DF8047B704750
:103440006C88002480B584B000AF78603960214B6F
:103450001B68FB60204B1B6804331846FDF7C4FD56
:103460007B68B3F1FF3F0AD13B68002B07D01A4BB2
:103470001B68043319461948FDF759FD26E0FA6820
:103480007B681344BB60144B1B68BA685A60BA6807
:10349000FB689A4209D2124B1A680F4B1B6804331F
:1034A00019461046FDF767FD10E00E4B1A680A4BEF
:1034B0001B68043319461046FDF75DFD0A4B1B6877
:1034C000BA689A4202D2084ABB68136000BF10373C
:1034D000BD4680BD448D00246C8800242C8D0024C2
:1034E000FC8C0024F88C0024608D002480B58AB008
:1034F00004AF00237B6100F007FB1C4B1B68002B13
:1035000021D00023FB600023BB603A1D07F10801B6
:1035100007F10C031846FDF7D9FA7968BB68FA6819
:10352000029201930223009300230A461049114896
:10353000FEF7E0FF0346104A13600F4B1B68002B99
:1035400001D001237B617B69002B0AD14FF050032E
:1035500083F31188BFF36F8FBFF34F8F3B6100BFC1
:10356000FEE77B6918461837BD4680BD9C8D002458
:10357000F8370208B1360008A08D002480B58AB063
:1035800000AFF860B9607A603B6000237B62FB6843
:10359000002B0AD14FF0500383F31188BFF36F8FD4
:1035A000BFF34F8F3B6200BFFEE71A4B1B68002B37
:1035B0002AD0BB683B617B687B61FB68BB61BB68F1
:1035C000052B18DCFFF7B4FD0346022B09D1114B84
:1035D000186807F1100100233A6BFEF725F97862AD
:1035E00012E00C4B186807F1100100230022FEF7CF
:1035F0001BF9786208E0074B186807F110010023F7
:103600003A68FEF70FFA78627B6A18462837BD469B
:1036100080BD00BF9C8D002480B588B002AF78606B
:103620003960224B1B68DB68DB687B617B69043394
:103630001846FDF7D9FC7B6993F8283003F00403A2
:10364000002B22D07B699A697B68D1187B683A6825
:10365000786900F0D1F80346002B1FD000230093B7
:1036600000237A6800217869FFF788FF38613B6999
:10367000002B13D14FF0500383F31188BFF36F8FEA
:10368000BFF34F8FFB6000BFFEE77B6993F82830E4
:1036900023F00103DAB27B6983F828207B691B6A77
:1036A0007869984700BF1837BD4680BD948D0024C7
:1036B00080B584B000AF786007F10803184600F0C9
:1036C00057F8F860BB681946F86800F003F800F096
:1036D000D5F8F1E780B584B000AF78603960FFF7C6
:1036E00045F907F10803184600F066F8F860BB6872
:1036F000002B30D13B68002B0AD17A68FB689A42D4
:1037000006D8FFF741F9F9687868FFF785FF24E0EC
:103710003B68002B08D0134B1B681B68002B01D1A2
:10372000012300E000233B600F4B18687A68FB68B8
:10373000D31A3A681946FEF7A9FEFFF725F90346A2
:10374000002B0AD1094B4FF080521A60BFF34F8F04
:10375000BFF36F8F01E0FFF717F900BF1037BD46C9
:1037600080BD00BF988D00249C8D002404ED00E0F6
:1037700080B485B000AF78600E4B1B681B68002BCF
:1037800001D1012200E000227B681A607B681B687F
:10379000002B05D1074B1B68DB681B68FB6001E051
:1037A0000023FB60FB6818461437BD465DF8047BB8
:1037B000704700BF948D002480B584B000AF78605E
:1037C000FFF780F9F8600B4B1B68FA689A4205D244
:1037D00000F036F97B6801221A6002E07B68002263
:1037E0001A60044AFB681360FB6818461037BD4630
:1037F00080BD00BFA48D002480B586B000AFF86006
:10380000B9607A603B6000237B61FB68BA685A60EC
:10381000FB68FA681A61BA687B689A4212D87A68BB
:103820003B68D21AFB689B699A4202D301237B61F1
:103830001BE0104B1A68FB68043319461046FDF76D
:103840009AFB12E07A683B689A4206D2BA683B68F3
:103850009A4202D301237B6107E0074B1A68FB6899
:10386000043319461046FDF786FB7B691846183766
:10387000BD4680BD988D0024948D002480B58EB007
:1038800002AFCAE07B68002B18DA3B1D0433FB62F1
:10389000FB6A002B0AD14FF0500383F31188BFF36A
:1038A0006F8FBFF34F8FFB6100BFFEE7FB6A1B68A2
:1038B000FA6A5068FA6A9268114698477B68002B4A
:1038C000C0F2AA80FB68BB62BB6A5B69002B04D0B4
:1038D000BB6A04331846FDF787FB3B461846FFF7E3
:1038E0006BFF78627B68092B00F2978001A252F887
:1038F00023F000BF1D3900081D3900081D390008DC
:1039000091390008A5390008EF3900081D39000871
:103910001D39000891390008A5390008BB6A93F8E1
:10392000283043F00103DAB2BB6A83F82820BA6872
:10393000BB6A9B69D118BB687A6AB86AFFF75CFFFB
:103940000346002B69D0BB6A1B6AB86A9847BB6AFA
:1039500093F8283003F00403002B5ED0BA68BB6AEA
:103960009B691A440023009300230021B86AFFF7E3
:1039700005FE38623B6A002B4FD14FF0500383F3B2
:103980001188BFF36F8FBFF34F8FBB6100BFFEE79E
:10399000BB6A93F8283023F00103DAB2BB6A83F8DC
:1039A00028203AE0BB6A93F8283043F00103DAB2EA
:1039B000BB6A83F82820BA68BB6A9A61BB6A9B69B4
:1039C000002B0AD14FF0500383F31188BFF36F8FA0
:1039D000BFF34F8F7B6100BFFEE7BB6A9A697B6ACA
:1039E000D1187B6A7A6AB86AFFF706FF15E0BB6AEE
:1039F00093F8283003F00203002B03D1B86AFDF7D7
:103A00004BF90AE0BB6A93F8283023F00103DAB2DD
:103A1000BB6A83F8282000E000BF084B1B68391DF3
:103A200000221846FEF726F90346002B7FF42AAF42
:103A300000BF00BF3037BD4680BD00BF9C8D002455
:103A400080B588B002AF48E02D4B1B68DB681B686F
:103A50003B612B4B1B68DB68DB68FB60FB68043356
:103A60001846FDF7C1FAFB681B6AF8689847FB68BF
:103A700093F8283003F00403002B2ED0FB689B69D9
:103A80003A691344BB60BA683B699A420ED9FB6835
:103A9000BA685A60FB68FA681A61194B1A68FB68C1
:103AA000043319461046FDF766FA16E0002300932A
:103AB00000233A690021F868FFF760FD78607B68B1
:103AC000002B0AD14FF0500383F31188BFF36F8F9F
:103AD000BFF34F8F3B6000BFFEE7094B1B681B68BD
:103AE000002BB1D1064B1B687B61064B1B68044A57
:103AF0001360044A7B69136000BF1837BD4680BD60
:103B0000948D0024988D002480B582B002AFFDF71B
:103B1000C1FB154B1B68002B20D11448FDF7DAF9C7
:103B20001348FDF7D7F9134B104A1A60124B104A8D
:103B30001A6000230093114B114A10210A20FDF74F
:103B400033FD0346084A1360074B1B68002B05D062
:103B5000054B1B680B491846FEF744FCFDF7CAFBF2
:103B600000BFBD4680BD00BF9C8D00246C8D00242D
:103B7000808D0024948D0024988D0024488E00248C
:103B8000A88D00240038020880B586B000AF00F090
:103B9000AFFB5A4B5B6903F40033002B1BD1BFF31F
:103BA0004F8F00BFBFF36F8F00BF544B0022C3F88D
:103BB0005022BFF34F8F00BFBFF36F8F00BF4F4B3B
:103BC0005B694E4A43F400335361BFF34F8F00BF2C
:103BD000BFF36F8F00E000BF484B5B6903F4803395
:103BE000002B38D1454B0022C3F88420BFF34F8F00
:103BF00000BF424BD3F880303B613B695B0BC3F3A2
:103C00000E03FB603B69DB08C3F30903BB60FB6881
:103C10005A0143F6E0731340BA68920737491343D9
:103C2000C1F86032BB685A1EBA60002BEFD1FB6846
:103C30005A1EFA60002BE5D1BFF34F8F00BF2F4B08
:103C40005B692E4A43F480335361BFF34F8F00BF4B
:103C5000BFF36F8F00E000BF07F0BAFF00F05EF81F
:103C6000274BD3F8E030264A43F00073C2F8E03027
:103C7000234BD3F8E03003F000737B607B680020B7
:103C800008F0E8FE0021002008F0FEFE4FF6FF736A
:103C90007B6100BF1A4B1B6803F40043002B04D167
:103CA0007B695A1E7A61002BF4DC7B69002B01DAF8
:103CB00000F068FB00F008FA00F082F900F0AEF9BD
:103CC00000F0FAF800F0B8F800F0D8F801F00FF9B9
:103CD000FCF79AFB0B4A00210B48FCF7DFFB03467D
:103CE0000A4A13600A4A00210A48FCF7D7FB034638
:103CF000094A1360FCF7ACFBFEE700BF00ED00E0F3
:103D00000044025864430208E14200084C90002439
:103D100088430208FB4E00085090002480B59CB0F8
:103D200000AF07F124034C22002118461EF030FD9D
:103D30003B1D2022002118461EF02AFD04200AF017
:103D40000DFA00233B60394BDB6A384A23F001034C
:103D5000D362364BDB6A03F001033B60344B9B6953
:103D6000334A43F440439361314B9B6903F440432E
:103D70003B603B6800BF2E4B9B6903F40053B3F5D7
:103D8000005FF8D12B4B9B6A23F00303294A43F0D1
:103D90000203936203237B624FF48033BB620123EF
:103DA0003B6340237B630223BB640223FB64052344
:103DB0003B65A0237B650223BB650423FB650223CF
:103DC0003B6608237B660023BB660023FB6607F186
:103DD000240318460BF0FEF80346002B01D000F038
:103DE000D1FA3F237B600323BB600023FB600823E1
:103DF0003B6140237B614023BB614FF48063FB61E7
:103E000040233B623B1D022118460BF011FD034687
:103E1000002B01D000F0B6FA4FF4802200210020E0
:103E20000BF0BCFE00BF7037BD4680BD00040058DB
:103E3000004802580044025880B500AF0D4B0E4AAE
:103E40001A600C4B00221A710A4B00225A71094B5E
:103E500000225A61074B00229A61064B01221A6226
:103E6000044808F0ABF80346002B01D000F08AFAB2
:103E700000BF80BD988E0024004C025880B500AF72
:103E80000B4B0C4A1A600A4B4FF440325A60084BF5
:103E900002229A60064B0022DA60054808F078F9A1
:103EA0000346002B01D000F06DFA00BF80BD00BFBB
:103EB000BC8E00240010005280B58EB000AF00F020
:103EC00067FA3B1D3422002118461EF061FC3A4B74
:103ED0003A4A1A60384B00225A60374B00229A60E7
:103EE000354B0022DA60344B00221A61324B282213
:103EF0005A61314B09229A612F4B3522DA612E4BE0
:103F00000B221A622C4B40F215225A622A4B40F2C5
:103F10001B129A62284B40F23522DA62264B40F29D
:103F20001D121A63244B002283F83420224B0022F6
:103F300083F83520204B002283F836201E4809F0F4
:103F400011FC0346002B01D000F01CFA00237B601B
:103F50004FF4F073BB600023FB604FF488733B6148
:103F600002237B61FF23BB610023FB614FF480636D
:103F70003B6205237B624FF05043BB624FF4F0730A
:103F8000FB624FF488733B63002387F834300023CF
:103F900087F83530002387F836303B1D002219465C
:103FA000054809F067FD0346002B01D000F0EAF94F
:103FB00000BF3837BD4680BD248F0024001000505C
:103FC00080B500AF124B134A1A60114B01225A60A0
:103FD0000F4B01229A600E4B1022DA600C4B1A2212
:103FE0001A610B4B4FF400725A61094B00229A611F
:103FF000074B40221A6206480AF00AF90346002BD2
:1040000001D000F0BFF9044800F036FA00BF80BDCF
:10401000CC8F0024005000528543000880B588B042
:1040200000AF3B1D00221A605A609A60DA601A6184
:104030005A619A61214B224A1A60204B01225A6030
:104040001E4B00229A601D4B0422DA601B4B10228B
:104050001A611A4B40225A61184B4FF480729A61D0
:10406000164B0022DA61154B4FF400621A62134BB3
:104070004FF480525A62114B00229A6202237B60F5
:104080000623BB600423FB6006233B6102237B61A4
:104090000223BB610223FB613B1D194607480DF05B
:1040A000A9F80346002B01D000F06CF9054800F098
:1040B00004FA00BF2037BD4680BD00BF1890002421
:1040C000404100528543000880B590B000AF07F131
:1040D0002C0300221A605A609A60DA601A617B4BE6
:1040E000D3F8E030794A43F48063C2F8E030774B8C
:1040F000D3F8E03003F48063BB62BB6A734BD3F840
:10410000E030724A43F04003C2F8E0306F4BD3F81E
:10411000E03003F040037B627B6A6C4BD3F8E03005
:104120006A4A43F48073C2F8E030684BD3F8E03059
:1041300003F480733B623B6A644BD3F8E030634A1C
:1041400043F01003C2F8E030604BD3F8E03003F0E6
:104150001003FB61FB695D4BD3F8E0305B4A43F031
:104160000203C2F8E030594BD3F8E03003F0020309
:10417000BB61BB69554BD3F8E030544A43F400733C
:10418000C2F8E030514BD3F8E03003F400737B61A8
:104190007B694E4BD3F8E0304C4A43F00803C2F839
:1041A000E0304A4BD3F8E03003F008033B613B6951
:1041B000464BD3F8E030454A43F00103C2F8E03003
:1041C000424BD3F8E03003F00103FB60FB683F4B48
:1041D000D3F8E0303D4A43F02003C2F8E0303B4BD7
:1041E000D3F8E03003F02003BB60BB68374BD3F853
:1041F000E030364A43F08003C2F8E030334BD3F866
:10420000E03003F080037B607B680022C0213048EF
:1042100008F0ECFB002208212E4808F0E7FB002202
:1042200040212D4808F0E2FB002204212B4808F031
:10423000DDFBC023FB6201233B6300237B6303237D
:10424000BB6307F12C031946214808F015F94FF418
:104250008073FB6202233B6300237B630023BB6309
:104260000023FB6307F12C0319461B4808F004F9EF
:104270000823FB6201233B6300237B630323BB63AF
:1042800007F12C031946134808F0F6F84023FB62A7
:1042900001233B6300237B630323BB6307F12C03F0
:1042A00019460D4808F0E8F80423FB6201233B633C
:1042B00000237B630023BB6307F12C0319460748E7
:1042C00008F0DAF800BF4037BD4680BD0044025810
:1042D0000004025800180258000002580024025836
:1042E00080B582B000AF78600120FCF769F9FBE788
:1042F00080B584B000AF3B4600221A605A609A60D5
:10430000DA6007F0DFFD01233B7000237B704FF084
:1043100050437B6013233B7200237B720023BB72EC
:104320000323FB7201233B7300237B730123BB73C5
:104330000123FB733B46184607F0FCFD01237B700D
:104340004FF010437B601A233B723B46184607F040
:10435000F1FD042007F0CEFD00BF1037BD4680BD43
:1043600080B582B000AF78607B681B68044A9342D6
:1043700001D107F069FC00BF0837BD4680BD00BF12
:104380000010004080B400AF72B600BFFEE700002E
:1043900080B58CB000AF364BD3F8E430344A43F0EC
:1043A0000803C2F8E430324BD3F8E43003F00803DA
:1043B000BB61BB692E4BD3F8E0302D4A43F48073C8
:1043C000C2F8E0302A4BD3F8E03003F480737B610D
:1043D0007B69274BD3F8E030254A43F40073C2F8D9
:1043E000E030234BD3F8E03003F400733B613B69CA
:1043F0001F4BD3F8E0301E4A43F48063C2F8E0302C
:104400001B4BD3F8E03003F48063FB60FB68184B70
:10441000D3F8E030164A43F08003C2F8E030144B82
:10442000D3F8E03003F08003BB60BB68104BD3F8D7
:10443000E0300F4A43F00803C2F8E0300C4BD3F8E9
:10444000E03003F008037B607B688023FB6101237D
:104450003B6207F11C031946064808F00DF80122DB
:104460008021044808F0C2FA00BF3037BD4680BD45
:1044700000440258000C025880B584B000AF786048
:1044800003233B7301237B734023BB7307F10C03AE
:104490001946002006F056FB0346002B01D07B682E
:1044A0009847002006F028FC0346002B01D07B68CB
:1044B000984700BF1037BD4680BD80B582B000AFC1
:1044C0007860002006F086FF002006F027FF0346F4
:1044D000002B01D07B68984700BF0837BD4680BDE0
:1044E00080B582B000AF0C4BD3F8F4300A4A43F0E9
:1044F0000203C2F8F430084BD3F8F43003F002039F
:104500007B607B6800220F216FF0010007F0A4FCA4
:1045100000BF0837BD4680BD0044025880B485B056
:1045200000AF78607B681B680B4A93420ED10B4B3F
:10453000D3F8E030094A43F40023C2F8E030074BD7
:10454000D3F8E03003F40023FB60FB6800BF1437AE
:10455000BD465DF8047B7047004C02580044025889
:1045600080B584B000AF78607B681B680E4A9342C8
:1045700016D10E4BD3F8D4300C4A43F01003C2F8D6
:10458000D4300A4BD3F8D43003F01003FB60FB683F
:10459000002205215A2007F05FFC5A2007F076FC24
:1045A00000BF1037BD4680BD0010005200440258C5
:1045B00080B5BCB000AF786007F1DC0300221A6060
:1045C0005A609A60DA601A6107F12003BC22002168
:1045D00018461EF0DDF87B681B68684A934240F07D
:1045E000C8804FF000533B6205237B64A023BB646B
:1045F0000223FB6402233B6553237B654FF4006376
:10460000BB650023FB6500233B6607F120031846CA
:104610000BF046FD0346002B01D0FFF7B3FE584BCD
:10462000D3F8E430564A43F00803C2F8E430544B60
:10463000D3F8E43003F00803FB61FB69504BD3F877
:10464000E0304F4A43F48063C2F8E0304C4BD3F87B
:10465000E03003F48063BB61BB69494BD3F8E030C1
:10466000474A43F48073C2F8E030454BD3F8E0305A
:1046700003F480737B617B69414BD3F8E030404A9F
:1046800043F40073C2F8E0303D4BD3F8E03003F45C
:1046900000733B613B693A4BD3F8E030384A43F052
:1046A0008003C2F8E030364BD3F8E03003F08003EB
:1046B000FB60FB68FC23C7F8DC300223C7F8E0305E
:1046C0000023C7F8E4300223C7F8E8300E23C7F808
:1046D000EC3007F1DC0319462A4807F0CDFE4DF215
:1046E0000323C7F8DC300223C7F8E0300023C7F803
:1046F000E4300223C7F8E8300E23C7F8EC3007F1A6
:10470000DC031946204807F0B7FE4FF6FB73C7F8E5
:10471000DC300223C7F8E0300023C7F8E43002237E
:10472000C7F8E8300E23C7F8EC3007F1DC03194670
:10473000164807F0A1FE4FF40073C7F8DC300223DF
:10474000C7F8E0300023C7F8E4300223C7F8E830A8
:104750000E23C7F8EC3007F1DC0319460C4807F0CC
:104760008BFE00220521582007F076FB582007F029
:104770008DFB00BFF037BD4680BD00BF001000506C
:104780000044025800280258002002580024025811
:10479000001C025880B5BCB000AF786007F1DC03A4
:1047A00000221A605A609A60DA601A6107F12003E9
:1047B000BC22002118461DF0EBFF7B681B68764A7F
:1047C000934240F0E4804FF000733B620023BB66ED
:1047D00007F1200318460BF063FC0346002B01D0C1
:1047E000FFF7D0FD6D4BD3F8D4306C4A43F48043CF
:1047F000C2F8D430694BD3F8D43003F48043FB6162
:10480000FB69664BD3F8E030644A43F04003C2F8DA
:10481000E030624BD3F8E03003F04003BB61BB698A
:104820005E4BD3F8E0305D4A43F02003C2F8E0303D
:104830005A4BD3F8E03003F020037B617B69574B80
:10484000D3F8E030554A43F08003C2F8E030534BD0
:10485000D3F8E03003F080033B613B694F4BD3F862
:10486000E0304E4A43F00803C2F8E0304B4BD3F837
:10487000E03003F00803FB60FB684FF48443C7F8A3
:10488000DC300223C7F8E0300023C7F8E43003230C
:10489000C7F8E8300923C7F8EC3007F1DC03194604
:1048A0003F4807F0E9FD4023C7F8DC300223C7F892
:1048B000E0300123C7F8E4300323C7F8E8300A23C7
:1048C000C7F8EC3007F1DC031946354807F0D4FD92
:1048D0004FF49863C7F8DC300223C7F8E0300023B8
:1048E000C7F8E4300323C7F8E8300923C7F8EC30F1
:1048F00007F1DC0319462B4807F0BEFD4FF40073A7
:10490000C7F8DC300223C7F8E0300023C7F8E430F2
:104910000323C7F8E8300A23C7F8EC3007F1DC03BB
:104920001946204807F0A8FD0C23C7F8DC30022305
:10493000C7F8E0300023C7F8E4300323C7F8E830B5
:104940000923C7F8EC3007F1DC031946164807F0D5
:1049500093FD4FF40063C7F8DC300223C7F8E03062
:104960000023C7F8E4300323C7F8E8300923C7F869
:10497000EC3007F1DC0319460C4807F07DFD0022FE
:1049800005215C2007F068FA5C2007F07FFA00BF81
:10499000F037BD4680BD00BF0050005200440258B1
:1049A0000018025800140258001C0258000C02584B
:1049B00080B5B6B000AF07F1C40300221A605A6098
:1049C0009A60DA601A614F4B1B68002B40F09680AA
:1049D0004C4B01221A6007F10803BC220021184643
:1049E0001DF0D6FE4FF08073BB600023FB6407F11F
:1049F000080318460BF054FB0346002B01D0FFF7C9
:104A0000C1FC414BD3F8D4303F4A43F48053C2F841
:104A1000D4303D4BD3F8D43003F480537B607B68B3
:104A20004FF68373C7F8C4300223C7F8C830002399
:104A3000C7F8CC300323C7F8D0300C23C7F8D430E4
:104A400007F1C4031946314807F016FD48F2331345
:104A5000C7F8C4300223C7F8C8300023C7F8CC30E9
:104A60000323C7F8D0300C23C7F8D43007F1C403B0
:104A70001946274807F000FD4CF20373C7F8C4300D
:104A80000223C7F8C8300023C7F8CC300323C7F887
:104A9000D0300C23C7F8D43007F1C40319461D48A1
:104AA00007F0EAFC4FF63F03C7F8C4300223C7F80B
:104AB000C8300023C7F8CC300323C7F8D0300C230C
:104AC000C7F8D43007F1C4031946134807F0D4FCE3
:104AD000E023C7F8C4300223C7F8C8300023C7F862
:104AE000CC300323C7F8D0300C23C7F8D43007F1FB
:104AF000C4031946094807F0BFFC00E000BFD837DF
:104B0000BD4680BD54900024004402580010025855
:104B100000180258000C025800140258001C0258D9
:104B200080B582B000AF7860FFF742FF00BF083762
:104B3000BD4680BD80B500AF144B1B68002B23D150
:104B4000124B01221A60124BD3F8D430104A23F4CE
:104B50008053C2F8D4304FF683710E4807F03CFE04
:104B600048F233110C4807F037FE4CF203710B4842
:104B700007F032FE4FF63F01094807F02DFEE02115
:104B8000084807F029FE00E000BF80BD58900024CF
:104B9000004402580010025800180258000C025835
:104BA00000140258001C025880B582B000AF786033
:104BB000FFF7C0FF00BF0837BD4680BD80B590B08D
:104BC00000AF78607B680F2B27D8002279683620E9
:104BD00007F042F9362007F059F9294A7B6813603B
:104BE000284BD3F8E830274A43F01003C2F8E830E6
:104BF000244BD3F8E83003F01003FB60FB6807F1A7
:104C0000100207F11403114618460BF007FABB6AAD
:104C1000BB63BB6B002B06D101E001232BE00BF043
:104C2000D1F9F86304E00BF0CDF903465B00FB63B8
:104C3000FB6B154AA2FB03239B0C013B7B63134BCD
:104C4000134A1A60114B40F2E732DA600F4A7B6B6D
:104C500053600E4B00221A610C4B00229A600B48E5
:104C60000CF07DFB0346002B04D108480CF0D8FB68
:104C7000034600E0012318464037BD4680BD00BF13
:104C8000480000240044025883DE1B435C9000244B
:104C90000010004080B400AFFEE780B400AFFEE734
:104CA00080B400AFFEE780B400AFFEE780B400AF91
:104CB000FEE780B400AF00BFBD465DF8047B7047DF
:104CC00080B500AF02480CF023FC00BF80BD00BFE0
:104CD0005C90002480B500AF024808F013FE00BFCE
:104CE00080BD00BF248F002480B500AF024807F0CC
:104CF000B3FA00BF80BD00BFBC8E002480B500AFFA
:104D0000024809F0F9FA00BF80BD00BFCC8F002433
:104D100080B400AF01231846BD465DF8047B7047A0
:104D200080B582B000AF786039601DF0D7FC0346D3
:104D300016221A604FF0FF3318460837BD4680BD73
:104D400080B582B000AF78604FF0FF317868FFF730
:104D5000E7FFFEE780B586B000AFF860B9607A6023
:104D600000237B610AE0AFF300800146BB685A1C58
:104D7000BA60CAB21A707B6901337B617A697B6859
:104D80009A42F0DB7B6818461837BD4680BD80B577
:104D900086B000AFF860B9607A6000237B6109E0FB
:104DA000BB685A1CBA601B781846AFF300807B6959
:104DB00001337B617A697B689A42F1DB7B68184634
:104DC0001837BD4680BD80B483B000AF78604FF027
:104DD000FF3318460C37BD465DF8047B704780B43E
:104DE00083B000AF786039603B684FF400525A607E
:104DF000002318460C37BD465DF8047B704780B42D
:104E000083B000AF7860012318460C37BD465DF8CB
:104E1000047B704780B485B000AFF860B9607A60F9
:104E2000002318461437BD465DF8047B7047000028
:104E300080B586B000AF7860144A154BD31A7B61F9
:104E40007B693B61134B1B68002B02D1114B124A4B
:104E50001A60104B1A687B6813443A699A4207D269
:104E60001DF03CFC03460C221A604FF0FF3309E0B2
:104E7000084B1B68FB60074B1A687B681344054AA4
:104E80001360FB6818461837BD4680BD0000082433
:104E900000100000A890002448B10024DFF834D0AE
:104EA00004F064FA0C480D490D4A002302E0D4587E
:104EB000C4500433C4188C42F9D30A4A0A4C002364
:104EC00001E013600432A242FBD31DF01FFCFEF789
:104ED0005BFE704700000824000000242C01002421
:104EE000405502082C01002448B10024FEE780B59B
:104EF00000AF01F029FD00BF80BD80B582B000AFDA
:104F0000786001F04BFD00BF0837BD4680BD000052
:104F100080B483B000AF7860044A7B681A607B6815
:104F200018460C37BD465DF8047B7047CC43020839
:104F300080B582B000AF78607868FFF7E9FF0421A0
:104F400078681DF06AFB7B6818460837BD4680BD4F
:104F500080B582B000AF786000F050FB00BF08372A
:104F6000BD4680BD80B584B000AFF860B9607A609E
:104F70007968B86800F066FB034618461037BD46EE
:104F800080BD000080B582B000AF7860054A7B68C4
:104F90001A607B681846FFF7BBFF7B681846083726
:104FA000BD4680BDB443020880B582B000AF7860D2
:104FB0007868FFF7E7FF042178681DF02EFB7B6817
:104FC00018460837BD4680BD80B582B000AF0346A5
:104FD000FB71FB79032B47D801A252F823F000BFE5
:104FE000F14F00080F5000082D5000084B500008EA
:104FF000FB791F4A52F82330002B0CBF01230023FA
:10500000DBB21A4640211B4807F0F0FC2CE0FB798C
:10501000174A52F82330002B0CBF01230023DBB2C8
:105020001A468021134807F0E1FC1DE0FB79104A85
:1050300052F82330002B0CBF01230023DBB21A46A9
:1050400008210D4807F0D2FC0EE0FB79084A52F81F
:105050002330002B0CBF01230023DBB21A46402172
:10506000064807F0C3FC00BF00BF0837BD4680BD3F
:10507000AC900024000402580018025800000258A6
:1050800080B582B000AF0346FB71FB79032B47D894
:1050900001A252F823F000BFA9500008C750000831
:1050A000E550000803510008FB791F4A52F82330ED
:1050B000002B01D0012300E000231A4640211B48A9
:1050C00007F094FC2CE0FB79174A52F82330002BB0
:1050D00001D0012300E000231A468021134807F085
:1050E00085FC1DE0FB79104A52F82330002B01D0DB
:1050F000012300E000231A4608210D4807F076FC42
:105100000EE0FB79084A52F82330002B01D001232E
:1051100000E000231A464021064807F067FC00BF64
:1051200000BF0837BD4680BDAC9000240004025883
:10513000001802580000025880B582B000AF034644
:10514000FB71FB79032B1FD801A252F823F000BF9B
:10515000615100086B510008755100087F5100082B
:1051600040210B4807F05BFC0EE08021084807F067
:1051700056FC09E00821074807F051FC04E04021F3
:10518000054807F04CFC00BF00BF0837BD4680BD96
:1051900000040258001802580000025880B483B07E
:1051A00000AF7860044A7B681A607B6818460C3749
:1051B000BD465DF8047B7047684C020880B582B03C
:1051C00000AF78607868FFF7E9FF7C2178681DF010
:1051D00024FA7B6818460837BD4680BD80B483B08A
:1051E00000AF78600B46FB707B68FA7883F8742018
:1051F0007B68012283F8752000BF0C37BD465DF83F
:10520000047B704780B582B000AF78600B467B802E
:1052100013463B800C4B1B887A889A4204D30B4B75
:105220001B883A889A4205D2094B0A4A9E210A48AD
:105230001DF022FA094A7B881380094A3B881380B3
:1052400000BF0837BD4680BD98AE00249AAE00244A
:105250002438020888380208CC3802089EAE0024A0
:10526000A0AE002480B582B000AF78607B6893F870
:105270007730002B09D07B685A687B685B681B68B5
:105280001B6810469847034600E00023184608377D
:10529000BD4680BD80B582B000AF786078680DF003
:1052A000C5FC7B681B68AC331B687868984700BFF7
:1052B0000837BD4680BD80B483B000AF78603960E8
:1052C000002318460C37BD465DF8047B704700008C
:1052D00080B584B000AFF860B9607A603B60BB68AD
:1052E000002B06D10F4B104A40F2D2210F481DF07F
:1052F000C3F9FB68BA68DA63FB687A681A647B688A
:10530000002B14BF01230023DAB2094B1A70FB688B
:105310001B688C331B683968F868984700BF1037E2
:10532000BD4680BD2039020858390208CC38020831
:10533000A2AE002480B483B000AF786039607B688F
:105340003A685A643B68002B14BF01230023DAB289
:10535000034B1A7000BF0C37BD465DF8047B7047E5
:10536000A3AE002480B483B000AF78600023184659
:105370000C37BD465DF8047B704780B582B000AF46
:1053800078600B467B807B689B6B002B04D07B682E
:105390009B6B7A881046984700BF0837BD4680BD92
:1053A00080B483B000AF78604FF6FF7318460C37B7
:1053B000BD465DF8047B704780B582B000AF786071
:1053C0007B685A687B685B681B6818331B681046EB
:1053D0009847034618460837BD4680BD80B485B05F
:1053E00000AF78607B6893F874207B6893F8343062
:1053F0009A4211D0144B1B78002B1ED1134B1B88E3
:10540000BB81134B1A88114B1A80114ABB89138038
:105410000D4B01221A7010E00B4B1B78002B0CD0A7
:105420000A4B1B88FB810A4B1A88084B1A80084AD2
:10543000FB891380044B00221A7000BF1437BD464D
:105440005DF8047B704700BF9CAE00249AAE002438
:1054500098AE002480B582B000AF78607B681846B3
:105460000CF04AFE00BF0837BD4680BD80B582B053
:1054700000AF7860054A7B681A607B681846FFF7C2
:105480008DFE7B6818460837BD4680BD544702082C
:1054900080B582B000AF78607868FFF7E7FF7C21C5
:1054A00078681DF0BAF87B6818460837BD4680BD9D
:1054B00080B582B000AF78607B681846FFF7CAFFFE
:1054C00000BF0837BD4680BD80B582B000AF7860B0
:1054D0007B68184601F04EFD00BF0837BD4680BD11
:1054E00080B582B000AF78607B68184601F0E4FDBB
:1054F000034618460837BD4680BD80B582B000AF70
:10550000786039607B683968184601F0E3FD00BFB8
:105510000837BD4680BD80B582B000AF7860396085
:105520007B683968184601F0EBFD00BF0837BD46BF
:1055300080BD80B584B000AFF860B9607A603B6030
:10554000F8683B687A68B96801F032FE034618468D
:105550001037BD4680BD80B582B000AF78607B68F3
:10556000184601F02BFD00BF0837BD4680BD80B551
:1055700082B000AF78607B68184601F02FFD00BF55
:105580000837BD4680BD80B582B000AF78607B68CB
:10559000184601F031FD00BF0837BD4680BD80B51B
:1055A00082B000AF78607B68184601F033FD00BF21
:1055B0000837BD4680BD000080B582B000AF78607E
:1055C000054A7B681A607B681846FFF74FFF7B68C7
:1055D00018460837BD4680BDE443020880B582B056
:1055E00000AF78607868FFF7E7FF7C2178681DF0EE
:1055F00014F87B6818460837BD4680BD80B584B076
:1056000000AF4FF4F0733B604FF488737B60082366
:10561000BB600023FB603B461946002006F060F8A3
:105620000346002B14BF01230023DBB2002B03D160
:10563000034B01221A7000E000BF1037BD4680BD49
:10564000BC90002480B582B000AF78603960114B07
:105650001B7883F00103DBB2002B01D0002314E0A0
:105660000D49002006F0F8F80B4B1B68002B01D108
:1056700000230AE0084B5B681A467B681A60064BF9
:105680009B681A463B681A60012318460837BD46D6
:1056900080BD00BFBC900024C090002480B500AF46
:1056A000002201210120FAF7A6FF03460F4A1360EA
:1056B0000E4B1B68002B05D10D4B0E4A28210E48BE
:1056C0001CF0DAFF002204210120FBF7B3F80346A7
:1056D0000A4A1360094B1B68002B05D1084B054A89
:1056E0002C2105481CF0C8FF00BF80BDCC900024D1
:1056F000A8390208F4390208243A0208D09000249C
:10570000A43A020880B500AF044B1B684FF0FF318C
:105710001846FAF7F9FF00BF80BD00BFCC90002407
:1057200080B500AF034B1B681846FBF73FF800BF7E
:1057300080BD00BFCC90002480B500AF034B1B6838
:1057400000211846FAF7E0FF00BF80BDCC9000248E
:1057500080B500AF034B1B681846FBF727F800BF66
:1057600080BD00BFCC90002480B500AF044B18680A
:10577000002300220349FBF7D1F800BF80BD00BF22
:10578000D09000240800002480B582B000AF094BFF
:105790001868391D00230022FBF720F9054B186813
:1057A000391D4FF0FF330022FBF718F900BF08370F
:1057B000BD4680BDD090002480B483B000AF0346C6
:1057C000FB80B7F90630002B0BDBFB8803F01F02D0
:1057D0000749B7F906305B09012000FA02F241F8E7
:1057E000232000BF0C37BD465DF8047B704700BF27
:1057F00000E100E080B483B000AF0346FB80B7F95E
:105800000630002B12DBFB8803F01F020A49B7F9B0
:1058100006305B09012000FA02F2203341F8232010
:10582000BFF34F8F00BFBFF36F8F00BF00BF0C37B8
:10583000BD465DF8047B704700E100E080B483B0B2
:1058400000AF78607B6800221A607B6818460C37CE
:10585000BD465DF8047B704780B483B000AF7860CC
:105860007B681B6818460C37BD465DF8047B7047A3
:1058700080B483B000AF7860044A7B681A607B68AC
:1058800018460C37BD465DF8047B70470C4502088E
:1058900080B582B000AF78607868FFF7E9FF042137
:1058A00078681CF0BAFE7B6818460837BD4680BD94
:1058B00080B582B000AF78607B681B6844331B689A
:1058C0007868984700BF0837BD4680BD80B483B074
:1058D00000AF7860044A7B681A607B6818460C3712
:1058E000BD465DF8047B7047404D020880B582B02C
:1058F00000AF78607868FFF7E9FF0C2178681CF04A
:105900008CFE7B6818460837BD4680BD80B483B0E6
:1059100000AF78603960094A7B681A607B683A6832
:105920005A607B6800221A727B6800225A727B6878
:1059300018460C37BD465DF8047B7047404D0208A1
:1059400080B483B000AF7860012318460C37BD46A1
:105950005DF8047B704780B582B000AF78607A68EC
:105960007B681B6828331B681046984700BF0837C0
:10597000BD4680BD80B400AF034B1B681846BD46D2
:105980005DF8047B704700BFA4AE002480B582B0F0
:1059900000AF78607B685A687B685B681B6814336B
:1059A0001B681046984700BF0837BD4680BD80B5CC
:1059B00082B000AF7860FFF7DDFF03461846FFF7BF
:1059C000E5FF00BF0837BD4680BD80B582B000AF9F
:1059D00078607B680C331846FFF730FF7B68184609
:1059E0000837BD4680BD0000B0B582B000AF78601A
:1059F0007A687B680C3319461046FFF787FF0E4A1A
:105A00007B681A607B6803F10C007B68203360229E
:105A100019460DF045FA7B6820335F241D46002CA3
:105A200005DB2846FFF7D1FF2435013CF7E77B680B
:105A300018460837BD46B0BDBC44020880B582B0E8
:105A400000AF7860094A7B681A605A20FFF7D2FEDF
:105A50007B680C33184600F0CBFA7B681846FFF7DA
:105A600035FF7B6818460837BD4680BDBC44020838
:105A700080B582B000AF78607868FFF7DFFF4FF441
:105A80005A6178681CF0C9FD7B6818460837BD4626
:105A900080BD000080B584B000AF7860124BD3F8B1
:105AA000D430114A43F01003C2F8D4300E4BD3F86F
:105AB000D43003F01003FB60FB680B4BDB6F0A4A2A
:105AC00043F01003D367084BDB6F074A23F0100342
:105AD000D367064B064A1A625A20FFF76DFE00BFD5
