:020000040800F2
:10000000B8060020290200083D1B00085919000805
:10001000391B00083B0400088F1F00080000000087
:10002000000000000000000000000000431B00086A
:100030003F04000800000000411B0008451B0008A9
:10004000430200084302000843020008430200087C
:10005000430200084302000843020008430200086C
:10006000430200084302000843020008430200085C
:10007000430200084302000843020008430200084C
:10008000430200084302000843020008430200083C
:10009000430200084302000843020008430200082C
:1000A000430200084302000843020008191C00082C
:1000B000430200084302000843020008430200080C
:1000C00043020008430200084302000843020008FC
:1000D00043020008430200084302000843020008EC
:1000E00043020008430200084302000843020008DC
:1000F00043020008430200084302000843020008CC
:1001000043020008430200084302000843020008BB
:1001100043020008430200084302000843020008AB
:10012000430200084302000843020008430200089B
:10013000430200084302000843020008430200088B
:10014000430200084302000843020008430200087B
:10015000430200084302000843020008430200086B
:10016000430200084302000843020008430200085B
:100170004302000843020008430200080000000098
:10018000430200084302000800F002F800F03CF8C7
:100190000AA090E8000C82448344AAF10107DA45E2
:1001A00001D100F031F8AFF2090EBAE80F0013F0F8
:1001B000010F18BFFB1A43F001031847FC2200008F
:1001C0001C230000103A24BF78C878C1FAD852071F
:1001D00024BF30C830C144BF04680C6070470000C1
:1001E0000023002400250026103A28BF78C1FBD840
:1001F000520728BF30C148BF0B6070471FB502F0DF
:1002000039F91FBD10B510BD00F0E2F81146FFF737
:10021000F5FF02F073F800F000F903B4FFF7F2FF06
:1002200003BC00F003F90000094880470948004773
:10023000FEE7FEE7FEE7FEE7FEE7FEE7FEE7FEE796
:10024000FEE7FEE704480549054A064B70470000F3
:10025000051C000889010008B8000020B80600202D
:10026000B8020020B802002053EA020C00F06980B6
:100270002DE9F04B4FF00006002B1FBFB3FA83F5BA
:1002800003FA05F424FA05F65E4012BF1643B2FAEB
:1002900082F502FA05F4C5F120051EBF22FA05FC1D
:1002A00044EA0C04203556EA044C4FEA144418BFC3
:1002B000641C4FF000084FF00009904271EB030CF2
:1002C00039D3002919BFB1FA81F701FA07F6B0FA5C
:1002D00080F700FA07F6C7F120071EBF20FA07FCD7
:1002E00046EA0C062037B6FBF4FCA7EB0507103FE7
:1002F00007F01F0BCBF120060CFA0BFB2CFA06F6CD
:1003000044BFB3460026202FA4BF5E464FF0000B2B
:100310005BEA060C08BF4FF0010B19EB0B09ABFBB6
:10032000027C48EB0608C01B06FB02CC0BFB03CC8F
:1003300071EB0C01C1E70B46024641464846BDE859
:10034000F08B13B54FF000004FF00001AFF30080C9
:10035000BDE81C4070474FF0000200B513469446BC
:100360009646203922BFA0E80C50A0E80C50B1F10D
:100370002001BFF4F7AF090728BFA0E80C5048BF21
:100380000CC05DF804EB890028BF40F8042B08BFBF
:10039000704748BF20F8022B11F0804F18BF00F8BB
:1003A000012B704770477047704710B500F008F890
:1003B000006810BD10B5044600F002F8046010BDDE
:1003C000004870475800002000487047580000203F
:1003D0007546FFF7F9FFAE4605006946534620F023
:1003E0000700854618B020B5FFF72CFFBDE8204078
:1003F0004FF000064FF000074FF000084FF0000BE1
:1004000021F00701AC46ACE8C009ACE8C009ACE893
:10041000C009ACE8C0098D46704710B50446AFF37B
:1004200000802046BDE81040FFF7F7BE01491820C4
:10043000ABBEFEE726000200704700BFFEE7704734
:1004400072B600BFFEE7000070B5044600F01AF96E
:1004500006462546681C10B104480078054400BFD4
:1004600000F010F9801BA842FAD370BD08000020EC
:10047000F8B502460B460025002400200021D6E0F6
:10048000012606FA01F51E6806EA0504AC4274D19D
:100490001E7906F00306012E04D01E7906F003062D
:1004A000022E13D190684F000326BE40B0434F0088
:1004B000DE68BE4030439060506801268E40B043F5
:1004C0001E79C6F300168E40304350601E7906F048
:1004D0000306032E09D0D0684F000326BE40B04368
:1004E0004F009E68BE403043D0601E7906F0030680
:1004F000022E13D1CF0802F1200656F827004E072E
:10050000F70E0F26BE40B0434F07FF0E1E69BE40D8
:100510003043CF0802F1200646F8270010684F004C
:100520000326BE40B0431E7906F003064F00BE40CE
:10053000304310605E6806F44036002E76D000BF6F
:10054000002600963C4E366846F480463A4F3E60A0
:100550003E46366806F48046009600BF00BF374E20
:100560008F0856F827008E07370F0F26BE40B0437E
:10057000334EB24202D1002624E057E0314EB2425F
:1005800001D101261EE0304EB24201D1022619E00F
:100590002E4EB24201D1032614E02D4EB24201D1BB
:1005A00004260FE02B4EB24201D105260AE02A4E66
:1005B000B24201D1062605E0284EB24201D10726FB
:1005C00000E008268F073F0FBE4030431B4E8F08C8
:1005D00046F82700224E3068A0435E6806F4801675
:1005E00006B120431E4E3060361D3068A0435E6861
:1005F00006F4001606B12043194E361D3060184E21
:10060000361F3068A0435E6806F4003606B120430A
:10061000134E361F3060361F3068A0435E6806F404
:10062000803606B120430E4E083E3060491C10292A
:10063000FFF426AFF8BD00004438024008380140FE
:10064000000002400004024000080240000C02408A
:10065000001002400014024000180240001C02403A
:10066000083C014010B5426921EA020302EA010494
:1006700043EA0443836110BD0AB1816101E00B04C8
:100680008361704701480068704700000000002047
:100690000348006803490978084401490860704725
:1006A000000000200800002010B50D48006840F44C
:1006B00000700B4908600846006840F480600860DC
:1006C0000846006840F480700860032000F0AAF833
:1006D000002000F007F800F02BF8002010BD00000B
:1006E000003C024070B504460E4800784FF47A7121
:1006F000B1FBF0F00C490968B1FBF0F5284600F0B9
:100700000DFC08B1012070BD102C07D2002221463B
:10071000501E00F049F80548046001E00120F2E7AE
:100720000020F0E7080000200C000020040000205A
:1007300008B500BF002000901048006840F48040D9
:100740000E4908600846006800F48040009000BF31
:1007500000BF00BF00200090081F006840F08050DC
:10076000091F08600846006800F08050009000BF34
:1007700000BF072000F056F808BD000044380240D2
:100780000146084600280DDB00BF00BF00F01F0334
:1007900001229A4043099B0003F1E023C3F80021A2
:1007A00000BF00BF00BF70472DE9F05F80460D46D7
:1007B0001646002701F000FC074639462A46334614
:1007C00001F00700C0F1070ABAF1040F02D94FF097
:1007D000040A01E0C0F1070AD14600F1040ABAF1A7
:1007E000070F02D24FF0000A01E0A0F1030AD4463D
:1007F0004FF0010A0AFA09FAAAF1010A0AEA020A02
:100800000AFA0CFA4FF0010B0BFA0CFBABF1010BDF
:100810000BEA030B4AEA0B042146404601F0D4FBE5
:10082000BDE8F09F00BF00F00702064B19684FF6C5
:10083000FF031940044B0B4343EA0221014B1960AB
:1008400000BF70470CED00E00000FA0570B50446EB
:100850000D460CB9012070BD5848006800F0070033
:10086000A84209D255490D700846006800F00700FB
:10087000A84201D00120EEE7207800F00200022813
:100880001DD1207800F00400042805D14C480068F0
:1008900040F4E0504A490860207800F00800082839
:1008A00005D14748006840F4604045490860444825
:1008B000006820F0F000A1680843414908602078F2
:1008C00000F00100A8B36068012807D13C4808384F
:1008D0000068C0F34040B8B90120BCE76068022856
:1008E00002D06068032807D1354808380068C0F393
:1008F000406048B90120AEE7314808380068C0F3CD
:10090000400008B90120A6E72D48006820F0030048
:10091000616808432A490860FFF7B4FE064609E00B
:10092000FFF7B0FE801B41F28831884202D90320D4
:1009300091E707E02248006800F00C006168B0EB26
:10094000810FEDD11D48006800F00700A84209D9C9
:100950001A490D700846006800F00700A84201D04F
:10096000012078E7207800F00400042807D114481B
:10097000006820F4E050E1680843114908602078DD
:1009800000F00800082808D10D48006820F46040F5
:10099000216940EAC1000A49086000F019F80849D5
:1009A0000968C1F30311074A515CC8400649086051
:1009B00006480068FFF796FE00204CE7003C024026
:1009C000083802407E2400080C00002004000020AB
:1009D0002DE9F047002400250026A146254800689F
:1009E00000F00C0020B1042805D008283AD105E019
:1009F000DFF8849039E0DFF8849036E01D48001F6E
:100A0000006800F03F041B48001F006800F48000ED
:100A100078B11A481749091F0968C1F38811A0FB6A
:100A200001700146224600233846FFF71DFC0546AB
:100A30000EE011480F49091F0968C1F38811A0FB96
:100A400001700146224600233846FFF70DFC05469B
:100A50000848001F0068C0F30140401C4600B5FB79
:100A6000F6F902E0DFF8109000BF00BF4846BDE88D
:100A7000F0870000083802400024F40000127A00D9
:100A8000F8B504460CB90120F8BD207800F001004B
:100A9000002874D0F948006800F00C0004280DD03C
:100AA000F648006800F00C00082813D1F348001F36
:100AB000006800F48000B0F5800F0BD1EF480838D3
:100AC0000068C0F34040002859D06068002856D123
:100AD0000120D9E700BF6068B0F5803F08D1E74842
:100AE0000838006840F48030E449083908601EE0A6
:100AF0006068B0F5A02F0DD1E0480838006840F4D8
:100B00008020DE49083908600846006840F48030DB
:100B100008600CE0D9480838006820F48030D749D4
:100B2000083908600846006820F48020086000BF8B
:100B3000606890B1FFF7A6FD054606E0FFF7A2FD4D
:100B4000401B642801D903209EE7CC480838006880
:100B5000C0F340400028F1D011E0FFF793FD0546B7
:100B600006E0FFF78FFD401B642801D903208BE7C7
:100B7000C24808380068C0F340400028F1D120780E
:100B800000F0020002285FD1BC48006800F00C00B1
:100B900058B1BA48006800F00C0008281CD1B748CA
:100BA000001F006800F48000B0B9B448083800683D
:100BB000C0F3400020B1E068012801D0012063E7C4
:100BC000AE480838006820F0F800216940EAC1000A
:100BD000AA490839086037E0E06800B30120A84955
:100BE0000860FFF74FFD054606E0FFF74BFD401B91
:100BF000022801D9032047E7A04808380068C0F35D
:100C000040000028F1D09D480838006820F0F80026
:100C1000216940EAC10099490839086014E00020C0
:100C200097490860FFF72EFD054606E0FFF72AFD0D
:100C3000401B022801D9032026E7904808380068A5
:100C4000C0F340000028F1D1207800F00800082807
:100C50002CD16069A8B101208A490860FFF712FD14
:100C6000054606E0FFF70EFD401B022801D90320D0
:100C70000AE782486C300068C0F340000028F1D0D9
:100C800014E000207F490860FFF7FCFC054606E001
:100C9000FFF7F8FC401B022801D90320F4E677484F
:100CA0006C300068C0F340000028F1D1207800F0DB
:100CB0000400042870D1002770483830006800F024
:100CC000805090B900BF002000906C483830006818
:100CD00040F080506949383108600846006800F0EB
:100CE0008050009000BF00BF01276748006800F4F3
:100CF0008070B0B96448006840F480706249086050
:100D0000FFF7C0FC054606E0FFF7BCFC401B0228CD
:100D100001D90320B8E65C48006800F48070002820
:100D2000F2D000BFA068012808D15448683000689C
:100D300040F001005149683108601DE0A0680528B5
:100D40000DD14E486830006840F004004B496831CE
:100D500008600846006840F0010008600CE0474861
:100D60006830006820F00100444968310860084696
:100D7000006820F00400086000BFA068A8B1FFF779
:100D800081FC054609E0FFF77DFC401B41F28831FC
:100D9000884202D9032077E626E0384868300068A8
:100DA000C0F340000028EED013E0FFF76BFC0546CF
:100DB00008E0FFF767FC401B41F28831884201D907
:100DC000032061E62D4868300068C0F34000002829
:100DD000EFD1012F07D129483830006820F080502A
:100DE00026493831086000BFA069002845D0234853
:100DF000006800F00C0008285DD0A069022845D1E9
:100E000000201F490866FFF73DFC054606E0FFF796
:100E100039FC401B022801D9032035E61748083861
:100E20000068C0F340600028F1D1D4E9070108430D
:100E3000616A40EA81110122A06AC2EB500041EAD6
:100E400000412C20005D41EA00600C49091F086048
:100E500001200B490866FFF715FC054606E0FFF781
:100E600011FC401B022801D903200DE60348083875
:100E70000068C0F340600028F1D049E00838024023
:100E800000004742800E4742007000400020214988
:100E90000866FFF7F7FB054606E0FFF7F3FB401B8C
:100EA000022801D90320EFE51B480068C0F3406029
:100EB0000028F2D12CE0A069012800D1E4E5164811
:100EC000001D0668A069012820D006F48001E069B1
:100ED00081421BD106F03F01206A814216D147F6BC
:100EE000C0703040616AB0EB811F0FD106F4403111
:100EF0000122A06AC2EB5000B1EB004F06D106F010
:100F000070612C20005DB1EB006F01D00120BBE5CA
:100F10000020B9E5000047420038024070B50446A1
:100F20002546681EB0F1807F01D301200FE0681EC6
:100F30004FF0E02148610F214FF0FF3001F044F8FD
:100F400000204FF0E021886107200861002070BD7B
:100F50007047704710B50346002200BF93F83C006D
:100F6000012801D1022010BD012083F83C0000BF00
:100F700022F0FF00CC6840EA040222F440708C6842
:100F800040EA040222F480604C6840EA040222F441
:100F900000600C6840EA040222F480500C6940EAC8
:100FA000040222F400504C6940EA040222F480401A
:100FB000CC6940EA04021868426400BF002083F84C
:100FC0003C0000BF00BFCEE730B502460B4600BF75
:100FD00092F83C00012801D1022030BD012082F8A6
:100FE0003C0000BF022082F83D0010684468106891
:100FF000816824F070041868044310684460184D38
:101000001068A8421BD01068B0F1804F17D0154D62
:101010001068A84213D0144D1068A8420FD0134D89
:101020001068A8420BD0124D1068A84207D0114D8D
:101030001068A84203D0104D1068A84205D121F0D5
:1010400080015868014310688160012082F83D00EA
:1010500000BF002082F83C0000BF00BFBDE70000D9
:10106000000001400004004000080040000C004067
:1010700000040140004001400018004070B50446E3
:101080000D4615B994F842000BE0042D02D143201F
:10109000005D06E0082D02D14420005D01E04520FE
:1010A000005D012801D0012070BD1DB9022084F827
:1010B00042000EE0042D03D102214320015508E037
:1010C000082D03D102214420015502E002214520D0
:1010D000015504222946206800F031FE2068406C4A
:1010E00040F40040216848641A49206888421BD0B7
:1010F0002068B0F1804F17D017492068884213D07C
:101100001649206888420FD01549206888420BD0C4
:1011100014492068884207D013492068884203D0C8
:101120001249206888420CD12068806800F00706C8
:10113000062E0CD02068006840F00100216808608D
:1011400005E02068006840F0010021680860002088
:10115000AAE7000000000140000400400008004031
:10116000000C004000040140004001400018004015
:1011700010B504460CB9012010BD94F83D0028B903
:10118000002084F83C00204600F026F8022084F875
:101190003D00211D206800F04DFD012084F846002F
:1011A00000BF84F83E0001213F2001554020015539
:1011B0004120015500BF00BF012084F842004320B8
:1011C0000155442001554520015500BF012084F8F8
:1011D0003D000020D0E7000038B504460E492068E5
:1011E000884217D100BF002000900C48006840F0F2
:1011F00001000A4908600846006800F001000090FC
:1012000000BF00BF022200211B20FFF7CDFA1B20E8
:10121000FFF7B6FA38BD0000000001404438024034
:101220002DE9F04104460D46002700BF94F83C002C
:10123000012802D10220BDE8F081012084F83C00A1
:1012400000BF022084F83D002068866826F07706FB
:1012500026F47F46206886602868502833D00CDC4E
:10126000202850D004DC00284BD0102851D149E070
:10127000302849D040284CD139E060282DD0702842
:1012800007D0B0F5805F03D0B0F5005F41D10DE02D
:1012900041E0D5E902136A68206800F061FD20682A
:1012A000866846F077062068866034E0D5E9021348
:1012B0006A68206800F054FD2068806840F480402F
:1012C0002168886027E0EA686968206800F038FED5
:1012D0005021206800F04FFD1DE0EA686968206831
:1012E00000F041FE6021206800F045FD13E0EA684F
:1012F0006968206800F024FE4021206800F03BFD72
:1013000009E000BF00BF00BF2968206800F033FD7E
:1013100001E0012700BF00BF012084F83D0000BFAD
:10132000002084F83C0000BF384684E7704770B561
:1013300004462068C5682068066906F00200022895
:1013400019D105F00200022815D1401F216808615B
:10135000012020772068806900F0030018B1204642
:10136000FFF7E4FF05E0204600F006F9204600F014
:10137000BAF90020207706F00400042819D105F0FE
:101380000400042815D1C043216808610220207799
:101390002068806900F4407018B12046FFF7C6FF4E
:1013A00005E0204600F0E8F8204600F09CF9002017
:1013B000207706F00800082819D105F00800082851
:1013C00015D1C04321680861042020772068C069D6
:1013D00000F0030018B12046FFF7A8FF05E0204603
:1013E00000F0CAF8204600F07EF90020207706F0D1
:1013F0001000102819D105F01000102815D1C04395
:1014000021680861082020772068C06900F44070D6
:1014100018B12046FFF78AFF05E0204600F0ACF83F
:10142000204600F060F90020207706F0010048B166
:1014300005F0010030B16FF001002168086120461D
:1014400000F088FA06F08000802809D105F08000BD
:10145000802805D1C043216808612046FFF778FD48
:1014600006F04000402809D105F04000402805D191
:10147000C04321680861204600F06DFA06F02000A4
:10148000202809D105F02000202805D1C04321687B
:1014900008612046FFF75DFD70BD000010B586B005
:1014A0000446142101A8FEF756FF2E492068884201
:1014B00055D100BF002000902B48006840F001008B
:1014C000294908600846006800F00100009000BF4C
:1014D00000BF00BF002000900846006840F00200F6
:1014E00008600846006800F00200009000BF00BFDE
:1014F00000BF002000900846006840F0100008601F
:101500000846006800F01000009000BF00BF802077
:101510000190022002900020039004900120059089
:1015200001A91248FEF7A4FF0320019002200290B7
:101530000020039004900120059001A90C48FEF7BB
:1015400097FF4FF428500190022002900020039052
:1015500004900120059001A90648FEF789FF06B016
:1015600010BD000000000140303802400000024081
:10157000000402400010024070472DE9F04104468B
:101580000D461646002700BF94F83C00012802D102
:101590000220BDE8F081012084F83C0000BF36B194
:1015A000042E1BD0082E31D00C2E5ED145E02946EA
:1015B000206800F0E9FB2068806940F0080021689D
:1015C00088612068806920F00400216888612068B3
:1015D0008069296908432168886148E029462068B4
:1015E00000F00AFC2068806940F40060216888618E
:1015F0002068806920F480602168886120688069A3
:10160000296940EA01202168886130E02946206884
:1016100000F030FC2068C06940F008002168C86113
:101620002068C06920F004002168C8612068C06992
:10163000296908432168C86119E02946206800F03B
:1016400055FC2068C06940F400602168C8612068CA
:10165000C06920F480602168C8612068C069296978
:1016600040EA01202168C86101E0012700BF00BFF6
:1016700000BF002084F83C0000BF384689E710B561
:1016800004460CB9012010BD94F83D0028B9002093
:1016900084F83C00204600F025F8022084F83D0044
:1016A000211D206800F0C6FA012084F8460000BF22
:1016B00084F83E0001213F20015540200155412082
:1016C000015500BF00BF012084F8420043200155AE
:1016D000442001554520015500BF012084F83D00FC
:1016E0000020D0E77047704770B504460D4615B925
:1016F00094F83E000BE0042D02D13F20005D06E08F
:10170000082D02D14020005D01E04120005D01284C
:1017100001D0012070BD1DB9022084F83E000EE00A
:10172000042D03D102213F20015508E0082D03D1EB
:1017300002214020015502E00221412001550122F1
:101740002946206800F0EAFA23492068884203D03D
:1017500022492068884201D1012000E0002028B100
:101760002068406C40F40040216848641A492068B1
:1017700088421BD02068B0F1804F17D018492068EC
:10178000884213D01749206888420FD01649206834
:1017900088420BD011492068884207D0134920683D
:1017A000884203D01249206888420CD120688068A2
:1017B00000F00706062E0CD02068006840F00100FB
:1017C0002168086005E02068006840F00100216899
:1017D000086000209EE70000000001400004014076
:1017E0000004004000080040000C004000400140A0
:1017F00000180040F0B504460D46002615B994F8CF
:101800003E000BE0042D02D13F20005D06E0082DD4
:1018100002D14020005D01E04120005D012801D09F
:101820000120F0BD1DB9022084F83E000EE0042D19
:1018300003D102213F20015508E0082D03D10221E8
:101840004020015502E002214120015535B1042D0F
:101850000BD0082D10D00C2D1CD114E02068C068CE
:1018600040F002002168C86016E02068C06840F0BF
:1018700004002168C8600FE02068C06840F00800DC
:101880002168C86008E02068C06840F01000216846
:10189000C86001E0012600BF00BFEEBB012229465F
:1018A000206800F03BFA24492068884203D023498D
:1018B0002068884201D1012000E0002028B1206882
:1018C000406C40F40040216848641B49206888420D
:1018D0001BD02068B0F1804F17D01949206888428A
:1018E00013D01849206888420FD0174920688842D1
:1018F0000BD012492068884207D0144920688842DA
:1019000003D01349206888420ED12068806800F017
:101910000707062F0ED000E00CE02068006840F0BA
:1019200001002168086005E02068006840F00100BF
:1019300021680860304674E700000140000401405F
:101940000004004000080040000C0040004001403E
:10195000001800407047704700BFFEE700B587B031
:10196000142102A8FEF7F7FC00BF002001901F48D9
:10197000006840F001001D4908600846006800F05A
:101980000100019000BF00BF00BF00200190084689
:10199000006840F0020008600846006800F002009D
:1019A000019000BF00BF00BF002001900846006802
:1019B00040F0100008600846006800F01000019038
:1019C00000BF00BF002208210948FEF755FE08208D
:1019D000029001200390002004900120059002A9AC
:1019E0000348FEF745FD07B000BD00003038024057
:1019F0000000024070B596B044F62064FA254A48CB
:101A00000068A900B0FBF1F068434849B0FBF1F66B
:101A100000201290139014901590109011901C219A
:101A200009A8FEF798FC202101A8FEF794FC404885
:101A3000404908600020486060213E4881606000A5
:101A400039490968B1FBF0F13A48C16000210161F0
:101A5000416180218161FFF78BFB08B1FEF7F0FC4B
:101A60004FF48050129012A93248FFF7D9FB08B109
:101A7000FEF7E6FC2F48FFF702FE08B1FEF7E0FC98
:101A800000201090119010A92A48FFF79DFA08B184
:101A9000FEF7D6FC602009904FF480400A900020A9
:101AA0000B900C900D900E900F90002209A92148E8
:101AB000FFF763FD08B1FEF7C3FC4FF400400A9046
:101AC000042209A91B48FFF758FD08B1FEF7B8FC2E
:101AD0004FF440400A90082209A91648FFF74DFD2F
:101AE00008B1FEF7ADFC00200A900C2209A91148AC
:101AF000FFF743FD08B1FEF7A3FC00200190029020
:101B00000390049605904FF4005006900020089032
:101B100001A90848FFF71EFA08B1FEF791FC054835
:101B2000FFF7BCFC16B070BD0C00002040420F0057
:101B3000000001401000002000BFFEE700BFFEE7EC
:101B40007047704710B5FEF7A3FD10BD00B593B008
:101B5000302107A8FEF7FFFB142102A8FEF7FBFBCC
:101B600000BF002001902548006840F080502349C4
:101B700008600846006800F08050019000BF00BF78
:101B800000BF002001901E48006840F480401C49BE
:101B900008600846006800F48040019000BF00BF64
:101BA0000220079001200A9010200B9002200D9037
:101BB00000210E9108210F91A8211091022111916D
:101BC0000721129107A8FEF75BFF08B1FEF738FC6A
:101BD0000F20029002200390002004904FF4A050A8
:101BE00005904FF480500690052102A8FEF72EFEC6
:101BF00008B1FEF725FC13B000BD000040380240DC
:101C0000007000400348006840F47000014908601B
:101C10007047000088ED00E010B508210348FEF78A
:101C200021FD0348FFF783FB10BD000000000240C8
:101C30001000002010B502682D4B98420ED0B0F174
:101C4000804F0BD02B4B984208D02B4B984205D09D
:101C50002A4B984202D02A4B984203D122F07002BC
:101C60004B681A43224B984220D0B0F1804F1DD0D0
:101C7000204B98421AD0204B984217D01F4B9842C5
:101C800014D01F4B984211D01E4B98420ED01E4BC1
:101C900098420BD01D4B984208D01D4B984205D05E
:101CA0001C4B984202D01C4B984203D122F4407244
:101CB000CB681A4322F080034C6943EA04020260B5
:101CC0008B68C3620B688362094B984202D00C4B4D
:101CD000984201D10B69036301234361036903F057
:101CE00001031BB1036923F00103036110BD000070
:101CF000000001400004004000080040000C0040CB
:101D000000040140004001400044014000480140FF
:101D100000180040001C00400020004030B501F0D9
:101D20001F05012404FA05F3046A9C430462046A53
:101D300001F01F0502FA05F52C43046230BD30B5F1
:101D400001F00F05042404FA05F3046A9C430462BD
:101D5000046A01F00F0502FA05F52C43046230BD58
:101D600030B50C46816821F47F4142EA03252543C2
:101D70002943816030BD0A46816821F0700142F03C
:101D8000070319438160704730B5026A056A25F080
:101D9000010505624368846924F0700424F003049B
:101DA0000D682C4322F002028D682A43104DA84290
:101DB00000D103E00F4DA84206D100BF22F0080277
:101DC000CD682A4322F00402094DA84202D0094DF1
:101DD000A84207D123F4807323F400734D692B4389
:101DE0008D692B43436084614D684563026230BD59
:101DF000000001400004014030B5026A056A25F088
:101E0000100505624368846924F4E04424F44074B6
:101E10000D6844EA052422F020028D6842EA05128A
:101E2000124DA84200D103E0114DA84207D100BFD6
:101E300022F08002CD6842EA051222F040020B4DEA
:101E4000A84202D00A4DA84209D123F4806323F4AA
:101E500000634D6943EA85038D6943EA8503436066
:101E600084614D688563026230BD0000000001405E
:101E70000004014030B5026A056A25F480750562E8
:101E80004368C46924F0700424F003040D682C43F3
:101E900022F400728D6842EA0522124DA84200D158
:101EA00003E0114DA84207D100BF22F40062CD68C3
:101EB00042EA052222F480620A4DA84202D00A4D6D
:101EC000A84209D123F4805323F400534D6943EA17
:101ED00005138D6943EA05134360C4614D68C5630A
:101EE000026230BD000001400004014030B5036AC9
:101EF000056A25F4805505624468C26922F4E0420F
:101F000022F440720D6842EA052223F400538D68E2
:101F100043EA0533084DA84202D0084DA84204D137
:101F200024F480444D6944EA85144460C2614D68DC
:101F30000564036230BD0000000001400004014060
:101F400030B50B461446026A056A25F001050562A4
:101F5000816921F0F00141EA041122F00A021A43DA
:101F60008161026230BD30B50B461446026A056AD3
:101F700025F010050562816921F4704141EA0431C0
:101F800022F0A00242EA03128161026230BD00BF6A
:101F9000FEE74100080218BF04200A0E18BF40F0F7
:101FA00001004FF07F4232EA010108BF40F0020019
:101FB000012808BF0520704702480068C0F30220CE
:101FC000704700000CED00E010B5002804DB0A07A4
:101FD000130E054A135406E00A07140E034A00F0D4
:101FE0000F031B1FD45410BD00E400E018ED00E007
:101FF00000B510EE101A2DED028B81B0524A6846E2
:10200000B2EB410F2ED94FF0E640B0EB410F94BF39
:1020100000204FF0FF3000900098B0EE408A00287A
:102020006ADB10F0010F4BD068EE080A9FED471AEB
:102030009FED470A00EE810A9FED461A10F0020F4D
:1020400000EE801AB7EE000A00EE810A02BF01B06E
:10205000BDEC028B00BD00BF01B0B1EE400ABDEC8B
:10206000028B00BD3C4B21F00042934241D911F05C
:10207000004FDFED3A0A20EE201ADFED390A19BFD2
:1020800031EE601A71EE200A31EE201A71EE600A0C
:10209000BDEEE01A11EE100A9FED321A00F00300B7
:1020A00000EEC10A9FED301A009000EEC10A9FEDCC
:1020B0002F1A00EEC10A9FED2E1A00EEC10AABE7FF
:1020C00028EE080A9FED2B1ADFED2B0A10F0020F05
:1020D00040EE410A9FED291A00EE201A61EE000A37
:1020E000B0EE480A08EE200AB6D101B0BDEC028B72
:1020F00000BD00F059F88FE718EE100A4000B0F16B
:102100007F4F0DD218EE100AFFF743FF042808BFD7
:1021100000F042F8B0EE480A01B0BDEC028B00BD01
:1021200009D10120FEF746F901B0BDEC028B5DF844
:1021300004EB00F029B801B0B0EE480ABDEC028B08
:102140005DF804EB00F01CB8B61F927EB93AB2BA43
:10215000CA9F2A3DDDFFFFBE490E494683F9223F53
:102160000000004B0000C93F00A0FD390020A23351
:102170001A61342C336D4C39DA82083CA0AA2ABE8D
:1021800030EE000A70470000DFED020A80EEA00A80
:1021900070470000000000009FED020A20EE000AD8
:1021A00070470000000000102DE9F0014FF07F4261
:1021B000B2EB410F9FBF4FF0FF310160BDE8F0016E
:1021C00070474FF0004242EA0123C1F3C752783A08
:1021D000551112F01F0C434CCCF120067C44C1F386
:1021E000C752A2F178024FEA621204EB820254F85D
:1021F000254008BFD2E9015612D0556804FA0CF404
:1022000025FA06F73C43976805FA0CF527FA06F815
:10221000D26807FA0CFCF24045EA08054CEA0206CF
:10222000A4FB034CA5FB0352A6FB03631D449D4284
:1022300034BF012600261319334416B1934202D944
:1022400003E0934201D2012200E00022624402F145
:10225000200C9206DC0C42EA443200EE102A5B03AA
:10226000DFED210AF8EEC01A00EE103A4FEA9C1C8E
:1022700011F0004FB8EE400AC0F800C020EE201A5E
:1022800000EE105ADFED190AB8EE400A20EE200ADF
:1022900071EE810A70EE800A10EE902A02F500625B
:1022A0006FF30B0200EE902A70EEE11A31EEC11AC4
:1022B000DFED101A30EE411A9FED0D0A20EE800A74
:1022C00001EE210A9FED0C1A00EE810A04BFBDE861
:1022D000F0017047CCF180510160BDE8F001B1EE32
:1022E000400A7047B8020000000000360000802C51
:1022F00022AAFD29DB0FC92F0000C92F2DED068B67
:1023000086B0FEF7D1F9FFF721FCFFF727FBFFF7B7
:1023100071FB00215248FFF7E7F904215048FFF70D
:10232000E3F908214E48FFF7DFF90C214C48FFF78D
:1023300061FA00214A48FEF7A1FE04214848FEF751
:102340009DFE08214648FEF799FE9FED460AB0EE35
:10235000408A9FED450AF0EE409A9FED440AF0EE68
:10236000408A012663274248C06A09EE100A4048A5
:10237000C06A70436421B0FBF1F53D48C06A784300
:10238000B0FBF1F43A48C06A3949496CC9B2401A05
:102390003749086463E0B0EE480AFFF729FE8DED87
:1023A000030AB0EE000A68EE800AB0EE081A80EE6A
:1023B000810A30EE080AB0EE40AAFFF719FE8DED53
:1023C000040AB1EE000A68EE800AB0EE081A80EE48
:1023D000810A30EE080AB0EE40AAFFF709FE8DED43
:1023E000050A002021E003A901EB8001D1ED000ADC
:1023F000B6EE000AB6EE001A01EE200AF8EEC90A9F
:1024000020EE200ABDEEC00A10EE101A4DF8201082
:102410005DF82010A94201DA4DF820505DF8201037
:10242000A14201DD4DF82040401C0328DBDB1048B1
:1024300044638463C46338EE290AB0EE408AB0EE88
:10244000000A28EE800AB4EEC80AF1EE10FA03D2B0
:102450009FED040AB0EE408A0120FDF7F5FF9AE7F0
:1024600010000020000000000AD7233CD00F494094
:10247000000001404FF04070E1EE100A704700008C
:102480000000000000000102030406070809000024
:102490000000010203040000000000006E83F9A2A6
:1024A0002915444ED15727FCC0DD34F5999562DBE0
:1024B0004190433CAB6351FED8240008000000204B
:1024C00010000000C4010008E824000810000020EB
:1024D000A8060000E0010008000000001000000055
:0824E000010000000024F400DB
:040000050800018965
:00000001FF
