:020000040800F2
:100000007806002039030008FB110008971100084A
:10001000F91100083F040008A513000800000000C3
:10002000000000000000000000000000FF110008B8
:100030004104000800000000FD1100080112000842
:100040005303000853030008530300085303000838
:100050005303000853030008530300085303000828
:100060005303000853030008530300085303000818
:100070005303000853030008530300085303000808
:1000800053030008530300085303000853030008F8
:1000900053030008530300085303000853030008E8
:1000A00053030008530300085303000853030008D8
:1000B00053030008530300085303000853030008C8
:1000C00053030008530300085303000853030008B8
:1000D00053030008530300085303000853030008A8
:1000E00053030008530300080000000053030008F6
:1000F0005303000853030008530300085303000888
:100100005303000853030008530300085303000877
:100110005303000853030008530300085303000867
:100120005303000853030008530300085303000857
:100130005303000853030008530300085303000847
:1001400053030008530300080000000000000000F3
:100150005303000853030008530300085303000827
:100160005303000853030008530300085303000817
:100170005303000853030008530300080000000065
:1001800053030008530300085303000853030008F7
:1001900053030008530300085303000853030008E7
:1001A00053030008530300085303000853030008D7
:1001B00053030008530300085303000853030008C7
:1001C00053030008530300085303000853030008B7
:1001D00053030008530300085303000853030008A7
:1001E0005303000853030008530300085303000897
:1001F0005303000853030008530300085303000887
:100200005303000853030008530300085303000876
:100210005303000853030008530300085303000866
:1002200053030008530300085303000800000000B4
:100230005303000853030008530300085303000846
:100240005303000853030008530300085303000836
:100250005303000853030008530300085303000826
:100260005303000853030008530300085303000816
:100270005303000853030008530300085303000806
:100280005303000853030008530300080000000054
:10029000530300085303000800F002F800F03CF894
:1002A0000AA090E8000C82448344AAF10107DA45D1
:1002B00001D100F031F8AFF2090EBAE80F0013F0E7
:1002C000010F18BFFB1A43F0010318472412000066
:1002D00044120000103A24BF78C878C1FAD85207F7
:1002E00024BF30C830C144BF04680C6070470000B0
:1002F0000023002400250026103A28BF78C1FBD82F
:10030000520728BF30C148BF0B6070471FB501F0CE
:10031000E1F81FBD10B510BD00F058F81146FFF709
:10032000F5FF01F051F800F076F803B4FFF7F2FFA3
:1003300003BC00F07DF800000948804709480047E9
:10034000FEE7FEE7FEE7FEE7FEE7FEE7FEE7FEE785
:10035000FEE7FEE704480549054A064B70470000E2
:10036000AD120008990200087800002078060020ED
:1003700078020020780200204FF0000200B51346FA
:1003800094469646203922BFA0E80C50A0E80C50B5
:10039000B1F12001BFF4F7AF090728BFA0E80C5066
:1003A00048BF0CC05DF804EB890028BF40F8042B5F
:1003B00008BF704748BF20F8022B11F0804F18BFCC
:1003C00000F8012B7047704770477047754600F082
:1003D0002BF8AE4605006946534620F007008546D7
:1003E00018B020B5FFF7B6FFBDE820404FF000067B
:1003F0004FF000074FF000084FF0000B21F007010D
:10040000AC46ACE8C009ACE8C009ACE8C009ACE84F
:10041000C0098D46704710B50446AFF300802046F2
:10042000BDE81040FFF781BF00487047140000206E
:1004300001491820ABBEFEE7260002007047FEE728
:100440007047000070B5044600F038F90546601C9E
:1004500002D004480078044400F030F9401BA04268
:10046000FAD370BD000000202DE9F84F03247D4D24
:1004700000234FF001094FF0B04B4FF00F0AE9E0B5
:1004800009FA03F73A4076D00E7906F00306012EFA
:1004900001D0022E18D1D0F808C04FEA430ECE6822
:1004A00004FA0EF82CEA080C06FA0EF646EA0C06D8
:1004B0008660D0F804C00E792CEA070CC6F300164B
:1004C0009E4046EA0C0646600E79F643B6070BD00E
:1004D000C6684FEA43088F6804FA08FC26EA0C064F
:1004E00007FA08F73743C7600E7906F00306022EB5
:1004F00012D1DE080F694FEA437C00EB8606B64650
:10050000366A4FEADC6C0AFA0CF807FA0CF726EAAE
:1005100008063743CEF820700F7906684FEA430883
:1005200007F0030704FA08FC07FA08F726EA0C06A6
:10053000374307604E6816F4403F1CD04A4E376878
:1005400047F00207376036689F0706F002060096FC
:1005500023F0030606F1B046B6463F0FD6F808640E
:10056000DFF808810AFA07FC404526EA0C0603D1A9
:100570004FF0000C41E06CE0DFF8F4C0604502D1C0
:100580004FF0010C39E0DFF8ECC0604502D14FF0CC
:10059000020C32E0DFF8E0C0604502D14FF0030CFE
:1005A0002BE0DFF8D8C0604502D14FF0040C24E006
:1005B000DFF8CCC0604502D14FF0050C1DE0DFF83C
:1005C000C4C0604502D14FF0060C16E0DFF8B8C099
:1005D000604502D14FF0070C0FE0DFF8B0C0604576
:1005E00002D14FF0080C08E0DFF8A4C0604502D14A
:1005F0004FF0090C01E04FF00A0C0CFA07FC4CEA32
:10060000060CCEF808C44F68DBF80060FF0226EA4B
:10061000020600D516435F46CBF80060D1F804C04F
:10062000DBF804605FEA8C2C26EA020600D516434C
:100630007E606E684F6826EA0206BF0300D5164347
:100640006E602E684F6826EA0206FF0300D5164347
:100650002E605B1C0A6832FA03F67FF411AFBDE826
:10066000F88F000080000058F4440258000002583F
:100670000004025800080258000C025800100258EA
:100680000014025800180258001C0258002002589A
:1006900000240258426921EA02030A4043EA024167
:1006A000816170470AB1816170470904FBE700006E
:1006B00001480068000C70470010005C0148806829
:1006C0007047000000000020054901EB800105484B
:1006D000D1F88014814201D1002070470120704779
:1006E0000060025800030080034A41F4407102EBAD
:1006F0008000C0F80014704700600258024881680A
:10070000027811448160704700000020032010B57A
:1007100000F078F800F0F8F90F4A104914681368EF
:10072000C4F3032203F00F038A5CC95C02F01F02CA
:1007300001F01F01D0400A4A20FA01F11160094975
:1007400008600F2000F010F808B1012010BD00F083
:100750002BF8002010BD000018440258DE140008D9
:10076000100000200C00002070B50D4D04462878C4
:10077000A0B14FF47A71B1FBF0F00A490968B1FBFE
:10078000F0F000F0F5FC48B9102C07D20022214609
:10079000501E00F017F800206C6070BD012070BD85
:1007A000000000200C000020054808B5016841F059
:1007B00002010160006800F00200009008BD000026
:1007C000F44402580E4BF0B41B680D46C3F30223E9
:1007D000C3F10706042E00D90426191D072901D2EA
:1007E000002300E0DB1E012404FA06F19C40491EB0
:1007F0002940641E994014402143F0BC00F0D3BD51
:100800000CED00E0064900F0070210B54FF6FF04BA
:100810000868044B204040EA02201843086010BDDD
:100820000CED00E00000FA052DE9F0411E4C0546F4
:10083000206800F007000628206804D000F03F0080
:10084000A84228D12EE020F03F0028432060FFF787
:1008500035FF154F4FF47A780646083F05E000BF94
:10086000FFF72CFF801B404515D83868C043800433
:10087000F6D41E2D05D02E2D03D01D2D01D02D2DEB
:1008800010D1FFF71BFF0546464607E0FFF716FFAE
:10089000401BB04202D90120BDE8F0812068C0436E
:1008A000C003F3D40020F7E70C4802582DE9F05FAD
:1008B00004000F467ED0DFF83882D8F8000000F040
:1008C0000F00B8420CD2D8F8001021F00F013943C4
:1008D000C8F80010D8F8000000F00F00B84269D145
:1008E0002078844D40070AD52069296801F07001FD
:1008F000884204D9296821F07001014329602078D9
:100900007C4E361D00070AD56069316801F0700120
:10091000884204D9316821F07001014331602078A8
:10092000C0060AD5A069316801F4E061884204D9A3
:10093000316821F4E061014331602078DFF8B4B11F
:1009400080060BF1080B0CD5E1695846DBF8002056
:1009500002F07002914204D9026822F070020A4348
:100960000260207880070AD5E068296801F00F014D
:10097000884204D9296821F00F01014329602078B9
:10098000C0073ED05B49A2682868183920F470601F
:10099000104328606068022818D0032819D009681D
:1009A000012819D0490700294ADADFF848A1AAF13D
:1009B000080A00E044E0DAF8002022F007020243CF
:1009C000CAF80020FFF77AFE814612E00968890321
:1009D000E9E709688901E6E7C905E4E7FFF76EFE84
:1009E000A0EB090141F28830814202D90320BDE821
:1009F000F09F6168DAF8000000F03800B0EBC10F3A
:100A0000ECD1207880070AD5E068296801F00F0151
:100A1000884204D2296821F00F0101432960D8F8E7
:100A20000010404601F00F01B9420BD9016821F0D6
:100A30000F0139430160006800F00F00B84201D097
:100A40000120D4E7207840070AD52069296801F001
:100A50007001884204D2296821F0700101432960A5
:100A6000207800070AD56069316801F0700188427A
:100A700004D2316821F07001014331602078C00652
:100A80000AD5A069316801F4E061884204D2316876
:100A900021F4E06101433160207880060CD5E169E2
:100AA0005846DBF8002002F07002914204D202683E
:100AB00022F070020A43026000F026F80E492A680C
:100AC0002B68C2F3032203F00F038A5CC95C02F0B7
:100AD0001F0201F01F01D040084A20FA01F1116005
:100AE0000749086007480068BDE8F05FFFF73CBEB3
:100AF0000020005218440258DE14000810000020A4
:100B00000C00002004000020454970B545480968E4
:100B1000434B103B11F0380208D00111082A03D0D2
:100B2000102A0BD0182A0BD0084670BD1968890608
:100B3000FBD51968C1F3C101C84070BD3A4870BD0A
:100B40003749374D18310C1D24350A680968266865
:100B50002D6802F0030406F00102C1F30511C5F38C
:100B6000CC0515FB02F200EE102AB8EE400AE9B3FC
:100B70002F4ADFED2E0AB7EE001A6CB1DFED2D1A09
:100B8000012C01D0022C43D002EE101A1068F8EEAE
:100B9000422A81EEA22A1EE01C68A40611D51B6819
:100BA00001EE901A1168C3F3C103F8EE612AD84030
:100BB00001EE900AC1F30800F8EE611A81EEA22A54
:100BC0000BE001EE901ADFED1C2A00BFF8EE611A6F
:100BD000106882EEA12AC0F3080001EE900AF8EE38
:100BE000611A40EE201A31EE810A00E015E022EE93
:100BF000000A1068C0F34620401C00EE900AF8EE90
:100C0000600A80EE201ABCEEC10A10EE100A70BD18
:100C100001EE901ADFED092AD8E7002070BD000030
:100C2000104402580090D00340787D010000003944
:100C3000304402580024744A0024744C20BCBE4B3B
:100C40002DE9F05F04007DD0FF4F2078FE4D18376E
:100C5000DFF8F493103DC00748D0D9F80000396898
:100C600000F03800102815D0182803D101F0030037
:100C700002280FD06068B0F5803F12D010B1B0F5F7
:100C8000A02F18D0286820F480302860286820F42D
:100C9000802009E02868800328D560680028D2D029
:100CA00024E0286840F480302860606888B1FFF74D
:100CB00005FD064609E0286840F480202860F0E73A
:100CC000FFF7FCFC801B64286FD828688003F7D5E9
:100CD0000CE0FFF7F3FC064605E000BFFFF7EEFC73
:100CE000801B6428F0D828688003F7D4207841F26C
:100CF0000308D54E0C3E800769D5D9F80000396845
:100D000010F038000ED0182801D188070AD0E0680A
:100D100090B3296821F0190101432960FFF7CEFC47
:100D2000824631E02868400702D5E06800288AD072
:100D3000E168286820F0190008432860FFF7BEFC2E
:100D4000824607E0DFE000BFFFF7B8FCA0EB0A0037
:100D50000228B9D828684007F6D500BFFFF7A8FCDD
:100D600040451BD82069402812D0316821F47C31DD
:100D700041EA003030602AE018E000BFFFF79EFC37
:100D8000A0EB0A0002289FD828684007F6D5E5E7BF
:100D9000306820F47C3040F40030EBE7207C316890
:100DA00021F0FE4141EA0060E4E70DE1286820F00F
:100DB00001002860FFF782FC824605E0FFF77EFC19
:100DC000A0EB0A0002288DD828684007F6D42078C6
:100DD000C0065DD5D9F80000DFF86CB2396800F0C4
:100DE0003800ABF1040B082810D0182803D101F00B
:100DF000030001280AD0E0690028286838D040F0B4
:100E000080002860FFF75AFC824623E02868C0056E
:100E100023D5E069802876D11FE0206A202821D0E0
:100E2000316821F0F84141EA8060306030E000BF75
:100E300094F82010DBF8002022F07C5242EA016195
:100E4000CBF8001024E000BFFFF738FCA0EB0A004D
:100E5000022898D82868C005F6D5FFF729FC404538
:100E6000E6D8DAE7306820F0F84040F08040DCE770
:100E700020F080002860FFF721FC064605E000BF57
:100E8000FFF71CFC801B02289DD82868C005F7D4FA
:100E90002078000729D56C486169643000298046B4
:100EA000016811D041F001010160FFF707FC06461F
:100EB00005E000BFFFF702FC801B0228C9D8D8F864
:100EC00000008007F6D510E021F001010160FFF776
:100ED000F5FB064605E000BFFFF7F0FB801B02288C
:100EE00072D8D8F800008007F6D42078800623D581
:100EF000A0690028286810D040F480502860FFF7CF
:100F0000DDFB064605E02CE1FFF7D8FB801B02283D
:100F10005AD828688004F7D50EE020F48050286065
:100F2000FFF7CCFB064604E0FFF7C8FB801B022856
:100F30004AD828688004F7D4207840074FD5DFF8D6
:100F40000C81D8F8001041F48071C8F80010FFF748
:100F5000B5FB064605E000BFFFF7B0FB801B642829
:100F600032D8D8F80000C005F6D5374EA0686036F4
:100F700001280AD008B1052813D0306820F00100FC
:100F80003060306820F0040002E0306840F001007A
:100F90003060A06841F2883A90B1FFF78FFB80463D
:100FA0000AE0306840F004003060EEE7FFF786FBAF
:100FB000A0EB0801514507D830688007F6D50EE050
:100FC000FFF77CFB804607E084E000BFFFF776FB7D
:100FD000A0EB080151457DD830688007F6D4606ADF
:100FE000B0B3DFF86480D9F8001008F12008C1F32D
:100FF000C20103296FD00228286820F08070286081
:1010000003D0FFF75BFB044680E0FFF757FB064683
:1010100005E000BFFFF752FB801B022873D8286849
:101020008001F7D4E26A40F2F331386854F8283F7F
:10103000884340EA021018433860217B4FF4FE0CCD
:1010400022894FF0FE4704E010440258004802583D
:1010500089E0208A4902521E267DA1F5007189B2DD
:10106000401EC2F308021143761E0CEA0040014301
:101070003E4807EA066211433C4AC8F800100832AD
:10108000016821F00101016011684FF6F876236ACA
:10109000B14341EAC30111600168A26921F00C016A
:1010A000114301600168E26921F00201114301600E
:1010B000016841F480310160016841F40031016050
:1010C000016841F480210160016841F00101016083
:1010D000286801E017E01DE040F080702860FFF70D
:1010E000EDFA044605E000BFFFF7E8FA001B02280E
:1010F00009D828688001F7D535E000BFFFF7DEFA90
:10110000001B022802D90320BDE8F09F2868800157
:10111000F4D428E039680128D8F8000021D0A26A68
:1011200001F0030393421CD1E26AC1F305118A4224
:1011300017D1216BC0F30802491E8A4211D1616B9D
:10114000C0F34622491E91420BD1A16BC0F3064267
:10115000491E914205D1E16BC0F30660491E8142F0
:1011600001D00120D0E70020CEE700002C44025837
:10117000401EB0F1807F10B501D3012010BD4FF0AB
:10118000E02460610F21601700F00DF90020A061DC
:101190000721216110BDFEE730B587B014216846F4
:1011A000FFF7EAF81248016841F4807101600168B4
:1011B00001F480710591016841F0800101600068CF
:1011C0004FF400540B4D002200F0800021460590A2
:1011D0002846FFF767FA002100940120CDE90101BC
:1011E000284603916946FFF73FF907B030BD00007C
:1011F000E044025800200258FEE7FEE770477047BF
:10120000FFF77CBA70B59CB04C216846FFF7B4F884
:10121000202113A8FFF7B0F80420FFF705FB2148B1
:1012200000242149026842F44042026002680A68D0
:1012300042F001020A60096801F001011B91016896
:101240008904FCD50DF1280C022009900521C0224B
:101250008CE80700C6030F9008250D9001230E901F
:10126000CDE91054CDE9003668461294FFF7E8FC4A
:1012700008B172B6FEE740201A903F210301CDE984
:1012800016500322CDE9180313AB13A883E8160008
:101290000421FFF70BFB002801D072B6FEE71CB05B
:1012A00070BD0000184802582C0400583348F0B5AF
:1012B000324903687839324A43F47003036008689E
:1012C00040F010000860106800F00F00072804D2FA
:1012D000106820F00F00C01D10602A490020294C22
:1012E00010340B68284D43F001030B6020600B683D
:1012F0002B400B60136803F00F03072B04D913680E
:1013000023F00F03DB1D13601E4C204A1834204BC2
:10131000261D371D20601B4C1E4D28343060261DB5
:101320003860371D23603B1D35601C1D3A60251D4C
:101330002E1D1860331D22602860326018600B6813
:101340004FF0B0420F4C23F480230B6060342060D8
:10135000D2F8E400104940F48040C2F8E400086884
:101360006FF30F00B0F1005F03D20C490120C1F808
:10137000080143F2D2000A490860F0BD88ED00E0A0
:1013800000200052004402587FEDF6EA800201017D
:10139000000202020000FF010010005C008000510A
:1013A00000400052FEE7090700284FEA116104DB04
:1013B00000F1E02080F80014704700F00F0000F109
:1013C000E02080F8141D70473E49002008B50A68E7
:1013D000920311D4BFF34F8FBFF36F8F3A4A10605F
:1013E000BFF34F8FBFF36F8F0A6842F400320A6079
:1013F000BFF34F8FBFF36F8F0A68D20323D4314AF4
:1014000070321060BFF34F8F101F43F6FF740068F7
:101410002D4D1035C0F34E33C0F3C90204EA431614
:10142000104600BF46EA80772F60401EFAD25B1E4E
:10143000F4D2BFF34F8F086840F480300860BFF3E8
:101440004F8FBFF36F8F214E4FF6FF752C463068DC
:10145000000403D5201EA4F10104F8DC002C01DAFD
:1014600072B6FEE7FFF752F9FFF7CCFE1748E030FF
:10147000016841F000710160006800F000700090A8
:101480000020FFF721F900210846FFF72DF9306809
:10149000000403D4281EA5F10105F8DC002D01DAB3
:1014A00072B6FEE7FFF778FE094D4FF400544FF493
:1014B000FA7621462846FFF7EDF83046FEF7C2FFE0
:1014C000F7E7000014ED00E050EF00E000440258A0
:1014D000002002584FF04070E1EE100A7047000003
:1014E00000000102030401020304060708090000CA
:1014F000101500080000002014000000D4020008AD
:10150000241500081400002064060000F002000802
:101510000100000010000000000000000090D00357
:041520000090D00364
:040000050800029954
:00000001FF
