:020000040C00EE
:100000000008001001020008B1020008B102000857
:10001000B1020008B1020008B102000800000000AF
:100020000000000000000000000000009111000826
:10003000B10200080000000031120008A1120008FF
:10004000B1020008B1020008B1020008B1020008C4
:10005000B1020008B1020008B1020008B1020008B4
:10006000B1020008000000000000000000000000D5
:10007000B102000800000000B1020008B10200084F
:10008000B1020008B1020008B1020008B102000884
:10009000B1020008B1020008B1020008B102000874
:1000A000B1020008B1020008B1020008B102000864
:1000B000B1020008B1020008B1020008B102000854
:1000C000B1020008B1020008B1020008B102000844
:1000D000B1020008B1020008B1020008B102000834
:1000E000B1020008B1020008B1020008B102000824
:1000F000B1020008B1020008B1020008B102000814
:10010000B1020008B1020008B1020008B102000803
:10011000B1020008B1020008B1020008B1020008F3
:10012000B1020008B1020008B1020008B1020008E3
:10013000B1020008B1020008B1020008B1020008D3
:10014000B1020008B1020008B1020008B1020008C3
:10015000B1020008B1020008B1020008B1020008B3
:10016000000000000000000000000000000000008F
:10017000B1020008B1020008B1020008B102000893
:10018000B1020008B1020008B1020008B102000883
:10019000B1020008B1020008B1020008B102000873
:1001A000B1020008B1020008B1020008B102000863
:1001B000B1020008B1020008B1020008B102000853
:1001C000B1020008B1020008B1020008B102000843
:1001D000B1020008B1020008B102000800000000EE
:1001E000B1020008B1020008B1020008B102000823
:1001F000B102000800000000B10200080000000089
:10020000DFF88CD023488047234C244DAC4209DAD8
:1002100021686268A368043BA2BFC858D050FAE7BF
:100220000C34F3E71E4B1F4CA34208DA19685A68D6
:100230000020043AA4BF8850FBE70833F4E71A48CB
:1002400080471A48804700008443000C00000020CB
:10025000D80300005C47000C0000003000000000E4
:100260008443000C00080010000000008443000CD0
:100270000008001000000000D8030020D404000093
:100280000000003000000000000800100000000026
:10029000000800103D03000848020008780200082A
:1002A0007802000890020008913D000871340008AF
:1002B000FEE700001D4BDB68D90310B525D51C4BAC
:1002C000DA6812F0010F1C4602D102F09FFA00E03A
:1002D00018482268164B520710D59A6899689B688F
:1002E000C2F30362C3F30644531C04FB0333B0FBA5
:1002F000F3F0C1F3062303FB000007E09B6803F063
:100300007F030133B0FBF3F000E00A48074AD368EB
:10031000DBB20133B0FBF3F0136903F001030133E7
:10032000B0FBF3F0044B186010BD00BF0046005056
:100330001047005000366E01C0FF002038B5094A52
:10034000094D4FF00054234603CBAB42106051607F
:100350001C4602F10802F6D102F018FA02F05AFA2D
:1003600038BD00BFC4FF00201000002001F0FC03D6
:100370000344F0B501F003041E69E400F825A5402C
:1003800026EA05051D61466F4F000325BD4026EA9C
:1003900005054567164DA84203D005F58075A842AE
:1003A00007D1056E012606FA01F125EA0101016671
:1003B00018E092F90050002D14DA55688D40456020
:1003C000CD0800EB850001F00701066C89000725C8
:1003D0008D4026EA05050564167A056C06FA01F1DA
:1003E0002943016412781969A2400A431A61F0BDD9
:1003F000008E024810B50446FFF75CFF064B074825
:100400001B68B3FBF0F303FB04F00023834202D02C
:1004100000BF0133FAE710BDC0FF002040420F00CB
:10042000020F0C235343024A20F07040985070474B
:1004300014440050034B044A5B69106803F0010345
:10044000D840704700460050C0FF0020034AD368E0
:1004500023F480331843D060704700BF004600503B
:10046000034A936923F4803318439061704700BFB7
:1004700000460050034A536A23F440331843506245
:10048000704700BF00460050064AD36820B923F4E5
:10049000807323F0010303E043F4807343F001030E
:1004A000D360704710470050054BD3F8C4301B078A
:1004B000FAD4044AD36823F040031843D06070474D
:1004C0000040005000430050054BD3F8C4301B07D8
:1004D000FAD4044AD36823F080031843D0607047ED
:1004E0000040005000430050034AD368013823F015
:1004F000FF030343D360704700460050034A136A6A
:10050000013823F001030343136270470046005093
:10051000034A1369013823F0010303431361704751
:1005200000460050034A5369013823F00103034396
:100530005361704700460050034A9369013823F025
:10054000070303439361704700460050034AD36991
:10055000013823F03F030343D36170470046005046
:10056000034A536A013823F0FF0303435362704781
:1005700000460050014B5860704700BF00460050D5
:100580000F4B5A6942F001025A615A690138013928
:10059000000642F0100240EA01215A6159615A698D
:1005A00042F040025A615A6922F010025A615A69B7
:1005B00042F480225A611A695207FCD5704700BF85
:1005C0001047005010B50B4C6368012843F48013AA
:1005D00063600AD1636823F4801363606420FFF7CB
:1005E00009FF636843F4002363606420BDE81040A2
:1005F000FFF700BF104700500A4B1A68D20704D516
:10060000094B1A68900506D4704701225A601A688F
:10061000D107FCD5F4E74FF400729A601A6892058E
:10062000FCD470470042005000440050034B18684F
:1006300080F00800C0F3C000704700BF00430050C6
:10064000104B4FF40002DA600F4AD16921F03001FB
:10065000D16159680802FCD50A494FF40030C860DE
:10066000082151605A689103FCD5064A4FF40021D5
:10067000D1600549CA6842F00802CA605A6812038C
:10068000FCD57047744000500043005070B50C4DCD
:100690000C4E6B6823F480336B60746802F0B6F81C
:1006A000094BB0FBF3F024F47023013823F030033E
:1006B00043EA004373606B6823F400336B6070BDE2
:1006C0001047005000470050A0252600044B186832
:1006D00000F46070A0F5607358425841704700BF45
:1006E00010470050034A536823F4803323F0020379
:1006F0005360704710470050034A536843F48033F7
:1007000043F002035360704710470050054A936856
:10071000013823F4FE0343EA004393603220FFF7DD
:1007200069BE00BF104700502DE9F0410C46054658
:1007300090461F46069EFFF7A7FE012C314C52D172
:1007400035B902F063F8304DB0FBF5F0800501E0FB
:100750004FF0C060636843F001036360636843F077
:1007600010036360A168294B08F1FF320B4043EA94
:1007700002637A1E43EA022278431823B0FBF8F59D
:10078000B5FBF3F39B0D013B42EA0343A3606368AF
:1007900043F040036360636823F0100363606368A1
:1007A00043F4802363602368164A5907FBD55368D6
:1007B00023F0010353602368DA07FCD43C20B5FB27
:1007C000F0F0800D864201D2FFF7A0FF5A20B5FB62
:1007D000F0F0800D864201D2FFF798FF3046BDE869
:1007E000F041FFF793BFA368013E23F07F031E4350
:1007F000A660636843F0010363602368DB07FCD5F0
:10080000BDE8F0811047005040420F00FF8080F0AB
:1008100037B504460020FFF719FEFFF7EDFEE37938
:100820001BB9607AFFF750FE06E0FFF709FFFFF7FC
:10083000FDFE0028FBD0F4E71B4BD3F8C430002B9F
:10084000FAD1207AFFF7BEFE207CFFF74DFE607CD8
:10085000FFF75EFEA07CFFF751FEE07CFFF762FE33
:10086000A37923B9E3784BB9FFF746FF10E0FFF710
:100870000DFFFFF72BFF0028FBD0F3E7FFF732FF58
:10088000A578A088E178627823780095FFF74CFF7F
:10089000E068B0F5803F01D1FFF7D8FD03B0BDE8B7
:1008A0003040FFF707BD00BF004000500B682DE946
:1008B000F0434FF00A0808FB03F8D1F804E00023E6
:1008C00042F210791E4601270A22B8FBF7F4B4FB66
:1008D000FEFCBCFBF2F502FB15CCBCF1050F944607
:1008E00001D9013500E025B10CFB05F2B4FBF2F2B1
:1008F00002E00125B4FBF2F272452CBFCEEB0202FE
:10090000C2EB0E02142D07D8914505D9B2F57A7FB6
:1009100006D391462B463E460137412FD4D101E004
:100920002B463E460F8942F2107E0124402542F2BA
:10093000107205FB0222B2FBF3F2BA4205D3D21BBE
:10094000964507D996462C4604E0BA1A964588BFC4
:100950002C4602E0013D022DE9D1026842F040023E
:1009600002604A89013A013E9201611E06F03F068B
:10097000D2B20902324301F4706111439A1E131B73
:100980001B0303F4E0430B430361036823F04003BC
:100990000360BDE8F083D0F8C43113F4407FFAD18E
:1009A000120442F00202013142EA0161C0F8C411AE
:1009B0007047000010B504460548FFF731FD236875
:1009C00023F00103236023689B07FCD410BD00BF04
:1009D0001000001070B50E460546FFF72BFD0446CB
:1009E0002846FFF7E7FFB4FBF6F2C2F58062002A63
:1009F00040F2FF3138BF00228A424FEA961328BFE7
:100A00000A46A0099B02B3FBF0F38B4228BF0B46BA
:100A10005843800AC2F58061B4FBF1F4A6EB801163
:100A2000341B8C4298BF1346EA6822F4434222F0FA
:100A3000FF02EA60EA688CBF02210121134343EA06
:100A40008133EB6070BD0000037E012B14D103687D
:100A50002022DA610368017B1A68090601F07061DF
:100A600022F070620A431A6002691A6142695A618F
:100A7000024ADA61002070470320704740002800D6
:100A80000268916802F1384321F47F4110B5A3F563
:100A9000A83391609168DB0023F0FF030B43936060
:100AA000037E012B044628D82023D361C3794268F2
:100AB00013F0200F08BF02F06041036803BF41EA52
:100AC00082429A6181689A6106BF01F0604242EAFF
:100AD00081428268DA60027E012A08D1FFF7B4FF02
:100AE00023684FF00062DA612368044A04E04FF49F
:100AF0000062DA610368024ADA6110BDC0002006B4
:100B00004006A0000368D969DA69890606D5D205CE
:100B100006D44FF0E062DA6100207047042070478D
:100B2000022070470368DA69DB6912054ED4590761
:100B30004ED403680822DA610368C2799969C1F367
:100B40004071D9B961F34512C2719A694168C2F323
:100B50008A4262F31C014160D968C27AC1F34071D4
:100B600061F34512C272D96812F0200F826818BF73
:100B7000C1F38A4161F31C02826013E042F020025B
:100B8000C2719969426861F31C024260D968826847
:100B900061F31C028260DA68C17AC2F3407262F3C8
:100BA0004511C1721A68C2F3036202731A690261C5
:100BB0005A694261DA69DB695207C3F3C00301D5A0
:100BC000002BB6D1002303761846704703207047E8
:100BD00002207047B1F5800F15BF03688369194380
:100BE00043F4800314BF01608361704710B504466D
:100BF0001020FFF7BFFC0C4B9C4201D104200DE0FC
:100C00000A4B9C4201D1082008E0094B9C4201D1CB
:100C1000102003E0074B9C4204D10748BDE8104078
:100C2000FFF7FEBB10BD00BF00C000400000014048
:100C300000400140004000480100001038B5044663
:100C40000D46FFF7D3FF4FF48073E360236823F46E
:100C5000404343EA8531216038BD0B6843614B79DD
:100C6000C3F340131B0543600B7903F00F0343628A
:100C70004B7903F00F0303624B79C3F300138361D5
:100C80000B791B09C3627047436F490010B50324F9
:100C90008C4023EA04034367436F8A40134343674E
:100CA00010BD0120FFF7BCBB38B50D460446FFF769
:100CB000F8FF6B6923606B6843F40043C4F880302D
:100CC000AB68C4F8A030EB68C4F8A4302B69C4F852
:100CD00080322B68C4F8B83038BD0000283312B910
:100CE00040F21F7200E0024A0A4040F82320704799
:100CF00000001F07D0F8803043F00043C0F8803078
:100D00000023094A52F82320D2F8801011F4403F02
:100D100005D0D2F88010C90001D500BFF9E7013332
:100D2000042BEED1704700BF783F0008D0F8403167
:100D300023F00F03C0F840310329D0F8403188BFB9
:100D400004391943C0F840117047F0B542B901F0B9
:100D50001F051F26C1F302214FF4E06E082709E0AA
:100D6000C1F304454FF4F816C1F302614FF0E06E91
:100D70001022182700EB8303B940D3F8A04024EADF
:100D80000E04214321EA060195402943C3F8A0102F
:100D9000F0BDF8B500220C46054613464968FFF73A
:100DA000D4FF2846616801220023FFF7CEFF2846C2
:100DB000A16800220123FFF7C8FF0122134628463D
:100DC000A168FFF7C2FFA0782369C5F8803000F062
:100DD0001F062078E368E178C5F8B83000F0070016
:100DE00040EA0640C5F8F001D5F8F021C1F300173C
:100DF00042F00042C1F3810342EA0772C1F340119D
:100E000042EA836343EA4173C5F8F031F8BDD0F894
:100E1000803023F003031943C0F8801070470000AE
:100E2000304AD2F8843023F08063F0B5C2F88430C1
:100E3000D2F8843423F08063C2F88434D2F8843842
:100E400023F08063C2F88438D2F8843C23F08063B6
:100E5000C2F8843C0B7813F00305C3F381030CBF85
:100E600000274FF400671A0200241F4B53F8246038
:100E7000D6F8843023F44073134301343B43042CED
:100E8000C6F88430F1D14B68164A43F4000343F4AA
:100E90000043C0F800328B6843F00103C0F804320D
:100EA000022D02BFD0F8043243F48033C0F804327C
:100EB000D2F8843043F08063C2F88430D2F88434AE
:100EC00043F08063C2F88434D2F8843843F08063FE
:100ED000C2F88438D2F8843C43F08063C2F8843C82
:100EE000F0BD00BF00440040783F000830B501234A
:100EF000D0F888508B4025EA0304137A8B402343B3
:100F0000C0F8883092F90930002B19DB012907D18C
:100F1000D0F8B03023F4F853C0F8B030082507E01B
:100F200029B9D0F8B03023F01F03C0F8B030002545
:100F300092F90930D0F8B040AB402343C0F8B0304C
:100F4000D0F8C84053682343C0F8C83080311368D4
:100F500040F8213030BD000008B50C4B1A680AB9C2
:100F60000B4A1A601A680B49C31C23F0030313448D
:100F70008B4203D2054910460B6008BD02F002FF08
:100F80000C2303604FF0FF3008BD00BFD8030020E2
:100F9000B0080020C0FF00207047000008B590F89E
:100FA00021307BB94369C2691B6F127906489BB235
:100FB000013302F00F02A3FB0001C2F1200202F094
:100FC0009BFA08BD002008BD555555D590F8263030
:100FD00033B190F821302BB942690221116101E04F
:100FE00001207047002070474369428C5A630022F9
:100FF000DA630369C2689B681A61704770B504467A
:10100000006900F024F82369227E9B68E1690125CC
:1010100005FA02F2DA6006466069FFF71EFE204616
:10102000FFF7E2FF636902221A6194F8242084F832
:10103000265002B1DD60304670BD90F8262022B9FE
:1010400090F821300BB9FFF7D9BF00207047437BE0
:1010500010B504464BB98068217BFFF7EFFDA3680C
:101060004FF48072DA6001236373002010BD437A6D
:1010700010B504462BB940682168FFF7ABFC01238B
:101080006372002010BDF8B5037E022B044629D1FF
:1010900040692169FFF708FE271F002657F8043F23
:1010A00093E80300FFF775FE3B6803211868FFF71C
:1010B000AEFE39680B7A4BB9606906F11005D0F8BD
:1010C00080200123AB401343C0F880300136002359
:1010D000042E4B721D46E1D1637E13B16069FFF7A8
:1010E00009FE2576207EF8BD82B0002301930D4BCA
:1010F0001B68013308D04FF0FC0383F31188BFF362
:101100006F8FBFF34F8FFEE74FF0FC0383F311881F
:10111000BFF36F8FBFF34F8F019B002BFCD002B04A
:10112000704700BF9000002008480068006880F306
:1011300008884FF0000080F3148862B661B6BFF3F0
:101140004F8FBFF36F8F00DF00BF000008ED00E09E
:10115000DFF80C00016841F4700101607047000085
:1011600088ED00E04FF0807340F8043C074B40F8F6
:101170000C3C21F001016FF0020340F8081C40F81C
:10118000202C40F8243C4438704700BFE910000888
:10119000074B19680868B0E8F04F80F30988BFF37F
:1011A0006F8F4FF0000080F311887047AFF300801D
:1011B0008C040020AFF30080AFF30080AFF3008019
:1011C0004FF0FC0383F31188BFF36F8FBFF34F8F92
:1011D0000A4A13680133012B13600DD1084B1B68B9
:1011E00013F0FF0F08D04FF0FC0383F31188BFF317
:1011F0006F8FBFF34F8FFEE7704700BF9000002056
:1012000004ED00E0084A136843B94FF0FC0383F390
:101210001188BFF36F8FBFF34F8FFEE7013B136061
:101220000BB983F311887047900000200000000084
:10123000EFF30980BFF36F8F154B1A681EF0100F84
:1012400008BF20ED108A20E9F04F10602DE9090059
:101250004FF0FC0080F31188BFF34F8FBFF36F8F07
:1012600000F060FF4FF0000080F3118809BC19689E
:101270000868B0E8F04F1EF0100F08BFB0EC108AFD
:1012800080F30988BFF36F8F704700BFAFF3008012
:101290008C040020AFF30080AFF30080AFF3008038
:1012A00008B54FF0FC0383F31188BFF36F8FBFF3D2
:1012B0004F8F00F013FE18B1034B4FF080521A60AD
:1012C000002383F3118808BD04ED00E0084A0949B2
:1012D000002313600B60084B42F210711B68B3FBD4
:1012E000F1F30649013B0B6007231360704700BF11
:1012F00010E000E018E000E0C0FF002014E000E093
:10130000374B384A13B51968914208D14FF0FC03A6
:1013100083F31188BFF36F8FBFF34F8FFEE71A6817
:10132000314B9A4208D14FF0FC0383F31188BFF38D
:101330006F8FBFF34F8FFEE72C4B1A78D2B201921A
:10134000FF221A701B782A4ADBB28DF803309DF811
:10135000033003F0FC031370264A072313609DF843
:101360000310090603F1FF3007D59DF803305B0039
:10137000DBB28DF803300346F1E7012B136008D090
:101380004FF0FC0383F31188BFF36F8FBFF34F8FD0
:10139000FEE7184A1B0203F4E0631360019B134A43
:1013A000DBB21370144B1A6842F47C021A601A689C
:1013B00042F07C421A60FFF789FF104B00241C604A
:1013C000FFF7C6FE0E4A136843F040431360FFF771
:1013D000ABFE00F0A7FEFFF787FE204602B010BD6F
:1013E00000ED00E071C20F4170C20F4100E400E067
:1013F000E4030020E803002020ED00E0900000203E
:1014000034EF00E0EFF305830F2B0ED9104A9B5CFD
:10141000104A12789A4208D94FF0FC0383F31188DE
:10142000BFF36F8FBFF34F8FFEE70B4B0B4A1B6869
:10143000126803F4E063934208D94FF0FC0383F38E
:101440001188BFF36F8FBFF34F8FFEE7704700BF68
:10145000F0E300E0E40300200CED00E0E8030020EE
:1014600010B5044600F02CFD204602F0B7FC0446FF
:1014700000F0BEFD204610BD10B5044640B100F09E
:101480001FFD204602F0B2FCBDE8104000F0B0BDE8
:1014900010BD00F1080343604FF0FF32C3600361E9
:1014A0000023826003607047002303617047436834
:1014B0004B609A688A609A68516099600368086115
:1014C0000133036070470A68531C30B501D10369CA
:1014D00007E000F108035C682568954201D82346BF
:1014E000F9E75A684A6091608B6059600368086147
:1014F0000133036030BD4168826803698A60826895
:1015000051605968814208BF5A60002202611A681E
:10151000013A1A601868704710B50446FFF750FE8C
:10152000A46BFFF76FFEB4FA84F0400910BD70B5EC
:101530001546026C866B044632B905682DBB4068BF
:1015400000F00EFF656027E065B9806802F056FC88
:10155000A268236C13446268A360934217D3236884
:10156000A36014E0C06802F049FC236CE2682168C3
:101570005B421A448A42E2603EBF62689B18E360A5
:10158000022D06D13EB1013E03E0104604E028469C
:1015900002E0002000E030460136A66370BD026C18
:1015A00010B503466AB1C4681444C46040688442FC
:1015B00024BF1868D860BDE810400846D96802F01A
:1015C0001DBC10BD73B5846C01900A4644B94FF040
:1015D000FC0383F31188BFF36F8FBFF34F8FFEE7D8
:1015E000A16BE36B994208D34FF0FC0383F311889E
:1015F000BFF36F8FBFF34F8FFEE7A16B994218D2F5
:1016000094F84550204601A9FFF791FFEDB2FF2D58
:10161000064609D1636A6BB104F1240000F0F6FDBF
:10162000002818BF012605E00135EDB284F84550C9
:1016300000E00026304602B070BD38B50446FFF722
:10164000BFFD94F84550EDB26BB2002B12DDA36CD8
:101650003BB120460021FFF7B5FF48B100F06AFE1C
:1016600006E0636A33B104F1240000F0CFFDF4E733
:10167000013DE8E7FF2384F84530FFF7C3FDFFF79E
:101680009FFD94F84450EDB26BB2002B0ADD236944
:1016900043B104F1100000F0B9FD08B100F04AFEBA
:1016A000013DF0E7FF2384F84430BDE83840FFF700
:1016B000A9BD000038B50D46044640B94FF0FC0303
:1016C00083F31188BFF36F8FBFF34F8FFEE7FFF7F0
:1016D00077FD206CE36B2268A2604343D1181B1A8C
:1016E00013446160E3600021FF23A16384F8443068
:1016F00084F845307DB92369ABB104F1100000F0E6
:1017000085FD80B10A4B4FF080521A60BFF34F8FB6
:10171000BFF36F8F07E004F11000FFF7BAFE04F18A
:101720002400FFF7B6FEFFF76DFD012038BD00BFB6
:1017300004ED00E0F8B50D461746064640B94FF0F7
:10174000FC0383F31188BFF36F8FBFF34F8FFEE766
:1017500009B1484300E008465430FFF781FE0446D3
:1017600078B10DB9206002E000F154030360E66334
:10177000256420460121FFF79DFF002384F8507067
:10178000A3642046F8BD00002DE9FF418846019280
:101790001F46044640B94FF0FC0383F31188BFF3A2
:1017A0006F8FBFF34F8FFEE751B9036C43B14FF01A
:1017B000FC0383F31188BFF36F8FBFF34F8FFEE7F6
:1017C000022F0BD1E36B012B08D04FF0FC0383F306
:1017D0001188BFF36F8FBFF34F8FFEE700F0B0FDAE
:1017E00010B9019E0EB176E00026FFF7E9FCA26B6E
:1017F000E36B9A4201D3022F1ED1204641463A465E
:10180000FFF795FEA36C23B120463946FFF7DAFEB9
:1018100005E0636A1BB104F1240000F0F7FC38B165
:10182000334B4FF080521A60BFF34F8FBFF36F8F6F
:10183000FFF7E8FC012057E0019D15B9FFF7E2FC36
:1018400047E016B902A800F021FDFFF7DBFC00F02D
:1018500037FBFFF7B5FC94F84430FF2B04BF00239F
:1018600084F8443094F84530FF2B04BF002384F8FB
:101870004530FFF7C7FC02A801A900F013FD18BB13
:10188000FFF79EFCA66BE56BFFF7BCFCAE4215D1E3
:1018900004F11000019900F07FFC2046FFF7CDFE17
:1018A00000F0A6FB08B101269FE7114B4FF08052D4
:1018B0001A60BFF34F8FBFF36F8FF4E72046FFF737
:1018C000BCFE00F095FBEEE72046FFF7B6FE00F009
:1018D0008FFB002008E04FF0FC0383F31188BFF377
:1018E0006F8FBFF34F8FFEE704B0BDE8F08100BFFC
:1018F00004ED00E02DE9F843884691461F46044672
:1019000040B94FF0FC0383F31188BFF36F8FBFF32F
:101910004F8FFEE751B9036C43B14FF0FC0383F3E3
:101920001188BFF36F8FBFF34F8FFEE7022F0BD1EC
:10193000E36B012B08D04FF0FC0383F31188BFF356
:101940006F8FBFF34F8FFEE7FFF75CFDEFF311865C
:101950004FF0FC0383F31188BFF36F8FBFF34F8FFA
:10196000A26BE36B9A4201D3022F24D194F8455025
:101970002046EDB241463A46FFF7D9FDFF2D14D17E
:10198000A36C5BB120463946FFF71CFE88B1B9F164
:10199000000F0ED00120C9F800000DE0636A43B1CA
:1019A00004F1240000F032FCF0E70135EDB284F8D8
:1019B0004550012000E0002086F31188BDE8F8833F
:1019C000F0B585B00F460192044640B94FF0FC03D4
:1019D00083F31188BFF36F8FBFF34F8FFEE751B9C9
:1019E000036C43B14FF0FC0383F31188BFF36F8F97
:1019F000BFF34F8FFEE700F0A3FC10B9019E0EB1BC
:101A00006DE00026FFF7DCFBA56BC5B1204639462B
:101A1000013DFFF7C4FDA563236963B104F1100024
:101A200000F0F4FB38B1334B4FF080521A60BFF333
:101A30004F8FBFF36F8FFFF7E5FB012058E0019D4B
:101A400015B9FFF7DFFB48E016B902A800F01EFC4D
:101A5000FFF7D8FB00F034FAFFF7B2FB94F84430FC
:101A6000FF2B04BF002384F8443094F84530FF2B4B
:101A700004BF002384F84530FFF7C4FB02A801A986
:101A800000F010FCF8B92046FFF746FDA8B104F1BC
:101A90002400019900F080FB2046FFF7CEFD00F006
:101AA000A7FA08B10126ADE7124B4FF080521A6039
:101AB000BFF34F8FBFF36F8FF4E72046FFF7BDFDF5
:101AC00000F096FAEEE72046FFF7B7FD00F090FA37
:101AD0002046FFF721FD0028E4D0002008E04FF069
:101AE000FC0383F31188BFF36F8FBFF34F8FFEE7C3
:101AF00005B0F0BD04ED00E030B50023064A52F811
:101B0000335002EBC3041DB942F83310606030BD9E
:101B10000133082BF2D130BD9805002070B5044682
:101B20000E461546FFF74CFB94F84430FF2B04BFDC
:101B3000002384F8443094F84530FF2B04BF002381
:101B400084F84530FFF75EFBA36B2BB904F124004A
:101B500031462A4600F03AFB2046BDE87040FFF7C8
:101B60006CBD0000F8B51D4B1D4D1E682B6804466A
:101B70002868002283F86D2004300F46FFF7BBFC75
:101B800040B92B681748D96A026801238B4022EAC2
:101B900003030360631C07D137B12968124804317D
:101BA000BDE8F840FFF783BC34442A680C4B54600E
:101BB000B44207D20D4A10681968BDE8F8400431F4
:101BC000FFF781BC0A4A106819680431FFF77BFCF3
:101BD000084B1A68944238BF1C60F8BDA804002066
:101BE0008C040020E8040020D4040020AC04002071
:101BF000F003002090040020064A13681968064B81
:101C000011B94FF0FF3203E01268D268D26852680F
:101C10001A607047F00300209004002008B5144CAF
:101C20002368BBB1FFF7CCFA124BDB68DD68281DD7
:101C3000FFF761FC104A1368013B13602368013B06
:101C40002360FFF7DFFA286BFFF716FC2846FFF743
:101C500013FCE4E7094B1B68012BE0D9084B4FF05C
:101C600080521A60BFF34F8FBFF36F8FD7E700BF6B
:101C7000CC040020F8030020C80400202404002025
:101C800004ED00E02DE9F84F9500824628460E4607
:101C90009946DDF82C80FFF7E3FB0746002800F0AB
:101CA000AF807020FFF7DCFB044680B12A46076353
:101CB000A521384602F0ADF8A5F1040B256BAB4425
:101CC000731E2BF0070B04F133020F3605E0384684
:101CD000FFF7D2FB94E0B34206D013F8011F02F8DD
:101CE000011F19780029F6D10A9E042E4FF0000535
:101CF00028BF0426271DE662E664384684F8435070
:101D00002565FFF7D1FBC6F1050604F11800FFF7C2
:101D1000CBFBA5662461A66164626565A565E56582
:101D20002566656684F86C5084F86D5058465146B7
:101D30004A46FFF717FA2060B8F1000F01D0C8F843
:101D40000040FFF73DFA304B304E1A68DFF8E8806C
:101D500001321A60356815BB34601B68012B27D12E
:101D600008EB05001435FFF794FB642DF8D1DFF87C
:101D7000CC90274D4846FFF78CFB2846FFF789FBA0
:101D80002448FFF786FB2448FFF783FB2348FFF72F
:101D900080FB234BC3F80090224B1D6008E0224BD0
:101DA0001B682BB93368DA6AE36A9A4298BF3460D9
:101DB0001E4A1F49136801331360E26A63640125F8
:101DC0000B6805FA02F0034314200B6000FB02804D
:101DD0003946FFF76CFBFFF715FA134B1B6863B12D
:101DE0003368DA6AE36A9A4207D2124B4FF08052A4
:101DF0001A60BFF34F8FBFF36F8F2846BDE8F88F8F
:101E00004FF0FF30BDE8F88FC80400208C0400209C
:101E10000C040020B0040020F8030020D4040020AB
:101E2000F0030020AC040020F4030020C4040020D0
:101E3000E804002004ED00E02404002094040020C5
:101E400013B5194B019300240094184818498222B5
:101E50002346FFF717FF012818D100F01BFB0128CC
:101E600014D14FF0FC0383F31188BFF36F8FBFF3DE
:101E70004F8F104B4FF0FF321A600F4B18600F4B13
:101E80001C6002B0BDE81040FFF73ABA013008D13B
:101E90004FF0FC0383F31188BFF36F8FBFF34F8FB5
:101EA000FEE702B010BD00BFD00400201D1C0008DA
:101EB000F03F000890040020F4030020A804002054
:101EC000024A136801331360704700BF8804002082
:101ED000014B1868704700BFA8040020394B1B68ED
:101EE0002DE9F047002B3FD1374B1D6801351D60B0
:101EF000BDB9364B1A68126842B14FF0FC0383F348
:101F00001188BFF36F8FBFF34F8FFEE7304A196818
:101F10001068186011602F4A136801331360FFF7CF
:101F20006BFE2D4FDFF8C0803B68DFF8C0909D420C
:101F30004FF000040DD3254B1A68126812B94FF008
:101F4000FF3305E01B68DB68DE6873689D4211D2D1
:101F50003B60D9F80030DA6A1423534358F8033051
:101F6000022B28BF012425E01C4A136801331360AB
:101F700000241FE006F1040A5046FFF7BCFAB36ADA
:101F80001BB106F11800FFF7B6FA1548F16A0268AE
:101F900001238B4013430360142000FB0180514652
:101FA000FFF785FAD9F80030F26ADB6A9A4228BF57
:101FB0000124C0E70B4B1B68002B18BF01242046EF
:101FC000BDE8F08788040020A8040020F00300206A
:101FD000AC040020EC03002090040020200400202A
:101FE000E8040020EC040020240400208C040020DD
:101FF00070B52F4C236843B94FF0FC0383F311886D
:10200000BFF36F8FBFF34F8FFEE7FFF7D9F8236859
:10201000013B236024680CB1002445E0254B1B687C
:10202000002BF9D0244B1A680AB3DB68DC68261D44
:1020300004F11800FFF75FFA3046FFF75CFA1F491A
:10204000E26A0B68012505FA02F003430B601C4BA2
:10205000142000FB02303146FFF729FA194BE26ADF
:102060001B68DB6A9A4224BF174B1D60DAE70CB18C
:10207000FFF7C2FD154B1C681D4644B1FFF72EFF4C
:1020800010B1114B01221A60013CF7D12C600E4BAC
:102090001B68002BC0D00E4B4FF080521A60BFF36C
:1020A0004F8FBFF36F8F0124FFF7ACF8204670BD50
:1020B00088040020C8040020B0040020E8040020A8
:1020C000240400208C040020EC04002020040020C4
:1020D00004ED00E038B5054640B9104B4FF0805292
:1020E0001A60BFF34F8FBFF36F8F38BD0C4B1C6866
:1020F00044B14FF0FC0383F31188BFF36F8FBFF33C
:102100004F8FFEE7FFF7DCFE28462146FFF72AFD4A
:10211000FFF76EFF0028E0D038BD00BF04ED00E0FF
:1021200088040020174B1A68174B10B50AB101221A
:1021300025E01A60154B1B68B3FA83F3DBB2C3F1D9
:102140001F03142212495A4388188C5844B94FF07F
:10215000FC0383F31188BFF36F8FBFF34F8FFEE74C
:1021600044680832646844600A44944204BF626868
:102170004260142202FB03135B68DA68054B1A60A5
:1021800010BD00BF88040020EC040020E8040020FB
:10219000240400208C04002010B50C4640B94FF0F8
:1021A000FC0383F31188BFF36F8FBFF34F8FFEE7FC
:1021B000054B19681831FFF786F920460121BDE863
:1021C0001040FFF7CFBC00BF8C04002038B50D468F
:1021D000144640B94FF0FC0383F31188BFF36F8FAF
:1021E000BFF34F8FFEE7084B19681831FFF75FF90F
:1021F000002C08BF2846214618BF4FF0FF30BDE82D
:102200003840FFF7AFBC00BF8C04002038B5C3686E
:10221000DC6844B94FF0FC0383F31188BFF36F8F80
:10222000BFF34F8FFEE704F118052846FFF763F967
:10223000104B1B687BB9251D2846FFF75CF90E483B
:10224000E16A026801238B40134303600B4B1420A7
:1022500000FB013000E00A482946FFF728F9094B46
:10226000E26A1B68DB6A9A4283BF074B0120186051
:10227000002038BD88040020E80400202404002049
:10228000B00400208C040020EC040020034B1B68E9
:102290000360034B1B684360704700BFEC030020E2
:1022A000A804002070B50D46064640B94FF0FC0367
:1022B00083F31188BFF36F8FBFF34F8FFEE741B9F0
:1022C0004FF0FC0383F31188BFF36F8FBFF34F8F81
:1022D000FEE7FEF775FF144B71681A68134B186818
:1022E00090F86D4024B11B68002283F86D2015E042
:1022F0002B68581C13D00E4804683068844201D003
:102300008A420BD2521A9A4206D29B1A2B6030464E
:10231000FFF7BCFF002402E000232B600124FEF73E
:1023200071FF204670BD00BFA80400208C0400206F
:10233000EC030020014B01221A607047EC040020DE
:10234000054B1B6833B1054B1B68002B0CBF0220EB
:102350000020704701207047F4030020880400200B
:1023600070B5044608B9002070BD224B1B68984226
:1023700008D04FF0FC0383F31188BFF36F8FBFF3D6
:102380004F8FFEE7036D43B94FF0FC0383F31188D1
:10239000BFF36F8FBFF34F8FFEE7C16AC26C013B83
:1023A00091420365DFD0002BDDD1051D2846FFF7E4
:1023B000A2F81149114A50B9E66A14237343CB5865
:1023C0002BB910680123B34020EA03031360E36CC8
:1023D000E362C3F10500A0611068012404FA03F66A
:1023E00030431060142000FB03102946FFF75FF80C
:1023F000204670BD8C04002024040020E804002046
:10240000F8B50F4CFEF7DCFE2568ADB90D4F0E4E4A
:102410003846FFF73EF83046FFF73BF80B4B1F609E
:102420000B4B052010212A461E60FFF783F9206020
:1024300010B10849FFF760FBBDE8F840FEF7E2BEC7
:1024400020050020F404002008050020F0040020EE
:10245000240500200440000810B504469142416064
:10246000206105D8D21A83699A420CD2074B04E046
:102470009A4201D2994206D2054B1868211DFFF7F6
:1024800022F8002010BD012010BD00BF240500204F
:10249000F004002007B5FFF7B3FF0E4B1B6843B9EC
:1024A0004FF0FC0383F31188BFF36F8FBFF34F8F9F
:1024B0000FE002230093084B0193084808494FF4AA
:1024C00082720023FFF7DEFB0028E9D003B05DF83D
:1024D00004FBFEE72005002028050020B1250008A8
:1024E0000940000830B5054685B040B94FF0FC03FF
:1024F00083F31188BFF36F8FBFF34F8FFEE70E4C4E
:102500002068B8B105298DE826000EDCFFF718FF1A
:10251000022818BF0022206808BF089A69460CBF2D
:1025200000231346FFF730F904E01A4669460023FA
:10253000FFF7E0F905B030BD20050020F7B51A4DD2
:102540002B681A684AB3DB68DC681E68271D3846AA
:10255000FEF7D1FF636A20469847E369012BEED16D
:10256000A3693344B34206D96360246128683946BD
:10257000FEF7A9FFE3E700210091204632460B4613
:10258000FFF7B0FF0028DAD14FF0FC0383F3118886
:10259000BFF36F8FBFF34F8FFEE7044A11682960C6
:1025A000136003B0F0BD00BFF0040020240500203C
:1025B0002DE9F04387B0DFF8B491D9F800301C68FA
:1025C000B4FA84F4640914B9DB681F6800E00027DA
:1025D000624DFFF775FCFFF77BFC2B689842804645
:1025E0002E4603D2FFF7AAFF012300E00023C5F81F
:1025F0000080002B45D154BB47452FD8FFF7F8FC8E
:10260000D9F80030DB68DD68281DFEF774FFEB6940
:10261000012B18D1A9692846394442463B46FFF7A9
:102620001BFF80B10094284621463A462346FFF717
:1026300059FF40B94FF0FC0383F31188BFF36F8F4C
:10264000BFF34F8FFEE76B6A2846984726E0444B5E
:102650001B681C68B4FA84F2520900E02246414B20
:10266000C8EB07011868FFF759FAFFF7C1FCA8B9D2
:102670003D4B4FF080521A60BFF34F8FBFF36F8F07
:102680000CE0FFF7B5FC09E0029B002B03DA04988D
:102690000599039B9847029B002B08DA314B02A94E
:1026A00018680022FFF78CF90028EDD183E7049C1D
:1026B000636913B1201DFEF71EFFFFF709FC3368A5
:1026C0009842054601D2FFF739FF029A3560092A80
:1026D000E4D80123934013F404772BD113F0C70FF0
:1026E00005D19B06DAD52046FEF7C6FED6E7039B4A
:1026F000A169204619442A46FFF7AEFE0028CDD036
:10270000636A20469847E369012BC7D1A269039BFE
:1027100000971A44204639463B46FFF7E3FE00285F
:10272000BCD14FF0FC0383F31188BFF36F8FBFF36D
:102730004F8FFEE70399A16141B94FF0FC0383F38A
:102740001188BFF36F8FBFF34F8FFEE720462944F8
:102750002A462B46FFF780FEA0E700BF1C0500209D
:10276000240500202005002004ED00E0F0040020F6
:1027700010B50446221D217C0068FDF7F7FD206896
:10278000217C627CFEF780FA002010BD194B1A4AAA
:10279000D96821F4E0610904090C0A43DA6072B6D1
:1027A000164A9A60BFF34F8F62B6D3F88820144858
:1027B00042F4700241F21401C3F88820425822F01A
:1027C0000F0242F0030242505A6922F010025A618D
:1027D0005A6922F008025A615A6A22F480325A6217
:1027E0005A6A22F400325A625A6A22F480225A62E9
:1027F000704700BF00ED00E00001FA05000000088E
:1028000000100058012303700020704700487047F3
:10281000001BB70030B5114D0FCD87B001AC0FC410
:102820002B68236001A8FDF7F3FF0020FDF73CFEB5
:102830000020FDF715FE0420FDF77EFE202101207B
:10284000FDF79EFE0020FDF715FE0120FDF788FE36
:102850000120FDF77BFE07B030BD00BF50400008EF
:1028600010B504460068FEF70BF9E37963B12368FD
:1028700061791A68936823F0700343EA0113936047
:10288000136843F400331360237A5BB123681B6839
:102890009A6822F00701A2790A439A601A6842F402
:1028A00080321A6010BD0068FEF72CB90068FEF790
:1028B00039B903680A681A6103684A685A6100688E
:1028C000FEF7C2B82DE9F843D0F8906004460068DE
:1028D000FEF7CDFB0546002840F088806068A168BF
:1028E000FDF7E4FF63681A6842F040021A601A6854
:1028F00042F001021A6094F8A72022B1DA6842F48B
:102900008072DA6011E0D4F89830D4F89C201979FC
:102910001868FDF72BFD616894F8A020CB6802F0E1
:10292000070223F007031343CB606068D4F88C20C0
:10293000836823F0070113780B4383608368517821
:1029400023F0700343EA011383608368917823F4D2
:10295000E06343EA012383608368D27823F4E04391
:1029600043EA0233836094F8A430002B94F8A33038
:102970000CBF002102210BB141F0040194F8A530F5
:102980000BB141F00801FEF725F994F8A63023B108
:1029900060684FF48001FEF71DF904F10808002774
:1029A00094F8A2309F420ED258F8049F236894F8FE
:1029B000A110586899F80420FDF7EDFF4846FFF78D
:1029C0004FFF0137ECE763681A6822F040021A6093
:1029D0001A6822F001021A6094F8A7303BB93068F7
:1029E0003179D4F89420FDF7C1FC00E00125284698
:1029F000BDE8F88343681B7810B504462BB903681B
:102A000003B19847636801221A70002010BD0000CE
:102A1000F8B5037E022B044640F09580C068FEF7AF
:102A200032FBE268A3680546506919680022134624
:102A3000FEF754F9E36861685869FEF7F1F9002779
:102A4000236853F82760B068717C3268FEF74EFA4D
:102A5000336871689B78B268096803F00F03A0338C
:102A600042F82310E368327C5B69707C03EB8203DD
:102A70000122D3F880118240F0680A43C3F8802114
:102A800018B1FFF7B7FF2843C5B20137102FD7D1D0
:102A900063681B7A1B0748D52369002B45D02B4A56
:102AA0001E68D1685A689B68C1F30221C1F1070C06
:102AB000BCF1060FF7B228BF4FF0060C09B1481E53
:102AC00000E00846012101FA00FE0EF1FF3E01FA86
:102AD0000CF10EEA030E4B1E134083407AB2002A1B
:102AE0004EEA03034FEA8303ADBF02F16042184A86
:102AF00006F00F0602F56142B9BFDBB29355DBB2B7
:102B000082F80033E368617E5869FEF70FF92369A4
:102B10001A6853B2002B08DB012102F01F0201FAF0
:102B200002F25B090B4941F82320636903B198471E
:102B3000A37E3BB1E3685A69D2F8043243F40073D0
:102B4000C2F804322576207EF8BD00BF00ED00E01B
:102B500014ED00E000E100E0036882689B7803F078
:102B60000F03C03352F8230080B2704708B51148F4
:102B7000FFF748FEE0B91048FFF74AFFC0B90F4819
:102B8000FEF75BFAA0B90E48FFF79CFE80B90D482E
:102B9000FFF7EEFD60B90C48FFF7EAFD40B90B48BE
:102BA000FFF7E6FD20B90A48BDE80840FFF78ABEF6
:102BB00008BD00BF2C050020C0020020000000203E
:102BC00074410008284000083C40000814400008F8
:102BD0009C4000082DE9F843554B564ADA61002421
:102BE0000225052683F8205083F8214083F82860C9
:102BF000514B524ADA6183F8205083F8214083F820
:102C000028604F4B4F4ADA6103214F4A5A6283F8DA
:102C1000201083F8214083F828604C4B4C48D86141
:102C20004C485A62012783F82010DFF8889183F816
:102C300021404FF00C0883F82860474BC361C0F86F
:102C4000249080F8288080F8204080F8217000F0DF
:102C50007FFA4248424BC361C0F8249080F8288034
:102C600080F8204080F8217000F072FA3D483E4B19
:102C7000DFF84491C3614FF00A0880F8207080F8B3
:102C80002170C0F8249080F8288000F061FA37485D
:102C9000374BC36180F8207080F82170C0F8249011
:102CA00080F8288000F054FA324B334ADA6104226B
:102CB00083F8202083F8217083F828602F4B304A56
:102CC000DA6183F8206083F8217083F828602D4B47
:102CD0002D4ADA61062283F8202083F8215083F8F8
:102CE00028602A4B2A4ADA61072283F8202083F8D9
:102CF0002150284B284ADA6183F8204083F821507C
:102D0000264B274ADA6183F8204083F82150254B6F
:102D1000254ADA6183F8204083F82150234B244A66
:102D200083F8205083F82140DA61BDE8F88300BFC2
:102D3000C0070020FC02002018080020AC02002080
:102D40000C0700202C0200207B140E40B40600204B
:102D5000D801002044080020300300205C06002039
:102D60004002002030060020E80200200406002077
:102D700078020020D8050020EC010020E0060020A9
:102D80008C010020880600201C030020EC07002096
:102D90008C020020680700200C0200203807002069
:102DA000C4010020700800202C010020940700209E
:102DB00044030020B9FC073C295C0F3D10B590F896
:102DC0002030012B044604D8E069FFF7C5FE2080BF
:102DD00008E0DA1E022AF7D903F0FB02022AF3D038
:102DE000072BF1D094F821301BB9204600F082F86F
:102DF0000EE0012B03D1204600F07EF908E0022B03
:102E000001BF238807EE903AF8EE677AC4ED017AA5
:102E10002046BDE8104000F0ABB9000008B50A48F4
:102E2000FEF7BCF8094B186060B1094A06481378F0
:102E30000133DBB2042B08BF00231370BDE8084048
:102E4000FEF7C4B808BD00BF0000002064070020E2
:102E5000A608002008B51848FFF7B0FF1748FFF78D
:102E6000ADFF1748FFF7AAFF1648FFF7A7FF164860
:102E7000FFF7A4FF1548FFF7A1FF1548FFF79EFFD6
:102E80001448FFF79BFF1448FFF798FF1348FFF71C
:102E900095FF1348FFF792FF1248FFF78FFF124884
:102EA000FFF78CFF1148FFF789FF1148FFF786FFF6
:102EB000FFF7B4FFCFE700BFC007002018080020CD
:102EC000880600200C070020B406002044080020DB
:102ED0005C0600203006002004060020D8050020F3
:102EE000E0060020EC0700206807002038070020DB
:102EF000700800200E4B02881B78D0ED017A00EBA1
:102F000043039A8100F10A0300F1140233F8021F0F
:102F100007EE101AB8EEC77A934277EE877AF5D1AA
:102F2000B1EE047AC7EE877AC0ED017A704700BF30
:102F3000A6080020034B197C1A6801238B405360BC
:102F4000704700BF1440000880B5224B2249987D8D
:102F50001876224B9D7D1D76214B9A7D1A76214B4A
:102F60009C7D1C76204B93F816E083F818E01F4BED
:102F70009F7D1F761E4B9E7D1E768B7D0B761D4999
:102F8000B1F816C081F818C01B49B1F816C081F815
:102F900018C01A49B1F816C081F818C0184948710C
:102FA0001848CB7181F800E04F708E70CD700C71B5
:102FB0008A71FFF77EFC1348FFF775FC124B1878F7
:102FC00042F2107343434FF47A70B3FBF0F0FFF713
:102FD00081F8BAE7C0070020EC070020180800209D
:102FE000880600200C070020B406002030060020D0
:102FF0000406002068070020380700207008002021
:10300000800500207C40000870030020034B197CE1
:103010001A6801238B405360704700BF3C40000892
:1030200010B50E4C2046FFF741FC23681B7C802B1B
:103030000B4B197C1A680CBF01234FF480338B4073
:103040005360084B187842F2107343434FF47A7080
:10305000B3FBF0F0FFF73EF8E3E700BF884000085D
:103060002840000871030020F8B51B4B1B49DA8A81
:10307000D6B2120A5A761E76CB8ADDB21B0A4B767E
:103080000D761749CC8A5FFA84FE240A81F818E08D
:103090004C761449C88AC7B2000A0F76487612499E
:1030A000C8701248CB7181F800E04C708F700E71BF
:1030B0004A718D71FFF7FDFB0C48FFF7F4FB0C4BD9
:1030C000187842F2107343434FF47A70B3FBF0F078
:1030D000FFF700F8C9E700BF440800205C060020A5
:1030E000D8050020E006002088050020684100087F
:1030F0007203002000000000D0B50446008800F0F4
:1031000059FB0FA3D3E9002300F0BAFB0646A068E1
:103110000F4600F03FFB0CA3D3E9002300F0B0FB07
:1031200002460B463046394600F0F8F900F0DAFD69
:1031300007EE900AFCEEE77A6060C4ED027AD0BD3B
:10314000CDCCCCCCCCCCEC3F989999999999B93FFE
:1031500010B590F82030012B044602D000234384A0
:1031600010BDC069FFF7F8FC608410BD00000000CE
:10317000F0B590F820508FB00446A5B9438C90ED7F
:10318000017A07EE903AF8EEE77A77EE677A17EE73
:10319000900A00F021FBB4A3D3E9002300F070FBF8
:1031A0000022A14B2CE0012D2DD1406A00F014FB30
:1031B000638CD4ED017A07EE103A94F82830B8EE1B
:1031C000C77A064637EEC77A07EE903AF8EEE77A06
:1031D0000F4667EE277A17EE900A00F0FDFA0022FC
:1031E000924B00F04DFB84A3D3E9002300F072FC66
:1031F00002460B463046394600F042FB8C4B00221B
:1032000000F08CF9BDE0032D20D190F8283090ED2E
:10321000017A07EE903AF8EEE77A67EE877A9FED4B
:10322000857AC7EE877A90ED097A67EE877A17EE8E
:10323000900A00F0D1FA72A3D3E9002300F06CF9F0
:1032400071A3D3E9002300F045FC9AE005F0FB03ED
:10325000022B76D10021182202A800F0DAFD08A87E
:103260000021182200F0D5FD022D18D0062D32D1F4
:103270008C23029340F21B13039340F25A230493CE
:103280004FF4A163059340F6C413069340F60A7306
:103290000793694B0893694B0993694B16E040F219
:1032A000E113029340F2E533039340F2ED530493AC
:1032B00040F6C303059340F60553069341F2980385
:1032C00007935D4B08935F4B09935F4B0A935F4BEA
:1032D0000B935F4B0C939FED5F7AD4ED017A67EE11
:1032E000877A9FED547AC7EE877A0021FCEEE77A61
:1032F000CDED017ABDF8043002AA52F821209A429D
:1033000055D801310629F7D1DDED067ADDED0C6ADD
:103310009FED516AB8EE677ADDED077AF8EE677ACD
:1033200036EE666A77EEC77A86EE276A07EE903A3F
:10333000E6EE476AF8EEE77AE6EE276AFCEEE67A12
:1033400031E0042D0AD1406800F046FA30A3D3E9F9
:10335000002300F095FA0022404B0CE0052D14D11B
:10336000406800F039FA2CA3D3E9002300F088FA72
:103370002BA3D3E9002300F0CFF80022384B00F054
:103380007FFA00F08FFCE08232E0072D30D19FED14
:10339000357AD0ED017A67EE877A9FED267AC7EE0F
:1033A000877AFCEEE77A17EE903AE38220E061B983
:1033B000DDED027ADDED086A9DED096AB8EE677A07
:1033C000DDED037AF8EE677AAAE7481E0EAD05EB4D
:1033D000800050ED0C7A50ED066AB8EE677A07EE81
:1033E000902A05EB8101F8EE677A11ED066A97E7FE
:1033F0000FB0F0BDAFF300800000000000FEAF4052
:10340000721CC7711CC7E13F7B14AE47E17AA43F31
:1034100032772D211FF4F23F4A0C022B8716F83F1A
:1034200000000000006069400000E04000408F4064
:103430000000604000F07F450000FA420000C842F2
:10344000000096420000B44200008C420000484256
:103450000000C84100409C4500000000000065409D
:103460000000244000000842FE43FAEDEB0020403B
:1034700037B50024FFF77AFBFFF7ACFBFFF75AFDE7
:10348000FFF7C4FD144900944FF47A722346019467
:103490001248FEF7F7FB01238DE818001049114888
:1034A0004FF47A7223460225FEF7ECFB0E49009595
:1034B0004FF47A72234601940C48FEF7E3FB0C4963
:1034C00000954FF47A72234601940A48FEF7DAFB1E
:1034D000FEF7B6FCFEE700BF40430008552E00088B
:1034E0004A430008213000085C43000869300008A6
:1034F0006F430008492F0008D0400B1CD1409C4668
:10350000203AD340184352426346934018437047D1
:1035100081F0004102E000BF83F0004330B54FEA84
:1035200041044FEA430594EA050F08BF90EA020FF1
:103530001FBF54EA000C55EA020C7FEA645C7FEA84
:10354000655C00F0E2804FEA5454D4EB5555B8BFA7
:103550006D420CDD2C4480EA020281EA030382EA18
:10356000000083EA010180EA020281EA0303362DAA
:1035700088BF30BD11F0004F4FEA01314FF4801C7D
:103580004CEA113102D0404261EB410113F0004F8F
:103590004FEA03334CEA133302D0524263EB430346
:1035A00094EA050F00F0A780A4F10104D5F1200EE4
:1035B0000DDB02FA0EFC22FA05F2801841F100013F
:1035C00003FA0EF2801843FA05F359410EE0A5F113
:1035D00020050EF1200E012A03FA0EFC28BF4CF044
:1035E000020C43FA05F3C01851EBE37101F00045FA
:1035F00007D54FF0000EDCF1000C7EEB00006EEB07
:103600000101B1F5801F1BD3B1F5001F0CD3490890
:103610005FEA30004FEA3C0C04F101044FEA4452E7
:1036200012F5800F80F09A80BCF1004F08BF5FEA6E
:10363000500C50F1000041EB045141EA050130BD4E
:103640005FEA4C0C404141EB010111F4801FA4F1F1
:103650000104E9D191F0000F04BF01460020B1FA46
:1036600081F308BF2033A3F10B03B3F120020CDA7E
:103670000C3208DD02F1140CC2F10C0201FA0CF05C
:1036800021FA02F10CE002F11402D8BFC2F1200CC1
:1036900001FA02F120FA0CFCDCBF41EA0C01904077
:1036A000E41AA2BF01EB0451294330BD6FEA0404C0
:1036B0001F3C1CDA0C340EDC04F11404C4F12002AB
:1036C00020FA04F001FA02F340EA030021FA04F3BD
:1036D00045EA030130BDC4F10C04C4F1200220FA14
:1036E00002F001FA04F340EA0300294630BD21FA52
:1036F00004F0294630BD94F0000F83F4801306BF18
:1037000081F480110134013D4EE77FEA645C18BF0B
:103710007FEA655C29D094EA050F08BF90EA020FA2
:1037200005D054EA000C04BF1946104630BD91EA9A
:10373000030F1EBF0021002030BD5FEA545C05D19D
:103740004000494128BF41F0004130BD14F58004DC
:103750003CBF01F5801130BD01F0004545F0FE4150
:1037600041F470014FF0000030BD7FEA645C1ABF85
:10377000194610467FEA655C1CBF0B46024650EABC
:10378000013406BF52EA033591EA030F41F40021E8
:1037900030BD00BF90F0000F04BF0021704730B56E
:1037A0004FF4806404F132044FF000054FF0000143
:1037B00050E700BF90F0000F04BF0021704730B504
:1037C0004FF4806404F1320410F0004548BF4042D9
:1037D0004FF000013EE700BF42004FEAE2014FEA2E
:1037E00031014FEA02701FBF12F07F4393F07F4F09
:1037F00081F06051704792F0000F14BF93F07F4F3B
:10380000704730B54FF4607401F0004521F000417D
:1038100020E700BF50EA010208BF704730B54FF003
:1038200000050AE050EA010208BF704730B511F008
:10383000004502D5404261EB41014FF4806404F140
:1038400032045FEA915C3FF4DCAE4FF003025FEAC2
:10385000DC0C18BF03325FEADC0C18BF033202EB4A
:10386000DC02C2F1200300FA03FC20FA02F001FAA4
:1038700003FE40EA0E0021FA02F11444C1E600BF43
:1038800070B54FF0FF0C4CF4E06C1CEA11541DBFF6
:103890001CEA135594EA0C0F95EA0C0F00F0DEF8C1
:1038A0002C4481EA030621EA4C5123EA4C5350EAA6
:1038B000013518BF52EA033541F4801143F48013F7
:1038C00038D0A0FB02CE4FF00005E1FB02E506F088
:1038D0000042E0FB03E54FF00006E1FB03569CF0DD
:1038E000000F18BF4EF0010EA4F1FF04B6F5007FE3
:1038F00064F5407404D25FEA4E0E6D4146EB060655
:1039000042EAC62141EA55514FEAC52040EA5E50DD
:103910004FEACE2EB4F1FD0C88BFBCF5E06F1ED887
:10392000BEF1004F08BF5FEA500E50F1000041EBBE
:10393000045170BD06F0004646EA010140EA02006B
:1039400081EA0301B4EB5C04C2BFD4EB0C0541EA8D
:10395000045170BD41F480114FF0000E013C00F3A2
:10396000AB8014F1360FDEBF002001F0004170BDC6
:10397000C4F10004203C35DA0C341BDC04F11404DF
:10398000C4F1200500FA05F320FA04F001FA05F26B
:1039900040EA020001F0004221F0004110EBD37038
:1039A00021FA04F642EB06015EEA430E08BF20EA64
:1039B000D37070BDC4F10C04C4F1200500FA04F307
:1039C00020FA05F001FA04F240EA020001F0004199
:1039D00010EBD37041F100015EEA430E08BF20EA0C
:1039E000D37070BDC4F1200500FA05F24EEA020E54
:1039F00020FA04F301FA05F243EA020321FA04F083
:103A000001F0004121FA04F220EA020000EBD37039
:103A10005EEA430E08BF20EAD37070BD94F0000F39
:103A20000FD101F00046400041EB010111F4801F6D
:103A300008BF013CF7D041EA060195F0000F18BF1E
:103A4000704703F00046520043EB030313F4801F5A
:103A500008BF013DF7D043EA0603704794EA0C0F14
:103A60000CEA135518BF95EA0C0F0CD050EA41062A
:103A700018BF52EA4306D1D181EA030101F00041A7
:103A80004FF0000070BD50EA410606BF10461946CF
:103A900052EA430619D094EA0C0F02D150EA0136DB
:103AA00013D195EA0C0F05D152EA03361CBF10461C
:103AB00019460AD181EA030101F0004141F0FE41BB
:103AC00041F470014FF0000070BD41F0FE4141F43F
:103AD000780170BD70B54FF0FF0C4CF4E06C1CEA3F
:103AE00011541DBF1CEA135594EA0C0F95EA0C0FF4
:103AF00000F0A7F8A4EB050481EA030E52EA0335AF
:103B00004FEA013100F088804FEA03334FF08055CF
:103B100045EA131343EA12634FEA022245EA1115FC
:103B200045EA10654FEA00260EF000419D4208BFAD
:103B3000964244F1FD0404F5407402D25B084FEA5A
:103B40003202B61A65EB03055B084FEA32024FF406
:103B500080104FF4002CB6EB020E75EB030E22BF63
:103B6000B61A754640EA0C005B084FEA3202B6EB23
:103B7000020E75EB030E22BFB61A754640EA5C00D2
:103B80005B084FEA3202B6EB020E75EB030E22BF62
:103B9000B61A754640EA9C005B084FEA3202B6EB63
:103BA000020E75EB030E22BFB61A754640EADC0022
:103BB00055EA060E18D04FEA051545EA16754FEA84
:103BC00006164FEAC30343EA52734FEAC2025FEAA2
:103BD0001C1CC0D111F4801F0BD141EA00014FF031
:103BE00000004FF0004CB6E711F4801F04BF014302
:103BF0000020B4F1FD0C88BFBCF5E06F3FF6AFAE1E
:103C0000B5EB030C04BFB6EB020C5FEA500C50F1AD
:103C1000000041EB045170BD0EF0004E4EEA113130
:103C200014EB5C04C2BFD4EB0C0541EA045170BD37
:103C300041F480114FF0000E013C90E645EA060E7B
:103C40008DE60CEA135594EA0C0F08BF95EA0C0FA9
:103C50003FF43BAF94EA0C0F0AD150EA01347FF4F1
:103C600034AF95EA0C0F7FF425AF104619462CE7C8
:103C700095EA0C0F06D152EA03353FF4FDAE10462B
:103C8000194622E750EA410618BF52EA43067FF47C
:103C9000C5AE50EA41047FF40DAF52EA43057FF40C
:103CA000EBAE12E74A0011D212F5001211D20DD577
:103CB0006FF47873B3EB62520ED44FEAC12343F032
:103CC000004343EA505323FA02F070474FF00000DC
:103CD000704750EA013002D14FF0FF3070474FF08B
:103CE000000070474FEA4102B2F1E04324BFB3F550
:103CF000001CDCF1FE5C0DD901F0004C4FEAC00263
:103D00004CEA5070B2F1004F40EB830008BF20F046
:103D10000100704711F0804F21D113F13872BCBF00
:103D200001F00040704741F480114FEA5252C2F155
:103D30001802C2F1200C10FA0CF320FA02F018BF9E
:103D400040F001004FEAC1234FEAD32303FA0CFCF1
:103D500040EA0C0023FA02F34FEA4303CCE77FEA80
:103D6000625307D150EA01331EBF4FF0FE4040F4CA
:103D70004000704701F0004040F0FE4040F4000079
:103D8000704700BF014B1868704700BFD403002084
:103D900070B50E4B0E4CE41AA41000251E46A54229
:103DA00004D056F8253098470135F8E7FDF7F4F8C8
:103DB000084C094BE41AA41000251E46A54204D065
:103DC00056F8253098470135F8E770BDD803002034
:103DD000D8030020D8030020D8030020024B01465E
:103DE000186800F063B800BFD4030020024B0146FE
:103DF000186800F017B800BFD403002010B5431EA8
:103E00000A44914204D011F8014B03F8014FF8E73E
:103E100010BD02440346934202D003F8011BFAE7A7
:103E20007047000030B500293DD051F8042C0B1F1D
:103E30001D49002AB8BF9B180A680C4612B95A607F
:103E40000B6030BD93420DD219685818904201BFE3
:103E50005A5852181A6042685A60236030BD99421D
:103E600003D80A4651680029F9D1146815199D42F2
:103E70000AD11B682344D0188842136013D1086804
:103E8000034413604B680DE002D90C23036030BD7E
:103E90001C681819884204BF08684968596004BF43
:103EA00000191860536030BD9405002070B5CC1C1B
:103EB00024F0030408340C2C38BF0C24002C0646D4
:103EC00003DA0C233360002070BD8C42F9D3204A02
:103ED000136810461946A1B10A68121B0ED40B2AAA
:103EE00003D90A608B188C501FE08B420DBF5A68B3
:103EF0004A685A60026018BF0B4616E00B464968D4
:103F0000E9E7144D2B681BB9304600F025F828600E
:103F10003046214600F020F8421C0346D1D0C51C93
:103F200025F0030585420AD11C6003F10B001A1D20
:103F300020F00700821A0AD05142995070BD3046D5
:103F4000E91A00F009F80130BBD02B46ECE770BD50
:103F5000940500209005002038B5064C0023054646
:103F600008462360FCF7F8FF431C02D1236803B125
:103F70002B6038BDA80800200044004000480040E5
:103F8000004C004000500040000000000000000015
:103F90000000000000000000000000000000000021
:103FA0000000000000000000000000000000000011
:103FB0000000000000000000000000000000000001
:103FC00000000000000000000300000000000000EE
:103FD00000000000000000000000000000000000E1
:103FE00000000000000000000000000000000000D1
:103FF00049444C450009256309257509257509259E
:10400000750D0A00546D725100546D722053766321
:104010000000000000810248800000000000010054
:104020000000000006000000008002488000000040
:1040300000000100000000000300000000810248B1
:104040008000000000000100000000000E000000E1
:104050005002040100000100000000000000010007
:1040600001010101900000000100000002000000B9
:1040700090000000010000000200000098000020F5
:104080002100000000000000B80000202300000014
:1040900000000000000000000000000038000020C8
:1040A00000430148D80000207C40000800000000C8
:1040B0000000000000000000000000000000000000
:1040C00000000000000000000000000000000000F0
:1040D00000000000000000000000000000000000E0
:1040E00000000000000000000000000000000000D0
:1040F00000000000000000000000000000000000C0
:1041000000000000000000000000000000000000AF
:10411000000000000000000000000000000000009F
:10412000000000000000000094400008604100080A
:1041300070400008444100084C41000802010100A1
:1041400000000000008102480D0000000000000097
:104150000000000000000000008102480400000090
:10416000008102480C000000E8000020220000004E
:104170000000000038000020004201480801002033
:1041800068410008884000080000000000000000AE
:10419000000000000000000000000000000000001F
:1041A000000000000000000000000000000000000F
:1041B00000000000000000000000000000000000FF
:1041C00000000000000000000000000000000000EF
:1041D00000000000000000000000000000000000DF
:1041E00000000000000000000000000000000000CF
:1041F00000000000000000000000000000000000BF
:104200009840000858410008644000081C4200081B
:104210002442000800000200000000000081024863
:104220000500000000000000000000000000000089
:104230000000000034050020008F02480300000049
:104240000000000039050020008E02480E0000002A
:10425000000000003C050020008E0248080000001D
:10426000000000002F050020008E02480900000019
:104270000000000033050020008E02480C00000002
:104280000000000038050020008E02480D000000EC
:10429000000000002D050020008E024806000000EE
:1042A0000000000037050020008E024800000000DA
:1042B000000000003B050020008E024801000000C5
:1042C000000000002E050020008E024802000000C1
:1042D0000000000031050020008E024803000000AD
:1042E0000000000036050020008E02480400000097
:1042F000000000003A050020008E02480500000082
:104300000000000032050020008F0248020000007B
:104310000000000030050020008E02480700000069
:104320000000000035050020008E02480F0000004C
:104330000500000000000000100000000D0000005B
:10434000526561645F5461736B0043616E325F520A
:104350006563656976655F5461736B0043616E32B6
:104360005F5472616E736D69745F5461736B004367
:10437000616E315F5472616E736D69745F54617305
:044380006B0043008B
:10438400640000000040AA6A0A0000000050000017
:10439400280000200044004803000000DC03002043
:1043A4000000770001000000000E2707080000004D
:1043B4000040004800000000000E270700400148AC
:1043C4000000000000440040883F00080102000093
:1043D400440000206C0000208400002078000020AD
:1043E400C43F0008004000400201000000480040B3
:1043F4009C3F00080102000000500040B03F00084C
:1044040001020000004C0040DC3F000801020000F3
:10441400AAAAAAAA0000000020540148E1070080CB
:10442400FF0700200800000000000000000000005A
:10443400010000000000000060540148E207008011
:10444400FF0700200800000000000000000000003A
:104454000000000000000000000E270740420F008B
:10446400401F01000000000040540148DF070080A5
:10447400FF0700200800000000000000000000000A
:104484000100000000000000000E270740420F005A
:10449400401F0100020023000000000000FF000094
:1044A400020022000000000000FF00006C02002057
:1044B400500500200048004080420008010500002B
:1044C40002002F000000000000FF0000FC0200209A
:1044D400AC0200202C020020D80100204002002061
:1044E40030030020E802002078020020EC010020C4
:1044F4008C010020440300201C0300208C020020B7
:104504000C020020C40100202C0100202002002005
:1045140068050020004C004000430008020200002F
:10452400020020000000000000FF0000020028003C
:104534000000000000FF0000020024000000000052
:1045440000FF0000640300207805002000480040BC
:104554007042000801040000200100207C050020B6
:1045640000480040D042000801030000100300206E
:1045740044050020004800402043000801070000D3
:10458400020024000000000000FF0000B801002029
:10459400540500200050004060420008030300005E
:1045A400020021000000000000FF00006002002063
:1045B4005C05002000480040C042000801020000E1
:1045C4001401002058050020004C0040E04200087F
:1045D40002000000020029000000000000FF0000AB
:1045E400020027000000000000FF000002002F006E
:1045F4000000000000FF0000400100206C050020C6
:10460400004400401043000800070000540200204A
:1046140070050020005000405042000803020000D2
:10462400020021000000000000FF000058030020E9
:104634004805002000440040B0420008000100008A
:104644004C010020304300083C4300085000002087
:10465400000000000000000002040100020022002B
:104664000000000000FF0000000200204C050020B4
:10467400004400409042000800060000AC01002005
:104684006405002000440040A0420008000000002F
:10469400020023000000000000FF0000A002002030
:1046A4006005002000480040404200080106000068
:1046B400DC02002074050020004C0040F042000899
:1046C40002010000A001002040050020004C004031
:1046D4003042000802030000020025000000000030
:1046E40000FF0000020020000000000000FF0000A6
:1046F40005010500000000000000000000000000AB
:1047040000000000000000000000000000000000A5
:1047140000000000824300080000000000000000C8
:104724000000000000000000000000000000000085
:104734000000000000000000000000000000000075
:104744000000000000000000000000000000000065
:084754000000000074030020C6
:0400000508000201EC
:00000001FF
