:020000040800F2
:10000000E0D5002031020008390200083B02000858
:100010003D0200083F020008410200080000000005
:100020000000000000000000000000007102000855
:100030004502000800000000090300081903000839
:100040004B0200084B0200084B0200084B0200085C
:100050004B0200084B0200084B0200084B0200084C
:100060004B0200084B0200084B0200084B0200083C
:100070004B0200084B0200084B0200084B0200082C
:100080004B0200084B0200084B020008550B000809
:10009000790A0008E10A0008410B00084B02000839
:1000A0004B0200084B0200084B0200084B020008FC
:1000B0004B0200084B0200084B0200084B020008EC
:1000C0004B0200084B0200084B0200084B020008DC
:1000D0004B0200084B0200084B0200084B020008CC
:1000E0004B0200084B0200084B0200084B020008BC
:1000F0004B0200084B0200084B0200084B020008AC
:100100004B0200084B0200081D3300084B02000898
:100110004B0200084B0200084B0200084D33000858
:10012000451400084B0200084B0200084B0200086F
:100130004B0200080000000000000000B50C0008A1
:10014000D50B00083D0C0008A10C00084B0200086C
:100150004B0200084B0200084B0200084B0200084B
:100160004B0200084B0200084B0200084B0200083B
:100170004B0200084B0200080000000000000000D5
:100180004B0200084B02000800F002F800F03CF8B7
:100190000AA090E8000C82448344AAF10107DA45E2
:1001A00001D100F031F8AFF2090EBAE80F0013F0F8
:1001B000010F18BFFB1A43F0010318472058000035
:1001C00040580000103A24BF78C878C1FAD85207C6
:1001D00024BF30C830C144BF04680C6070470000C1
:1001E0000023002400250026103A28BF78C1FBD840
:1001F000520728BF30C148BF0B6070471FB505F0DC
:100200004BFB1FBD10B510BD00F0F5F9114603B44E
:1002100003F0F8FD03BCFFF7F1FF03F095FE00F0DB
:100220000FFA03B4FFF7EEFF03BC00F017FA00006B
:100230000948804709480047FEE7FEE7FEE7FEE77A
:10024000FEE7FEE7FEE7FEE7FEE7FEE704480549B6
:10025000054A064B70470000512C00088901000830
:10026000E0CF0020E0D50020E0D10020E0D1002048
:100270001EF0040F0CBFEFF30880EFF309808169D3
:1002800011F8021C91BB01B590E80F10E047BDE8E2
:1002900000508CE80300244B93E80600914208BF0D
:1002A000704741B91EF0100F10D12049086820F0A6
:1002B000010008600AE02CE9F00F1EF0100F08BFE3
:1002C0002CED108AC1F838C081F822E01A6092F84B
:1002D0002210906B61F0FF0E1EF0100F08BFB0EC03
:1002E000108AB0E8F00F80F309887047104A13684D
:1002F0009942FAD801B552F821C00FC8E047BDE8CD
:100300000050CCF80000704701B504F0F1F8BDE8EA
:100310000140EFF3098CBEE701B504F00FFBBDE827
:100320000140EFF3098CB6E72400002034EF00E031
:100330006C59000853EA020C00F069802DE9F04B7B
:100340004FF00006002B1FBFB3FA83F503FA05F444
:1003500024FA05F65E4012BF1643B2FA82F502FA9D
:1003600005F4C5F120051EBF22FA05FC44EA0C0481
:10037000203556EA044C4FEA144418BF641C4FF071
:1003800000084FF00009904271EB030C39D30029AB
:1003900019BFB1FA81F701FA07F6B0FA80F700FA4F
:1003A00007F6C7F120071EBF20FA07FC46EA0C0635
:1003B0002037B6FBF4FCA7EB0507103F07F01F0B37
:1003C000CBF120062CFA06F60CFA0BFB44BFB34621
:1003D0000026202FA4BF5E464FF0000B5BEA060C00
:1003E00008BF4FF0010B19EB0B0948EB0608ABFBFC
:1003F000027C06FB02CC0BFB03CCC01B71EB0C0197
:10040000C1E70B46024641464846BDE8F08B13B5AE
:10041000084318BF4FF0FF300146AFF30080BDE83E
:100420001C407047B2F120030AD5C2F1200301FA43
:1004300002F120FA03F341EA030100FA02F07047E7
:1004400000FA03F14FF000007047B2F120030AD523
:10045000C2F1200320FA02F001FA03F340EA03009C
:1004600021FA02F1704721FA03F04FF000017047C2
:10047000032A40F2308010F0030C00F0158011F8D0
:10048000013BBCF1020F624498BF11F801CB00F8A8
:10049000013B38BF11F8013BA2F1040298BF00F8FC
:1004A00001CB38BF00F8013B11F0030300F071806D
:1004B000083AC0F0088051F8043B083A51F804CBE0
:1004C000A0E80810F5E7121D5CBF51F8043B40F8A6
:1004D000043BAFF30080D20724BF11F8013B11F8B1
:1004E00001CB48BF11F8012B24BF00F8013B00F8F5
:1004F00001CB48BF00F8012B70474FF000020429E0
:10050000C0F0128010F0030C00F01B80CCF1040C42
:10051000BCF1020F18BF00F8012BA8BF20F8022B76
:10052000A1EB0C0100F00DB85FEAC17C24BF00F81C
:10053000012B00F8012B48BF00F8012B70474FF04A
:10054000000200B5134694469646203922BFA0E823
:100550000C50A0E80C50B1F12001BFF4F7AF09072F
:1005600028BFA0E80C5048BF0CC05DF804EB890020
:1005700028BF40F8042B08BF704748BF20F8022B63
:1005800011F0804F18BF00F8012B7047704770477B
:10059000704710B5203AC0F00B80B1E81850A0E8C1
:1005A0001850B1E81850A0E81850203ABFF4F5AF41
:1005B0005FEA027C24BFB1E81850A0E8185044BF9D
:1005C00018C918C0BDE810405FEA827C24BF51F80A
:1005D000043B40F8043B08BF7047D20728BF31F8FE
:1005E000023B48BF11F8012B28BF20F8023B48BF4F
:1005F00000F8012B7047754600F02CF8AE46050058
:100600006946534620F00700854618B020B5FFF72D
:100610001DFEBDE820404FF000064FF000074FF0F0
:1006200000084FF0000BAC46ACE8C009ACE8C009CC
:10063000ACE8C009ACE8C00921F007018D4670475D
:1006400010B50446AFF300802046BDE81040FFF728
:10065000E8BD000000487047B8000020014918209C
:10066000ABBEFEE72600020070470146806B036CBC
:10067000026C13F0500F07D0D20648BF00F0E0BF65
:10068000806BC26C0846104742F400710164016837
:100690008A6812F0405F01D1027E0AB100F0CEBF3D
:1006A000CA6A12F4700F02D08A685205F6D44A68FA
:1006B00022F020024A60016C21F480710164016C17
:1006C000C904EBD4016C41F00101016400F0B6BF34
:1006D000806B40210164416C41F00401416400F0F1
:1006E000AFBF806B00F0ABBFB0B586B0174C022136
:1006F0002068002240F0010020603220002501F037
:1007000097FD322001F086FD11480195016841F006
:10071000080101600068694600F008000190019836
:1007200001A801F043FE01F05DFE0A486421532256
:10073000C0E90042C0E90251056102F02EF810B98B
:10074000044802F045F806B0B0BD00BF000C004000
:1007500040380240B4080020B0B5B548B64C826BB2
:10076000C18E1288C36D5143090B8183B0F85A10B2
:100770001A88094D5143090BA0F840102046A8479C
:1007800004F12400A84704F14800A847AE482946D0
:10079000BDE8B040084700BF554B00082DE9F04FB9
:1007A00089B0DFF88C82A34800274FF00109C8E91F
:1007B0000907A8F820900225C8F8480083460420BD
:1007C0009D4CC8F84C50A8F8440003260820C4E902
:1007D00003B62081994841F2883100F1CA03A8F894
:1007E000361088F82C70A8F85A1088F8507000F16C
:1007F0006402C8F85C3008F10403C8E90E2308F16C
:1008000008020523E18327752260C4E90CB3202385
:1008100000F59872A38508F10C03C4E9082300F5DC
:10082000CB72A4F8421084F8387062640722C4E9DD
:1008300015B28022A4F85020814ADFF810AC9369E9
:10084000928BA361A2837F4AAAF808509369928B86
:10085000E363A4F84020A4F8661008F1100184F8BE
:100860005C70A16400F5FE71A16608F11401CAE98B
:1008700003B98AF81470CAF800107449744A00F277
:100880006220CAE90621CAF820007248C8F8188018
:100890008169808B2166A4F864006F480497016821
:1008A00041F002010160016801F002010491049924
:1008B0000497016841F001010160016801F0010144
:1008C000049104990497016841F0040101600168F2
:1008D00001F00401049104990497416941F4807185
:1008E0004161416901F480710491049904970168A0
:1008F00041F480010160006804A900F480000490C4
:100900000498AF20CDE905670490584601F064FBD8
:10091000524E4FF4003006F12001514D81E8810222
:100920004FF480704FF480414FF480524FF4806355
:10093000C6E90B77C6E90057C6E90277C6E9043273
:10094000C6E90610304601F085FA3820052100225C
:1009500001F06EFC382001F05DFCABF560415046C3
:1009600040F8241F4FF48031062280F8207080F870
:100970001890C0E90997C76280F83090C261C0E959
:100980000117C0E90379C0F8149000F05BFE08B1CC
:1009900000F089FD4FF0030BD8F828000397CDE94C
:1009A000019B0AF124056F46DFF8B89000902846B5
:1009B0003946C84702200190D8F84C0039460090CB
:1009C0002846C8472069CDF804B00090284639462B
:1009D000C84704200190606B394600902846C847FC
:1009E00005200190A06D394600902846C847062092
:1009F0000190DAF81000394600902846C84728468A
:100A000041460622CAF85C60B56300F0BFFE164896
:100A1000164C00681121A047154811210068A04715
:100A2000144811210068A04709B0BDE8F08F00BF4D
:100A3000180100200000024040030020680500204B
:100A4000F4020020D007002018040020EE028813D2
:100A5000CDCC4C3D1C0800203038024084040020DE
:100A6000106402405D150008E8020020714A000889
:100A7000EC020020F00200202DE9F04194B00020AB
:100A8000CDE9080001A81C21FFF759FDAB4EF06A23
:100A9000406980071DD50DF1040808AC06F12C0053
:100AA000002142462346002700F0B8FF0BAD05F1B8
:100AB000080041461C22FFF7DBFC082F03D0E05D55
:100AC000E8550137F9E7F0690BA90122002303F08B
:100AD0000BFB724801F07AFB14B0BDE8F08100BF57
:100AE000F0B593B00020CDE9080001A81C21FFF764
:100AF00026FD924EF06A406980071CD501AD08AC16
:100B000006F12C0001212A46234600F087FF0AAF98
:100B100007F1080029461C22FFF7AAFC002008283C
:100B200003D0215C39540130F9E7F0690AA90122A8
:100B3000002303F0D9FA594801F048FB13B0F0BD87
:100B400010B57E4C04F12C0000F0FCF8E06A0421A2
:100B5000416010BD70B5794DE86A4069C00738D072
:100B600005F12C0420460121012601F051F850B175
:100B7000E86A022181604FF08061816092494A6891
:100B800001324A6086602046022101F041F868B1D6
:100B9000E86A4FF4007181604FF0006181608A491A
:100BA0004A6801324A604FF4807181602046042116
:100BB00001F02EF868B1E86A4FF4003181604FF01F
:100BC00080518160F3494A6801324A604FF48031B4
:100BD000816070BD2DE9F04194B00020CDE908009E
:100BE00001A81C21FFF7ABFCEE4E706D4069800739
:100BF0001DD50DF1040808AC06F154000021424651
:100C00002346002700F00AFF0BAD05F1080041461E
:100C10001C22FFF72DFC082F03D0E05DE8550137BB
:100C2000F9E7306A0BA90122002303F05DFA1B48A3
:100C300001F0CCFA14B0BDE8F08100BFF0B593B07C
:100C40000020CDE9080001A81C21FFF778FCD54E53
:100C5000706D406980071CD501AD08AC06F15400E9
:100C600001212A46234600F0D9FE0AAF07F1080009
:100C700029461C22FFF7FCFB0020082803D0215C3A
:100C800039540130F9E7306A0AA90122002303F040
:100C90002BFA024801F09AFA13B0F0BD6808002060
:100CA00010B5EE4C04F1540000F04CF8606D0421D6
:100CB000416010BD70B5E94D686D4069C00738D01E
:100CC00005F1540420460121012600F0A1FF50B196
:100CD000686D022181604FF080618160AE494A6891
:100CE00001324A6086602046022100F091FF68B11F
:100CF000686D4FF4007181604FF000618160A6491A
:100D00004A6801324A604FF48071816020460421B4
:100D100000F07EFF68B1686D4FF4003181604FF0E4
:100D2000805181609C494A6801324A604FF48031A9
:100D3000816003484FF00041016070BD84010020D4
:100D400084E200E010B50068954A9349914B9042C7
:100D500008BF194684694369426914F0700F05D0D1
:100D600013F4006318BF12F4004200D110BD826971
:100D700002F07002103A1209052A1FD8DFE802F0CB
:100D800003070B0F131708220A62083113E0102221
:100D90000A620C310FE020220A6210310BE040227F
:100DA0000A62143107E080220A62183103E04FF42E
:100DB00080720A621C310A6801320A60816921F07E
:100DC0007001816110BD00BFE40400202DE9F041F5
:100DD00086B000F065F900F043F96E484021FFF756
:100DE000AEFB6D484021FFF7AAFB00256B4801953B
:100DF00001696B4E41F00071016101694FF0020819
:100E000001F000710191019901950168092741F0F4
:100E100001010160016801AC01F00101019101993A
:100E20000195016941F080610161016901F0806112
:100E3000019101990195016841F00201016000688A
:100E4000214600F0020001900198032004904FF425
:100E5000C050CDE902850597019006F5CE3001F02E
:100E6000BBF84FF440500597019006F5D03021466D
:100E700001F0B2F8794C4FF48071204640F82C6FA5
:100E80004FF480024FF460238183C0E90185C0E9FB
:100E90000353C0E9052100F043FE08B100F003FB55
:100EA00004F12C0000F0C5FE08B100F0FCFA06F5D4
:100EB0008061204640F8541F00214FF080724FF4AB
:100EC00080034FF4602502268183C0E90161C0E9F7
:100ED0000315C0E9053200F023FE08B100F0E3FA83
:100EE00004F1540000F0A5FE08B100F0DCFA2E4D2C
:100EF000142004210022A847152004210022A8471D
:100F0000132004210022A84716200A210022A84706
:100F1000264E1420B0471520B0471620B047402079
:100F200004210022A847412004210022A8473F2095
:100F300004210022A84742200A210022A84740207D
:100F4000B0474120B0474220B047E16A6068626D17
:100F50004B6943F001034B61536943F00103536153
:100F60004B6943F400634B614B6943F400434B61AD
:100F7000516941F400615161516941F4004151618D
:100F8000042103F075FDA068042103F071FD06B093
:100F9000BDE8F081E4040020240500203038024040
:100FA000006400408401002031220008152200085E
:100FB00070B58AB0294D012600200D2105F12C04C1
:100FC0000796CDE90500CDE90000CDE90200CDE9A5
:100FD000086104906946204600F0B6FC08B100F0B4
:100FE00062FA69462046CDE9046600F0ADFC08B11E
:100FF00000F059FAE86A05F15404416941F0020130
:101000004161416941F0100141610E2005900020CD
:1010100004906946204600F097FC08B100F043FABE
:10102000012004900F2005906946204600F08CFCBA
:1010300008B100F038FA696DE8684A6942F00202C6
:101040004A614A6942F010024A61022103F010FD30
:101050002869022103F00CFD0AB070BD8401002054
:101060000E4840F203313A228160016581610273CA
:101070000122827002808162392101773B218274D2
:1010800080F82C100146034680F8222021F8202FFA
:1010900023F8102FC0E90C03816370477802002009
:1010A0002DE9F04F5E4A4FF0000E4FF40C711027FF
:1010B00020204FF0300BA2F824E01162977697863B
:1010C000116382F82A70A2F84400116482F83A7021
:1010D000A2F854B01165534982F84A700431D161C5
:1010E0005149534C514D28200431A0814FF008083C
:1010F000FF20D16205F134014FF40D7384F80280B2
:10110000208005F148004B4DD1634FF0FF319146EF
:10111000924694461646C4E90103104629F8181F62
:101120002AF8281F2CF8381F26F8481FA361A4F8B6
:101130001CB020F8581F05F1340BA0F80CE08770A4
:1011400040F80CBCDFF8F0B038250BF1340EC0E9E4
:1011500001E387838774394F4FF0FF0E0637C0E9EC
:101160000573074627F8101F214684F8128021F8DE
:1011700010EFA585A3622F4B84F82280483363616A
:101180000BF1480363624FF4A263002584F84450D6
:10119000C4E90C352346C4E90E55C4F8408023F851
:1011A00020EF04F1480585E80016C4E91560C4E99C
:1011B0001774C4E9191322490868000111D408689A
:1011C000800012D40868B0F1FF3F12DD0868C0004B
:1011D00013D40868800146BF907840F010000020CA
:1011E0000EE0907840F001000AE0907840F00200B4
:1011F00006E0907840F0040002E0907840F00800AB
:1012000090701048104B6FF0F024C2E90204C2E95C
:101210000430086840F080700860BDE8F08F00BFBF
:10122000000200203001002054010020F4020020C0
:10123000AC030020D00700201C0800201804002068
:10124000743802408201FF0F800181012DE9F04FC7
:101250008BB08A46002608218DF8286008960991EF
:1012600040F6FE718A45009002D8CDF814A006E041
:1012700040F6FF70824503D00426CDF818A00796EB
:10128000DFF8709100244FF0000B4FF00008092C9C
:101290002BD0042E00D036BB59F824108868504556
:1012A00021D1487B8A7801280ED1092A0CD34B68BA
:1012B000A2F108001D8825FA00F0C0B218800F883E
:1012C00007EA0525284418804B680888097B1B8895
:1012D00011441840C1F140020021FFF7A3F848EA89
:1012E00001084BEA000B0134D1E79BFA8BF0029026
:1012F0004FEA18208DF807808DF806004FEA184055
:101300008DF805004FEA1860009F8DF804003868DA
:10131000394E8168490126D48168090126D4816843
:10132000C90026D4354C0321216044490A78013292
:101330000A70D1B232294AD3816841F080018160BC
:10134000816841F400418160816841F4000181605D
:10135000384600F099FC384600F06BFC2068032802
:1013600035D0386808E02549002204E023490122ED
:1013700001E0224902220A60304C0021B042217073
:1013800005D160694FF0FF3102F0FCFE386806F5C8
:101390008061884204D1A0694FF0FF3102F0F2FE73
:1013A000164D05A901AA38462B4600F081FA28B14E
:1013B000384600F069FC384600F03BFC29683846A6
:1013C00000F026FC012802D10A2002F0D7FD38687F
:1013D000B04204D11948406902F00AFF386806F5A6
:1013E0008061884203D11548806902F001FF0BB08B
:1013F000BDE8F08FF40300200064004008000020E6
:101400007CB504460B480C4D00880C4E00BA000C0D
:1014100028800020019070694FF0FF3102F0B2FE89
:10142000074901AB20462A4600F042FA706902F0F3
:10143000DFFE7CBD7A010020000200208401002034
:10144000DC0300200148C06D00F04CBC18040020F3
:1014500010B501686FF00F0252FA81F21823B2FB47
:10146000F3F306A4E35C40F2FF34A1435F2A88BF94
:101470000431C0E91613084610BD00BF000610165F
:1014800000061016B0B5046880682568402825F469
:10149000802508462560636008BF1046A06008BF2D
:1014A0000A46E260B0BDFEE770B586B00021244870
:1014B00001910268234C42F001020260026801AD12
:1014C00002F001020192019A019102681E4E42F05F
:1014D00004020260026802F004020192019A019182
:1014E000026842F002020260006800F0020001900F
:1014F00001980120CDE9031102904020019004F5EC
:1015000080602946B0474FF4036001902046294689
:10151000B047022005900290C02001902046294645
:10152000B0470A480A4C00680321A0470948032134
:101530000068A047084803210068A04706B070BDB6
:101540003038024000040240D91F0008E8020020A1
:10155000714A0008EC020020F0020020F8B50022D9
:10156000009290F83C20012A01D1022164E001227E
:1015700080F83C200A681FFA82FC4FEA4C0414FAF7
:1015800082F50A2A04D304681E3D04F10C0602E029
:10159000046804F1100607273368AF40BB4333608B
:1015A0008B68AB4035682B4333604D68062D05D8FA
:1015B00005EB850304F134015D1F0BE005EB8506A7
:1015C0000C2D87BF04F12C01A6F1410504F1300177
:1015D000A6F123051F230E68AB4026EA03030B6028
:1015E0000CFA05F30D682B430B606349A1F54173B9
:1015F0009C421ED1122A04D10A6842F480020A6079
:1016000017E022F00103102B13D10B68102A43F4CA
:1016100000030B600DD19E499E4A0968B1FBF2F1AF
:1016200001EB810149000091009911B10099013944
:10163000F9E7002180F83C100846F8BD7047704774
:1016400070470000002841D070B50446006C30B9E6
:10165000204600F099F8002084F83C006064206C7B
:10166000C00635D4206C41F2021188430230424951
:101670002064086820F44030086094E80D00256973
:101680000E6832430A60416821F48071416041680C
:1016900041EA05214160416821F0407141604168A3
:1016A000194341608168354B21F400618160E16834
:1016B000826811438160816821F070618160A26A53
:1016C00081689A4206D121F040510CE00120704718
:1016D00001204CE011438160816821F0405181601C
:1016E000E16A826811438160816821F002018160B2
:1016F000217E94F82020836843EA4101816041689B
:101700006AB141F40061416041681D4A21F46041C1
:101710004160616A02EB41314268114301E021F40A
:1017200000614160C16A174B21F47001C162E26936
:10173000616903EB0252C36A1A43C262826822F4EF
:101740000072826094F83020836843EA422282600B
:10175000826822F480628260826842EA812181602C
:1017600000206064216C012262F3010121640021E8
:1017700084F83C1070BD00BF042301400100000F3D
:1017800000E0FFFF0000F0FF704700007CB504465A
:101790000020019094F83C00012804BF02207CBD89
:1017A000012084F83C0013460A4621688868C00777
:1017B00010D18868374D40F00100886034480068D7
:1017C000B0FBF5F000EB40000190019810B10198DA
:1017D0000138F9E78868C00758D0206C40F20175DD
:1017E000A84300F5807020644868400504D5206C4B
:1017F000012565F30D302064206C0025C00444BF32
:10180000656C25F0060565646FF022050D604D6876
:10181000002045F080654D6084F83C00A06B1E4DB3
:101820001F4EC5641D4DC0E90F658D6845F4807578
:101830008D604C3100F09AFB1A492068D1F80423DE
:10184000D2060AD0884221D1886810F0405F1DD1AD
:10185000886840F08040886018E088420ED0124AC4
:10186000904207D0114A904210D1D1F80413C90612
:101870000CD103E0D1F80413C90607D4816811F034
:10188000405F03D1816841F08041816000207CBDD0
:101890000C00002040420F00D1060008E3060008BB
:1018A0006B06000800200140002201400021014099
:1018B00070B590F820600468013EA568012E0CD830
:1018C00015F0E05F0FD0C5F30165032D11D100F1D4
:1018D000240101204FF4000232E000F12401012034
:1018E0004FF480222CE000F1240101204FF400127B
:1018F00026E00120A8401860886818B14B6840EACB
:10190000C30301E00868430504EB0510D1E9034572
:101910002343C0F88031C0F88451097D012905D1E5
:1019200000F5C2710B6843F480730B605168C0F816
:101930008C1111680122C0F8881100F5C0710020D7
:101940000B681A430A6070BDF0B590F82020013A88
:10195000012A2AD83048026842F001020260026877
:1019600022F47C5202604C69CD694A6A0368012DF9
:1019700043EA0222026004F01F024FF0010303FA5F
:1019800002F2C36923EA0203C3616FEA020312D0C1
:1019900025BBC5681D40C560CE688F8800EBC405B7
:1019A00047EA06462E640D4611E0416A41F4802163
:1019B00041620120F0BDC5681543C5600E688F887F
:1019C00000EBC40547EA06462E6401F10C058E685B
:1019D0002D8800EBC40445EA0645656444688F69B8
:1019E00044EA02050E69096A002F08BF04EA0305EC
:1019F00045604469002E44EA020508BF04EA030575
:101A00000129456102D1C1691143C161016821F019
:101A1000010101600020F0BD0066004070B590F843
:101A20002040013C012C6CD8046800290CBFE568FB
:101A30002569AD076BD004EB0114D4F8B05115F053
:101A400004059560D4F8B06104F5D87519BFF6089F
:101A50005660760D16602D680029C5F34005D560E7
:101A6000D4F8B45105F00F051561D4F8B451C5F39D
:101A700007259561D4F8B4514FEA15455561D4F85E
:101A8000B8211A70026802EB0112D2F8B8214FEAAD
:101A900012225A70026802EB0112D2F8B8214FEA02
:101AA00012429A70026802EB0112D2F8B8214FEA92
:101AB0001262DA70026802EB0112D2F8BC211A71CC
:101AC000026802EB0112D2F8BC214FEA12225A71CD
:101AD000026802EB0112D2F8BC214FEA12429A715D
:101AE000026802EB0112D2F8BC214FEA1262DA71ED
:101AF00000680CBF00F10C0100F110010020202251
:101B00000AE000F1240101204FF4802204E000F1FA
:101B1000240101204FF400120B681A430A6070BDC3
:101B200070B5C0B1044690F8200010B9204600F00E
:101B30007FF82068016821F00201016000F01EFBBF
:101B4000054620684168890707D500F017FB401B50
:101B50000B28F6D311E0012070BD016841F00101AE
:101B6000016000F00BFB054620684168C9070BD1F6
:101B700000F004FB401B0B28F6D3606A052140F4FB
:101B800000306062012040E0217E0268012922F0DD
:101B9000800308BF42F080030360617E0268012970
:101BA00022F0400308BF42F040030360A17E0268B8
:101BB000012922F0200308BF42F020030360E17EE8
:101BC0000268012942F0100308BF22F010030360ED
:101BD000217F0268012922F0080308BF42F00803B0
:101BE0000360617F0268012922F0040308BF42F00C
:101BF00004030360261D6ECE1A432A433243013983
:101C00001143C16100200121606284F8201070BD81
:101C100090F82020013A012A84BF00207047006814
:101C2000806800EA8160B0EB816018BF01207047D6
:101C30007047B0B5044690F8200001281BD102205F
:101C400084F820002068016821F00101016000F0A3
:101C500095FA054620684068C00712D000F08EFA59
:101C6000401B0B28F6D3606A40F400306062052008
:101C700084F8200003E0606A40F4002060620120E4
:101C8000B0BD00206062B0BDB0B5044690F8200041
:101C9000022818D12068016841F00101016000F0BC
:101CA0006DFA054620684168C90712D100F066FA4E
:101CB000401B0B28F6D3606A40F4003060620520B8
:101CC00084F8200003E0606A40F480106062012024
:101CD000B0BD016821F002010160012084F82000FC
:101CE0000020B0BDF8B5044600200090D4E916608D
:101CF000574A082115683768814039420CD022685C
:101D000013685B0708D5136823F004031360B16000
:101D1000616D41F00101616501218140394208D0C6
:101D200022685269120604D5B160616D41F002016A
:101D3000616504218140394208D022681268920707
:101D400004D5B160616D41F00401616510218140ED
:101D5000394217D020680268120713D5B1600268B3
:101D60000168520306D4C90506D4016821F00801B0
:101D7000016001E0080301D4216C00E0A16C09B10D
:101D800020468847E16D202000FA01F23A423BD01C
:101D900020680368DB0637D5B26094F835300268F6
:101DA000052B19D122F016020260426922F080024E
:101DB0004261226C0AB9A26C1AB1026822F00802D0
:101DC00002603F208840B060002084F83400012089
:101DD00084F83500216D37E0016852030CD4C90541
:101DE0000ED4016821F010010160002084F8340055
:101DF000012084F8350003E0080301D4616C00E0A1
:101E0000E16B09B120468847606D00B3606DC00783
:101E100019D0052184F8351021684FF416500A684E
:101E2000B5FBF0F022F001020A60009A0132824212
:101E3000009202D80A68D207F7D1012084F8350051
:101E4000002084F83400E16C09B120468847F8BDD1
:101E50000C0000202DE9F041044600F08FF9ACB1F0
:101E60000546022084F83500002084F834002168FB
:101E7000086820F0010008600868C00709D000F079
:101E80007DF9401B052837D82168F5E70120BDE81A
:101E9000F0810868344A271DE8CF00EA020E43EAC1
:101EA0000E032B43D4E9050C33433B43D4E9072805
:101EB000184340EA0C00636A104340EA0802042B0E
:101EC0001ED1D4E90A53206B1A431043086051F81D
:101ED000140F20F0030040EA050040F00402B3B103
:101EE000BCF5005F24D0BCF1000F31D1022D32D0FF
:101EF000012D27D07DB30AE003262027032012E01E
:101F00000A6051F8140F20F0070040EA030220464F
:101F10000A60FFF79DFAE16D3F2202FA01F181604C
:101F2000002701260020676584F83560BDE8F08150
:101F3000032DECD8012640270120DFE805F0020C34
:101F40000203F0E7A3F1C070B0FA80F0400904E0AA
:101F5000032D04D3DBD1C3F300600028D7D00126C2
:101F600040270120DFE700BF3F8010F0B0B50446F6
:101F700090F8340001282CD00120A56D84F834009D
:101F800094F83500012821D1022084F83500002082
:101F900060652046FFF776FAE26D3F23206803FA7A
:101FA00002F2216CAA60026842F0160202604269E5
:101FB00042F08002426119B1016841F008010160FC
:101FC000016841F0010101600020B0BD002084F8EB
:101FD00034000220B0BD00002DE9F84F5B4A4FF0FD
:101FE000080A90425A4A08BF4FF0070A02444FEAD3
:101FF000B223072B38BF4FEAB22A4FF0010B4FF044
:102000000F094FF000084FF0000E0022102A08BF01
:10201000BDE8F88F0F680BFA02F6374200F09080A7
:102020004F6847F01004122C12D16FF0030303EA3B
:10203000520303440EF01C041F6A09FA04FC27EA49
:102040000C0C0F6907FA04F444EA0C041C624F6894
:102050000324056807F0030304FA08F403FA08F3FD
:10206000A5432B436FEA040C122F036013D80BFA1D
:1020700007F313F0061F0ED08368CC6803EA0C0345
:1020800004FA08F423438360C7F3001344689340C1
:10209000B44323434360C3688C6803EA0C0304FA27
:1020A00008F42343C360FB004AD5002300932B4B65
:1020B000284F1C461B6822F0030543F4804323602D
:1020C0002368BC4603F4804300933D44009F244FA3
:1020D0000EF00C0309FA03F4B946EF590AFA03F3B8
:1020E00027EA0404234345F80930DCF800304D6842
:1020F00043EA0604EF0358BF23EA0604CCF8004085
:10210000DCF80430AF0343EA060458BF23EA0604B0
:10211000CCF80440DCF80830EF0243EA060458BF6C
:1021200023EA06040C4BCCF808401F461B684FF00E
:102130000F0943EA0604AD0258BF23EA06043C60D7
:1021400008F102080EF1040E01325FE7001C0240A4
:102150000000FEBF003C01400C3C014044380240FE
:1021600008FCFFFF42690A408A4208BF09048161F6
:102170007047002A08BF09048161704701488068E0
:10218000704700BF78010020B0B5C0B104460068B8
:10219000D4E901124CF6CC43036045F25553036079
:1021A00041608260FFF7EAFF05462068C16841B1DF
:1021B000FFF7E4FF401B3028F7D90320B0BD012012
:1021C000B0BD4AF6AA2101600020B0BD00684AF601
:1021D000AA2101600020704770B50D4E044630788A
:1021E0004FF47A71B1FBF0F083490968B1FBF0F06C
:1021F00000F0A6FA01250F2C08D838B94FF0FF30AF
:1022000021460022002500F013F87460284670BDB6
:1022100000000020002808D400F01F01012202FA6B
:1022200001F1024A400942F82010704700E100E045
:10223000B0B5134B4FF0FF351B68C3F30223DC1E10
:1022400083F0070338BF0024042B28BF042305FABA
:1022500003F3994305FA04F3A1409A431143BDE8FF
:10226000B04001F093BD00BF05494FF6FF030A6877
:102270001A4060F30A22034810430860704700BF09
:102280000CED00E00000FA052DE9F041002800F017
:102290008580444B0446D3F80004884600F00F00C4
:1022A000884207D283F80084D3F8000400F00F00BE
:1022B000404573D12068810711D5410703D599683E
:1022C00041F4E0519960010703D5996841F46041F8
:1022D0009960A1689A6822F0F00211439960C007E2
:1022E0002BD06068811E022903D21968890109D4A4
:1022F00054E0012803D11968890303D44EE019681A
:1023000089074BD599681D4621F003010843986061
:10231000FFF734FF064641F288376068A9682B460C
:1023200001F00C01B1EB800F07D0FFF727FF801BF6
:10233000B842F2D90320BDE8F081D3F8000400F0E0
:102340000F00404507D983F80084D3F8000400F05B
:102350000F00404522D12068410705D5E1689A6801
:1023600022F4E05211439960000706D5206999686C
:1023700021F4604141EAC00098601C4600F042F838
:10238000A168094AC1F30311515CC8401A490860A9
:102390000F20FFF721FF0020BDE8F0810120BDE8FC
:1023A000F08100BF003802405459000810B50F22D8
:1023B0000260124A4FF4E054136803F003034360D1
:1023C000136803F0F0038360136803F4E053C36001
:1023D000136804EAD3030361D2F8F80300F00F0096
:1023E000086010BD0448054900680968044AC1F343
:1023F0008221515CC84070470C0000200838024020
:102400006459000810B5134C606800F00C011248C4
:10241000082903D004291CD1104810BD2168236865
:1024200001F03F0221685B02C1F3881105D4A1FBD2
:1024300000010023FDF77EFF03E008484843B0FB9E
:10244000F2F021680222C1F3014102EB4101B0FB2D
:10245000F1F010BD043802400024F40000127A00AC
:102460002DE9FC41002800F0958004460078B14E2B
:10247000C0072ED0B06800F00C00042823D0B0684C
:1024800000F00C00082802D1706840021BD4676875
:10249000B7F5803F07D03068B7F5A02F40F00E8128
:1024A00040F480203060306840F480303060FFF7C6
:1024B00065FE0546306880030BD4FFF75FFE401BC6
:1024C0006428F7D9A9E03068800302D56068002845
:1024D00060D0207880072CD5B06810F00C0F07D0A2
:1024E000B06800F00C00082809D17068400206D4DA
:1024F0003068800716D5E068012813D04AE0E1680B
:102500008D48002900F0A98001210160FFF736FE07
:1025100005463068800705D4FFF730FE401B0228CF
:10252000F7D97AE02069316821F0F80141EAC0006A
:1025300030602078000721D5606978B17E4801219C
:10254000C0F8801EFFF71AFE0546706F800715D48D
:10255000FFF714FE401B0228F7D95EE07648002101
:10256000C0F8801EFFF70AFE0546706F800705D58C
:10257000FFF704FE401B0228F7D94EE02078400701
:102580000BD4A769002F00F0D180B06800F00C00D8
:10259000082845D10120BDE8FC81306C4FF00008CF
:1025A000C0000CD4CDF80480306C4FF0010840F02E
:1025B00080503064306C00F08050019001985F4F83
:1025C0003868C0050FD4386840F480703860FFF771
:1025D000D5FD05463868C00505D4FFF7CFFD401B83
:1025E0000228F7D919E0A768012F05D0306F052F11
:1025F00043D140F004003067306F40F00100306795
:10260000FFF7BCFD054641F28837306F80074CD498
:10261000FFF7B4FD401BB842F7D90320BDE8FC81A9
:102620004549002088460866FFF7A8FD0546022FA9
:1026300009D13068800159D5FFF7A0FD411B032067
:102640000229F6D970E0306880016FD5FFF796FD5A
:10265000411B03200329F6D366E000210160FFF748
:102660008DFD0546306880077FF563AFFFF786FD77
:10267000411B03200229F5D956E020F00100306704
:10268000306F20F004003067FFF778FD0546002F1B
:10269000B9D141F28837306F800706D5FFF76EFD5C
:1026A000411B0320B942F6D93EE0B8F1000F3FF4D8
:1026B00068AF306C20F08050306462E720F48030E6
:1026C0003060306820F480203060FFF757FD054609
:1026D000002F7FF4EFAE05E0FFF750FD411B032014
:1026E000642921D830688003F6D4F2E61C341FCC6C
:1026F000084340EA8210D9034FF6FF72914340EA43
:102700000460A1F58031084370600120C8F86000C2
:10271000FFF734FD04463068800107D4FFF72EFD33
:10272000011B03200229F6D9BDE8FC810020BDE889
:10273000FC8100BF003802400000474200700040AA
:10274000411E0020B0EB116F1CBF01207047C54A2D
:10275000F0235160C2490B700721906011607047EF
:1027600010B590F83C300222012B14D080F83D20A7
:102770000368D1E900215C6824F0700422439C685E
:102780005A6024F08002114399600022012180F8F0
:102790003C2080F83D10104610BDB0B110B5044685
:1027A00090F83D0028B9002084F83C00204600F055
:1027B0000EF8022084F83D002068211D00F0ACFED8
:1027C000012084F83D00002010BD012070477047B3
:1027D0000068C16841F00101C160816801F0070132
:1027E000062903D0016841F0010101600020704713
:1027F00070B50D4690F83C1004460220012944D0E3
:1028000084F83D004FEAB2000126032884F83C60BA
:1028100036D8DFE800F0020A12222068294600F0CC
:10282000F3FE206850F8181F0EE02068294600F0DB
:1028300015FF206850F8181F16E02068294600F0A0
:102840003DFF206850F81C1F41F00801016001683D
:1028500021F00401016029690FE02068294600F099
:102860005FFF206850F81C1F41F40061016001689F
:1028700021F4806101602969090202681143016045
:10288000002084F83C0084F83D6070BDB0B110B504
:10289000044690F83D0028B9002084F83C0020460A
:1028A00000F00EF8022084F83D002068211D00F0A1
:1028B00033FE012084F83D00002010BD0120704748
:1028C0007047000010B504460068012200F08CFE3D
:1028D00020680A4A40F48061914203D1416C41F47E
:1028E00000414164816801F00701062903D00168B5
:1028F00041F001010160002010BD00BF0004014053
:1029000080B50A480A4B40F2F3110022C0E90032B8
:10291000816008490A6842F480520A60FFF734FC7B
:1029200018B1BDE88040FEF7BEBD80BD680800203C
:1029300000300040082004E010B500F1280151E803
:10294000002F12B9BFF32F8F04E0531E41E800346B
:1029500004B1F4E782B12C3001210AE0821CD2E8F4
:102960004F3FC2E8441F04B1F9E71A0608BF10BD83
:10297000083000680028F1D1002010BD10B5844651
:102980005CF8303F8BB1CA784FF0000E05E01C4672
:10299000DB7893420ED26368A646002BF7D1002263
:1029A000C1E9012E00F12C0208E00022C1E9012258
:1029B000C16209E0C1E9014E04F108021160BEF1F3
:1029C000000F18BF0EF1040CCCF80010283050E8AE
:1029D000001F4A1C40E8002303B1F8E710BDD1E90D
:1029E0000123002A0EBFC36293608B68191D002B60
:1029F00008BF00F130010A60704700001948006804
:102A0000704700BF18480178012905D100210170E5
:102A100004484FF0806101601248016841F00101F3
:102A20000160704704ED00E04FF0FF307047000098
:102A300040B185490968B1FBF0F0411E0020B0EBC0
:102A4000116F02D04FF0FF307047054AFF2313701B
:102A5000044A062313605160034990600870704770
:102A600023ED00E010E000E0CC07002010B58AB0B4
:102A700000245A480194016841F004010160006893
:102A80001C2100F004000190019801A8CDE9084440
:102A9000FDF755FD1C481D4B40F2E7315322846180
:102AA000C0E90032C0E902410461FFF7EFFE08B15E
:102AB000FEF7F9FC144808A9CDE90844FFF750FED9
:102AC00008B1FEF7F0FC00200590CDE9020060207F
:102AD00001900D4801A90022FFF78AFE08B1FEF718
:102AE000E2FC094C00212046FFF7ECFE01A920463C
:102AF0000422FFF77DFE08B1FEF7D5FC0248042151
:102B0000FFF7E0FE0AB010BD740800200008004086
:102B100000EE102A9FED101AB8EE400A80EE010A6E
:102B2000C268042902F1010201EE102AB8EE411A2E
:102B300020EE010ABDEEC00A10EE102A03D029B91A
:102B40000068426370470068826370470068082924
:102B500014BF0264C26370470000C842B0B592B0AF
:102B600000241E4801940168022541F08051016053
:102B7000006800F080500190019819480D94016898
:102B800041F480410160006800F480400D900D2008
:102B90000394019004200C904FF4A8700B950A90B8
:102BA000082009904FF48000CDE907504FF48030A1
:102BB00002900D9801A8FFF753FC4FF4805011903C
:102BC0004FF4A05010900F20CDE90E540D900DA899
:102BD0000521FFF759FB12B0B0BD00BF40380240DD
:102BE000007000401548416801F00C021449082AA1
:102BF00003D0042A17D1134915E0026802235202B8
:102C0000104A58BF0A46016801F03F01B2FBF1F1DA
:102C10000268C2F3881251430268C2F3014203EB17
:102C20004202B1FBF2F1084A084B11604068C0F360
:102C30000310185C21FA00F010607047043802405D
:102C40000024F40040787D010C0000205459000855
:102C500010B50E480F4CD0F8801041F47001C0F848
:102C600080100B490A6842F001020A6000228A6063
:102C70000B6823400B60084B4B600B6823F48023E8
:102C80000B60CA604FF00061016010BD08ED00E00C
:102C900000380240FFFFF6FE1030002496B00220FC
:102CA00001214FF0FF3201F00FFF814801F078F968
:102CB000E84FF86901F054FA0CAC4FF00009F869DC
:102CC00021460DF157024FF0FF3301F0C5F9794865
:102CD0000E9C8068844204BF7748A0F800900F984B
:102CE0001099604081F00402104318BF01200029B0
:102CF00018BF0121084004909DF830009DF8311064
:102D00009DF833309DF832200006039302900804AA
:102D10006B4B019010024FF000090090B9F1020FC7
:102D20004ED0664809EB490100EBC1000269A21AC6
:102D300018BF0122049D2A433FD10D9A4FF000088D
:102D400015BA5E4A42F831500399009A1143019A2C
:102D50001143029A42EA01064660B8F1040F2CD0F2
:102D600053F828B0DBF80800A04223D19BF802A05A
:102D70009BF80C009BF80D705044C0F140022846AF
:102D80003146FDF762FBBBF800104D4B0840BAF12D
:102D9000090FABF804000DD3012F0BD153F82920F4
:102DA000928801EA0221AAF10802D040C0B2084488
:102DB000ABF8040008F10108CFE709F10109ADE71C
:102DC000A44F00264FF001080CAC4FF00009042E70
:102DD0003FF475AF3B4830F816100E98884265D125
:102DE000DDE90F1222B1042A60D1814201465DD192
:102DF0000690DDE91103CDE90712CDE90903786DED
:102E0000CDF814908168490125D48168090125D441
:102E10008168C90025D43978032201313970C9B2DB
:102E20000A2905923FD3816807F1540541F08001DA
:102E30008160816841F400418160816841F4000152
:102E400081602846FEF720FF2846FEF7F2FE05982F
:102E5000032808D127E0CDF8149004E0CDF81480C1
:102E600001E00220059087F80090B8694FF0FF312B
:102E700001F088F907F15405284606A9224605AB5A
:102E8000FEF716FD30B12846FEF7FEFE2846FEF797
:102E9000D0FE08E005992846FEF7BAFE012802D1C7
:102EA0000A2001F06BF8B86901F0A2F901368EE74B
:102EB000A08601007802002078010020B8020020DE
:102EC000A80200201002002082B0042001214FF04F
:102ED000FF3201F0F9FDDFF87C810220184FA8F8DD
:102EE000260088F8240000200DF106040DF10505E8
:102EF00008F12C06ADF806008DF80500D8F828007A
:102F000021462A464FF0FF3301F0A6F8FDF724FCD6
:102F1000BDF80600142807D0C8280DD130464FF45C
:102F20000C71FEF793F907E030464FF40D71FEF790
:102F30008DF93046FEF764FA3846FFF747F9DDE7CA
:102F40006808002092B0022001214FF0FF3201F00A
:102F5000BBFD404FDFF8008108AC4FF0000907F1DE
:102F60002C060DF1080B01AD386A21460DF1470220
:102F70004FF0FF3301F070F84FF0000ABAF1040F80
:102F8000F2D038F81A100A98884260D1DDE90B12A5
:102F900022B1042A5BD18142014658D10290DDE979
:102FA0000D03CDE90312CDE90503F86ACDF80490CD
:102FB0008168490123D48168090123D48168C9004B
:102FC00022D43978032201313970C9B20A29019219
:102FD0003AD3816841F080018160816841F4004109
:102FE0008160816841F4000181603046FEF74CFE4B
:102FF0003046FEF71EFE0198032807D124E0CDF8E5
:10300000049003E0012000E00220019087F8009086
:1030100078694FF0FF3101F0B5F830465946224645
:103020002B46FEF745FC30B13046FEF72DFE30460C
:10303000FEF7FFFD08E001993046FEF7E9FD0128A3
:1030400002D10A2000F09AFF786901F0D1F80AF164
:10305000010A93E78401002008020020184DDFF8E0
:10306000649000244FF066084FF0320A802001215E
:103070004FF0FF3201F028FD802001F0E7FC002036
:103080002946062815D000FB085259F820300027A1
:1030900022F814300023322F04D031F817600137A2
:1030A0003344F8E7B3FBFAF36631A2F86430013039
:1030B000E7E7601C302CC8BF00200446D6E700BFFD
:1030C000680500201801002088B0914D04460320B7
:1030D00001214FF0FF32A847012001214FF0FF32BC
:1030E000A847112001214FF0FF32A84700208DF89A
:1030F0001F008DF81E008DF81D00ADF81A00ADF808
:1031000018000590207C012803D030B941F6C81082
:1031100001E041F28830ADF812000A2000F02EFFE5
:103120007C4F7D4DDFF838AB4FF0000B0DF11A09E5
:1031300006AE94F84800000725D0E08C05990844B5
:10314000DAF8001088420FD20DF11F00009005A898
:1031500001900DF11200029020460DF11D014A462A
:10316000334600F095FC0EE00DF11E00009005A81E
:1031700001900DF11200029020460DF11D014A460A
:10318000334600F09FFBB4F846003988814228D9C5
:103190000A2000F0F3FE94F8422021886068012A9A
:1031A00074D10122FEF7E5FF94F8480000F0F0002A
:1031B000023084F8480094F84420E068217A013213
:1031C000D2B2FFF7A5FCB4F84400ADF81A00E18FC5
:1031D000401AB4F8401048434FF47A7190FBF1F86C
:1031E00066E0A06B008800286CD001284AD194F8D2
:1031F00022009DF81F10814244D294F82C009DF8C3
:103200001E1081423ED294F8480000070AD1DAF835
:1032100000000122059060682188FEF7AAFF0120C6
:1032200084F848000A2000F0A9FEBDF81A006428BE
:1032300069D894F83C00012865D1BDF818104FF406
:103240007A7003914843B4F84010B0FBF1F0E18F7D
:1032500001EB00081FFA88F065284FF00A0028BF2C
:103260004FF06508ADF81A8000F0ACFE039801300D
:10327000ADF8180008F10100C2B2E068217AFFF74A
:1032800047FC40E00A2000F079FE3CE000224FF0CD
:103290000008FEF76EFF94F84800002200F0F000EE
:1032A00084F84800E068217AFFF732FCADF81A8014
:1032B00094F84800052161F31F1084F84800ADF828
:1032C000188020E094F8480000070FD0218860683B
:1032D0000022FEF74EFF94F83C00012804D1217A29
:1032E000E0680022FFF714FCADF81AB00A2084F859
:1032F00048B000F043FEA4F834B08DF81FB08DF84C
:103300001EB0ADF818B02846FEF760FF11E700BF09
:10331000C94A0008780100206808002010B5094C4F
:103320002068C0071CBF60685FEAC07000D110BD94
:1033300005488021006801F09BFB6FF00100606090
:1033400010BD00BF0C0C00403409002070B56E4E5B
:103350003068C0071CBF70685FEAC07000D170BDE4
:103360006A4CA0680130A060218801312180628808
:1033700089B2013262804CF25132914224BF4CF248
:10338000503121800521B0FBF1F101EB8101411A9F
:103390000BD1C820254625F8040F5D482946006852
:1033A0000122002300F0A0FE68680A21B0FBF1F1C1
:1033B00001EB8101A0EB410159B96420254625F8B4
:1033C000040F5348294600680122002300F08CFEB8
:1033D00068681421B0FBF1F101EB8101A0EB8101E0
:1033E00059B93220254625F8040F49482946006876
:1033F0000122002300F078FE68681921B0FBF1F289
:1034000002FB110159B92820254625F8040F404830
:10341000294600680122002300F066FE6868212129
:10342000B0FBF1F101EB4111411A0BD11E202546F1
:1034300025F8040F3648294600680122002300F0D1
:1034400053FE68683221B0FBF1F202FB110159B959
:103450001420254625F8040F2D482946006801222E
:10346000002300F041FE68686421B0FBF1F202FB2A
:10347000110179B90A20254625F8040F2448294668
:1034800000680122002300F02FFE22484021FEF7B1
:1034900069FE6868C821B0FBF1F202FB110159B95D
:1034A0000520254625F8040F194829460068012201
:1034B000002300F019FE68684FF4FA71B0FBF1F2D6
:1034C00002FB110159B90220254625F8040F1048C6
:1034D000294600680122002300F006FE68684FF4C8
:1034E0007A71B0FBF1F202FB110048B9012024F817
:1034F000040F0748214600680122002300F0F4FD74
:103500006FF00100706070BD0C1400407801002065
:10351000AC01002000080240B0B50268B0F1804F55
:103520000ED0274B98420BD0264B984208D0264B02
:10353000984205D08B4B984202D0244B984203D13D
:103540004B6822F070021A43B0F1804F20D01C4B20
:1035500098421DD01B4B98421AD01B4B984217D053
:103560001B4B984214D01B4B984211D01A4B9842D7
:103570000ED0164B98420BD07A4B984208D0174B7E
:10358000984205D0164B984202D0164B984203D170
:10359000CB6822F440721A434D690B688C6822F0A4
:1035A00080022A430260C46283626E4B40F48062F0
:1035B0009A4204BF0969016301214161B0BD00BFA6
:1035C0000004004000080040000C004000000140E2
:1035D00000180040001C0040002000400040014056
:1035E000004801400044014010B501F01F010123D3
:1035F000046A8B4024EA0303036202FA01F1026ABF
:103600001143016210BD0000F0B5026A554E22F070
:10361000010202620B688A68046A24F002042243F1
:103620004468856925F073052B4340F48065B542F5
:1036300005D1CF6822F00C0227F004073A43B542C7
:1036400005D1D1E9055624F440742C433443446039
:103650008361496841630262F0BD00BFF0B5026A50
:10366000404E22F0100202620B688A68046A24F05D
:10367000200444EA02124468856925F4E64545EAD7
:10368000032C40F48065B54207D1CF686FF040034A
:1036900003EA071322F0C0021A43B54207D1D1E969
:1036A000053524F4406444EA830343EA8504446016
:1036B000C0F818C0496881630262F0BDF0B5026AC3
:1036C000284E22F4807202620B688A68046A24F42D
:1036D000007444EA02224468C56925F0730545EA8E
:1036E000030C40F48065B54208D1CF6840F2FF4337
:1036F0003F0227EA030322F440621A43B54207D18E
:10370000D1E9053524F4405444EA031343EA05148F
:103710004460C0F81CC04968C1630262F0BD00BFCC
:1037200070B5026A0F4E22F4805202620C688A68F9
:10373000036A23F4005343EA02324368C56925F45F
:10374000E64545EA042440F48065B54204D14D695C
:1037500023F4804343EA85134360C46149680164EC
:10376000026270BD000401402DE9F047424C43481D
:10377000DFF80CE160628146002001230422414908
:1037800020622377C4F818E0227510222161A281FB
:103790003D4A8A463D4E3E4F3E492263032284F80D
:1037A0002E20A085A66227654FF07A784FF47A77AD
:1037B0004FF4807C043184F84E30C4F84A8084F899
:1037C0004830678784F83820C4F834C061643249CF
:1037D00020252031E1633149C1E90509CE610B742F
:1037E000C1F80CE00872C1F804A00D802C4DC1E9AD
:1037F000095C2C4D81F82220203508840D632A4D68
:1038000004358D63294DC1F83E804D6440F6B835CE
:1038100081F8420081F83C30CD8581F82C20244984
:10382000274D0B744FF40063C1F804A00B80C1E96D
:103830000509CE61088481F82220A1F8467081F83C
:10384000420081F83C001C481A4B0430CF8581F8B7
:103850002C20C1E9093C886318482030086320689F
:103860000121A84760680121A847A06801212A46D4
:10387000BDE8F047104700BFE80200205C8F823EA1
:103880007408002000040240D007D007F4010001B2
:10389000320088137802002040030020D007002067
:1038A000E803D0076403002088020020000088138A
:1038B0001C080020B80BD0079802002088030020C5
:1038C000714A00082DE9F84F2DED028B8B46016BF4
:1038D000064608680E9C984696F84830924600883E
:1038E000228803F0F003013300EE102A01EE100AE3
:1038F00086F84830B8EE400AB8EE411AB08B21EE97
:10390000000A01EE100A9FED618AB8EE411A10EE2E
:10391000081A96ED062A96ED050A22EE011ABDEE6A
:10392000C11A11EE100AB0862288DDF8309001EE3F
:10393000102AB8EE411A0968098802EE101AB8EE8A
:10394000422A22EE011A21EE081AB8EE400AB4EE1D
:10395000C01AF1EE10FA01DB327CAAB31F2954D34E
:1039600096F82910002950D10A27B0FBF7F196F8F4
:103970002820914249D30025718DB1FBF7F18D428A
:1039800070D20A2000F01EFB2088013500EE100ADC
:10399000B8EE400A306B0068008801EE100AB8EEFD
:1039A000411AB08B21EE000A01EE100AB8EE411A5E
:1039B00010EE081A96ED060A20EE010ABDEEC00AC6
:1039C00010EE100AB086D7E7318870680022002414
:1039D000FEF7CFFB01208BF80000102086F848008E
:1039E000F068317A0022FFF793F8AAF80040F08DD2
:1039F00000F0E8FA99F80000013089F8000096F824
:103A0000480000F0F00086F848009BF8000020B362
:103A100096F82C0099F8001081421ED20D9C0120CE
:103A200000F0ACFAF068317A00220025FFF770F858
:103A30008B48AAF800500068012220607068318825
:103A4000FEF797FB96F8480000F0F000013086F88A
:103A500048008BF80050A8F80050BDEC028B01B074
:103A6000BDE8F08F80B20A21B0FBF1F096F8281083
:103A70008842CAD3318870680022FEF77AFB0220A0
:103A80008BF80000202086F84800B0E7000080395D
:103A90002DE9F0472DED028B0E46016B04460868B8
:103AA0000C9D984694F84830924600882A8803F086
:103AB000F003023300EE102A01EE100A84F84830B9
:103AC000B8EE400AB8EE411AA08B21EE000A01EED2
:103AD000100A9FED628AB8EE411A10EE081A94EDB2
:103AE000062A94ED050A22EE011ABDEEC11A11EE66
:103AF000100AA0862A88DDF8289001EE102AB8EE78
:103B0000411A0968098802EE101AB8EE422A22EE1C
:103B1000011A21EE081AB8EE400AB4EEC01AF1EE0E
:103B200010FA01DB217C79B3E17F00295ED10A2103
:103B3000B0FBF1F1A27F914258D30027218C8F4234
:103B400035D2012000F03EFA2888013700EE100A35
:103B5000B8EE400A206B0068008801EE100AB8EE4B
:103B6000411AA08B21EE000A01EE100AB8EE411AAC
:103B700010EE081A94ED060A20EE010ABDEEC00A06
:103B800010EE100AA086D9E721886068002200257F
:103B9000FEF7EFFA01203070102084F84800E0684A
:103BA000217A0022FEF7B4FFAAF8005010E080B29C
:103BB0000A21B0FBF1F0A17F884217D32188606809
:103BC0000022FEF7D6FA02203070202084F8480048
:103BD000A08C00F0F7F999F80000013089F8000096
:103BE00094F8480000F0F00084F84800307820B3E2
:103BF00094F8220099F8001081421ED20B9D0120FA
:103C000000F0BCF9E068217A00220027FEF780FF6F
:103C10001348AAF8007000680122286060682188B3
:103C2000FEF7A7FA94F8480000F0F000013084F89D
:103C300048003770A8F800700BE0206B006800881F
:103C4000132806D894F84800042161F31F1084F863
:103C50004800BDEC028BBDE8F08700BF0000803952
:103C60008001002010B5930712D400F12803D0077B
:103C700018D153E8000F084203D1BFF32F8F002063
:103C800005E020EA010243E8002404B1F1E710BD99
:103C9000806AD20700EA010315D1002B18BF10BDBE
:103CA000002010BD53E8000F00EA01028A4203D051
:103CB000BFF32F8F002005E020EA010243E8002433
:103CC00004B1EFE710BD8B4218BF002010BD00000B
:103CD000B0B586B0174C01212068002240F00100E9
:103CE000206037200025FEF7A3FA3720FEF792FA6E
:103CF00011480195016841F02001016000686946A2
:103D000000F020000190019801A8FEF74FFBFEF79C
:103D100069FB0A484FF47A715322C0E90042C0E9B6
:103D200002510561FEF739FD10B90448FEF750FD58
:103D300006B0B0BD0014004040380240F408002036
:103D400080B5B04A4FF0000E02F1440C624606E026
:103D50001A6991420BD3891A03F10C029E4613682B
:103D6000002BF5D10022C0E902E2016106E0C0E9C2
:103D700002E3016198601A69511A1961BEF1000FDE
:103D800018BF0EF10C0CCCF8000080BD10B5074C2C
:103D900000F00F032344044AB0F1FF3FC8BF83186B
:103DA0000801187010BD00BF00E400E014ED00E051
:103DB00010B5044600F0BEFE30B120684FF0FF3170
:103DC000BDE8104000F0DEB910BD006800F0ECB9AD
:103DD00010B50446002000F0F9F9206008B1012078
:103DE00010BD0520214600F015FA002010BD10B5C9
:103DF000044600F09FFE20B12068BDE8104000F0AE
:103E0000F7B910BD00F000B9FEF77AFD364C37491E
:103E1000374D20460022A8473649374E08602021FA
:103E2000B047364920460022A8473549086020217E
:103E3000B047344920460022A84733490860202172
:103E4000B047324C142001210022A0473049002203
:103E5000086014202421A0472E490860002000F0AB
:103E6000B5F92D49002208602C480021A8472C49AB
:103E700008603021B0472B4800210022A8472A497A
:103E800008602921B0470A2001210022A0472749C4
:103E9000002208600A202421A0472549086000204C
:103EA00000F094F923490022086023480021A84724
:103EB000224908602921B047214800210022A84753
:103EC000204908602121B047FDF7EEFAFEF7CEFD4C
:103ED000FCF77CFFFDF76CF8FFF746FCFCF75EFC97
:103EE000FCF702FCFEE700BFC9300008F402002026
:103EF000ED4A0008E8020020114B0008D00700201E
:103F0000EC0200201C080020F0020020C540000840
:103F1000AC010020A001002098010020C92E00085B
:103F2000880100209D2C00089001002064050020DD
:103F3000A40100209C010020452F000894010020CE
:103F40005D30000834090020FEF708FE0320FEF76C
:103F50008BF9FFF7BDFEFEF745FE00F055F8064C65
:103F600000212046002200F0C1FD2046182100F06B
:103F7000CFFD00F05FF8FEE7093E0008EFF3058192
:103F800029B9EFF3108111B9EFF3118111B16FF07D
:103F900005007047DFF804C000DF7047154D0008CA
:103FA000EFF3058129B9EFF3108111B9EFF3118116
:103FB00011B16FF005007047DFF804C000DF7047F3
:103FC000294D0008034948434FF47A71B0FBF1F0E2
:103FD000FFF7D4BFA0860100EFF3058048B9EFF3E7
:103FE000108030B9EFF3118018B9EFF31480C007D7
:103FF00002D10448007A7047DFF804C000DF704740
:10400000454D00081000002080B500F005F9EFF3E1
:10401000058028B9EFF3108010B9EFF3118010B1CB
:104020006FF0050080BDDFF808C000DF80BD00BF75
:10403000514D0008EFF3058028B9EFF3108010B957
:10404000EFF3118010B16FF005007047DFF804C086
:1040500000DF70479D4E0008F8B50546EFF3058078
:1040600014460E4628B9EFF3108010B9EFF3118013
:10407000F0B16FF003000DB303BBFEB12978FA294C
:104080001CD12846FEF758FC78B16A6A074600F151
:104090000C013046FCF7ECF90CB1F878207038468A
:1040A000FD6000F06BFA002008E06FF0020005E010
:1040B0002846DFF80CC03146224600DF01B0F0BDD3
:1040C000214F0008EFF305832BB9EFF3108313B9E9
:1040D000EFF311830BB100207047DFF808C000DF59
:1040E000704700BF015000082DE9F0410646EFF38C
:1040F000058090460D4628B9EFF3108010B9EFF314
:10410000118018B36FF00307EEB1E3B9DDB1307879
:10411000FA2818D106F10C0000F003F988B1726A90
:1041200004460C302946FCF7A3F90027F920C4E91E
:10413000015684F80380A7702070204600F01EFA14
:1041400001E06FF002073846BDE8F0813046DFF845
:104150000CC02946424600DFBDE8F0813551000819
:10416000EFF3058129B9EFF3108111B9EFF3118154
:1041700011B16FF005007047DFF804C000DF704731
:10418000F5510008EFF305822AB9EFF3108212B956
:10419000EFF3118212B16FF005007047DFF804C031
:1041A00000DF7047A5520008EFF3058129B9EFF34E
:1041B000108111B9EFF3118111B16FF00500704753
:1041C000DFF804C000DF704735530008EFF30581C6
:1041D00029B9EFF3108111B9EFF3118109B1002072
:1041E0007047DFF808C000DF704700BFF9530008D0
:1041F000EFF3058129B9EFF3108111B9EFF31181C4
:1042000011B16FF005007047DFF804C000DF7047A0
:1042100065540008FEE7FEE77047B0B50023D0B351
:10422000C9B3032A37D886460F315EF8084F21F00C
:10423000070CDEF804102346A4EB0E0421F003055E
:10424000641B644505D21C689E46002CF1D10023F6
:1042500021E0D0E9004363444360204450F8044C1B
:104260009C423EBF08384360DEF8041069B1DEF8B6
:10427000000021F0030141F80E004CEA02007144F5
:104280004860CEF800108E4603E04CEA0200CEF8FB
:1042900004000EF108031846B0BD80B5002218B323
:1042A00011B300F10803A1F1080C4FF0000E6345B3
:1042B00006D01A461B689646002BF8D1002213E060
:1042C00051F8043C4268BEF1000F23F00303A2EB57
:1042D000030242604FF0010219BFDCF80000CEF883
:1042E0000000002041F8040C104680BD08B14207D0
:1042F00002D000221046704700221829FAD311F08C
:104300000703F7D11022C0E900120144A1F108030C
:104310008360002341F8083C81684A600122C36041
:10432000E8E710B5002817D0014600F1140252E862
:10433000000F10B9BFF32F8F04E0036842E8003488
:1043400004B1F4E740B1043151E8002F531C41E8B7
:10435000003404B1F8E710BD002010BD00281FD0C4
:10436000C2688A421CD802698A4219D9B0B500F1E4
:10437000140213680B60BFF35F8F52E8003F0C68B4
:104380009C42F6D142E8001505B1F2E7043050E84E
:10439000001F4A1E40E8002303B1F8E70020B0BD2B
:1043A0006FF00300704784460020BCF1000F18BF77
:1043B00000291AD0CAB1C3B180B54FF0000E02FB7C
:1043C0000130CCE9001ECCE90223CCE90403C1F1A1
:1043D0000100BDE8804003E09918013019600B46E8
:1043E0000028F9D10020186001207047F8B5044674
:1043F000807868B3E56821462846FEF7F0FA002089
:1044000005F10C06214620703046FFF7A7FFA8688B
:10441000E8B13046FFF785FFC8B10446284600F0F2
:10442000CBF9002100220646002700F06DFA304645
:1044300000F01CFA81686A6A064604F10C00FCF779
:1044400017F8F920A7702070F068E07025E0F8BD3B
:10445000A568A86808B3407883281ED1284600F0D4
:10446000ABF9002100220646002700F04DFA304645
:1044700000F0FCF9064680686A6A04F10C01FBF75B
:10448000F7FFF06808B1E1780170277005F10C00C2
:104490002146BDE8F840FFF761BF28462146BDE848
:1044A000F840FEF76BBA2DE9F041044600274FF0C3
:1044B000010819E025466469E878000714D52F76CD
:1044C000A86888B1284600F077F900210022064646
:1044D00000F01AFAC5E90367F06A0028686100D0A5
:1044E0000561F56285F81880002CE3D1BDE8F08104
:1044F00070B5F14C04F1560504F15A0628E0D6E8EF
:104500005F1F4A1C904200D80022C6E8532F03B117
:10451000F5E788B2E16D51F82000002828D0017835
:10452000F139082914D8DFE801F005130813130B3B
:104530000E131100216E88470AE0616E884707E07C
:10454000A16E884704E0E16E884701E0216F88474B
:10455000B4F85400D5E85F1F11B9BFF32F8F04E002
:104560004A1EC5E8532F03B1F4E709047FF4C7AF2F
:104570000020BDE8704000F0C9B800BF70B501462A
:10458000E048B0F8542000F15603D3E85F4FA24250
:1045900002D8BFF32F8F04E0651CC3E8565F06B155
:1045A000F3E7A3B293421AD200F15803D3E85F4F66
:1045B000651CAA4200D80025C3E8565F06B1F5E79E
:1045C000A2B2C36D43F82210417A002919BF01211C
:1045D000817205484FF0805108BF016070BD022014
:1045E000BDE87040FFF716BE04ED00E00121417008
:1045F000ED4990F920C001F11C02114692684AB1C0
:1046000092F920306345F8DCC0E90221886002F1AC
:104610000C0103E00022C0E9022108310860704764
:1046200010B54A1C11D0EE4A002402F12C0C62464F
:1046300003E0891A03F110021C461368E3B1DA693A
:104640009142F6D24FF0010E18E0E549002301F146
:10465000300421461A460B6803F11001002BF9D1F2
:104660004FF0FF31002AC1614FF00001C0E9041290
:1046700016D002F1100413E04FF0000E002CC0E938
:104680000434C16118BF04F1100CCCF80000BEF175
:10469000000F08BF10BDDA6903F11404511AD96183
:1046A000206010BDC2690169531C0AD021B1CB69D9
:1046B0001A44CA6142694A6142693AB9DF48C16233
:1046C000704709B142694A6142691AB1116100211A
:1046D00041617047D9480163704700BFB0B5D74DFD
:1046E000EC6A1CB1E0690138E06100D0B0BD204641
:1046F00000F081F8204600F0B1F8246924B1E069A7
:104700000028F4D000206061EC62B0BDB0B5054671
:10471000CA48002D4469017A0CD0022905D194F9C8
:10472000200095F92010814212DC2846BDE8B040F7
:1047300000F094B8022913D1456A8DB194F9200094
:1047400095F920108142D8BFB0BD284600F053F83B
:104750002046FFF74BFF2846BDE8B04000F0B0B858
:10476000B0BD00BF10B5044600202080A0788107AE
:104770000DD5C00605D4B148216B406FFFF78DFD04
:1047800005E0AE48216BD0F88400FFF7E7FDA07884
:10479000C00708BF10BDA949D1F8880020B1214643
:1047A000BDE81040FFF7DABDD1F880002146BDE832
:1047B0001040FFF772BD00BF014680688268002A82
:1047C0008A6000D0D1600021C160704791F920C09B
:1047D0000246806840B190F920306345F8DAC1E9BB
:1047E00002020C30916004E00020C1E9020202F1F3
:1047F000080001607047C16831B182688A608268D0
:1048000002B1D1600021C1607047B0B504460546D1
:1048100003E02878F12803D1ED68002DF9D1B0BD6F
:104820002046FFF7E8FF28462146BDE8B040FFF7E5
:10483000CDBF10B504464078332818BF10BD94F89A
:104840002320616A2046FFF70DFA30B10146204669
:104850000022BDE8104000F057B810BD014601200D
:10486000487076481C30FFF7B1BF00BF90F82210A7
:10487000C9064FF0200158BF6021806B0844704783
:104880007047000070B5554C0A480021A26D666E55
:1048900000F0EEFE694D002EA86209D0E26D0748D7
:1048A000002100F0E5FEA864002818BF012070BDBB
:1048B000012070BD1742000810000020AD4900081B
:1048C000022141705D498861FFF7DABF10B55B4C8A
:1048D00002460020237A022B12D1636A83B16069F9
:1048E0004270FFF79DFE606A81680029616202D014
:1048F00004F11C02CA600021C160FFF7E1FF012042
:1049000010BD00BF10000020B0B5044690F8220092
:104910001546C0064FF0200058BF6020A26B8150A2
:104920002046FFF7BFFE20461DB1BDE8B040FFF7AF
:10493000EDBEBDE8B040FFF791BF0000B0B5FEF797
:104940005DF83E4DE968286D01310028E96000D02E
:104950008047FFF7C3FE0020FFF7D8FE296C11B394
:10496000AA69A86B90421CBFC5E90E21B0BDE96BD6
:1049700011B10139E96316D1297A022913D16C6A80
:104980008CB190F8200094F8201081420BD1204681
:10499000FFF731FFA86BFFF761FF2046FFF790FF9D
:1049A000286CC5E90E40B0BD1000002082B00B4855
:1049B0000821D0E91820FFF785FBE44D09496C4632
:1049C000C5E91301214600224FF0FF33FFF744FBF6
:1049D00010B9DDE900108847E86CF3E7B458000827
:1049E00010000020E949000870B5D84D6C6C1CB36C
:1049F00020690126013820611CE02069E0B9E068E7
:104A000008B1A1688160686404F1180100220023E4
:104A1000E86CFFF769FB18B103202146FFF7FAFBAA
:104A2000E078012804D161692046FFF789F900E0A8
:104A300066706C6C002CE0D170BD00BF10000020CF
:104A4000DFF804C000DFFEE71D550008EFF3058125
:104A500029B9EFF3108111B9EFF3118111B16FF0A2
:104A600005007047DFF804C000DF70478955000873
:104A7000EFF305822AB9EFF3108212B9EFF3118236
:104A8000E2B1B0B56FF00304B0B1002914DB0278D5
:104A9000F12A11D14278042A02D16FF002040BE00E
:104AA00000F1280252E8003F43EA010442E80045D1
:104AB00005B1F7E7FFF762FD2046B0BDDFF804C09F
:104AC00000DF7047BD550008EFF305832BB9EFF306
:104AD000108313B9EFF3118313B16FF00500704722
:104AE000DFF804C000DF704725560008EFF30583A8
:104AF0002BB9EFF3108313B9EFF311830BB100203F
:104B00007047DFF808C000DF704700BF715600082B
:104B1000EFF305822AB9EFF3108212B9EFF3118295
:104B200012B16FF005007047DFF804C000DF704776
:104B30004D58000810B5064C207808B1012010BD72
:104B4000FFF74AFA0128D2BF20780120207010BD5B
:104B5000D8CF002070B592B0044606A83021FBF7EC
:104B6000EEFC6D4628461821FBF7E9FC207D022863
:104B700015D001282FD0002840F0AF80216AE08BAB
:104B800009884843B4F91C10C1EB103000EE100A3C
:104B9000B8EE400A94ED061A21EE000A98E0E08B88
:104BA0009FED5B2A00EE100AB8EE400A206A0088EA
:104BB00001EE100AB8EE411AB4F91C0021EE000A09
:104BC00001EE100AB8EEC11A10EE021A94ED060AB0
:104BD00020EE010A7CE0216AE08B098840F67E42E3
:104BE0004143080BA080119240F65142109240F6CA
:104BF000EE320F9240F67B320E9240F6F4220D9286
:104C000040F655220C9240F696120B9240F6AD02F9
:104C10000A9240F28C72099240F21B62089240F2B2
:104C2000334207924FF4C27206922D4A9FED302A0A
:104C300005922C4A9FED2F1A04922B4A9FED2E3A93
:104C400003922A4A9FED2D0A02924FF4C802019264
:104C50006FF0C702ADF800206432ADF8022041F3D6
:104C60000F33002206A9182A23D00E689E4202D8CC
:104C700004310232F7E7A2B1AB5E2A4400EE103AEB
:104C8000B8EEC01A32F9022C00EE102AB8EEC00AB3
:104C900011ED012A91ED003AB8EE433AB8EE422AFE
:104CA00007E09FED172A9FED171A9FED173A9FED2A
:104CB000170A33EE423A31EE401A81EE031A00B27F
:104CC00002EE410A02EE100AB8EEC22A01EE020A12
:104CD000BDEEC00A10EE100AE08012B070BD00BF39
:104CE000200352035802BC029001F401C8002C01B9
:104CF000001045450080544400E04745000048440A
:104D00000000C2430000C8C200608644000048C3DF
:104D10000000803930B180B501461320FFF7D6FD81
:104D2000BDE8804000207047B449C968411A012994
:104D3000BCBF6FF00300704780B51320FFF7C6FDBE
:104D4000002080BDF948007A704700BF10000020A5
:104D50002DE9F843F54F387A012800F095800028B6
:104D600040F0948007F108009C21FBF7E8FBDFF896
:104D7000CC8AB8F81000A7F85400D8E90202D8E9A4
:104D80000B41FA6538642046FFF7B0FA08B1C7F85E
:104D90008040D8E90541DFF80091D8E90756204660
:104DA000C847D7F880100028284618BF21467967E1
:104DB0003146C847D7F88010002818BF2946B96780
:104DC000D8E909412046C847D7F88010002818BF05
:104DD0002146D8F83440F9673CB12168D4E9022370
:104DE0002046FFF7E0FAC7F88440D8F838403CB1D5
:104DF0002168D4E902232046FFF7D5FAC7F8884096
:104E0000D8F83C403CB12168D4E902232046FFF7A2
:104E1000CAFAC7F88C40D8F840403CB12168D4E9C0
:104E200002232046FFF7BFFAC7F89040D8F8444065
:104E30003CB12168D4E902232046FFF7B4FAC7F851
:104E40009440D8F848403CB12168D4E90223204678
:104E5000FFF7A9FAC7F89840D8F84C403CB1216850
:104E6000D4E902232046FFF79EFAC7F89C40D8F801
:104E700050403CB12168D4E902232046FFF793FA61
:104E8000C7F8A04001203872002001E04FF0FF3049
:104E900001B0BDE8F08300BFED420008B0B5D44CCE
:104EA000207A01281CD1FFF7EDFCC8B11948FF2179
:104EB000194D8175817D026881F0FF01C2F30222E4
:104EC000B1FA81F1C1F120018A4228BF511CFE22B2
:104ED00002FA01F1C17468681049FDF7A9FD10B12B
:104EE0004FF0FF30B0BDFDF79FFD2061FDF78AFD5B
:104EF00004F11C00FFF760FCFFF7E2FC2878C00714
:104F00000CBF0320022080F31488022020720020AE
:104F1000B0BD00BF0CED00E0B45800081903000854
:104F20002DE9F84300284CD00F466FF00305002907
:104F300049D004460078FA2845D120469946904643
:104F4000FDF7FAFC002842D0064620463146FDF720
:104F500046FD626A06F10C013846FBF789FAB8F1A2
:104F6000000F1CBFF07888F8000004F10C07002542
:104F7000314638463570FFF7F1F9A06818B3384666
:104F8000FFF7CFF90025F0B106462046FFF714FCE5
:104F9000002101220746FFF7B7FC3846FFF766FC01
:104FA0008168626A074606F10C00FBF761FAF92096
:104FB000B57031463070F868F0702046FDF7DEFCC1
:104FC00001E06FF00305284601B0BDE8F083B9F1B8
:104FD000000F10D083204946FFF778FC40B1D44839
:104FE00041692046FFF7F2FBEFF30980C0E9027840
:104FF0006FF00105E7E76FF00205E4E7100000201D
:105000002DE9F84F002770B10D4661B105F10F0190
:105010000446B0FA80F021F00306B6FA86F108449F
:10502000202804D20027384601B0BDE8F08F06FBE7
:1050300004F872B1D2F808A01368D2E90490BAF16A
:10504000000F11D05FEA8A71ECD1D1683429E9D31D
:105050000DE000234FF00009E6490093D1F8A000CD
:1050600078B1FFF75EF912E0D1680029DAD1B9F121
:10507000000F2FD000274045D5D319F003002BD0C7
:10508000D1E7D1F8800034210122FFF7C6F882462B
:105090004FF0010BB9F1000F10D1BAF1000F0DD094
:1050A000EF4F41460022F86FFFF7B7F8814638B15D
:1050B00048464146FBF721FA57461AE057461AE0A0
:1050C000BBF1000F14D0D7F8A00060B15146FFF734
:1050D00045F90DE00028A5D1BAF1000FBCD000932E
:1050E0004FF0000BD6E7D7F880005146FFF7D5F810
:1050F00000270BF1020B002F3FF495AF0020324642
:105100004B46C7E90950C7E90B000099C7E90110F0
:10511000FA2087F802B02146387007F10C00FFF73B
:1051200042F9FD48024901677DE700BF10000020F9
:10513000ED4300082DE9F84338B30E466FF003073E
:10514000002951D005460078FA284DD1A868994623
:105150009046E8B1407883281AD12846FFF72CFB07
:105160000021012204460027FFF7CEFB2046FFF76F
:105170007DFB044680686A6A3146FBF779F9E0688E
:1051800090B380F8008000272EE06FF003072BE03B
:1051900005F10C00FFF7C5F880B16A6A04460C30CF
:1051A0003146FBF765F90027F92084F80380214692
:1051B000A77020702846FDF7E1FB15E0B9F1000F5C
:1051C00010D093204946FFF781FB40B1FA4841696E
:1051D0002846FFF7FBFAEFF30980C0E902686FF099
:1051E000010701E06FF00207384601B0BDE8F08327
:1051F000100000202DE9F843002849D0044600782B
:10520000FA2845D104F10C05002709E0064620469E
:105210003146FDF7E4FB284631463770FFF79EF82C
:105220002046FDF789FB0028F0D1A068B0B3407894
:105230004FF0000893282DD14FF0F9092846FFF7C9
:1052400070F8F8B107462046FFF7B6FA00210022B1
:105250000646FFF759FB3046FFF708FB8168626A94
:10526000064607F10C00FBF703F987F8028087F880
:1052700000903946F068F8702046FDF77FFBA06883
:105280000028DBD100204FF00008FFF73FFA01E0D3
:105290006FF00308404601B0BDE8F0834FF000080E
:1052A000F8E7000070B50446F04845694DB32CB3EB
:1052B0002078F52822D1207E30B30E46E178CA0747
:1052C00002D0E268AA422CD07EB388070AD5E068F3
:1052D00095F9201090F920208A4203DA80F82010F6
:1052E000FFF793FA53203146FFF7F0FA18B1204642
:1052F0002946FFF76BFA6FF0010070BD6FF00300F5
:1053000070BD4FF0FF3070BD0020C4E90350E86A63
:105310000028606100D00461EC620120207600204A
:1053200070BDFF2801D00130F8E76FF0020070BDBA
:105330001000002010B5002852D004460078F5284F
:105340004ED1207EF0B3D4F814C0E068BCF1000F59
:105350001CBF2269CCF8102000F12C0321691A46E9
:10536000002918BF01F11402C2F800C0E1788907D2
:1053700022D590F821C00BE093683BB193F920301F
:105380004FFA8CF18B42C8BF5FFA83FC02F1140321
:105390001A68002AF0D190F8201061450CD080F8EE
:1053A00020C0FFF732FA07E02046FFF705FA6FF05A
:1053B00002010022FFF7A8FAA0680028F4D100201B
:1053C000FFF7A4F900202070A178C90708BF10BD1D
:1053D000A649D1F8940030B12146FEF7BFFF07E09F
:1053E0006FF0030010BDD1F880002146FEF755FF95
:1053F000002010BD1000002070B558B1D0E9006544
:10540000846884B1A10711D1C16800201C2938BF6C
:1054100070BD16E0002500269449D1F8940038B1FB
:10542000FEF77FFF0AE0C0680028F5D0002070BDBD
:10543000D1F880001C210122FEF7EFFE044658B18E
:1054400001206660E570A070F5201121207004F144
:105450000800FBF774F800E00024204670BD00BF90
:105460001000002070B50446F348406970B154B193
:105470002178F52907D1217E11B1E268824209D055
:105480006FF0020404E06FF0030401E04FF0FF341A
:10549000204670BD01392176090601D00024F7E7C6
:1054A000616909B122690A6100F12C0523692A4664
:1054B000002B18BF03F114021160E178890711D5A0
:1054C00090F8211009E093682BB193F920304DB288
:1054D000AB42C8BF194602F114052A68002AF2D16E
:1054E00080F82010A06890B12046FFF765F90021F0
:1054F000002205460026FFF707FAC4E90356E86ACA
:105500000028606100D004610120EC622076002058
:105510000024FFF7FBF8BBE71000002070B5C64D74
:10552000287A02282ED1686A002808BF70BD6C69ED
:10553000E06AFEF7B8FFA06918B100210022FFF76A
:10554000E3F9EFF30980A063686A81680029696262
:1055500002D005F11C02CA600026C660FFF7B0F950
:105560006E61E078C00704D12046BDE87040FFF7C7
:10557000F9B80420E6606070686B0028A06000D075
:10558000C4606C6370BD00BF0146AB48406968B140
:1055900000290EDB10B500F1280252E8000F20EAC6
:1055A000010342E8003404B1F7E710BD4FF0FF30CB
:1055B00070476FF00300704710000020B0B56FF027
:1055C000030460B300292ADB05460078F12826D1C0
:1055D0006878042802D16FF0020420E005F1280069
:1055E00050E8002F42EA010440E8004303B1F7E726
:1055F0006878332813D195F82320696A2846FEF786
:1056000031FB60B1014695F8230001220C4680076A
:105610005CBF686A21EA00042846FFF775F9204656
:10562000B0BD0000F8B5054683484769A7B1002D15
:1056300015DB0E461446384629463246FEF712FB65
:1056400090B97CB13320214687F823607D62FFF753
:105650003DF96FF0010007E04FF0FF3004E06FF01C
:10566000030001E06FF0020001B0F0BD1000002067
:105670002DE9FE4F10B380466AB102F1100A9AE894
:105680008006D2E900439668B6B1B00716D1D0685B
:10569000442813D317E04FF0180A002300274FF0D7
:1056A00000090024644A0293D2F88800CDE900146E
:1056B000C8B1FEF736FE1CE0D06820B100252846B0
:1056C00003B0BDE8F08F37B10025B9F1000FF6D077
:1056D00017F00700F3D1BAF1000F38D0AAF101009A
:1056E0003728EBD835E0D2F8800044210122FEF7BC
:1056F00094FD06464FF0010B67B95EB1B9F1000F9A
:105700000AD04D4849460022406FFEF786FD98B109
:1057100007460FE035463EE047484849D0F8840048
:10572000D1F854900028ECD0FEF7FBFD20B10746DD
:105730000BF1100B35462CE0BBF1000F1CD03E499D
:10574000D1F88800E0B13146FEF708FE1DE04FF0C9
:10575000180AB9F1000F06D00025B9F1480FAED3F1
:1057600019F00700ABD1002E3FF49CAFCDE9001437
:1057700002934FF0000BBFE74FF0000B002707E04C
:10578000D1F880003146FEF788FD00274FF0010B6D
:1057900000254BF0020B002D3FF491AF019818212A
:1057A00068600298E87040F2F11085F802B0288035
:1057B00005F10800FAF7C3FE07EB0900C5E90C790B
:1057C000FD214038C5E90E08002085F82F00C5F8F6
:1057D0002B00C5F82700C5F8230085F822101849CA
:1057E00085F821A085F820A0009E3960134909782A
:1057F00049070AD511213A1D4FF0CC33A1EB99018D
:1058000001E008C201310029FBD1A96B002202E0AE
:1058100041F8220001320D2AFAD10A4A4FF0807075
:105820000E62C1E90D28C86303480749016628468E
:10583000FEF76CFF43E700BF10000020B4580008DB
:10584000A52E5AE2414A00083348000810B568B155
:105850004A1E6FF00304372A0AD80278F12A07D1CA
:105860004278042A06D16FF0020401E06FF00304CD
:10587000204610BD90F920204BB2934201D1002464
:10588000F6E780F8211080F82010FEF7BEFF002018
:105890000024FEF73BFFEBE7F1EE100A4FF6FF7135
:1058A000C0F2C03120EA010040F04070E1EE100A81
:1058B0007047000001000000A08601000A000000FF
:1058C0003809002010000000000000000000000067
:1058D00000000000000000000000000000000000C8
:1058E0007809002050C30000000000000000000004
:1058F00000000000000000000000000000000000A8
:1059000000000000000000000004000070590008C2
:10591000AC59000894590008040000004CCD002048
:10592000D4CD0020000000000000000000000000B6
:105930000000000000000000000000000000000067
:10594000000000000000000000000000C8CC0020A3
:10595000FCCC002000000000000000000102030455
:10596000060708090000000001020304000000000F
:1059700000000000000000004CCD002044000000AA
:10598000D8CD002000010000010000000000000050
:10599000000000000000000000000000C8CC002053
:1059A00034000000FCCC002050000000000000008B
:1059B0000000000090CD002044000000D8CE002060
:1059C00000010000280000000000000000000000AE
:1059D0005254582056352E352E310000FC590008FF
:1059E00000000020B4000000C4010008B05A000804
:1059F000B800002028D50000E001000801000000E8
:105A000010000000050000000024F400D059000838
:105A1000D1B3FB0200000000000000000000000005
:105A20000000000000000000000000000000000076
:105A30000000000000000000000000000000000066
:105A40000000000000000000000000000000000056
:105A50000000000000000000000000000000000046
:105A60000000000000000000000000000000000036
:105A70000000000000000000000000000000000026
:105A80000000000000000000000000000000000016
:105A90000000000000000000000000000000000006
:105AA00000000000000000000000000000000000F6
:0400000508000231BC
:00000001FF
